{
  "contractName": "BlockRegistry",
  "abi": [
    {
      "constant": true,
      "inputs": [],
      "name": "sblockTimeStep",
      "outputs": [
        {
          "name": "",
          "type": "uint256"
        }
      ],
      "payable": false,
      "stateMutability": "view",
      "type": "function",
      "signature": "0x17ca3256"
    },
    {
      "constant": true,
      "inputs": [
        {
          "name": "",
          "type": "uint256"
        }
      ],
      "name": "validators",
      "outputs": [
        {
          "name": "",
          "type": "address"
        }
      ],
      "payable": false,
      "stateMutability": "view",
      "type": "function",
      "signature": "0x35aa2e44"
    },
    {
      "constant": true,
      "inputs": [
        {
          "name": "",
          "type": "uint256"
        }
      ],
      "name": "managers",
      "outputs": [
        {
          "name": "",
          "type": "address"
        }
      ],
      "payable": false,
      "stateMutability": "view",
      "type": "function",
      "signature": "0x3d39c260"
    },
    {
      "constant": true,
      "inputs": [],
      "name": "prevTimeStamp",
      "outputs": [
        {
          "name": "",
          "type": "uint256"
        }
      ],
      "payable": false,
      "stateMutability": "view",
      "type": "function",
      "signature": "0x7cb6e65f"
    },
    {
      "constant": true,
      "inputs": [],
      "name": "period_all",
      "outputs": [
        {
          "name": "",
          "type": "uint256"
        }
      ],
      "payable": false,
      "stateMutability": "view",
      "type": "function",
      "signature": "0xa4dd1d7d"
    },
    {
      "constant": true,
      "inputs": [],
      "name": "initHeight",
      "outputs": [
        {
          "name": "",
          "type": "uint256"
        }
      ],
      "payable": false,
      "stateMutability": "view",
      "type": "function",
      "signature": "0xa78eacdb"
    },
    {
      "constant": true,
      "inputs": [],
      "name": "sblockNo",
      "outputs": [
        {
          "name": "",
          "type": "uint256"
        }
      ],
      "payable": false,
      "stateMutability": "view",
      "type": "function",
      "signature": "0xca0ebb56"
    },
    {
      "constant": true,
      "inputs": [
        {
          "name": "",
          "type": "uint256"
        }
      ],
      "name": "blockHistory",
      "outputs": [
        {
          "name": "blockHeight",
          "type": "uint256"
        },
        {
          "name": "merkleRoot",
          "type": "bytes32"
        },
        {
          "name": "ipfsAddr",
          "type": "string"
        }
      ],
      "payable": false,
      "stateMutability": "view",
      "type": "function",
      "signature": "0xde250ace"
    },
    {
      "inputs": [],
      "payable": false,
      "stateMutability": "nonpayable",
      "type": "constructor",
      "signature": "constructor"
    },
    {
      "constant": false,
      "inputs": [
        {
          "name": "_initHeight",
          "type": "uint256"
        },
        {
          "name": "_merkleRoot",
          "type": "bytes32"
        },
        {
          "name": "_ipfsAddr",
          "type": "string"
        }
      ],
      "name": "submitMerkleRoot",
      "outputs": [
        {
          "name": "",
          "type": "bool"
        }
      ],
      "payable": false,
      "stateMutability": "nonpayable",
      "type": "function",
      "signature": "0xb04cd588"
    },
    {
      "constant": true,
      "inputs": [],
      "name": "getSblockNo",
      "outputs": [
        {
          "name": "",
          "type": "uint256"
        }
      ],
      "payable": false,
      "stateMutability": "view",
      "type": "function",
      "signature": "0xfa7402c9"
    },
    {
      "constant": true,
      "inputs": [
        {
          "name": "_sblockNo",
          "type": "uint256"
        }
      ],
      "name": "getBlockInfo",
      "outputs": [
        {
          "name": "",
          "type": "uint256"
        },
        {
          "name": "",
          "type": "bytes32"
        },
        {
          "name": "",
          "type": "string"
        }
      ],
      "payable": false,
      "stateMutability": "view",
      "type": "function",
      "signature": "0xbb141cf4"
    }
  ],
  "bytecode": "0x608060405261038460175534801561001657600080fd5b506040805160808101825273b440ea2780614b3c6a00e512f432785e7dfafa3e8152734ad56641c569c91c64c28a904cda50ae5326da41602082015273af7400787c54422be8b44154b1273661f1259ccd9181019190915260006060820181905261008291600461015a565b50604080516102008101825273b440ea2780614b3c6a00e512f432785e7dfafa3e8152734ad56641c569c91c64c28a904cda50ae5326da41602082015273af7400787c54422be8b44154b1273661f1259ccd918101919091526000606082018190526080820181905260a0820181905260c0820181905260e08201819052610100820181905261012082018190526101408201819052610160820181905261018082018190526101a082018190526101c082018190526101e082015261014c9060049060106101b2565b506017544203601655610220565b82600481019282156101a2579160200282015b828111156101a25782518254600160a060020a031916600160a060020a0390911617825560209092019160019091019061016d565b506101ae9291506101f9565b5090565b82601081019282156101a257916020028201828111156101a25782518254600160a060020a031916600160a060020a0390911617825560209092019160019091019061016d565b61021d91905b808211156101ae578054600160a060020a03191681556001016101ff565b90565b6107c28061022f6000396000f3fe608060405234801561001057600080fd5b50600436106100c6576000357c010000000000000000000000000000000000000000000000000000000090048063a78eacdb1161008e578063a78eacdb1461014b578063b04cd58814610153578063bb141cf414610219578063ca0ebb56146102bc578063de250ace146102c4578063fa7402c9146102e1576100c6565b806317ca3256146100cb57806335aa2e44146100e55780633d39c2601461011e5780637cb6e65f1461013b578063a4dd1d7d14610143575b600080fd5b6100d36102e9565b60408051918252519081900360200190f35b610102600480360360208110156100fb57600080fd5b50356102ef565b60408051600160a060020a039092168252519081900360200190f35b6101026004803603602081101561013457600080fd5b503561030c565b6100d3610319565b6100d361031f565b6100d3610324565b6102056004803603606081101561016957600080fd5b81359160208101359181019060608101604082013564010000000081111561019057600080fd5b8201836020820111156101a257600080fd5b803590602001918460018302840111640100000000831117156101c457600080fd5b91908080601f01602080910402602001604051908101604052809392919081815260200183838082843760009201919091525092955061032a945050505050565b604080519115158252519081900360200190f35b6102366004803603602081101561022f57600080fd5b503561056d565b6040518084815260200183815260200180602001828103825283818151815260200191508051906020019080838360005b8381101561027f578181015183820152602001610267565b50505050905090810190601f1680156102ac5780820380516001836020036101000a031916815260200191505b5094505050505060405180910390f35b6100d3610626565b610236600480360360208110156102da57600080fd5b503561062c565b6100d36106d5565b60175481565b600481601081106102fc57fe5b0154600160a060020a0316905081565b600081600481106102fc57fe5b60165481565b601481565b60145481565b60006004810154600160a060020a03163314806103545750600460010154600160a060020a031633145b8061036c5750600460020154600160a060020a031633145b806103845750600460030154600160a060020a031633145b8061039b57506004800154600160a060020a031633145b806103b35750600460050154600160a060020a031633145b806103cb5750600460060154600160a060020a031633145b806103e35750600460070154600160a060020a031633145b806103fb5750600460080154600160a060020a031633145b806104135750600460090154600160a060020a031633145b8061042b57506004600a0154600160a060020a031633145b8061044357506004600b0154600160a060020a031633145b8061045b57506004600c0154600160a060020a031633145b8061047357506004600d0154600160a060020a031633145b8061048b57506004600e0154600160a060020a031633145b806104a357506004600f0154600160a060020a031633145b15156104ae57600080fd5b60165460780142101561050c576040517f08c379a00000000000000000000000000000000000000000000000000000000081526004018080602001828103825260228152602001806107756022913960400191505060405180910390fd5b6040805160608101825285815260208082018681528284018681526000898152601884529490942083518155905160018201559251805192939261055692600285019201906106dc565b505060158054600190810190915595945050505050565b600081815260186020908152604080832080546001808301546002938401805486519381161561010002600019011694909404601f810187900487028301870190955284825286956060959394919391929183918301828280156106125780601f106105e757610100808354040283529160200191610612565b820191906000526020600020905b8154815290600101906020018083116105f557829003601f168201915b505050505090509250925092509193909250565b60155481565b60186020908152600091825260409182902080546001808301546002808501805488519481161561010002600019011691909104601f8101879004870284018701909752868352929590949192918301828280156106cb5780601f106106a0576101008083540402835291602001916106cb565b820191906000526020600020905b8154815290600101906020018083116106ae57829003601f168201915b5050505050905083565b6015545b90565b828054600181600116156101000203166002900490600052602060002090601f016020900481019282601f1061071d57805160ff191683800117855561074a565b8280016001018555821561074a579182015b8281111561074a57825182559160200191906001019061072f565b5061075692915061075a565b5090565b6106d991905b80821115610756576000815560010161076056fe74696d652073746570206265747765656e20626c6f636b7320746f6f2073686f7274a165627a7a723058204634615d78b7c0d66b152846149a661336037b1a7a8348e77634b51d54c63c160029",
  "source": "pragma solidity ^0.5.2;\nimport \"./SafeMath.sol\";\n\n\ncontract BlockRegistry{\n    using SafeMath for uint256;\n\n    // Variables\n    address[4] public managers;\n    address[16] public validators;\n    uint constant public period_all = 20;\n    uint public initHeight;\n    uint public sblockNo;\n    uint public prevTimeStamp;\n    uint public sblockTimeStep = 15 minutes;  // better way to define?\n\n    struct blockStat{\n        uint blockHeight;\n        bytes32 merkleRoot;\n        string ipfsAddr;\n        // uint timestamp;\n    }\n\n    mapping (uint => blockStat) public blockHistory;\n    // ex:\n    // function newBlock(bytes32 merkleRoot, bytes32 ipfsAddr) external validatorOnly {\n    //      blockHistory[sblockNo] = blockStat(block.number, merkleRoot, ipfsAddr)\n    // }\n\n\n    constructor() public {\n        // always INITIALIZE ARRAY VALUES!!!\n        managers = [ 0xB440ea2780614b3c6a00e512f432785E7dfAFA3E,\n            0x4AD56641C569C91C64C28a904cda50AE5326Da41,\n            0xaF7400787c54422Be8B44154B1273661f1259CcD,\n            address(0)];\n        validators = [ 0xB440ea2780614b3c6a00e512f432785E7dfAFA3E,\n            0x4AD56641C569C91C64C28a904cda50AE5326Da41,\n            0xaF7400787c54422Be8B44154B1273661f1259CcD,\n            address(0), address(0), address(0), address(0), address(0),\n            address(0), address(0), address(0), address(0), address(0),\n            address(0), address(0), address(0)];\n        prevTimeStamp = block.timestamp - sblockTimeStep;\n    }\n\n    // Modifiers\n    modifier managerOnly() {\n        require(msg.sender == managers[0] || msg.sender == managers[1] || msg.sender == managers[2] || msg.sender == managers[3]);\n        _;\n    }\n\n    modifier validatorOnly() {\n        require(msg.sender == validators[0] || msg.sender == validators[1] || msg.sender == validators[2] || \n                msg.sender == validators[3] || msg.sender == validators[4] || msg.sender == validators[5] || \n                msg.sender == validators[6] || msg.sender == validators[7] || msg.sender == validators[8] || \n                msg.sender == validators[9] || msg.sender == validators[10] || msg.sender == validators[11] || \n                msg.sender == validators[12] || msg.sender == validators[13] || msg.sender == validators[14] ||\n                msg.sender == validators[15]);\n        _;\n    }\n\n    function submitMerkleRoot(uint _initHeight, bytes32 _merkleRoot, string memory _ipfsAddr) public validatorOnly returns (bool) {\n        // require(block.timestamp >= prevTimeStamp + sblockTimeStep, 'too soon');\n        require(block.timestamp >= prevTimeStamp + 2 minutes, 'time step between blocks too short');  // for test purpose\n        // uncomment following for debug purpose\n        // require(block.number >= _initHeight + period_all && block.number <= _initHeight + period_all + 4);\n        // require(blockHistory[_initHeight].blockHeight == 0 &&\n        //         blockHistory[_initHeight].merkleRoot == 0x0 &&\n        //         keccak256(abi.encodePacked(blockHistory[_initHeight].ipfsAddr)) == keccak256(abi.encodePacked('')),\n        //         'side-block exists');\n        blockHistory[_initHeight] = blockStat(_initHeight, _merkleRoot, _ipfsAddr);\n        sblockNo += 1;\n        return true;\n    }\n\n    // query\n    function getSblockNo() external view returns (uint) {\n        return sblockNo;\n    }\n\n    function getBlockInfo(uint _sblockNo) external view returns (uint, bytes32, string memory) {\n        return (blockHistory[_sblockNo].blockHeight, blockHistory[_sblockNo].merkleRoot, blockHistory[_sblockNo].ipfsAddr);\n    }\n\n}\n",
  "sourcePath": "/home/kai/Work/project/Optract/contracts/BlockRegistry.sol",
  "compiler": {
    "name": "solc",
    "version": "0.5.2+commit.1df8f40c.Linux.g++"
  },
  "schemaVersion": "3.0.1",
  "updatedAt": "2019-03-13T13:55:18.844Z",
  "devdoc": {
    "methods": {}
  },
  "userdoc": {
    "methods": {}
  }
}