{
  "contractName": "BlockRegistry",
  "abi": [
    {
      "constant": true,
      "inputs": [],
      "name": "sblockTimeStep",
      "outputs": [
        {
          "name": "",
          "type": "uint256"
        }
      ],
      "payable": false,
      "stateMutability": "view",
      "type": "function",
      "signature": "0x17ca3256"
    },
    {
      "constant": true,
      "inputs": [
        {
          "name": "",
          "type": "uint256"
        }
      ],
      "name": "validators",
      "outputs": [
        {
          "name": "",
          "type": "address"
        }
      ],
      "payable": false,
      "stateMutability": "view",
      "type": "function",
      "signature": "0x35aa2e44"
    },
    {
      "constant": true,
      "inputs": [
        {
          "name": "",
          "type": "uint256"
        }
      ],
      "name": "managers",
      "outputs": [
        {
          "name": "",
          "type": "address"
        }
      ],
      "payable": false,
      "stateMutability": "view",
      "type": "function",
      "signature": "0x3d39c260"
    },
    {
      "constant": true,
      "inputs": [],
      "name": "prevTimeStamp",
      "outputs": [
        {
          "name": "",
          "type": "uint256"
        }
      ],
      "payable": false,
      "stateMutability": "view",
      "type": "function",
      "signature": "0x7cb6e65f"
    },
    {
      "constant": true,
      "inputs": [],
      "name": "period_all",
      "outputs": [
        {
          "name": "",
          "type": "uint256"
        }
      ],
      "payable": false,
      "stateMutability": "view",
      "type": "function",
      "signature": "0xa4dd1d7d"
    },
    {
      "constant": true,
      "inputs": [],
      "name": "initHeight",
      "outputs": [
        {
          "name": "",
          "type": "uint256"
        }
      ],
      "payable": false,
      "stateMutability": "view",
      "type": "function",
      "signature": "0xa78eacdb"
    },
    {
      "constant": true,
      "inputs": [],
      "name": "sblockNo",
      "outputs": [
        {
          "name": "",
          "type": "uint256"
        }
      ],
      "payable": false,
      "stateMutability": "view",
      "type": "function",
      "signature": "0xca0ebb56"
    },
    {
      "constant": true,
      "inputs": [
        {
          "name": "",
          "type": "uint256"
        }
      ],
      "name": "blockHistory",
      "outputs": [
        {
          "name": "blockHeight",
          "type": "uint256"
        },
        {
          "name": "merkleRoot",
          "type": "bytes32"
        },
        {
          "name": "ipfsAddr",
          "type": "string"
        }
      ],
      "payable": false,
      "stateMutability": "view",
      "type": "function",
      "signature": "0xde250ace"
    },
    {
      "inputs": [],
      "payable": false,
      "stateMutability": "nonpayable",
      "type": "constructor",
      "signature": "constructor"
    },
    {
      "constant": false,
      "inputs": [
        {
          "name": "_initHeight",
          "type": "uint256"
        },
        {
          "name": "_merkleRoot",
          "type": "bytes32"
        },
        {
          "name": "_ipfsAddr",
          "type": "string"
        }
      ],
      "name": "submitMerkleRoot",
      "outputs": [
        {
          "name": "",
          "type": "bool"
        }
      ],
      "payable": false,
      "stateMutability": "nonpayable",
      "type": "function",
      "signature": "0xb04cd588"
    },
    {
      "constant": true,
      "inputs": [],
      "name": "getSblockNo",
      "outputs": [
        {
          "name": "",
          "type": "uint256"
        }
      ],
      "payable": false,
      "stateMutability": "view",
      "type": "function",
      "signature": "0xfa7402c9"
    }
  ],
  "bytecode": "0x608060405261038460175534801561001657600080fd5b506040805160808101825273b440ea2780614b3c6a00e512f432785e7dfafa3e8152734ad56641c569c91c64c28a904cda50ae5326da41602082015273af7400787c54422be8b44154b1273661f1259ccd9181019190915260006060820181905261008291600461015a565b50604080516102008101825273b440ea2780614b3c6a00e512f432785e7dfafa3e8152734ad56641c569c91c64c28a904cda50ae5326da41602082015273af7400787c54422be8b44154b1273661f1259ccd918101919091526000606082018190526080820181905260a0820181905260c0820181905260e08201819052610100820181905261012082018190526101408201819052610160820181905261018082018190526101a082018190526101c082018190526101e082015261014c9060049060106101b2565b506017544203601655610220565b82600481019282156101a2579160200282015b828111156101a25782518254600160a060020a031916600160a060020a0390911617825560209092019160019091019061016d565b506101ae9291506101f9565b5090565b82601081019282156101a257916020028201828111156101a25782518254600160a060020a031916600160a060020a0390911617825560209092019160019091019061016d565b61021d91905b808211156101ae578054600160a060020a03191681556001016101ff565b90565b6106528061022f6000396000f3fe608060405234801561001057600080fd5b50600436106100bb576000357c010000000000000000000000000000000000000000000000000000000090048063a78eacdb11610083578063a78eacdb14610140578063b04cd58814610148578063ca0ebb561461020e578063de250ace14610216578063fa7402c9146102b9576100bb565b806317ca3256146100c057806335aa2e44146100da5780633d39c260146101135780637cb6e65f14610130578063a4dd1d7d14610138575b600080fd5b6100c86102c1565b60408051918252519081900360200190f35b6100f7600480360360208110156100f057600080fd5b50356102c7565b60408051600160a060020a039092168252519081900360200190f35b6100f76004803603602081101561012957600080fd5b50356102e4565b6100c86102f1565b6100c86102f7565b6100c86102fc565b6101fa6004803603606081101561015e57600080fd5b81359160208101359181019060608101604082013564010000000081111561018557600080fd5b82018360208201111561019757600080fd5b803590602001918460018302840111640100000000831117156101b957600080fd5b91908080601f016020809104026020016040519081016040528093929190818152602001838380828437600092019190915250929550610302945050505050565b604080519115158252519081900360200190f35b6100c86104d8565b6102336004803603602081101561022c57600080fd5b50356104de565b6040518084815260200183815260200180602001828103825283818151815260200191508051906020019080838360005b8381101561027c578181015183820152602001610264565b50505050905090810190601f1680156102a95780820380516001836020036101000a031916815260200191505b5094505050505060405180910390f35b6100c8610587565b60175481565b600481601081106102d457fe5b0154600160a060020a0316905081565b600081600481106102d457fe5b60165481565b601481565b60145481565b60006004810154600160a060020a031633148061032c5750600460010154600160a060020a031633145b806103445750600460020154600160a060020a031633145b8061035c5750600460030154600160a060020a031633145b8061037357506004800154600160a060020a031633145b8061038b5750600460050154600160a060020a031633145b806103a35750600460060154600160a060020a031633145b806103bb5750600460070154600160a060020a031633145b806103d35750600460080154600160a060020a031633145b806103eb5750600460090154600160a060020a031633145b8061040357506004600a0154600160a060020a031633145b8061041b57506004600b0154600160a060020a031633145b8061043357506004600c0154600160a060020a031633145b8061044b57506004600d0154600160a060020a031633145b8061046357506004600e0154600160a060020a031633145b151561046e57600080fd5b6017546016540142101561048157600080fd5b604080516060810182528581526020808201868152828401868152600089815260188452949094208351815590516001820155925180519293926104cb926002850192019061058e565b5060019695505050505050565b60155481565b60186020908152600091825260409182902080546001808301546002808501805488519481161561010002600019011691909104601f81018790048702840187019097528683529295909491929183018282801561057d5780601f106105525761010080835404028352916020019161057d565b820191906000526020600020905b81548152906001019060200180831161056057829003601f168201915b5050505050905083565b6015545b90565b828054600181600116156101000203166002900490600052602060002090601f016020900481019282601f106105cf57805160ff19168380011785556105fc565b828001600101855582156105fc579182015b828111156105fc5782518255916020019190600101906105e1565b5061060892915061060c565b5090565b61058b91905b80821115610608576000815560010161061256fea165627a7a7230582000b00b263c6f60f03ee07c3e1835044485fe736d9d6600c3185c00d9cdd1742e0029",
  "source": "pragma solidity ^0.5.2;\nimport \"./SafeMath.sol\";\n\n\ncontract BlockRegistry{\n    using SafeMath for uint256;\n\n    // Variables\n    address[4] public managers;\n    address[16] public validators;\n    uint constant public period_all = 20;\n    uint public initHeight;\n    uint public sblockNo;\n    uint public prevTimeStamp;\n    uint public sblockTimeStep = 15 minutes;  // better way to define?\n\n    struct blockStat{\n        uint blockHeight;\n        bytes32 merkleRoot;\n        string ipfsAddr;\n        // uint timestamp;\n    }\n\n    mapping (uint => blockStat) public blockHistory;\n    // ex:\n    // function newBlock(bytes32 merkleRoot, bytes32 ipfsAddr) external validatorOnly {\n    //      blockHistory[sblockNo] = blockStat(block.number, merkleRoot, ipfsAddr)\n    // }\n\n\n    constructor() public {\n        // always INITIALIZE ARRAY VALUES!!!\n        managers = [ 0xB440ea2780614b3c6a00e512f432785E7dfAFA3E,\n            0x4AD56641C569C91C64C28a904cda50AE5326Da41,\n            0xaF7400787c54422Be8B44154B1273661f1259CcD,\n            address(0)];\n        validators = [ 0xB440ea2780614b3c6a00e512f432785E7dfAFA3E,\n            0x4AD56641C569C91C64C28a904cda50AE5326Da41,\n            0xaF7400787c54422Be8B44154B1273661f1259CcD,\n            address(0), address(0), address(0), address(0), address(0),\n            address(0), address(0), address(0), address(0), address(0),\n            address(0), address(0), address(0)];\n        prevTimeStamp = block.timestamp - sblockTimeStep;\n    }\n\n    // Modifiers\n    modifier managerOnly() {\n        require(msg.sender == managers[0] || msg.sender == managers[1] || msg.sender == managers[2] || msg.sender == managers[3]);\n        _;\n    }\n\n    modifier validatorOnly() {\n        require(msg.sender == validators[0] || msg.sender == validators[1] || msg.sender == validators[2] || \n                msg.sender == validators[3] || msg.sender == validators[4] || msg.sender == validators[5] || \n                msg.sender == validators[6] || msg.sender == validators[7] || msg.sender == validators[8] || \n                msg.sender == validators[9] || msg.sender == validators[10] || msg.sender == validators[11] || \n                msg.sender == validators[12] || msg.sender == validators[13] || msg.sender == validators[14]);\n        _;\n    }\n\n    function submitMerkleRoot(uint _initHeight, bytes32 _merkleRoot, string memory _ipfsAddr) public validatorOnly returns (bool) {\n        // require(block.number >= _initHeight + period_all && block.number <= _initHeight + period_all + 4);\n        require(block.timestamp >= prevTimeStamp + sblockTimeStep);\n        blockHistory[_initHeight] = blockStat(_initHeight, _merkleRoot, _ipfsAddr);\n        return true;\n    }\n\n    // query\n    function getSblockNo() external view returns (uint) {\n        return sblockNo;\n    }\n\n}\n",
  "sourcePath": "/home/kai/Work/project/Optract/contracts/BlockRegistry.sol",
  "compiler": {
    "name": "solc",
    "version": "0.5.2+commit.1df8f40c.Linux.g++"
  },
  "schemaVersion": "3.0.1",
  "updatedAt": "2019-03-11T08:00:28.535Z",
  "devdoc": {
    "methods": {}
  },
  "userdoc": {
    "methods": {}
  }
}