{
  "contractName": "BlockRegistry",
  "abi": [
    {
      "constant": true,
      "inputs": [],
      "name": "sblockTimeStep",
      "outputs": [
        {
          "name": "",
          "type": "uint256"
        }
      ],
      "payable": false,
      "stateMutability": "view",
      "type": "function",
      "signature": "0x17ca3256"
    },
    {
      "constant": true,
      "inputs": [
        {
          "name": "",
          "type": "uint256"
        }
      ],
      "name": "validators",
      "outputs": [
        {
          "name": "",
          "type": "address"
        }
      ],
      "payable": false,
      "stateMutability": "view",
      "type": "function",
      "signature": "0x35aa2e44"
    },
    {
      "constant": true,
      "inputs": [
        {
          "name": "",
          "type": "uint256"
        }
      ],
      "name": "managers",
      "outputs": [
        {
          "name": "",
          "type": "address"
        }
      ],
      "payable": false,
      "stateMutability": "view",
      "type": "function",
      "signature": "0x3d39c260"
    },
    {
      "constant": true,
      "inputs": [],
      "name": "prevTimeStamp",
      "outputs": [
        {
          "name": "",
          "type": "uint256"
        }
      ],
      "payable": false,
      "stateMutability": "view",
      "type": "function",
      "signature": "0x7cb6e65f"
    },
    {
      "constant": true,
      "inputs": [],
      "name": "period_all",
      "outputs": [
        {
          "name": "",
          "type": "uint256"
        }
      ],
      "payable": false,
      "stateMutability": "view",
      "type": "function",
      "signature": "0xa4dd1d7d"
    },
    {
      "constant": true,
      "inputs": [],
      "name": "initHeight",
      "outputs": [
        {
          "name": "",
          "type": "uint256"
        }
      ],
      "payable": false,
      "stateMutability": "view",
      "type": "function",
      "signature": "0xa78eacdb"
    },
    {
      "constant": true,
      "inputs": [],
      "name": "sblockNo",
      "outputs": [
        {
          "name": "",
          "type": "uint256"
        }
      ],
      "payable": false,
      "stateMutability": "view",
      "type": "function",
      "signature": "0xca0ebb56"
    },
    {
      "constant": true,
      "inputs": [
        {
          "name": "",
          "type": "uint256"
        }
      ],
      "name": "blockHistory",
      "outputs": [
        {
          "name": "blockHeight",
          "type": "uint256"
        },
        {
          "name": "merkleRoot",
          "type": "bytes32"
        },
        {
          "name": "ipfsAddr",
          "type": "string"
        }
      ],
      "payable": false,
      "stateMutability": "view",
      "type": "function",
      "signature": "0xde250ace"
    },
    {
      "inputs": [],
      "payable": false,
      "stateMutability": "nonpayable",
      "type": "constructor",
      "signature": "constructor"
    },
    {
      "constant": false,
      "inputs": [
        {
          "name": "_initHeight",
          "type": "uint256"
        },
        {
          "name": "_merkleRoot",
          "type": "bytes32"
        },
        {
          "name": "_ipfsAddr",
          "type": "string"
        }
      ],
      "name": "submitMerkleRoot",
      "outputs": [
        {
          "name": "",
          "type": "bool"
        }
      ],
      "payable": false,
      "stateMutability": "nonpayable",
      "type": "function",
      "signature": "0xb04cd588"
    },
    {
      "constant": true,
      "inputs": [
        {
          "name": "proof",
          "type": "bytes32[]"
        },
        {
          "name": "isLeft",
          "type": "bool[]"
        },
        {
          "name": "targetLeaf",
          "type": "bytes32"
        },
        {
          "name": "_merkleRoot",
          "type": "bytes32"
        }
      ],
      "name": "merkleTreeValidator",
      "outputs": [
        {
          "name": "",
          "type": "bool"
        }
      ],
      "payable": false,
      "stateMutability": "pure",
      "type": "function",
      "signature": "0xb8f69e37"
    },
    {
      "constant": true,
      "inputs": [],
      "name": "getSblockNo",
      "outputs": [
        {
          "name": "",
          "type": "uint256"
        }
      ],
      "payable": false,
      "stateMutability": "view",
      "type": "function",
      "signature": "0xfa7402c9"
    },
    {
      "constant": true,
      "inputs": [
        {
          "name": "_sblockNo",
          "type": "uint256"
        }
      ],
      "name": "getBlockInfo",
      "outputs": [
        {
          "name": "",
          "type": "uint256"
        },
        {
          "name": "",
          "type": "bytes32"
        },
        {
          "name": "",
          "type": "string"
        }
      ],
      "payable": false,
      "stateMutability": "view",
      "type": "function",
      "signature": "0xbb141cf4"
    },
    {
      "constant": true,
      "inputs": [
        {
          "name": "_idx",
          "type": "uint256"
        }
      ],
      "name": "queryValidator",
      "outputs": [
        {
          "name": "",
          "type": "address"
        }
      ],
      "payable": false,
      "stateMutability": "view",
      "type": "function",
      "signature": "0x810e0b20"
    },
    {
      "constant": true,
      "inputs": [],
      "name": "queryManagers",
      "outputs": [
        {
          "name": "",
          "type": "address[4]"
        }
      ],
      "payable": false,
      "stateMutability": "view",
      "type": "function",
      "signature": "0xca48c69d"
    },
    {
      "constant": false,
      "inputs": [
        {
          "name": "_newValidator",
          "type": "address"
        },
        {
          "name": "_idx",
          "type": "uint256"
        }
      ],
      "name": "setValidator",
      "outputs": [
        {
          "name": "",
          "type": "bool"
        }
      ],
      "payable": false,
      "stateMutability": "nonpayable",
      "type": "function",
      "signature": "0xabb9406b"
    },
    {
      "constant": false,
      "inputs": [
        {
          "name": "_newManager",
          "type": "address"
        }
      ],
      "name": "setManager",
      "outputs": [
        {
          "name": "",
          "type": "bool"
        }
      ],
      "payable": false,
      "stateMutability": "nonpayable",
      "type": "function",
      "signature": "0xd0ebdbe7"
    }
  ],
  "bytecode": "0x608060405261038460175534801561001657600080fd5b506040805160808101825273b440ea2780614b3c6a00e512f432785e7dfafa3e8152734ad56641c569c91c64c28a904cda50ae5326da41602082015273af7400787c54422be8b44154b1273661f1259ccd9181019190915260006060820181905261008291600461015a565b50604080516102008101825273b440ea2780614b3c6a00e512f432785e7dfafa3e8152734ad56641c569c91c64c28a904cda50ae5326da41602082015273af7400787c54422be8b44154b1273661f1259ccd918101919091526000606082018190526080820181905260a0820181905260c0820181905260e08201819052610100820181905261012082018190526101408201819052610160820181905261018082018190526101a082018190526101c082018190526101e082015261014c9060049060106101b2565b506017544203601655610220565b82600481019282156101a2579160200282015b828111156101a25782518254600160a060020a031916600160a060020a0390911617825560209092019160019091019061016d565b506101ae9291506101f9565b5090565b82601081019282156101a257916020028201828111156101a25782518254600160a060020a031916600160a060020a0390911617825560209092019160019091019061016d565b61021d91905b808211156101ae578054600160a060020a03191681556001016101ff565b90565b610ccb8061022f6000396000f3fe608060405234801561001057600080fd5b506004361061011d576000357c010000000000000000000000000000000000000000000000000000000090048063b04cd588116100b4578063ca48c69d11610083578063ca48c69d1461042c578063d0ebdbe71461046c578063de250ace14610492578063fa7402c9146104af5761011d565b8063b04cd58814610207578063b8f69e37146102b9578063bb141cf414610381578063ca0ebb56146104245761011d565b8063810e0b20116100f0578063810e0b201461019a578063a4dd1d7d146101b7578063a78eacdb146101bf578063abb9406b146101c75761011d565b806317ca32561461012257806335aa2e441461013c5780633d39c260146101755780637cb6e65f14610192575b600080fd5b61012a6104b7565b60408051918252519081900360200190f35b6101596004803603602081101561015257600080fd5b50356104bd565b60408051600160a060020a039092168252519081900360200190f35b6101596004803603602081101561018b57600080fd5b50356104da565b61012a6104e7565b610159600480360360208110156101b057600080fd5b50356104ed565b61012a610528565b61012a61052d565b6101f3600480360360408110156101dd57600080fd5b50600160a060020a038135169060200135610533565b604080519115158252519081900360200190f35b6101f36004803603606081101561021d57600080fd5b81359160208101359181019060608101604082013564010000000081111561024457600080fd5b82018360208201111561025657600080fd5b8035906020019184600183028401116401000000008311171561027857600080fd5b91908080601f016020809104026020016040519081016040528093929190818152602001838380828437600092019190915250929550610618945050505050565b6101f3600480360360808110156102cf57600080fd5b8101906020810181356401000000008111156102ea57600080fd5b8201836020820111156102fc57600080fd5b8035906020019184602083028401116401000000008311171561031e57600080fd5b91939092909160208101903564010000000081111561033c57600080fd5b82018360208201111561034e57600080fd5b8035906020019184602083028401116401000000008311171561037057600080fd5b919350915080359060200135610868565b61039e6004803603602081101561039757600080fd5b503561096e565b6040518084815260200183815260200180602001828103825283818151815260200191508051906020019080838360005b838110156103e75781810151838201526020016103cf565b50505050905090810190601f1680156104145780820380516001836020036101000a031916815260200191505b5094505050505060405180910390f35b61012a610a27565b610434610a2d565b6040518082608080838360005b83811015610459578181015183820152602001610441565b5050505090500191505060405180910390f35b6101f36004803603602081101561048257600080fd5b5035600160a060020a0316610a73565b61039e600480360360208110156104a857600080fd5b5035610b17565b61012a610bc0565b60175481565b600481601081106104ca57fe5b0154600160a060020a0316905081565b600081600481106104ca57fe5b60165481565b60008082101580156104ff5750601082105b151561050a57600080fd5b6004826010811061051757fe5b0154600160a060020a031692915050565b601481565b60145481565b600033151561054157600080fd5b6000800154600160a060020a03163314806105695750600060010154600160a060020a031633145b806105815750600060020154600160a060020a031633145b806105995750600060030154600160a060020a031633145b15156105a457600080fd5b600160a060020a03831615156105b957600080fd5b600082101580156105ca5750601082105b15156105d557600080fd5b82600483601081106105e357fe5b01805473ffffffffffffffffffffffffffffffffffffffff1916600160a060020a039290921691909117905550600192915050565b600033151561062657600080fd5b600460000154600160a060020a031633148061064f5750600460010154600160a060020a031633145b806106675750600460020154600160a060020a031633145b8061067f5750600460030154600160a060020a031633145b8061069657506004800154600160a060020a031633145b806106ae5750600460050154600160a060020a031633145b806106c65750600460060154600160a060020a031633145b806106de5750600460070154600160a060020a031633145b806106f65750600460080154600160a060020a031633145b8061070e5750600460090154600160a060020a031633145b8061072657506004600a0154600160a060020a031633145b8061073e57506004600b0154600160a060020a031633145b8061075657506004600c0154600160a060020a031633145b8061076e57506004600d0154600160a060020a031633145b8061078657506004600e0154600160a060020a031633145b8061079e57506004600f0154600160a060020a031633145b15156107a957600080fd5b601654607801421015610807576040517f08c379a0000000000000000000000000000000000000000000000000000000008152600401808060200182810382526022815260200180610c7e6022913960400191505060405180910390fd5b604080516060810182528581526020808201868152828401868152600089815260188452949094208351815590516001820155925180519293926108519260028501920190610bc6565b505060158054600190810190915595945050505050565b60006020861061087757600080fd5b85841461088357600080fd5b8260005b8781101561095e57600089898381811061089d57fe5b90506020020135905087878381811015156108b457fe5b905060200201351515156108f85780836040516020018083815260200182815260200192505050604051602081830303815290604052805190602001209250610955565b87878381811061090457fe5b90506020020135151515156109495782816040516020018083815260200182815260200192505050604051602081830303815290604052805190602001209250610955565b60009350505050610964565b50600101610887565b50821490505b9695505050505050565b600081815260186020908152604080832080546001808301546002938401805486519381161561010002600019011694909404601f81018790048702830187019095528482528695606095939491939192918391830182828015610a135780601f106109e857610100808354040283529160200191610a13565b820191906000526020600020905b8154815290600101906020018083116109f657829003601f168201915b505050505090509250925092509193909250565b60155481565b610a35610c44565b6040805160808101918290529060009060049082845b8154600160a060020a03168152600190910190602001808311610a4b57505050505090505b90565b6000331515610a8157600080fd5b6000800154600160a060020a0316331480610aa95750600060010154600160a060020a031633145b80610ac15750600060020154600160a060020a031633145b80610ad95750600060030154600160a060020a031633145b1515610ae457600080fd5b506003805473ffffffffffffffffffffffffffffffffffffffff1916600160a060020a0392909216919091179055600190565b60186020908152600091825260409182902080546001808301546002808501805488519481161561010002600019011691909104601f810187900487028401870190975286835292959094919291830182828015610bb65780601f10610b8b57610100808354040283529160200191610bb6565b820191906000526020600020905b815481529060010190602001808311610b9957829003601f168201915b5050505050905083565b60155490565b828054600181600116156101000203166002900490600052602060002090601f016020900481019282601f10610c0757805160ff1916838001178555610c34565b82800160010185558215610c34579182015b82811115610c34578251825591602001919060010190610c19565b50610c40929150610c63565b5090565b6080604051908101604052806004906020820280388339509192915050565b610a7091905b80821115610c405760008155600101610c6956fe74696d652073746570206265747765656e20626c6f636b7320746f6f2073686f7274a165627a7a72305820a41c3a18f7f3a2fb7c7328f45e9127f620d66b06389f96e5024dc66e24c2060d0029",
  "source": "pragma solidity ^0.5.2;\nimport \"./SafeMath.sol\";\n\n\ncontract BlockRegistry{\n    using SafeMath for uint256;\n\n    // Variables\n    address[4] public managers;\n    address[16] public validators;\n    uint constant public period_all = 20;\n    uint public initHeight;\n    uint public sblockNo;\n    uint public prevTimeStamp;\n    uint public sblockTimeStep = 15 minutes;  // better way to define?\n\n    struct blockStat{\n        uint blockHeight;\n        bytes32 merkleRoot;\n        string ipfsAddr;\n        // uint timestamp;\n    }\n\n    mapping (uint => blockStat) public blockHistory;\n    // ex:\n    // function newBlock(bytes32 merkleRoot, bytes32 ipfsAddr) external validatorOnly {\n    //      blockHistory[sblockNo] = blockStat(block.number, merkleRoot, ipfsAddr)\n    // }\n\n\n    constructor() public {\n        // always INITIALIZE ARRAY VALUES!!!\n        managers = [ 0xB440ea2780614b3c6a00e512f432785E7dfAFA3E,\n            0x4AD56641C569C91C64C28a904cda50AE5326Da41,\n            0xaF7400787c54422Be8B44154B1273661f1259CcD,\n            address(0)];\n        validators = [ 0xB440ea2780614b3c6a00e512f432785E7dfAFA3E,\n            0x4AD56641C569C91C64C28a904cda50AE5326Da41,\n            0xaF7400787c54422Be8B44154B1273661f1259CcD,\n            address(0), address(0), address(0), address(0), address(0),\n            address(0), address(0), address(0), address(0), address(0),\n            address(0), address(0), address(0)];\n        prevTimeStamp = block.timestamp - sblockTimeStep;\n    }\n\n    // Modifiers\n    modifier managerOnly() {\n        require(msg.sender != address(0));\n        require(msg.sender == managers[0] || msg.sender == managers[1] || msg.sender == managers[2] || msg.sender == managers[3]);\n        _;\n    }\n\n    modifier validatorOnly() {\n        require(msg.sender != address(0));\n        require(msg.sender == validators[0] || msg.sender == validators[1] || msg.sender == validators[2] || \n                msg.sender == validators[3] || msg.sender == validators[4] || msg.sender == validators[5] || \n                msg.sender == validators[6] || msg.sender == validators[7] || msg.sender == validators[8] || \n                msg.sender == validators[9] || msg.sender == validators[10] || msg.sender == validators[11] || \n                msg.sender == validators[12] || msg.sender == validators[13] || msg.sender == validators[14] ||\n                msg.sender == validators[15]);\n        _;\n    }\n\n    function submitMerkleRoot(uint _initHeight, bytes32 _merkleRoot, string memory _ipfsAddr) public validatorOnly returns (bool) {\n        // require(block.timestamp >= prevTimeStamp + sblockTimeStep, 'too soon');\n        require(block.timestamp >= prevTimeStamp + 2 minutes, 'time step between blocks too short');  // for test purpose\n        // uncomment following for debug purpose\n        // require(block.number >= _initHeight + period_all, \"side-block too frequent\");\n        // require(blockHistory[_initHeight].blockHeight == 0 &&\n        //         blockHistory[_initHeight].merkleRoot == 0x0 &&\n        //         keccak256(abi.encodePacked(blockHistory[_initHeight].ipfsAddr)) == keccak256(abi.encodePacked('')),\n        //         'side-block exists');\n        blockHistory[_initHeight] = blockStat(_initHeight, _merkleRoot, _ipfsAddr);\n        sblockNo += 1;\n        return true;\n    }\n\n    function merkleTreeValidator(bytes32[] calldata proof, bool[] calldata isLeft, bytes32 targetLeaf, bytes32 _merkleRoot) external pure returns (bool) {\n        require(proof.length < 32);  // 2**32 ~ 4.3e9 leaves!\n        require(proof.length == isLeft.length);\n\n        bytes32 targetHash = targetLeaf;\n        for (uint256 i = 0; i < proof.length; i++) {\n            bytes32 proofEle = proof[i];\n            if (isLeft[i]) {\n                    targetHash = keccak256(abi.encodePacked(proofEle, targetHash));\n            } else if (!isLeft[i]) {\n                    targetHash = keccak256(abi.encodePacked(targetHash, proofEle));\n            } else {\n                    return false;\n            }\n        }\n        return targetHash == _merkleRoot;\n    }\n\n    // query\n    function getSblockNo() external view returns (uint) {\n        return sblockNo;\n    }\n\n    function getBlockInfo(uint _sblockNo) external view returns (uint, bytes32, string memory) {\n        return (blockHistory[_sblockNo].blockHeight, blockHistory[_sblockNo].merkleRoot, blockHistory[_sblockNo].ipfsAddr);\n    }\n\n    function queryValidator(uint _idx) external view returns (address) {\n        require(_idx>=0 && _idx < 16);\n        return validators[_idx];\n    }\n\n    function queryManagers() external view returns (address[4] memory) {\n        return managers;\n    }\n\n    // upgradable\n    function setValidator(address _newValidator, uint _idx) public managerOnly returns (bool) {\n        require(_newValidator != address(0));\n        require(_idx >=0 && _idx < 16);\n        validators[_idx] = _newValidator;\n        return true;\n    }\n\n    function setManager(address _newManager) public managerOnly returns (bool) {\n        // assume no need to change first 3 managers\n        managers[3] = _newManager;\n        return true;\n    }\n\n}\n",
  "sourcePath": "/home/kai/Work/project/Optract/contracts/BlockRegistry.sol",
  "compiler": {
    "name": "solc",
    "version": "0.5.2+commit.1df8f40c.Linux.g++"
  },
  "schemaVersion": "3.0.1",
  "updatedAt": "2019-03-14T08:04:19.742Z",
  "devdoc": {
    "methods": {}
  },
  "userdoc": {
    "methods": {}
  }
}