{
  "contractName": "DAI",
  "abi": [
    {
      "constant": false,
      "inputs": [
        {
          "name": "spender",
          "type": "address"
        },
        {
          "name": "value",
          "type": "uint256"
        }
      ],
      "name": "approve",
      "outputs": [
        {
          "name": "",
          "type": "bool"
        }
      ],
      "payable": false,
      "stateMutability": "nonpayable",
      "type": "function",
      "signature": "0x095ea7b3"
    },
    {
      "constant": true,
      "inputs": [],
      "name": "totalSupply",
      "outputs": [
        {
          "name": "",
          "type": "uint256"
        }
      ],
      "payable": false,
      "stateMutability": "view",
      "type": "function",
      "signature": "0x18160ddd"
    },
    {
      "constant": true,
      "inputs": [],
      "name": "_maxSupply",
      "outputs": [
        {
          "name": "",
          "type": "uint256"
        }
      ],
      "payable": false,
      "stateMutability": "view",
      "type": "function",
      "signature": "0x22f4596f"
    },
    {
      "constant": false,
      "inputs": [
        {
          "name": "from",
          "type": "address"
        },
        {
          "name": "to",
          "type": "address"
        },
        {
          "name": "value",
          "type": "uint256"
        }
      ],
      "name": "transferFrom",
      "outputs": [
        {
          "name": "",
          "type": "bool"
        }
      ],
      "payable": false,
      "stateMutability": "nonpayable",
      "type": "function",
      "signature": "0x23b872dd"
    },
    {
      "constant": true,
      "inputs": [
        {
          "name": "_owner",
          "type": "address"
        }
      ],
      "name": "balanceOf",
      "outputs": [
        {
          "name": "",
          "type": "uint256"
        }
      ],
      "payable": false,
      "stateMutability": "view",
      "type": "function",
      "signature": "0x70a08231"
    },
    {
      "constant": false,
      "inputs": [
        {
          "name": "to",
          "type": "address"
        },
        {
          "name": "value",
          "type": "uint256"
        }
      ],
      "name": "transfer",
      "outputs": [
        {
          "name": "",
          "type": "bool"
        }
      ],
      "payable": false,
      "stateMutability": "nonpayable",
      "type": "function",
      "signature": "0xa9059cbb"
    },
    {
      "constant": true,
      "inputs": [
        {
          "name": "_owner",
          "type": "address"
        },
        {
          "name": "_spender",
          "type": "address"
        }
      ],
      "name": "allowance",
      "outputs": [
        {
          "name": "",
          "type": "uint256"
        }
      ],
      "payable": false,
      "stateMutability": "view",
      "type": "function",
      "signature": "0xdd62ed3e"
    },
    {
      "inputs": [],
      "payable": false,
      "stateMutability": "nonpayable",
      "type": "constructor",
      "signature": "constructor"
    },
    {
      "anonymous": false,
      "inputs": [
        {
          "indexed": true,
          "name": "owner",
          "type": "address"
        },
        {
          "indexed": true,
          "name": "spender",
          "type": "address"
        },
        {
          "indexed": false,
          "name": "value",
          "type": "uint256"
        }
      ],
      "name": "Approval",
      "type": "event",
      "signature": "0x8c5be1e5ebec7d5bd14f71427d1e84f3dd0314c0f7b2291e5b200ac8c7c3b925"
    },
    {
      "anonymous": false,
      "inputs": [
        {
          "indexed": true,
          "name": "from",
          "type": "address"
        },
        {
          "indexed": true,
          "name": "to",
          "type": "address"
        },
        {
          "indexed": false,
          "name": "value",
          "type": "uint256"
        }
      ],
      "name": "Transfer",
      "type": "event",
      "signature": "0xddf252ad1be2c89b69c2b068fc378daa952ba7f163c4a11628f55a4df523b3ef"
    },
    {
      "constant": true,
      "inputs": [],
      "name": "symbol",
      "outputs": [
        {
          "name": "",
          "type": "string"
        }
      ],
      "payable": false,
      "stateMutability": "view",
      "type": "function",
      "signature": "0x95d89b41"
    },
    {
      "constant": true,
      "inputs": [],
      "name": "decimals",
      "outputs": [
        {
          "name": "",
          "type": "uint8"
        }
      ],
      "payable": false,
      "stateMutability": "view",
      "type": "function",
      "signature": "0x313ce567"
    }
  ],
  "bytecode": "0x60c0604052600360808190527f444149000000000000000000000000000000000000000000000000000000000060a090815261003e916004919061010d565b506005805460ff191660121790556a027b46536c66c8e300000060065534801561006757600080fd5b50693f870857a3e0e3800000600355600160205269152d02c7e14af68000007f6cafcc575780256d485370a457291abb0cd89a8beb782a63f0ad579757746bc18190557f6eb8053780f49fc55c3cb24a1dd11e5d3a67206b0fdd8a480a7db8d5cc0a7e2981905573362ea687b8a372a0235466a097e578d55491d37f6000527fe84830a59f28a4b235d2c77af939f51e4a63fdaf1e2cce56ed85be45b639f8fe556101a8565b828054600181600116156101000203166002900490600052602060002090601f016020900481019282601f1061014e57805160ff191683800117855561017b565b8280016001018555821561017b579182015b8281111561017b578251825591602001919060010190610160565b5061018792915061018b565b5090565b6101a591905b808211156101875760008155600101610191565b90565b610687806101b76000396000f3fe608060405234801561001057600080fd5b50600436106100b0576000357c010000000000000000000000000000000000000000000000000000000090048063313ce56711610083578063313ce5671461014d57806370a082311461016b57806395d89b4114610191578063a9059cbb1461020e578063dd62ed3e1461023a576100b0565b8063095ea7b3146100b557806318160ddd146100f557806322f4596f1461010f57806323b872dd14610117575b600080fd5b6100e1600480360360408110156100cb57600080fd5b50600160a060020a038135169060200135610268565b604080519115158252519081900360200190f35b6100fd6102e6565b60408051918252519081900360200190f35b6100fd6102ec565b6100e16004803603606081101561012d57600080fd5b50600160a060020a038135811691602081013590911690604001356102f2565b610155610467565b6040805160ff9092168252519081900360200190f35b6100fd6004803603602081101561018157600080fd5b5035600160a060020a0316610470565b61019961048b565b6040805160208082528351818301528351919283929083019185019080838360005b838110156101d35781810151838201526020016101bb565b50505050905090810190601f1680156102005780820380516001836020036101000a031916815260200191505b509250505060405180910390f35b6100e16004803603604081101561022457600080fd5b50600160a060020a038135169060200135610521565b6100fd6004803603604081101561025057600080fd5b50600160a060020a0381358116916020013516610602565b6000600160a060020a038316151561027f57600080fd5b336000818152600260209081526040808320600160a060020a03881680855290835292819020869055805186815290519293927f8c5be1e5ebec7d5bd14f71427d1e84f3dd0314c0f7b2291e5b200ac8c7c3b925929181900390910190a350600192915050565b60035481565b60065481565b600160a060020a038316600090815260026020908152604080832033845290915281205482111561032257600080fd5b600160a060020a03841660009081526001602052604090205482111561034757600080fd5b600160a060020a038316151561035c57600080fd5b600160a060020a038416600090815260016020526040902054610385908363ffffffff61062d16565b600160a060020a03851660009081526001602090815260408083209390935560028152828220338352905220546103c2908363ffffffff61062d16565b600160a060020a038086166000908152600260209081526040808320338452825280832094909455918616815260019091522054610406908363ffffffff61064216565b600160a060020a0380851660008181526001602090815260409182902094909455805186815290519193928816927fddf252ad1be2c89b69c2b068fc378daa952ba7f163c4a11628f55a4df523b3ef92918290030190a35060019392505050565b60055460ff1690565b600160a060020a031660009081526001602052604090205490565b60048054604080516020601f60026000196101006001881615020190951694909404938401819004810282018101909252828152606093909290918301828280156105175780601f106104ec57610100808354040283529160200191610517565b820191906000526020600020905b8154815290600101906020018083116104fa57829003601f168201915b5050505050905090565b3360009081526001602052604081205482111561053d57600080fd5b600160a060020a038316151561055257600080fd5b33600090815260016020526040902054610572908363ffffffff61062d16565b3360009081526001602052604080822092909255600160a060020a038516815220546105a4908363ffffffff61064216565b600160a060020a0384166000818152600160209081526040918290209390935580518581529051919233927fddf252ad1be2c89b69c2b068fc378daa952ba7f163c4a11628f55a4df523b3ef9281900390910190a350600192915050565b600160a060020a03918216600090815260026020908152604080832093909416825291909152205490565b60008282111561063c57600080fd5b50900390565b60008282018381101561065457600080fd5b939250505056fea165627a7a7230582030bd025007a2922f9fb09994e6fbb1029c06507419d6f9afbc47f79cd42391430029",
  "source": "pragma solidity ^0.5.2;\nimport \"./StandardToken.sol\";\n\ncontract DAI is StandardToken {\n    string private _symbol = \"DAI\";\n    uint8 private _decimals = 18;\n    uint256 public _maxSupply = 3000000000000000000000000;\n\n    constructor() public {\n       totalSupply = 300000000000000000000000;\n       _balances[0xB440ea2780614b3c6a00e512f432785E7dfAFA3E] = 100000000000000000000000;\n       _balances[0x4AD56641C569C91C64C28a904cda50AE5326Da41] = 100000000000000000000000;\n       _balances[0x362ea687b8a372a0235466a097e578d55491d37f] = 100000000000000000000000;\n    }\n\n    function symbol() public view returns (string memory){\n        return _symbol;\n    }\n\n    function decimals() public view returns (uint8){\n        return _decimals;\n    }\n}\n",
  "sourcePath": "/home/kai/Work/project/Optract/contracts/DAI.sol",
  "compiler": {
    "name": "solc",
    "version": "0.5.2+commit.1df8f40c.Linux.g++"
  },
  "schemaVersion": "3.0.1",
  "updatedAt": "2019-03-12T02:28:24.644Z",
  "devdoc": {
    "methods": {
      "allowance(address,address)": {
        "details": "Function to check the amount of tokens that an owner allowed to a spender.",
        "params": {
          "_owner": "address The address which owns the funds.",
          "_spender": "address The address which will spend the funds."
        },
        "return": "A uint256 specifying the amount of tokens still available for the spender."
      },
      "approve(address,uint256)": {
        "details": "Approve the passed address to spend the specified amount of tokens on behalf of msg.sender. Beware that changing an allowance with this method brings the risk that someone may use both the old and the new allowance by unfortunate transaction ordering. One possible solution to mitigate this race condition is to first reduce the spender's allowance to 0 and set the desired value afterwards: https://github.com/ethereum/EIPs/issues/20#issuecomment-263524729",
        "params": {
          "spender": "The address which will spend the funds.",
          "value": "The amount of tokens to be spent."
        }
      },
      "balanceOf(address)": {
        "details": "Gets the balance of the specified address.",
        "params": {
          "_owner": "The address to query the balance of."
        },
        "return": "An uint256 representing the amount owned by the passed address."
      },
      "transfer(address,uint256)": {
        "details": "Transfer token for a specified address",
        "params": {
          "to": "The address to transfer to.",
          "value": "The amount to be transferred."
        }
      }
    }
  },
  "userdoc": {
    "methods": {}
  }
}