{
  "contractName": "MemberShip",
  "abi": [
    {
      "constant": true,
      "inputs": [
        {
          "name": "",
          "type": "uint256"
        }
      ],
      "name": "coreManager",
      "outputs": [
        {
          "name": "",
          "type": "address"
        }
      ],
      "payable": false,
      "stateMutability": "view",
      "type": "function",
      "signature": "0x0d0d80ad"
    },
    {
      "constant": true,
      "inputs": [],
      "name": "paused",
      "outputs": [
        {
          "name": "",
          "type": "bool"
        }
      ],
      "payable": false,
      "stateMutability": "view",
      "type": "function",
      "signature": "0x5c975abb"
    },
    {
      "constant": true,
      "inputs": [],
      "name": "totalMembers",
      "outputs": [
        {
          "name": "",
          "type": "uint256"
        }
      ],
      "payable": false,
      "stateMutability": "view",
      "type": "function",
      "signature": "0x76e92559"
    },
    {
      "constant": true,
      "inputs": [],
      "name": "owner",
      "outputs": [
        {
          "name": "",
          "type": "address"
        }
      ],
      "payable": false,
      "stateMutability": "view",
      "type": "function",
      "signature": "0x8da5cb5b"
    },
    {
      "constant": true,
      "inputs": [],
      "name": "memberPeriod",
      "outputs": [
        {
          "name": "",
          "type": "uint256"
        }
      ],
      "payable": false,
      "stateMutability": "view",
      "type": "function",
      "signature": "0xaba35b72"
    },
    {
      "constant": true,
      "inputs": [],
      "name": "totalManagers",
      "outputs": [
        {
          "name": "",
          "type": "uint256"
        }
      ],
      "payable": false,
      "stateMutability": "view",
      "type": "function",
      "signature": "0xd5eb7cf4"
    },
    {
      "constant": true,
      "inputs": [],
      "name": "fee",
      "outputs": [
        {
          "name": "",
          "type": "uint256"
        }
      ],
      "payable": false,
      "stateMutability": "view",
      "type": "function",
      "signature": "0xddca3f43"
    },
    {
      "constant": true,
      "inputs": [
        {
          "name": "",
          "type": "address"
        }
      ],
      "name": "appWhitelist",
      "outputs": [
        {
          "name": "",
          "type": "bool"
        }
      ],
      "payable": false,
      "stateMutability": "view",
      "type": "function",
      "signature": "0xfe2b5de1"
    },
    {
      "inputs": [],
      "payable": false,
      "stateMutability": "nonpayable",
      "type": "constructor",
      "signature": "constructor"
    },
    {
      "constant": false,
      "inputs": [],
      "name": "buyMembership",
      "outputs": [
        {
          "name": "",
          "type": "bool"
        }
      ],
      "payable": true,
      "stateMutability": "payable",
      "type": "function",
      "signature": "0x5c581119"
    },
    {
      "constant": false,
      "inputs": [],
      "name": "renewMembership",
      "outputs": [
        {
          "name": "",
          "type": "uint256"
        }
      ],
      "payable": true,
      "stateMutability": "payable",
      "type": "function",
      "signature": "0x0933b939"
    },
    {
      "constant": false,
      "inputs": [
        {
          "name": "_addr",
          "type": "address"
        },
        {
          "name": "_id",
          "type": "uint256"
        }
      ],
      "name": "addManager",
      "outputs": [
        {
          "name": "",
          "type": "bool"
        }
      ],
      "payable": false,
      "stateMutability": "nonpayable",
      "type": "function",
      "signature": "0x75fb0d78"
    },
    {
      "constant": false,
      "inputs": [
        {
          "name": "_addr",
          "type": "address"
        },
        {
          "name": "_id",
          "type": "uint256"
        }
      ],
      "name": "rmManager",
      "outputs": [
        {
          "name": "",
          "type": "bool"
        }
      ],
      "payable": false,
      "stateMutability": "nonpayable",
      "type": "function",
      "signature": "0x84b29cf4"
    },
    {
      "constant": false,
      "inputs": [
        {
          "name": "_id",
          "type": "uint256"
        },
        {
          "name": "_kycid",
          "type": "bytes32"
        }
      ],
      "name": "assginKYCid",
      "outputs": [
        {
          "name": "",
          "type": "bool"
        }
      ],
      "payable": false,
      "stateMutability": "nonpayable",
      "type": "function",
      "signature": "0xc9a69336"
    },
    {
      "constant": false,
      "inputs": [
        {
          "name": "_addr",
          "type": "address"
        }
      ],
      "name": "addWhitelistApps",
      "outputs": [
        {
          "name": "",
          "type": "bool"
        }
      ],
      "payable": false,
      "stateMutability": "nonpayable",
      "type": "function",
      "signature": "0x0d2da680"
    },
    {
      "constant": false,
      "inputs": [
        {
          "name": "_addr",
          "type": "address"
        }
      ],
      "name": "rmWhitelistApps",
      "outputs": [
        {
          "name": "",
          "type": "bool"
        }
      ],
      "payable": false,
      "stateMutability": "nonpayable",
      "type": "function",
      "signature": "0xa7f70e73"
    },
    {
      "constant": false,
      "inputs": [
        {
          "name": "_id",
          "type": "uint256"
        },
        {
          "name": "_penalty",
          "type": "uint256"
        }
      ],
      "name": "addPenalty",
      "outputs": [
        {
          "name": "",
          "type": "uint256"
        }
      ],
      "payable": false,
      "stateMutability": "nonpayable",
      "type": "function",
      "signature": "0xc6906749"
    },
    {
      "constant": true,
      "inputs": [
        {
          "name": "_id",
          "type": "uint256"
        }
      ],
      "name": "readNotes",
      "outputs": [
        {
          "name": "",
          "type": "string"
        }
      ],
      "payable": false,
      "stateMutability": "view",
      "type": "function",
      "signature": "0xc449b262"
    },
    {
      "constant": false,
      "inputs": [
        {
          "name": "_id",
          "type": "uint256"
        },
        {
          "name": "_notes",
          "type": "string"
        }
      ],
      "name": "addNotes",
      "outputs": [],
      "payable": false,
      "stateMutability": "nonpayable",
      "type": "function",
      "signature": "0xd9ed28b7"
    },
    {
      "constant": true,
      "inputs": [
        {
          "name": "_addr",
          "type": "address"
        }
      ],
      "name": "addrIsMember",
      "outputs": [
        {
          "name": "",
          "type": "bool"
        }
      ],
      "payable": false,
      "stateMutability": "view",
      "type": "function",
      "signature": "0x7a7d32e5"
    },
    {
      "constant": true,
      "inputs": [
        {
          "name": "_addr",
          "type": "address"
        }
      ],
      "name": "addrIsActiveMember",
      "outputs": [
        {
          "name": "",
          "type": "bool"
        }
      ],
      "payable": false,
      "stateMutability": "view",
      "type": "function",
      "signature": "0xc41a32ec"
    },
    {
      "constant": true,
      "inputs": [
        {
          "name": "_id",
          "type": "uint256"
        }
      ],
      "name": "idIsMember",
      "outputs": [
        {
          "name": "",
          "type": "bool"
        }
      ],
      "payable": false,
      "stateMutability": "view",
      "type": "function",
      "signature": "0xf3334ed8"
    },
    {
      "constant": true,
      "inputs": [
        {
          "name": "_id",
          "type": "uint256"
        }
      ],
      "name": "idIsActiveMember",
      "outputs": [
        {
          "name": "",
          "type": "bool"
        }
      ],
      "payable": false,
      "stateMutability": "view",
      "type": "function",
      "signature": "0x9dd9d6d5"
    },
    {
      "constant": true,
      "inputs": [],
      "name": "queryCoreManager",
      "outputs": [
        {
          "name": "",
          "type": "bool"
        }
      ],
      "payable": false,
      "stateMutability": "view",
      "type": "function",
      "signature": "0xd7e4ff3a"
    },
    {
      "constant": true,
      "inputs": [
        {
          "name": "_addr",
          "type": "address"
        }
      ],
      "name": "addrToId",
      "outputs": [
        {
          "name": "",
          "type": "uint256"
        }
      ],
      "payable": false,
      "stateMutability": "view",
      "type": "function",
      "signature": "0xa33c4df1"
    },
    {
      "constant": true,
      "inputs": [
        {
          "name": "_addr",
          "type": "address"
        }
      ],
      "name": "getMemberInfo",
      "outputs": [
        {
          "name": "",
          "type": "uint256"
        },
        {
          "name": "",
          "type": "bytes32"
        },
        {
          "name": "",
          "type": "uint256"
        },
        {
          "name": "",
          "type": "uint256"
        },
        {
          "name": "",
          "type": "bytes32"
        }
      ],
      "payable": false,
      "stateMutability": "view",
      "type": "function",
      "signature": "0x5f1231ea"
    },
    {
      "constant": true,
      "inputs": [
        {
          "name": "_id",
          "type": "uint256"
        }
      ],
      "name": "getIdInfo",
      "outputs": [
        {
          "name": "",
          "type": "uint256"
        },
        {
          "name": "",
          "type": "bytes32"
        },
        {
          "name": "",
          "type": "uint256"
        },
        {
          "name": "",
          "type": "uint256"
        },
        {
          "name": "",
          "type": "bytes32"
        }
      ],
      "payable": false,
      "stateMutability": "view",
      "type": "function",
      "signature": "0x361ad979"
    },
    {
      "constant": false,
      "inputs": [],
      "name": "pause",
      "outputs": [],
      "payable": false,
      "stateMutability": "nonpayable",
      "type": "function",
      "signature": "0x8456cb59"
    },
    {
      "constant": false,
      "inputs": [],
      "name": "unpause",
      "outputs": [],
      "payable": false,
      "stateMutability": "nonpayable",
      "type": "function",
      "signature": "0x3f4ba83a"
    }
  ],
  "bytecode": "0x608060405260006004819055600555662386f26fc100006006556301e133806007556008805460ff191690553480156200003857600080fd5b5060008054600160a060020a031916331790556040805160608101825273b440ea2780614b3c6a00e512f432785e7dfafa3e8152734ad56641c569c91c64c28a904cda50ae5326da41602082015273af7400787c54422be8b44154b1273661f1259ccd91810191909152620000b290600190600362000265565b5060005b6003811015620000fa57620000f060018260038110620000d257fe5b0154600160a060020a03166001830164010000000062000101810204565b50600101620000b6565b506200038a565b60006001810154600160a060020a03163314806200012b57506001800154600160a060020a031633145b80620001445750600160020154600160a060020a031633145b15156200015057600080fd5b600082815260096020526040902054600160a060020a0316156200017357600080fd5b600160a060020a0383166000908152600a6020526040902054156200019757600080fd5b6103e88210620001a657600080fd5b60048054600190810182556005805482019055600160a060020a038581166000818152600a60209081526040808320899055805160a08101825293845242848301908152848201848152606086018b815283518086018552868152608088019081528c8752600986529390952086518154600160a060020a0319169816979097178755905196860196909655945160028501559051600384015592518051919492936200025993850192910190620002c2565b50600195945050505050565b8260038101928215620002b0579160200282015b82811115620002b05782518254600160a060020a031916600160a060020a0390911617825560209092019160019091019062000279565b50620002be92915062000343565b5090565b828054600181600116156101000203166002900490600052602060002090601f016020900481019282601f106200030557805160ff191683800117855562000335565b8280016001018555821562000335579182015b828111156200033557825182559160200191906001019062000318565b50620002be9291506200036d565b6200036a91905b80821115620002be578054600160a060020a03191681556001016200034a565b90565b6200036a91905b80821115620002be576000815560010162000374565b611422806200039a6000396000f3fe6080604052600436106101d4576000357c0100000000000000000000000000000000000000000000000000000000900480639dd9d6d511610109578063c9a69336116100a7578063d9ed28b711610081578063d9ed28b714610621578063ddca3f43146106a5578063f3334ed8146106ba578063fe2b5de1146106e4576101d4565b8063c9a69336146105c7578063d5eb7cf4146105f7578063d7e4ff3a1461060c576101d4565b8063aba35b72116100e3578063aba35b72146104b0578063c41a32ec146104c5578063c449b262146104f8578063c690674914610597576101d4565b80639dd9d6d514610420578063a33c4df11461044a578063a7f70e731461047d576101d4565b80635f1231ea116101765780637a7d32e5116101505780637a7d32e51461038a5780638456cb59146103bd57806384b29cf4146103d25780638da5cb5b1461040b576101d4565b80635f1231ea1461030957806375fb0d781461033c57806376e9255914610375576101d4565b8063361ad979116101b2578063361ad979146102805780633f4ba83a146102d55780635c581119146102ec5780635c975abb146102f4576101d4565b80630933b939146101d95780630d0d80ad146101f35780630d2da68014610239575b600080fd5b6101e1610717565b60408051918252519081900360200190f35b3480156101ff57600080fd5b5061021d6004803603602081101561021657600080fd5b50356107e8565b60408051600160a060020a039092168252519081900360200190f35b34801561024557600080fd5b5061026c6004803603602081101561025c57600080fd5b5035600160a060020a0316610805565b604080519115158252519081900360200190f35b34801561028c57600080fd5b506102aa600480360360208110156102a357600080fd5b503561087e565b6040805195865260208601949094528484019290925260608401526080830152519081900360a00190f35b3480156102e157600080fd5b506102ea6108dc565b005b61026c610910565b34801561030057600080fd5b5061026c610a15565b34801561031557600080fd5b506102aa6004803603602081101561032c57600080fd5b5035600160a060020a0316610a1e565b34801561034857600080fd5b5061026c6004803603604081101561035f57600080fd5b50600160a060020a038135169060200135610a5a565b34801561038157600080fd5b506101e1610bc3565b34801561039657600080fd5b5061026c600480360360208110156103ad57600080fd5b5035600160a060020a0316610bc9565b3480156103c957600080fd5b506102ea610c23565b3480156103de57600080fd5b5061026c600480360360408110156103f557600080fd5b50600160a060020a038135169060200135610c8d565b34801561041757600080fd5b5061021d610e3b565b34801561042c57600080fd5b5061026c6004803603602081101561044357600080fd5b5035610e4a565b34801561045657600080fd5b506101e16004803603602081101561046d57600080fd5b5035600160a060020a0316610e97565b34801561048957600080fd5b5061026c600480360360208110156104a057600080fd5b5035600160a060020a0316610eb2565b3480156104bc57600080fd5b506101e1610f23565b3480156104d157600080fd5b5061026c600480360360208110156104e857600080fd5b5035600160a060020a0316610f29565b34801561050457600080fd5b506105226004803603602081101561051b57600080fd5b5035610faa565b6040805160208082528351818301528351919283929083019185019080838360005b8381101561055c578181015183820152602001610544565b50505050905090810190601f1680156105895780820380516001836020036101000a031916815260200191505b509250505060405180910390f35b3480156105a357600080fd5b506101e1600480360360408110156105ba57600080fd5b50803590602001356110a3565b3480156105d357600080fd5b5061026c600480360360408110156105ea57600080fd5b5080359060200135611161565b34801561060357600080fd5b506101e16111ea565b34801561061857600080fd5b5061026c6111f0565b34801561062d57600080fd5b506102ea6004803603604081101561064457600080fd5b8135919081019060408101602082013564010000000081111561066657600080fd5b82018360208201111561067857600080fd5b8035906020019184600183028401116401000000008311171561069a57600080fd5b509092509050611246565b3480156106b157600080fd5b506101e16112b4565b3480156106c657600080fd5b5061026c600480360360208110156106dd57600080fd5b50356112ba565b3480156106f057600080fd5b5061026c6004803603602081101561070757600080fd5b5035600160a060020a03166112df565b336000818152600a6020908152604080832054808452600990925282205491929091600160a060020a031614801561074e57503315155b151561075957600080fd5b6000818152600960205260408120600101541161077557600080fd5b60065434101561078457600080fd5b60085460ff161561079457600080fd5b336000908152600a602090815260408083205460075481855260099093529220600101540162093a7f190142116107ca57600080fd5b600090815260096020526040902042600190910181905591505b5090565b600181600381106107f557fe5b0154600160a060020a0316905081565b60006001810154600160a060020a031633148061082e57506001800154600160a060020a031633145b806108465750600160020154600160a060020a031633145b151561085157600080fd5b50600160a060020a0381166000908152600b60205260409020805460ff191660019081179091555b919050565b60008080808080861515610894575060036108ae565b61089d87610e4a565b156108aa575060016108ae565b5060025b6000878152600960205260409020600181015460028201546003909201549299909750909550909350915050565b600054600160a060020a031633146108f357600080fd5b60085460ff16151561090457600080fd5b6008805460ff19169055565b60065460009034101561092257600080fd5b336000908152600a60205260409020541561093c57600080fd5b600480546001818101835560058054336000818152600a60209081526040808320949097036103e901909355855160a08101875291825242828401908152828701828152945488549081036103e8016060850190815288518087018a5284815260808601908152918452600986529790922083518154600160a060020a039190911673ffffffffffffffffffffffffffffffffffffffff1990911617815590519581019590955592516002850155935160038401559051805193949293610a0a9385019291909101906112f4565b506001925050505b90565b60085460ff1681565b600160a060020a0381166000908152600a60205260408120548190819081908190610a489061087e565b939a9299509097509550909350915050565b60006001810154600160a060020a0316331480610a8357506001800154600160a060020a031633145b80610a9b5750600160020154600160a060020a031633145b1515610aa657600080fd5b600082815260096020526040902054600160a060020a031615610ac857600080fd5b600160a060020a0383166000908152600a602052604090205415610aeb57600080fd5b6103e88210610af957600080fd5b60048054600190810182556005805482019055600160a060020a038581166000818152600a60209081526040808320899055805160a08101825293845242848301908152848201848152606086018b815283518086018552868152608088019081528c875260098652939095208651815473ffffffffffffffffffffffffffffffffffffffff1916981697909717875590519686019690965594516002850155905160038401559251805191949293610bb7938501929101906112f4565b50600195945050505050565b60045481565b6000600160a060020a0382161515610be057600080fd5b610be86111f0565b15610bf557506001610879565b600160a060020a0382166000908152600a602052604090205415610c1b57506001610879565b506000610879565b600160000154600160a060020a0316331480610c4b57506001800154600160a060020a031633145b80610c635750600160020154600160a060020a031633145b1515610c6e57600080fd5b60085460ff1615610c7e57600080fd5b6008805460ff19166001179055565b60006001810154600160a060020a0316331480610cb657506001800154600160a060020a031633145b80610cce5750600160020154600160a060020a031633145b1515610cd957600080fd5b600082815260096020526040902054600160a060020a03161515610cfc57600080fd5b600160a060020a0383166000908152600a60205260409020541515610d2057600080fd5b6103e88210610d2e57600080fd5b600154600160a060020a03848116911614801590610d5a5750600254600160a060020a03848116911614155b8015610d745750600354600160a060020a03848116911614155b1515610d7f57600080fd5b600480546000199081018255600580549091019055600160a060020a038481166000908152600a60209081526040808320839055805160a0810182528381528083018481528183018581526060830186815284518087018652878152608085019081528b885260098752949096208351815473ffffffffffffffffffffffffffffffffffffffff1916981697909717875590516001870155516002860155925160038501555180519294610bb7939085019291909101906112f4565b600054600160a060020a031681565b6000811515610e5b57506000610879565b60008281526009602052604090206002810154600754600190920154429201031180610e8a5750610e8a6111f0565b15610c1b57506001610879565b600160a060020a03166000908152600a602052604090205490565b60006001810154600160a060020a0316331480610edb57506001800154600160a060020a031633145b80610ef35750600160020154600160a060020a031633145b1515610efe57600080fd5b50600160a060020a03166000908152600b60205260409020805460ff19169055600190565b60075481565b6000600160a060020a0382161515610f4057600080fd5b600160a060020a0382166000908152600a6020526040902054610f616111f0565b15610f70576001915050610879565b60008181526009602052604090206002810154600754600190920154429201031115610fa0576001915050610879565b6000915050610879565b336000908152600a6020526040902054606090821480610fda5750336000908152600a60205260409020546103e8115b1515610fe557600080fd5b6000828152600960205260408120600101541161100157600080fd5b60008281526009602090815260409182902060040180548351601f6002600019610100600186161502019093169290920491820184900484028101840190945280845290918301828280156110975780601f1061106c57610100808354040283529160200191611097565b820191906000526020600020905b81548152906001019060200180831161107a57829003601f168201915b50505050509050919050565b336000908152600b602052604081205460ff16151560011480156110c5575033155b15156110d057600080fd5b600083815260096020526040812060010154116110ec57600080fd5b6007548211156110fb57600080fd5b600754600084815260096020526040902060020154830111156111325760075460008481526009602052604090206002015561114a565b60008381526009602052604090206002018054830190555b505060009081526009602052604090206002015490565b336000908152600a60205260408120546103e88110801561118557506111856111f0565b151561119057600080fd5b6000848152600960205260408120600101541180156111c55750600084815260096020526040902054600160a060020a031615155b15156111d057600080fd5b505060009182526009602052604090912060030155600190565b60055481565b60006001810154600160a060020a031633148061121957506001800154600160a060020a031633145b806112315750600160020154600160a060020a031633145b1561123e57506001610a12565b506000610a12565b336000908152600a60205260409020546103e88110801561126a575061126a6111f0565b151561127557600080fd5b6000848152600960205260408120600101541161129157600080fd5b60008481526009602052604090206112ad90600401848461136e565b5050505050565b60065481565b600081815260096020526040812054600160a060020a031615610c1b57506001610879565b600b6020526000908152604090205460ff1681565b828054600181600116156101000203166002900490600052602060002090601f016020900481019282601f1061133557805160ff1916838001178555611362565b82800160010185558215611362579182015b82811115611362578251825591602001919060010190611347565b506107e49291506113dc565b828054600181600116156101000203166002900490600052602060002090601f016020900481019282601f106113af5782800160ff19823516178555611362565b82800160010185558215611362579182015b828111156113625782358255916020019190600101906113c1565b610a1291905b808211156107e457600081556001016113e256fea165627a7a72305820598bc16ed7d94b8d59e53db6d37fe88850ff055e39e9e8c55291164db29c1cf60029",
  "source": "pragma solidity ^0.5.2;\n\n\ncontract MemberShip {\n    address public owner;\n    address[3] public coreManager;\n    uint public totalMembers = 0;\n    uint public totalManagers = 0;\n    uint public fee = 10000000000000000;\n    uint public memberPeriod = 365 days;\n    bool public paused = false;\n\n    struct MemberInfo {\n        address addr;\n        uint since;  // beginning (unix) time of previous membership, unit: seconds\n        uint penalty;  // the membership is valid until: since + memberPeriod - penalty;\n        bytes32 kycid;  // know your customer id, leave it for future\n        string notes;\n    }\n\n    mapping (uint => MemberInfo) internal memberDB;  // id to MemberInfo; id of managers start from 1, id of normal members start from 1000\n    mapping (address => uint) internal addressToId;  // address to membership\n\n    mapping (address => bool) public appWhitelist;\n\n    constructor() public {\n        owner = msg.sender;\n        coreManager = [0xB440ea2780614b3c6a00e512f432785E7dfAFA3E,\n                        0x4AD56641C569C91C64C28a904cda50AE5326Da41,\n                        0xaF7400787c54422Be8B44154B1273661f1259CcD];\n        // core managers are also members\n        for (uint i=0; i<3; i++) {\n            addManager(coreManager[i], i+1);\n        }\n    }\n\n    modifier ownerOnly() {\n        require(msg.sender == owner);\n        _;\n    }\n\n    modifier coreManagerOnly() {\n        require(msg.sender == coreManager[0] || msg.sender == coreManager[1] || msg.sender == coreManager[2]);\n        _;\n    }\n\n    modifier managerOnly() {\n        uint _id = addressToId[msg.sender];\n        require(_id < 1000 && queryCoreManager());\n        _;\n    }\n\n    modifier feePaid() {\n        require(msg.value >= fee);  // or \"==\"?\n        _;\n    }\n\n    modifier isMember() {\n        uint _id = addressToId[msg.sender];\n        require(memberDB[_id].addr == msg.sender && msg.sender != address(0));\n        require(memberDB[_id].since > 0);\n        // require(addressToId[msg.sender] == _id);\n        _;\n    }\n\n    modifier isActiveMember() {\n        uint _id = addressToId[msg.sender];\n        require(memberDB[_id].addr == msg.sender && msg.sender != address(0));\n        require(memberDB[_id].since + memberPeriod - memberDB[_id].penalty > block.timestamp || queryCoreManager());\n        // require(_id != 0);  // already excluded by first condition\n        _;\n    }\n\n    modifier whenNotPaused() {\n        require(!paused);\n        _;\n    }\n\n    modifier whenPaused {\n        require(paused);\n        _;\n    }\n\n    // membership\n    function buyMembership() public payable feePaid returns (bool) {\n        require(addressToId[msg.sender] == 0);\n        totalMembers += 1;\n        addressToId[msg.sender] = 1000 + totalMembers - totalManagers;\n        memberDB[totalMembers] = MemberInfo(msg.sender, block.timestamp, 0, bytes32(1000 + totalMembers - totalManagers), \"\");\n        return true;\n    }\n\n    // function cancelMembership() public isMember whenNotPaused returns (bool) {\n    //     uint _id = addressToId[msg.sender];\n    //     totalMembers -= 1;\n    //     addressToId[msg.sender] = 0;\n    //     memberDB[_id] = MemberInfo(address(0), 0, 0, bytes32(), \"\");\n    //     return true;\n    // }\n\n    function renewMembership() public payable isMember feePaid whenNotPaused returns (uint) {\n        // one can renew membership ? days before expire, and the new period start from this call\n        uint _id = addressToId[msg.sender];\n        require(block.timestamp > memberDB[_id].since + memberPeriod - 7 days);  // 7 days or?\n        memberDB[_id].since = block.timestamp;\n        return block.timestamp;\n    }\n\n    function addManager(address _addr, uint _id) public coreManagerOnly returns (bool) {\n        require(memberDB[_id].addr == address(0));\n        require(addressToId[_addr] == 0);  // is it necessary?\n        require(_id < 1000);\n        totalMembers += 1;\n        totalManagers += 1;\n        addressToId[_addr] = _id;\n        memberDB[_id] = MemberInfo(_addr, block.timestamp, 0, bytes32(_id), \"\");\n        return true;\n    }\n\n    function rmManager(address _addr, uint _id) public coreManagerOnly returns (bool) {\n        require(memberDB[_id].addr != address(0));\n        require(addressToId[_addr] != 0);\n        require(_id < 1000);\n        require(_addr != coreManager[0] && _addr != coreManager[1] && _addr != coreManager[2]);\n        totalMembers -= 1;\n        totalManagers -= 1;\n        addressToId[_addr] = 0;\n        memberDB[_id] = MemberInfo(address(0), 0, 0, bytes32(0), \"\");\n        return true;\n    }\n\n    function assginKYCid(uint _id, bytes32 _kycid) external managerOnly returns (bool) {\n        // instead of \"managerOnly\", probably add another group to do that\n        require(memberDB[_id].since > 0 && memberDB[_id].addr != address(0));\n        memberDB[_id].kycid = _kycid;\n        return true;\n    }\n\n    function addWhitelistApps(address _addr) public coreManagerOnly returns (bool) {\n        appWhitelist[_addr] = true;\n        return true;\n    }\n\n    function rmWhitelistApps(address _addr) public coreManagerOnly returns (bool) {\n        appWhitelist[_addr] = false;\n        return true;\n    }\n\n    function addPenalty(uint _id, uint _penalty) external returns (uint) {\n        require(appWhitelist[msg.sender] == true && msg.sender == address(0));  // the msg.sender (usually a contract) is in appWhitelist\n        require(memberDB[_id].since > 0);  // is a member\n        require(_penalty <= memberPeriod);  // prevent too much penalty\n\n        if (memberDB[_id].penalty + _penalty > memberPeriod) {\n            memberDB[_id].penalty = memberPeriod;  // if 0 then not a member\n        } else {\n            memberDB[_id].penalty += _penalty;\n        }\n        return memberDB[_id].penalty;\n    }\n\n    function readNotes(uint _id) external view returns (string memory) {\n        require(addressToId[msg.sender] == _id || addressToId[msg.sender] < 1000);\n        require(memberDB[_id].since > 0);\n        return memberDB[_id].notes;\n    }\n\n    function addNotes(uint _id, string calldata _notes) external managerOnly {\n        require(memberDB[_id].since > 0);\n        memberDB[_id].notes = _notes;\n    }\n\n    // some query functions\n    function addrIsMember(address _addr) public view returns (bool) {\n        require(_addr != address(0));\n        if (queryCoreManager()){\n            return true;\n        } else if (addressToId[_addr] != 0) {\n            return true;\n        } else {\n            return false;\n        }\n    }\n\n    function addrIsActiveMember(address _addr) public view returns (bool) {\n        require(_addr != address(0));\n        uint _id = addressToId[_addr];\n        if (queryCoreManager()){\n            return true;  // core managers\n        } else if (memberDB[_id].since + memberPeriod - memberDB[_id].penalty > block.timestamp) {\n            return true;  // not yet expire\n        } else {\n            return false;\n        }\n    }\n\n    function idIsMember(uint _id) public view returns (bool) {\n        // if (_id == 0) {\n        //     return false;\n        if (memberDB[_id].addr != address(0)) {\n            return true;\n        } else {\n            return false;\n        }\n    }\n\n    function idIsActiveMember(uint _id) public view returns (bool) {\n        if (_id == 0) {\n            return false;\n        } else if (memberDB[_id].since + memberPeriod - memberDB[_id].penalty > block.timestamp || queryCoreManager()) {\n            return true;\n        } else {\n            return false;\n        }\n    }\n\n    function queryCoreManager() public view returns (bool) {\n        if (msg.sender == coreManager[0] || msg.sender == coreManager[1] || msg.sender == coreManager[2]) {\n            return true;\n        } else {\n            return false;\n        }\n    }\n\n    function addrToId(address _addr) external view returns (uint) {\n        return addressToId[_addr];\n    }\n\n    function getMemberInfo(address _addr) public view returns (uint, bytes32, uint, uint, bytes32){\n        return getIdInfo(addressToId[_addr]);\n    }\n\n    function getIdInfo(uint _id) public view returns (uint, bytes32, uint, uint, bytes32){\n        uint status;  // 0=failed connection, 1=active member, 2=expired, 3=not member\n        if (_id == 0) {\n            status = 3;\n        } else {\n            if (idIsActiveMember(_id)){\n                status = 1;\n            } else {\n                status = 2;\n            }\n        }\n        return (status, bytes32(_id), memberDB[_id].since, memberDB[_id].penalty, memberDB[_id].kycid);\n    }\n\n    // upgradable\n    function pause() external coreManagerOnly whenNotPaused {\n        paused = true;\n    }\n\n    function unpause() public ownerOnly whenPaused {\n        // set to ownerOnly in case accounts of other managers are compromised\n        paused = false;\n    }\n\n\n}\n",
  "sourcePath": "/home/kai/Work/project/Optract/contracts/MemberShip.sol",
  "compiler": {
    "name": "solc",
    "version": "0.5.2+commit.1df8f40c.Linux.g++"
  },
  "schemaVersion": "3.0.1",
  "updatedAt": "2019-03-15T12:14:24.556Z",
  "devdoc": {
    "methods": {}
  },
  "userdoc": {
    "methods": {}
  }
}