{
  "contractName": "MemberShip",
  "abi": [
    {
      "constant": true,
      "inputs": [
        {
          "name": "",
          "type": "uint256"
        }
      ],
      "name": "coreManager",
      "outputs": [
        {
          "name": "",
          "type": "address"
        }
      ],
      "payable": false,
      "stateMutability": "view",
      "type": "function",
      "signature": "0x0d0d80ad"
    },
    {
      "constant": true,
      "inputs": [],
      "name": "paused",
      "outputs": [
        {
          "name": "",
          "type": "bool"
        }
      ],
      "payable": false,
      "stateMutability": "view",
      "type": "function",
      "signature": "0x5c975abb"
    },
    {
      "constant": true,
      "inputs": [],
      "name": "totalMembers",
      "outputs": [
        {
          "name": "",
          "type": "uint256"
        }
      ],
      "payable": false,
      "stateMutability": "view",
      "type": "function",
      "signature": "0x76e92559"
    },
    {
      "constant": true,
      "inputs": [],
      "name": "owner",
      "outputs": [
        {
          "name": "",
          "type": "address"
        }
      ],
      "payable": false,
      "stateMutability": "view",
      "type": "function",
      "signature": "0x8da5cb5b"
    },
    {
      "constant": true,
      "inputs": [],
      "name": "memberPeriod",
      "outputs": [
        {
          "name": "",
          "type": "uint256"
        }
      ],
      "payable": false,
      "stateMutability": "view",
      "type": "function",
      "signature": "0xaba35b72"
    },
    {
      "constant": true,
      "inputs": [],
      "name": "totalManagers",
      "outputs": [
        {
          "name": "",
          "type": "uint256"
        }
      ],
      "payable": false,
      "stateMutability": "view",
      "type": "function",
      "signature": "0xd5eb7cf4"
    },
    {
      "constant": true,
      "inputs": [],
      "name": "fee",
      "outputs": [
        {
          "name": "",
          "type": "uint256"
        }
      ],
      "payable": false,
      "stateMutability": "view",
      "type": "function",
      "signature": "0xddca3f43"
    },
    {
      "constant": true,
      "inputs": [
        {
          "name": "",
          "type": "address"
        }
      ],
      "name": "appWhitelist",
      "outputs": [
        {
          "name": "",
          "type": "bool"
        }
      ],
      "payable": false,
      "stateMutability": "view",
      "type": "function",
      "signature": "0xfe2b5de1"
    },
    {
      "inputs": [],
      "payable": false,
      "stateMutability": "nonpayable",
      "type": "constructor",
      "signature": "constructor"
    },
    {
      "constant": false,
      "inputs": [],
      "name": "buyMembership",
      "outputs": [
        {
          "name": "",
          "type": "bool"
        }
      ],
      "payable": true,
      "stateMutability": "payable",
      "type": "function",
      "signature": "0x5c581119"
    },
    {
      "constant": false,
      "inputs": [],
      "name": "renewMembership",
      "outputs": [
        {
          "name": "",
          "type": "uint256"
        }
      ],
      "payable": true,
      "stateMutability": "payable",
      "type": "function",
      "signature": "0x0933b939"
    },
    {
      "constant": false,
      "inputs": [
        {
          "name": "_addr",
          "type": "address"
        },
        {
          "name": "_id",
          "type": "uint256"
        }
      ],
      "name": "addManager",
      "outputs": [
        {
          "name": "",
          "type": "bool"
        }
      ],
      "payable": false,
      "stateMutability": "nonpayable",
      "type": "function",
      "signature": "0x75fb0d78"
    },
    {
      "constant": false,
      "inputs": [
        {
          "name": "_addr",
          "type": "address"
        },
        {
          "name": "_id",
          "type": "uint256"
        }
      ],
      "name": "rmManager",
      "outputs": [
        {
          "name": "",
          "type": "bool"
        }
      ],
      "payable": false,
      "stateMutability": "nonpayable",
      "type": "function",
      "signature": "0x84b29cf4"
    },
    {
      "constant": false,
      "inputs": [
        {
          "name": "_id",
          "type": "uint256"
        },
        {
          "name": "_kycid",
          "type": "bytes32"
        }
      ],
      "name": "assginKYCid",
      "outputs": [
        {
          "name": "",
          "type": "bool"
        }
      ],
      "payable": false,
      "stateMutability": "nonpayable",
      "type": "function",
      "signature": "0xc9a69336"
    },
    {
      "constant": false,
      "inputs": [
        {
          "name": "_addr",
          "type": "address"
        }
      ],
      "name": "addWhitelistApps",
      "outputs": [
        {
          "name": "",
          "type": "bool"
        }
      ],
      "payable": false,
      "stateMutability": "nonpayable",
      "type": "function",
      "signature": "0x0d2da680"
    },
    {
      "constant": false,
      "inputs": [
        {
          "name": "_addr",
          "type": "address"
        }
      ],
      "name": "rmWhitelistApps",
      "outputs": [
        {
          "name": "",
          "type": "bool"
        }
      ],
      "payable": false,
      "stateMutability": "nonpayable",
      "type": "function",
      "signature": "0xa7f70e73"
    },
    {
      "constant": false,
      "inputs": [
        {
          "name": "_id",
          "type": "uint256"
        },
        {
          "name": "_penalty",
          "type": "uint256"
        }
      ],
      "name": "addPenalty",
      "outputs": [
        {
          "name": "",
          "type": "uint256"
        }
      ],
      "payable": false,
      "stateMutability": "nonpayable",
      "type": "function",
      "signature": "0xc6906749"
    },
    {
      "constant": true,
      "inputs": [
        {
          "name": "_id",
          "type": "uint256"
        }
      ],
      "name": "readNotes",
      "outputs": [
        {
          "name": "",
          "type": "string"
        }
      ],
      "payable": false,
      "stateMutability": "view",
      "type": "function",
      "signature": "0xc449b262"
    },
    {
      "constant": false,
      "inputs": [
        {
          "name": "_id",
          "type": "uint256"
        },
        {
          "name": "_notes",
          "type": "string"
        }
      ],
      "name": "addNotes",
      "outputs": [],
      "payable": false,
      "stateMutability": "nonpayable",
      "type": "function",
      "signature": "0xd9ed28b7"
    },
    {
      "constant": true,
      "inputs": [
        {
          "name": "_addr",
          "type": "address"
        }
      ],
      "name": "addrIsMember",
      "outputs": [
        {
          "name": "",
          "type": "bool"
        }
      ],
      "payable": false,
      "stateMutability": "view",
      "type": "function",
      "signature": "0x7a7d32e5"
    },
    {
      "constant": true,
      "inputs": [
        {
          "name": "_addr",
          "type": "address"
        }
      ],
      "name": "addrIsActiveMember",
      "outputs": [
        {
          "name": "",
          "type": "bool"
        }
      ],
      "payable": false,
      "stateMutability": "view",
      "type": "function",
      "signature": "0xc41a32ec"
    },
    {
      "constant": true,
      "inputs": [
        {
          "name": "_id",
          "type": "uint256"
        }
      ],
      "name": "idIsMember",
      "outputs": [
        {
          "name": "",
          "type": "bool"
        }
      ],
      "payable": false,
      "stateMutability": "view",
      "type": "function",
      "signature": "0xf3334ed8"
    },
    {
      "constant": true,
      "inputs": [
        {
          "name": "_id",
          "type": "uint256"
        }
      ],
      "name": "idIsActiveMember",
      "outputs": [
        {
          "name": "",
          "type": "bool"
        }
      ],
      "payable": false,
      "stateMutability": "view",
      "type": "function",
      "signature": "0x9dd9d6d5"
    },
    {
      "constant": true,
      "inputs": [],
      "name": "queryCoreManager",
      "outputs": [
        {
          "name": "",
          "type": "bool"
        }
      ],
      "payable": false,
      "stateMutability": "view",
      "type": "function",
      "signature": "0xd7e4ff3a"
    },
    {
      "constant": true,
      "inputs": [
        {
          "name": "_addr",
          "type": "address"
        }
      ],
      "name": "addrToId",
      "outputs": [
        {
          "name": "",
          "type": "uint256"
        }
      ],
      "payable": false,
      "stateMutability": "view",
      "type": "function",
      "signature": "0xa33c4df1"
    },
    {
      "constant": true,
      "inputs": [
        {
          "name": "_addr",
          "type": "address"
        }
      ],
      "name": "getMemberInfo",
      "outputs": [
        {
          "name": "",
          "type": "uint256"
        },
        {
          "name": "",
          "type": "bytes32"
        },
        {
          "name": "",
          "type": "uint256"
        },
        {
          "name": "",
          "type": "uint256"
        },
        {
          "name": "",
          "type": "bytes32"
        }
      ],
      "payable": false,
      "stateMutability": "view",
      "type": "function",
      "signature": "0x5f1231ea"
    },
    {
      "constant": true,
      "inputs": [
        {
          "name": "_id",
          "type": "uint256"
        }
      ],
      "name": "getIdInfo",
      "outputs": [
        {
          "name": "",
          "type": "uint256"
        },
        {
          "name": "",
          "type": "bytes32"
        },
        {
          "name": "",
          "type": "uint256"
        },
        {
          "name": "",
          "type": "uint256"
        },
        {
          "name": "",
          "type": "bytes32"
        }
      ],
      "payable": false,
      "stateMutability": "view",
      "type": "function",
      "signature": "0x361ad979"
    },
    {
      "constant": false,
      "inputs": [],
      "name": "pause",
      "outputs": [],
      "payable": false,
      "stateMutability": "nonpayable",
      "type": "function",
      "signature": "0x8456cb59"
    },
    {
      "constant": false,
      "inputs": [],
      "name": "unpause",
      "outputs": [],
      "payable": false,
      "stateMutability": "nonpayable",
      "type": "function",
      "signature": "0x3f4ba83a"
    }
  ],
  "bytecode": "0x60806040526000600481905560055567016345785d8a00006006556301e133806007556008805460ff191690553480156200003957600080fd5b5060008054600160a060020a031916331790556040805160608101825273b440ea2780614b3c6a00e512f432785e7dfafa3e8152734ad56641c569c91c64c28a904cda50ae5326da41602082015273af7400787c54422be8b44154b1273661f1259ccd91810191909152620000b390600190600362000266565b5060005b6003811015620000fb57620000f160018260038110620000d357fe5b0154600160a060020a03166001830164010000000062000102810204565b50600101620000b7565b506200038b565b60006001810154600160a060020a03163314806200012c57506001800154600160a060020a031633145b80620001455750600160020154600160a060020a031633145b15156200015157600080fd5b600082815260096020526040902054600160a060020a0316156200017457600080fd5b600160a060020a0383166000908152600a6020526040902054156200019857600080fd5b6103e88210620001a757600080fd5b60048054600190810182556005805482019055600160a060020a038581166000818152600a60209081526040808320899055805160a08101825293845242848301908152848201848152606086018b815283518086018552868152608088019081528c8752600986529390952086518154600160a060020a0319169816979097178755905196860196909655945160028501559051600384015592518051919492936200025a93850192910190620002c3565b50600195945050505050565b8260038101928215620002b1579160200282015b82811115620002b15782518254600160a060020a031916600160a060020a039091161782556020909201916001909101906200027a565b50620002bf92915062000344565b5090565b828054600181600116156101000203166002900490600052602060002090601f016020900481019282601f106200030657805160ff191683800117855562000336565b8280016001018555821562000336579182015b828111156200033657825182559160200191906001019062000319565b50620002bf9291506200036e565b6200036b91905b80821115620002bf578054600160a060020a03191681556001016200034b565b90565b6200036b91905b80821115620002bf576000815560010162000375565b61142e806200039b6000396000f3fe6080604052600436106101d4576000357c0100000000000000000000000000000000000000000000000000000000900480639dd9d6d511610109578063c9a69336116100a7578063d9ed28b711610081578063d9ed28b714610621578063ddca3f43146106a5578063f3334ed8146106ba578063fe2b5de1146106e4576101d4565b8063c9a69336146105c7578063d5eb7cf4146105f7578063d7e4ff3a1461060c576101d4565b8063aba35b72116100e3578063aba35b72146104b0578063c41a32ec146104c5578063c449b262146104f8578063c690674914610597576101d4565b80639dd9d6d514610420578063a33c4df11461044a578063a7f70e731461047d576101d4565b80635f1231ea116101765780637a7d32e5116101505780637a7d32e51461038a5780638456cb59146103bd57806384b29cf4146103d25780638da5cb5b1461040b576101d4565b80635f1231ea1461030957806375fb0d781461033c57806376e9255914610375576101d4565b8063361ad979116101b2578063361ad979146102805780633f4ba83a146102d55780635c581119146102ec5780635c975abb146102f4576101d4565b80630933b939146101d95780630d0d80ad146101f35780630d2da68014610239575b600080fd5b6101e1610717565b60408051918252519081900360200190f35b3480156101ff57600080fd5b5061021d6004803603602081101561021657600080fd5b50356107e8565b60408051600160a060020a039092168252519081900360200190f35b34801561024557600080fd5b5061026c6004803603602081101561025c57600080fd5b5035600160a060020a0316610805565b604080519115158252519081900360200190f35b34801561028c57600080fd5b506102aa600480360360208110156102a357600080fd5b503561087e565b6040805195865260208601949094528484019290925260608401526080830152519081900360a00190f35b3480156102e157600080fd5b506102ea6108dc565b005b61026c610910565b34801561030057600080fd5b5061026c610a21565b34801561031557600080fd5b506102aa6004803603602081101561032c57600080fd5b5035600160a060020a0316610a2a565b34801561034857600080fd5b5061026c6004803603604081101561035f57600080fd5b50600160a060020a038135169060200135610a66565b34801561038157600080fd5b506101e1610bcf565b34801561039657600080fd5b5061026c600480360360208110156103ad57600080fd5b5035600160a060020a0316610bd5565b3480156103c957600080fd5b506102ea610c2f565b3480156103de57600080fd5b5061026c600480360360408110156103f557600080fd5b50600160a060020a038135169060200135610c99565b34801561041757600080fd5b5061021d610e47565b34801561042c57600080fd5b5061026c6004803603602081101561044357600080fd5b5035610e56565b34801561045657600080fd5b506101e16004803603602081101561046d57600080fd5b5035600160a060020a0316610ea3565b34801561048957600080fd5b5061026c600480360360208110156104a057600080fd5b5035600160a060020a0316610ebe565b3480156104bc57600080fd5b506101e1610f2f565b3480156104d157600080fd5b5061026c600480360360208110156104e857600080fd5b5035600160a060020a0316610f35565b34801561050457600080fd5b506105226004803603602081101561051b57600080fd5b5035610fb6565b6040805160208082528351818301528351919283929083019185019080838360005b8381101561055c578181015183820152602001610544565b50505050905090810190601f1680156105895780820380516001836020036101000a031916815260200191505b509250505060405180910390f35b3480156105a357600080fd5b506101e1600480360360408110156105ba57600080fd5b50803590602001356110af565b3480156105d357600080fd5b5061026c600480360360408110156105ea57600080fd5b508035906020013561116d565b34801561060357600080fd5b506101e16111f6565b34801561061857600080fd5b5061026c6111fc565b34801561062d57600080fd5b506102ea6004803603604081101561064457600080fd5b8135919081019060408101602082013564010000000081111561066657600080fd5b82018360208201111561067857600080fd5b8035906020019184600183028401116401000000008311171561069a57600080fd5b509092509050611252565b3480156106b157600080fd5b506101e16112c0565b3480156106c657600080fd5b5061026c600480360360208110156106dd57600080fd5b50356112c6565b3480156106f057600080fd5b5061026c6004803603602081101561070757600080fd5b5035600160a060020a03166112eb565b336000818152600a6020908152604080832054808452600990925282205491929091600160a060020a031614801561074e57503315155b151561075957600080fd5b6000818152600960205260408120600101541161077557600080fd5b60065434101561078457600080fd5b60085460ff161561079457600080fd5b336000908152600a602090815260408083205460075481855260099093529220600101540162093a7f190142116107ca57600080fd5b600090815260096020526040902042600190910181905591505b5090565b600181600381106107f557fe5b0154600160a060020a0316905081565b60006001810154600160a060020a031633148061082e57506001800154600160a060020a031633145b806108465750600160020154600160a060020a031633145b151561085157600080fd5b50600160a060020a0381166000908152600b60205260409020805460ff191660019081179091555b919050565b60008080808080861515610894575060036108ae565b61089d87610e56565b156108aa575060016108ae565b5060025b6000878152600960205260409020600181015460028201546003909201549299909750909550909350915050565b600054600160a060020a031633146108f357600080fd5b60085460ff16151561090457600080fd5b6008805460ff19169055565b60065460009034101561092257600080fd5b60085460ff161561093257600080fd5b336000908152600a60205260409020541561094c57600080fd5b600480546001818101835560058054336000818152600a60209081526040808320949097036103e90193849055865160a0810188529283524283820190815283880183815295548954036103e8016060850190815288518084018a5284815260808601908152868552600984529890932084518154600160a060020a039190911673ffffffffffffffffffffffffffffffffffffffff1990911617815590519681019690965593516002860155516003850155935180519195610a159390850192910190611300565b50600193505050505b90565b60085460ff1681565b600160a060020a0381166000908152600a60205260408120548190819081908190610a549061087e565b939a9299509097509550909350915050565b60006001810154600160a060020a0316331480610a8f57506001800154600160a060020a031633145b80610aa75750600160020154600160a060020a031633145b1515610ab257600080fd5b600082815260096020526040902054600160a060020a031615610ad457600080fd5b600160a060020a0383166000908152600a602052604090205415610af757600080fd5b6103e88210610b0557600080fd5b60048054600190810182556005805482019055600160a060020a038581166000818152600a60209081526040808320899055805160a08101825293845242848301908152848201848152606086018b815283518086018552868152608088019081528c875260098652939095208651815473ffffffffffffffffffffffffffffffffffffffff1916981697909717875590519686019690965594516002850155905160038401559251805191949293610bc393850192910190611300565b50600195945050505050565b60045481565b6000600160a060020a0382161515610bec57600080fd5b610bf46111fc565b15610c0157506001610879565b600160a060020a0382166000908152600a602052604090205415610c2757506001610879565b506000610879565b600160000154600160a060020a0316331480610c5757506001800154600160a060020a031633145b80610c6f5750600160020154600160a060020a031633145b1515610c7a57600080fd5b60085460ff1615610c8a57600080fd5b6008805460ff19166001179055565b60006001810154600160a060020a0316331480610cc257506001800154600160a060020a031633145b80610cda5750600160020154600160a060020a031633145b1515610ce557600080fd5b600082815260096020526040902054600160a060020a03161515610d0857600080fd5b600160a060020a0383166000908152600a60205260409020541515610d2c57600080fd5b6103e88210610d3a57600080fd5b600154600160a060020a03848116911614801590610d665750600254600160a060020a03848116911614155b8015610d805750600354600160a060020a03848116911614155b1515610d8b57600080fd5b600480546000199081018255600580549091019055600160a060020a038481166000908152600a60209081526040808320839055805160a0810182528381528083018481528183018581526060830186815284518087018652878152608085019081528b885260098752949096208351815473ffffffffffffffffffffffffffffffffffffffff1916981697909717875590516001870155516002860155925160038501555180519294610bc393908501929190910190611300565b600054600160a060020a031681565b6000811515610e6757506000610879565b60008281526009602052604090206002810154600754600190920154429201031180610e965750610e966111fc565b15610c2757506001610879565b600160a060020a03166000908152600a602052604090205490565b60006001810154600160a060020a0316331480610ee757506001800154600160a060020a031633145b80610eff5750600160020154600160a060020a031633145b1515610f0a57600080fd5b50600160a060020a03166000908152600b60205260409020805460ff19169055600190565b60075481565b6000600160a060020a0382161515610f4c57600080fd5b600160a060020a0382166000908152600a6020526040902054610f6d6111fc565b15610f7c576001915050610879565b60008181526009602052604090206002810154600754600190920154429201031115610fac576001915050610879565b6000915050610879565b336000908152600a6020526040902054606090821480610fe65750336000908152600a60205260409020546103e8115b1515610ff157600080fd5b6000828152600960205260408120600101541161100d57600080fd5b60008281526009602090815260409182902060040180548351601f6002600019610100600186161502019093169290920491820184900484028101840190945280845290918301828280156110a35780601f10611078576101008083540402835291602001916110a3565b820191906000526020600020905b81548152906001019060200180831161108657829003601f168201915b50505050509050919050565b336000908152600b602052604081205460ff16151560011480156110d1575033155b15156110dc57600080fd5b600083815260096020526040812060010154116110f857600080fd5b60075482111561110757600080fd5b6007546000848152600960205260409020600201548301111561113e57600754600084815260096020526040902060020155611156565b60008381526009602052604090206002018054830190555b505060009081526009602052604090206002015490565b336000908152600a60205260408120546103e88110801561119157506111916111fc565b151561119c57600080fd5b6000848152600960205260408120600101541180156111d15750600084815260096020526040902054600160a060020a031615155b15156111dc57600080fd5b505060009182526009602052604090912060030155600190565b60055481565b60006001810154600160a060020a031633148061122557506001800154600160a060020a031633145b8061123d5750600160020154600160a060020a031633145b1561124a57506001610a1e565b506000610a1e565b336000908152600a60205260409020546103e88110801561127657506112766111fc565b151561128157600080fd5b6000848152600960205260408120600101541161129d57600080fd5b60008481526009602052604090206112b990600401848461137a565b5050505050565b60065481565b600081815260096020526040812054600160a060020a031615610c2757506001610879565b600b6020526000908152604090205460ff1681565b828054600181600116156101000203166002900490600052602060002090601f016020900481019282601f1061134157805160ff191683800117855561136e565b8280016001018555821561136e579182015b8281111561136e578251825591602001919060010190611353565b506107e49291506113e8565b828054600181600116156101000203166002900490600052602060002090601f016020900481019282601f106113bb5782800160ff1982351617855561136e565b8280016001018555821561136e579182015b8281111561136e5782358255916020019190600101906113cd565b610a1e91905b808211156107e457600081556001016113ee56fea165627a7a7230582080db02f3cd38ef99babadda389b38dbb186c0b83e5214cc558a92f6a570abc960029",
  "source": "pragma solidity ^0.5.2;\n\n\ncontract MemberShip {\n    address public owner;\n    address[3] public coreManager;\n    uint public totalMembers = 0;\n    uint public totalManagers = 0;\n    uint public fee = 0.1 ether;\n    uint public memberPeriod = 365 days;\n    bool public paused = false;\n\n    struct MemberInfo {\n        address addr;\n        uint since;  // beginning (unix) time of previous membership, unit: seconds\n        uint penalty;  // the membership is valid until: since + memberPeriod - penalty;\n        bytes32 kycid;  // know your customer id, leave it for future\n        string notes;\n    }\n\n    mapping (uint => MemberInfo) internal memberDB;  // id to MemberInfo; id of managers start from 1, id of normal members start from 1000\n    mapping (address => uint) internal addressToId;  // address to membership\n\n    mapping (address => bool) public appWhitelist;\n\n    constructor() public {\n        owner = msg.sender;\n        coreManager = [0xB440ea2780614b3c6a00e512f432785E7dfAFA3E,\n                        0x4AD56641C569C91C64C28a904cda50AE5326Da41,\n                        0xaF7400787c54422Be8B44154B1273661f1259CcD];\n        // core managers are also members\n        for (uint i=0; i<3; i++) {\n            addManager(coreManager[i], i+1);\n        }\n    }\n\n    modifier ownerOnly() {\n        require(msg.sender == owner);\n        _;\n    }\n\n    modifier coreManagerOnly() {\n        require(msg.sender == coreManager[0] || msg.sender == coreManager[1] || msg.sender == coreManager[2]);\n        _;\n    }\n\n    modifier managerOnly() {\n        uint _id = addressToId[msg.sender];\n        require(_id < 1000 && queryCoreManager());\n        _;\n    }\n\n    modifier feePaid() {\n        require(msg.value >= fee);  // or \"==\"?\n        _;\n    }\n\n    modifier isMember() {\n        uint _id = addressToId[msg.sender];\n        require(memberDB[_id].addr == msg.sender && msg.sender != address(0));\n        require(memberDB[_id].since > 0);\n        // require(addressToId[msg.sender] == _id);\n        _;\n    }\n\n    modifier isActiveMember() {\n        uint _id = addressToId[msg.sender];\n        require(memberDB[_id].addr == msg.sender && msg.sender != address(0));\n        require(memberDB[_id].since + memberPeriod - memberDB[_id].penalty > block.timestamp || queryCoreManager());\n        // require(_id != 0);  // already excluded by first condition\n        _;\n    }\n\n    modifier whenNotPaused() {\n        require(!paused);\n        _;\n    }\n\n    modifier whenPaused {\n        require(paused);\n        _;\n    }\n\n    // membership\n    function buyMembership() public payable feePaid whenNotPaused returns (bool) {\n        require(addressToId[msg.sender] == 0);\n        totalMembers += 1;\n        uint _id = 1000 + totalMembers - totalManagers;\n        addressToId[msg.sender] = _id;\n        memberDB[_id] = MemberInfo(msg.sender, block.timestamp, 0, bytes32(1000 + totalMembers - totalManagers), \"\");\n        return true;\n    }\n\n    // function cancelMembership() public isMember whenNotPaused returns (bool) {\n    //     uint _id = addressToId[msg.sender];\n    //     totalMembers -= 1;\n    //     addressToId[msg.sender] = 0;\n    //     memberDB[_id] = MemberInfo(address(0), 0, 0, bytes32(), \"\");\n    //     return true;\n    // }\n\n    function renewMembership() public payable isMember feePaid whenNotPaused returns (uint) {\n        // one can renew membership ? days before expire, and the new period start from this call\n        uint _id = addressToId[msg.sender];\n        require(block.timestamp > memberDB[_id].since + memberPeriod - 7 days);  // 7 days or?\n        memberDB[_id].since = block.timestamp;\n        return block.timestamp;\n    }\n\n    function addManager(address _addr, uint _id) public coreManagerOnly returns (bool) {\n        require(memberDB[_id].addr == address(0));\n        require(addressToId[_addr] == 0);  // is it necessary?\n        require(_id < 1000);\n        totalMembers += 1;\n        totalManagers += 1;\n        addressToId[_addr] = _id;\n        memberDB[_id] = MemberInfo(_addr, block.timestamp, 0, bytes32(_id), \"\");\n        return true;\n    }\n\n    function rmManager(address _addr, uint _id) public coreManagerOnly returns (bool) {\n        require(memberDB[_id].addr != address(0));\n        require(addressToId[_addr] != 0);\n        require(_id < 1000);\n        require(_addr != coreManager[0] && _addr != coreManager[1] && _addr != coreManager[2]);\n        totalMembers -= 1;\n        totalManagers -= 1;\n        addressToId[_addr] = 0;\n        memberDB[_id] = MemberInfo(address(0), 0, 0, bytes32(0), \"\");\n        return true;\n    }\n\n    function assginKYCid(uint _id, bytes32 _kycid) external managerOnly returns (bool) {\n        // instead of \"managerOnly\", probably add another group to do that\n        require(memberDB[_id].since > 0 && memberDB[_id].addr != address(0));\n        memberDB[_id].kycid = _kycid;\n        return true;\n    }\n\n    function addWhitelistApps(address _addr) public coreManagerOnly returns (bool) {\n        appWhitelist[_addr] = true;\n        return true;\n    }\n\n    function rmWhitelistApps(address _addr) public coreManagerOnly returns (bool) {\n        appWhitelist[_addr] = false;\n        return true;\n    }\n\n    function addPenalty(uint _id, uint _penalty) external returns (uint) {\n        require(appWhitelist[msg.sender] == true && msg.sender == address(0));  // the msg.sender (usually a contract) is in appWhitelist\n        require(memberDB[_id].since > 0);  // is a member\n        require(_penalty <= memberPeriod);  // prevent too much penalty\n\n        if (memberDB[_id].penalty + _penalty > memberPeriod) {\n            memberDB[_id].penalty = memberPeriod;  // if 0 then not a member\n        } else {\n            memberDB[_id].penalty += _penalty;\n        }\n        return memberDB[_id].penalty;\n    }\n\n    function readNotes(uint _id) external view returns (string memory) {\n        require(addressToId[msg.sender] == _id || addressToId[msg.sender] < 1000);\n        require(memberDB[_id].since > 0);\n        return memberDB[_id].notes;\n    }\n\n    function addNotes(uint _id, string calldata _notes) external managerOnly {\n        require(memberDB[_id].since > 0);\n        memberDB[_id].notes = _notes;\n    }\n\n    // some query functions\n    function addrIsMember(address _addr) public view returns (bool) {\n        require(_addr != address(0));\n        if (queryCoreManager()){\n            return true;\n        } else if (addressToId[_addr] != 0) {\n            return true;\n        } else {\n            return false;\n        }\n    }\n\n    function addrIsActiveMember(address _addr) public view returns (bool) {\n        require(_addr != address(0));\n        uint _id = addressToId[_addr];\n        if (queryCoreManager()){\n            return true;  // core managers\n        } else if (memberDB[_id].since + memberPeriod - memberDB[_id].penalty > block.timestamp) {\n            return true;  // not yet expire\n        } else {\n            return false;\n        }\n    }\n\n    function idIsMember(uint _id) public view returns (bool) {\n        // if (_id == 0) {\n        //     return false;\n        if (memberDB[_id].addr != address(0)) {\n            return true;\n        } else {\n            return false;\n        }\n    }\n\n    function idIsActiveMember(uint _id) public view returns (bool) {\n        if (_id == 0) {\n            return false;\n        } else if (memberDB[_id].since + memberPeriod - memberDB[_id].penalty > block.timestamp || queryCoreManager()) {\n            return true;\n        } else {\n            return false;\n        }\n    }\n\n    function queryCoreManager() public view returns (bool) {\n        if (msg.sender == coreManager[0] || msg.sender == coreManager[1] || msg.sender == coreManager[2]) {\n            return true;\n        } else {\n            return false;\n        }\n    }\n\n    function addrToId(address _addr) external view returns (uint) {\n        return addressToId[_addr];\n    }\n\n    function getMemberInfo(address _addr) public view returns (uint, bytes32, uint, uint, bytes32){\n        return getIdInfo(addressToId[_addr]);\n    }\n\n    function getIdInfo(uint _id) public view returns (uint, bytes32, uint, uint, bytes32){\n        uint status;  // 0=failed connection, 1=active member, 2=expired, 3=not member\n        if (_id == 0) {\n            status = 3;\n        } else {\n            if (idIsActiveMember(_id)){\n                status = 1;\n            } else {\n                status = 2;\n            }\n        }\n        return (status, bytes32(_id), memberDB[_id].since, memberDB[_id].penalty, memberDB[_id].kycid);\n    }\n\n    // upgradable\n    function pause() external coreManagerOnly whenNotPaused {\n        paused = true;\n    }\n\n    function unpause() public ownerOnly whenPaused {\n        // set to ownerOnly in case accounts of other managers are compromised\n        paused = false;\n    }\n\n\n}\n",
  "sourcePath": "/home/kai/Work/project/Optract/contracts/MemberShip.sol",
  "compiler": {
    "name": "solc",
    "version": "0.5.2+commit.1df8f40c.Linux.g++"
  },
  "schemaVersion": "3.0.1",
  "updatedAt": "2019-03-18T04:27:33.015Z",
  "devdoc": {
    "methods": {}
  },
  "userdoc": {
    "methods": {}
  }
}