{
  "contractName": "Optract",
  "abi": [
    {
      "constant": true,
      "inputs": [],
      "name": "exercised",
      "outputs": [
        {
          "name": "",
          "type": "bool"
        }
      ],
      "payable": false,
      "stateMutability": "view",
      "type": "function",
      "signature": "0x14c68b1b"
    },
    {
      "constant": true,
      "inputs": [],
      "name": "blkAddr",
      "outputs": [
        {
          "name": "",
          "type": "address"
        }
      ],
      "payable": false,
      "stateMutability": "view",
      "type": "function",
      "signature": "0x28f402b1"
    },
    {
      "constant": true,
      "inputs": [],
      "name": "ethSeller",
      "outputs": [
        {
          "name": "",
          "type": "address"
        }
      ],
      "payable": false,
      "stateMutability": "view",
      "type": "function",
      "signature": "0x35b132f9"
    },
    {
      "constant": true,
      "inputs": [],
      "name": "expired",
      "outputs": [
        {
          "name": "",
          "type": "bool"
        }
      ],
      "payable": false,
      "stateMutability": "view",
      "type": "function",
      "signature": "0x4c2067c7"
    },
    {
      "constant": true,
      "inputs": [],
      "name": "registryAddr",
      "outputs": [
        {
          "name": "",
          "type": "address"
        }
      ],
      "payable": false,
      "stateMutability": "view",
      "type": "function",
      "signature": "0x51da2eaa"
    },
    {
      "constant": true,
      "inputs": [],
      "name": "optionPrice",
      "outputs": [
        {
          "name": "",
          "type": "uint256"
        }
      ],
      "payable": false,
      "stateMutability": "view",
      "type": "function",
      "signature": "0x7c479449"
    },
    {
      "constant": true,
      "inputs": [],
      "name": "totalPriceInDai",
      "outputs": [
        {
          "name": "",
          "type": "uint256"
        }
      ],
      "payable": false,
      "stateMutability": "view",
      "type": "function",
      "signature": "0x9068f84a"
    },
    {
      "constant": true,
      "inputs": [],
      "name": "currencyTokenAddr",
      "outputs": [
        {
          "name": "",
          "type": "address"
        }
      ],
      "payable": false,
      "stateMutability": "view",
      "type": "function",
      "signature": "0x91d622b9"
    },
    {
      "constant": true,
      "inputs": [],
      "name": "onStock",
      "outputs": [
        {
          "name": "",
          "type": "bool"
        }
      ],
      "payable": false,
      "stateMutability": "view",
      "type": "function",
      "signature": "0xb0d31bc8"
    },
    {
      "constant": true,
      "inputs": [],
      "name": "currentOwner",
      "outputs": [
        {
          "name": "",
          "type": "address"
        }
      ],
      "payable": false,
      "stateMutability": "view",
      "type": "function",
      "signature": "0xb387ef92"
    },
    {
      "constant": true,
      "inputs": [],
      "name": "ethAmount",
      "outputs": [
        {
          "name": "",
          "type": "uint256"
        }
      ],
      "payable": false,
      "stateMutability": "view",
      "type": "function",
      "signature": "0xc98166c0"
    },
    {
      "constant": true,
      "inputs": [],
      "name": "period",
      "outputs": [
        {
          "name": "",
          "type": "uint256"
        }
      ],
      "payable": false,
      "stateMutability": "view",
      "type": "function",
      "signature": "0xef78d4fd"
    },
    {
      "constant": true,
      "inputs": [],
      "name": "originalOwner",
      "outputs": [
        {
          "name": "",
          "type": "address"
        }
      ],
      "payable": false,
      "stateMutability": "view",
      "type": "function",
      "signature": "0xf1fffdcb"
    },
    {
      "constant": true,
      "inputs": [],
      "name": "actionTime",
      "outputs": [
        {
          "name": "",
          "type": "uint256"
        }
      ],
      "payable": false,
      "stateMutability": "view",
      "type": "function",
      "signature": "0xf5e3fc30"
    },
    {
      "inputs": [
        {
          "name": "_ethAmount",
          "type": "uint256"
        },
        {
          "name": "_totalPriceInDai",
          "type": "uint256"
        },
        {
          "name": "_registryAddr",
          "type": "address"
        },
        {
          "name": "_originalOwner",
          "type": "address"
        },
        {
          "name": "_blkAddr",
          "type": "address"
        },
        {
          "name": "_currencyTokenAddr",
          "type": "address"
        }
      ],
      "payable": false,
      "stateMutability": "nonpayable",
      "type": "constructor",
      "signature": "constructor"
    },
    {
      "constant": false,
      "inputs": [],
      "name": "fillInEth",
      "outputs": [],
      "payable": true,
      "stateMutability": "payable",
      "type": "function",
      "signature": "0xc80bcf2e"
    },
    {
      "constant": false,
      "inputs": [
        {
          "name": "proof",
          "type": "bytes32[]"
        },
        {
          "name": "isLeft",
          "type": "bool[]"
        },
        {
          "name": "targetLeaf",
          "type": "bytes32"
        },
        {
          "name": "merkleRoot",
          "type": "bytes32"
        }
      ],
      "name": "claimOptract",
      "outputs": [
        {
          "name": "",
          "type": "bool"
        }
      ],
      "payable": false,
      "stateMutability": "nonpayable",
      "type": "function",
      "signature": "0x5d0a4cde"
    },
    {
      "constant": false,
      "inputs": [
        {
          "name": "_newOptionPrice",
          "type": "uint256"
        }
      ],
      "name": "putOnStock",
      "outputs": [],
      "payable": false,
      "stateMutability": "nonpayable",
      "type": "function",
      "signature": "0xb56fb337"
    },
    {
      "constant": false,
      "inputs": [],
      "name": "currentOwnerExercise",
      "outputs": [],
      "payable": false,
      "stateMutability": "nonpayable",
      "type": "function",
      "signature": "0xd92fe2df"
    },
    {
      "constant": false,
      "inputs": [],
      "name": "ethSellerWithdraw",
      "outputs": [],
      "payable": false,
      "stateMutability": "nonpayable",
      "type": "function",
      "signature": "0xd80cc009"
    },
    {
      "constant": true,
      "inputs": [],
      "name": "queryOptionPrice",
      "outputs": [
        {
          "name": "",
          "type": "uint256"
        }
      ],
      "payable": false,
      "stateMutability": "view",
      "type": "function",
      "signature": "0x76f8dc8e"
    },
    {
      "constant": true,
      "inputs": [],
      "name": "queryOrderPrice",
      "outputs": [
        {
          "name": "",
          "type": "uint256"
        }
      ],
      "payable": false,
      "stateMutability": "view",
      "type": "function",
      "signature": "0xb3fb9fc7"
    },
    {
      "constant": true,
      "inputs": [],
      "name": "queryOrderSize",
      "outputs": [
        {
          "name": "",
          "type": "uint256"
        }
      ],
      "payable": false,
      "stateMutability": "view",
      "type": "function",
      "signature": "0xb02f0a5a"
    },
    {
      "constant": true,
      "inputs": [],
      "name": "queryOnStock",
      "outputs": [
        {
          "name": "",
          "type": "bool"
        }
      ],
      "payable": false,
      "stateMutability": "view",
      "type": "function",
      "signature": "0x070ee067"
    },
    {
      "constant": true,
      "inputs": [],
      "name": "isFilled",
      "outputs": [
        {
          "name": "",
          "type": "bool"
        }
      ],
      "payable": false,
      "stateMutability": "view",
      "type": "function",
      "signature": "0xcf444d9b"
    }
  ],
  "bytecode": "0x6080604052600b805462ffff001916905534801561001c57600080fd5b5060405160c080611403833981018060405260c081101561003c57600080fd5b508051602082015160408301516060840151608085015160a09095015160069490945560079290925560038054600160a060020a03928316600160a060020a03199182161790915560008054938316938216841790556004805495831695821695909517909455600580549190931690841617909155600b805460ff19166001908117909155805490921617905542600955611326806100dd6000396000f3fe608060405260043610610168576000357c010000000000000000000000000000000000000000000000000000000090048063b0d31bc8116100d3578063cf444d9b1161008c578063cf444d9b14610457578063d80cc0091461046c578063d92fe2df14610481578063ef78d4fd14610496578063f1fffdcb146104ab578063f5e3fc30146104c057610168565b8063b0d31bc8146103cf578063b387ef92146103e4578063b3fb9fc7146103f9578063b56fb3371461040e578063c80bcf2e1461043a578063c98166c01461044257610168565b80635d0a4cde116101255780635d0a4cde1461021b57806376f8dc8e146103545780637c4794491461037b5780639068f84a1461039057806391d622b9146103a5578063b02f0a5a146103ba57610168565b8063070ee0671461016d57806314c68b1b1461019657806328f402b1146101ab57806335b132f9146101dc5780634c2067c7146101f157806351da2eaa14610206575b600080fd5b34801561017957600080fd5b506101826104d5565b604080519115158252519081900360200190f35b3480156101a257600080fd5b506101826104de565b3480156101b757600080fd5b506101c06104ed565b60408051600160a060020a039092168252519081900360200190f35b3480156101e857600080fd5b506101c06104fc565b3480156101fd57600080fd5b5061018261050b565b34801561021257600080fd5b506101c0610519565b34801561022757600080fd5b506101826004803603608081101561023e57600080fd5b81019060208101813564010000000081111561025957600080fd5b82018360208201111561026b57600080fd5b8035906020019184602083028401116401000000008311171561028d57600080fd5b91908080602002602001604051908101604052809392919081815260200183836020028082843760009201919091525092959493602081019350359150506401000000008111156102dd57600080fd5b8201836020820111156102ef57600080fd5b8035906020019184602083028401116401000000008311171561031157600080fd5b9190808060200260200160405190810160405280939291908181526020018383602002808284376000920191909152509295505082359350505060200135610528565b34801561036057600080fd5b5061036961083e565b60408051918252519081900360200190f35b34801561038757600080fd5b50610369610844565b34801561039c57600080fd5b5061036961084a565b3480156103b157600080fd5b506101c0610850565b3480156103c657600080fd5b5061036961085f565b3480156103db57600080fd5b50610182610865565b3480156103f057600080fd5b506101c061086e565b34801561040557600080fd5b5061036961087d565b34801561041a57600080fd5b506104386004803603602081101561043157600080fd5b5035610883565b005b610438610a16565b34801561044e57600080fd5b50610369610d09565b34801561046357600080fd5b50610182610d0f565b34801561047857600080fd5b50610438610d32565b34801561048d57600080fd5b50610438610f63565b3480156104a257600080fd5b506103696112bc565b3480156104b757600080fd5b506101c06112c2565b3480156104cc57600080fd5b506103696112d1565b600b5460ff1690565b600b5462010000900460ff1681565b600454600160a060020a031681565b600254600160a060020a031681565b600b54610100900460ff1681565b600354600160a060020a031681565b600254600090600160a060020a031615801590610546575060003031115b151561055157600080fd5b600b5460ff1615156001146105b0576040805160e560020a62461bcd02815260206004820152600c60248201527f6e6f74206f6e2073746f636b0000000000000000000000000000000000000000604482015290519081900360640190fd5b600354604080517f2537127f0000000000000000000000000000000000000000000000000000000081529051600092600160a060020a031691632537127f916004808301926020929190829003018186803b15801561060e57600080fd5b505afa158015610622573d6000803e3d6000fd5b505050506040513d602081101561063857600080fd5b5051905061707f198101421061064d57600080fd5b6009546102580142116106aa576040805160e560020a62461bcd02815260206004820152601760248201527f63616e6e6f74206f70657261746520746f6f20736f6f6e000000000000000000604482015290519081900360640190fd5b600854600554604080517fdd62ed3e00000000000000000000000000000000000000000000000000000000815233600482015230602482015290516101f4840490930192600160a060020a039092169163dd62ed3e91604480820192602092909190829003018186803b15801561072057600080fd5b505afa158015610734573d6000803e3d6000fd5b505050506040513d602081101561074a57600080fd5b5051101561075757600080fd5b60018054600b805460ff191690553373ffffffffffffffffffffffffffffffffffffffff198216811790925542600955600554600854604080517f23b872dd0000000000000000000000000000000000000000000000000000000081526004810195909552600160a060020a0393841660248601819052604486019290925251909392909116916323b872dd9160648083019260209291908290030181600087803b15801561080557600080fd5b505af1158015610819573d6000803e3d6000fd5b505050506040513d602081101561082f57600080fd5b50600198975050505050505050565b60085490565b60085481565b60075481565b600554600160a060020a031681565b60065490565b600b5460ff1681565b600154600160a060020a031681565b60075490565b600254600160a060020a03161580159061089e575060003031115b15156108a957600080fd5b600154600160a060020a0316331461090b576040805160e560020a62461bcd02815260206004820152600960248201527f6e6f74206f776e65720000000000000000000000000000000000000000000000604482015290519081900360640190fd5b600354604080517f2537127f0000000000000000000000000000000000000000000000000000000081529051600092600160a060020a031691632537127f916004808301926020929190829003018186803b15801561096957600080fd5b505afa15801561097d573d6000803e3d6000fd5b505050506040513d602081101561099357600080fd5b5051905061707f19810142106109a857600080fd5b600b5460ff1615610a03576040805160e560020a62461bcd02815260206004820152601a60248201527f63616e206f6e6c7920707574206f6e2053746f636b206f6e6365000000000000604482015290519081900360640190fd5b50600b805460ff19166001179055600855565b600354604080517fba2eb5410000000000000000000000000000000000000000000000000000000081523060048201529051600160a060020a039092169163ba2eb54191602480820192602092909190829003018186803b158015610a7a57600080fd5b505afa158015610a8e573d6000803e3d6000fd5b505050506040513d6020811015610aa457600080fd5b505115610afb576040805160e560020a62461bcd02815260206004820152601160248201527f6e6f772063616e20657863657263697365000000000000000000000000000000604482015290519081900360640190fd5b600254600160a060020a031615610b5c576040805160e560020a62461bcd02815260206004820152601760248201527f6f74686572732066696c6c2045544820616c7265616479000000000000000000604482015290519081900360640190fd5b6006543414610b9f5760405160e560020a62461bcd0281526004018080602001828103825260238152602001806112d86023913960400191505060405180910390fd5b600360009054906101000a9004600160a060020a0316600160a060020a03166310bbc68a6040518163ffffffff167c010000000000000000000000000000000000000000000000000000000002815260040160206040518083038186803b158015610c0957600080fd5b505afa158015610c1d573d6000803e3d6000fd5b505050506040513d6020811015610c3357600080fd5b505160088190556002805473ffffffffffffffffffffffffffffffffffffffff19163390811790915542600955600b805460ff19169055600554604080517fa9059cbb000000000000000000000000000000000000000000000000000000008152600481019390935260248301939093529151600160a060020a03929092169163a9059cbb916044808201926020929091908290030181600087803b158015610cdb57600080fd5b505af1158015610cef573d6000803e3d6000fd5b505050506040513d6020811015610d0557600080fd5b5050565b60065481565b600254600090600160a060020a031615801590610d2d575060003031115b905090565b600354604080517fba2eb5410000000000000000000000000000000000000000000000000000000081523060048201529051600160a060020a039092169163ba2eb54191602480820192602092909190829003018186803b158015610d9657600080fd5b505afa158015610daa573d6000803e3d6000fd5b505050506040513d6020811015610dc057600080fd5b50511515600114610e1b576040805160e560020a62461bcd02815260206004820152601760248201527f63616e206e6f206c6f6e67657220657863657263697365000000000000000000604482015290519081900360640190fd5b600254600160a060020a03163314610e7d576040805160e560020a62461bcd02815260206004820152601a60248201527f6f6e6c792065746853656c6c65722063616e2063616c6c206974000000000000604482015290519081900360640190fd5b600b5462010000900460ff1615610ede576040805160e560020a62461bcd02815260206004820152601160248201527f616c726561647920657865726369736564000000000000000000000000000000604482015290519081900360640190fd5b600b805460ff19169055600354604080517f996916500000000000000000000000000000000000000000000000000000000081529051600160a060020a039092169163996916509160048082019260009290919082900301818387803b158015610f4757600080fd5b505af1158015610f5b573d6000803e3d6000fd5b503392505050ff5b600154600160a060020a03163314610fc5576040805160e560020a62461bcd02815260206004820152600960248201527f6e6f74206f776e65720000000000000000000000000000000000000000000000604482015290519081900360640190fd5b600354604080517f2537127f0000000000000000000000000000000000000000000000000000000081529051600092600160a060020a031691632537127f916004808301926020929190829003018186803b15801561102357600080fd5b505afa158015611037573d6000803e3d6000fd5b505050506040513d602081101561104d57600080fd5b5051600b5490915060ff1615801561106457508042105b8061107d57506170808103421015801561107d57508042105b151561108857600080fd5b6009546102580142116110e5576040805160e560020a62461bcd02815260206004820152601760248201527f63616e6e6f74206f70657261746520746f6f20736f6f6e000000000000000000604482015290519081900360640190fd5b600754600554604080517fdd62ed3e0000000000000000000000000000000000000000000000000000000081523360048201523060248201529051600160a060020a039092169163dd62ed3e91604480820192602092909190829003018186803b15801561115257600080fd5b505afa158015611166573d6000803e3d6000fd5b505050506040513d602081101561117c57600080fd5b5051101561118957600080fd5b600b805462ff0000191662010000179055600354604080517f996916500000000000000000000000000000000000000000000000000000000081529051600160a060020a039092169163996916509160048082019260009290919082900301818387803b1580156111f957600080fd5b505af115801561120d573d6000803e3d6000fd5b5050600554600254600754604080517f23b872dd000000000000000000000000000000000000000000000000000000008152336004820152600160a060020a0393841660248201526044810192909252519190921693506323b872dd925060648083019260209291908290030181600087803b15801561128c57600080fd5b505af11580156112a0573d6000803e3d6000fd5b505050506040513d60208110156112b657600080fd5b50339050ff5b600a5481565b600054600160a060020a031681565b6009548156fe6e65656420746f206465706f73697420657861637420616d6f756e74206f6620455448a165627a7a7230582023adfb5a86a8597bc4cf06d02ffc150e282a778bb4f521ab7dc0277c7a6f65550029",
  "source": "pragma solidity ^0.5.2;\nimport \"./SafeMath.sol\";\nimport \"./RegistryInterface.sol\";\nimport \"./ERC20.sol\";\n// import \"./BlockRegistryInterface.sol\";\n\n/*\nroles:\n   * originalOwner: someone want to buy the right of some ETH, pay DAI to ethSeller\n   * ethSeller: someone want to sell the rights of some ETH, fill in ETH to this contract\n   * buyer: someone want to buy the ownership of those ETH, pay DAI to currentOwner and become new owner\n            (originalOwner is the first buyer)\ntime:\n   * `period`: in order of months\n   * the new contract owner cannot sell the ownership right away\n*/\n\ncontract Optract {\n    using SafeMath for uint256;\n    address public originalOwner;\n    address public currentOwner;\n    address public ethSeller;\n    address public registryAddr;  // the contract registry\n    address public blkAddr;  // the side-chain address\n    address public currencyTokenAddr;\n    uint256 public ethAmount;\n    uint256 public totalPriceInDai;\n    uint256 public optionPrice;\n    uint256 public actionTime;  // right now, the actions are contract creation and newOwner()\n    uint256 public period;  // length of time\n    bool public onStock;\n    bool public expired = false;  // query \"registry\" to determine when to expire\n    bool public exercised = false;\n\n    constructor (\n        uint256 _ethAmount,\n        uint256 _totalPriceInDai,\n        address _registryAddr,\n        address _originalOwner,\n        address _blkAddr,\n        address _currencyTokenAddr\n    ) public {\n        ethAmount = _ethAmount;\n        totalPriceInDai = _totalPriceInDai;\n        registryAddr = _registryAddr;\n        originalOwner = _originalOwner;\n        blkAddr = _blkAddr;\n        currencyTokenAddr = _currencyTokenAddr;\n\n        onStock = true;  // for others to query\n        currentOwner = _originalOwner;\n        actionTime = block.timestamp;  // use this to avoid some too soon operations\n    }\n\n    modifier ownerOnly() {\n        require(msg.sender == currentOwner, \"not owner\");\n        _;\n    }\n\n    modifier ethFilled() {\n        require (ethSeller != address(0) && address(this).balance > 0);\n        _;\n    }\n\n    modifier isOnStock() {\n        require(onStock == true, \"not on stock\");\n        _;\n    }\n\n    modifier whenExpired() {\n        require(iOptractRegistry(registryAddr).isExpired(address(this)) == true, \"can no longer excercise\");\n        _;\n    }\n\n    modifier whenNotExpired() {\n        require(iOptractRegistry(registryAddr).isExpired(address(this)) == false, \"now can excercise\");\n        _;\n    }\n\n    // modifier whenLastExerciseChance() {\n    //     uint256 expireTime = iOptractRegistry(registryAddr).getExpireTime();\n    //     require(block.timestamp >= expireTime - 8 hours && block.timestamp < expireTime);\n    //     _;\n    // }\n\n    modifier whenBeforeLastExerciseChance() {\n        uint256 expireTime = iOptractRegistry(registryAddr).getExpireTime();\n        require(block.timestamp < expireTime - 8 hours);\n        _;\n    }\n\n    modifier whenCanExercise() {\n        uint256 expireTime = iOptractRegistry(registryAddr).getExpireTime();\n        require((onStock == false && block.timestamp < expireTime)\n                || (block.timestamp >= expireTime - 8 hours && block.timestamp < expireTime)\n               );\n        _;\n    }\n    // after construct, need a ethSeller to fill in ETH, and the ethSeller obtain DAI\n    function fillInEth() public payable whenNotExpired {\n        require(ethSeller == address(0), \"others fill ETH already\");  // only one can fill in ETH\n        require(msg.value == ethAmount, \"need to deposit exact amount of ETH\");\n        optionPrice = iOptractRegistry(registryAddr).queryInitPrice();\n        ethSeller = msg.sender;\n        actionTime = block.timestamp;\n        onStock = false;\n        // address(this) get 5 DAI (the fix optionPrice for 1st trade) from originalOwner in 'Registry' contract\n        ERC20(currencyTokenAddr).transfer(msg.sender, optionPrice);\n        // note: the originalOwner can hold for some time then withdraw or putOnStock() at some point\n    }\n\n    // a successful buyer can get the ownership (verified through state channel)\n    function claimOptract(\n        bytes32[] memory proof,\n        bool[] memory isLeft,\n        bytes32 targetLeaf,\n        bytes32 merkleRoot\n    ) public ethFilled isOnStock whenBeforeLastExerciseChance returns(bool) {\n        // verify:  require(calculateLeaf(msg.sender, some_more_data...) == targetLeaf))\n        // require(iBlockRegistry(blkAddr).merkleTreeValidator(proof, isLeft, targetLeaf, merkleRoot) == true, \"invalid Merkle Proof\");\n        // require(block.timestamp > actionTime + 2 hours, \"cannot change ownership too soon\");\n        require(block.timestamp > actionTime + 10 minutes, \"cannot operate too soon\");  // for test purpose\n\trequire(ERC20(currencyTokenAddr).allowance(msg.sender, address(this)) >= optionPrice + optionPrice/500);\n        address prevOwner = currentOwner;\n\n        // new owner\n        onStock = false;  // has to call putOnStock() to make it on stock\n        currentOwner = msg.sender;\n        actionTime = block.timestamp;\n\n        // the new owner transfer DAI to contract owner\n        ERC20(currencyTokenAddr).transferFrom(msg.sender, prevOwner, optionPrice);\n        // ERC20(currencyTokenAddr).transferFrom(msg.sender, iBlockRegistry(blkAddr), optionPrice/500);  // 0.2% fee to block contract\n\n        return true;\n    }\n\n    function putOnStock(uint256 _newOptionPrice) public ethFilled ownerOnly whenBeforeLastExerciseChance {\n        // call it when a buyer want to sell the option\n        require(onStock == false, \"can only put on Stock once\");\n        onStock = true;\n        optionPrice = _newOptionPrice;\n    }\n\n    // function setNewOptionPrice(uint newPrice) public ownerOnly {\n    //     // any restrictions?\n    //     optionPrice = newPrice;\n    // }\n\n    // two ways to end this contract:\n    //   (whenNotExpired) the last owner pay DAI and withdraw ETH or (whenExpired) ethSeller take ETH back\n    function currentOwnerExercise() public ownerOnly whenCanExercise {\n        // require(block.timestamp > actionTime + 2 hours, \"cannot operate too soon\");\n        require(block.timestamp > actionTime + 10 minutes, \"cannot operate too soon\");  // for test purpose\n        require(ERC20(currencyTokenAddr).allowance(msg.sender, address(this)) >= totalPriceInDai);\n        onStock == false;\n        exercised = true;\n\n        iOptractRegistry(registryAddr).destructRecord();  // update record in \"registry\"\n        ERC20(currencyTokenAddr).transferFrom(msg.sender, ethSeller, totalPriceInDai);\n        selfdestruct(msg.sender);  // the residual send to msg.sender\n    }\n\n    function ethSellerWithdraw() public whenExpired {\n        // if the contract owner don't exercise, ethSeller get the eth back\n        require(msg.sender == ethSeller, \"only ethSeller can call it\");\n        require(exercised == false, \"already exercised\");\n        onStock = false;\n\n        iOptractRegistry(registryAddr).destructRecord();  // update record in \"registry\"\n        selfdestruct(msg.sender);  // the residual send to msg.sender\n    }\n\n    // query functions\n    function queryOptionPrice() public view returns (uint256) {\n        return optionPrice;\n    }\n\n    function queryOrderPrice() public view returns (uint256) {\n        return totalPriceInDai;\n    }\n\n    function queryOrderSize() public view returns (uint256) {\n        return ethAmount;\n    }\n\n    function queryOnStock() public view returns (bool) {\n        return onStock;\n    }\n\n    function isFilled() public view returns (bool) {\n        return (ethSeller != address(0) && address(this).balance > 0);\n    }\n\n}\n",
  "sourcePath": "/home/kai/Work/project/Optract/contracts/Optract.sol",
  "compiler": {
    "name": "solc",
    "version": "0.5.2+commit.1df8f40c.Linux.g++"
  },
  "schemaVersion": "3.0.1",
  "updatedAt": "2019-02-28T23:18:52.461Z",
  "devdoc": {
    "methods": {}
  },
  "userdoc": {
    "methods": {}
  }
}