{
  "contractName": "OptractRegistry",
  "abi": [
    {
      "constant": true,
      "inputs": [],
      "name": "totalOpts",
      "outputs": [
        {
          "name": "",
          "type": "uint256"
        }
      ],
      "payable": false,
      "stateMutability": "view",
      "type": "function",
      "signature": "0x14eb3037"
    },
    {
      "constant": true,
      "inputs": [],
      "name": "initialPayment",
      "outputs": [
        {
          "name": "",
          "type": "uint256"
        }
      ],
      "payable": false,
      "stateMutability": "view",
      "type": "function",
      "signature": "0x2199a57d"
    },
    {
      "constant": true,
      "inputs": [],
      "name": "blkAddr",
      "outputs": [
        {
          "name": "",
          "type": "address"
        }
      ],
      "payable": false,
      "stateMutability": "view",
      "type": "function",
      "signature": "0x28f402b1"
    },
    {
      "constant": true,
      "inputs": [],
      "name": "paused",
      "outputs": [
        {
          "name": "",
          "type": "bool"
        }
      ],
      "payable": false,
      "stateMutability": "view",
      "type": "function",
      "signature": "0x5c975abb"
    },
    {
      "constant": true,
      "inputs": [],
      "name": "currencyTokenAddr",
      "outputs": [
        {
          "name": "",
          "type": "address"
        }
      ],
      "payable": false,
      "stateMutability": "view",
      "type": "function",
      "signature": "0x91d622b9"
    },
    {
      "constant": true,
      "inputs": [
        {
          "name": "",
          "type": "uint256"
        }
      ],
      "name": "operators",
      "outputs": [
        {
          "name": "",
          "type": "address"
        }
      ],
      "payable": false,
      "stateMutability": "view",
      "type": "function",
      "signature": "0xe28d4906"
    },
    {
      "inputs": [
        {
          "name": "_currencyTokenAddr",
          "type": "address"
        }
      ],
      "payable": false,
      "stateMutability": "nonpayable",
      "type": "constructor",
      "signature": "constructor"
    },
    {
      "constant": false,
      "inputs": [
        {
          "name": "ETHAmount",
          "type": "uint256"
        },
        {
          "name": "totalPrice",
          "type": "uint256"
        },
        {
          "name": "period",
          "type": "uint256"
        }
      ],
      "name": "createOptract",
      "outputs": [],
      "payable": false,
      "stateMutability": "nonpayable",
      "type": "function",
      "signature": "0x6e9a01a2"
    },
    {
      "constant": false,
      "inputs": [],
      "name": "destructRecord",
      "outputs": [],
      "payable": false,
      "stateMutability": "nonpayable",
      "type": "function",
      "signature": "0x99691650"
    },
    {
      "constant": true,
      "inputs": [],
      "name": "queryInitPrice",
      "outputs": [
        {
          "name": "",
          "type": "uint256"
        }
      ],
      "payable": false,
      "stateMutability": "view",
      "type": "function",
      "signature": "0x10bbc68a"
    },
    {
      "constant": true,
      "inputs": [
        {
          "name": "optractAddress",
          "type": "address"
        }
      ],
      "name": "isExpired",
      "outputs": [
        {
          "name": "",
          "type": "bool"
        }
      ],
      "payable": false,
      "stateMutability": "view",
      "type": "function",
      "signature": "0xba2eb541"
    },
    {
      "constant": true,
      "inputs": [],
      "name": "getExpireTime",
      "outputs": [
        {
          "name": "",
          "type": "uint256"
        }
      ],
      "payable": false,
      "stateMutability": "view",
      "type": "function",
      "signature": "0x2537127f"
    },
    {
      "constant": true,
      "inputs": [
        {
          "name": "_addr",
          "type": "address"
        }
      ],
      "name": "queryOptractRecords",
      "outputs": [
        {
          "name": "",
          "type": "uint256"
        },
        {
          "name": "",
          "type": "uint256"
        },
        {
          "name": "",
          "type": "address"
        }
      ],
      "payable": false,
      "stateMutability": "view",
      "type": "function",
      "signature": "0x38440451"
    },
    {
      "constant": true,
      "inputs": [
        {
          "name": "start",
          "type": "uint256"
        },
        {
          "name": "length",
          "type": "uint256"
        },
        {
          "name": "owner",
          "type": "address"
        }
      ],
      "name": "_getNumOfActiveOptracts",
      "outputs": [
        {
          "name": "",
          "type": "uint256"
        }
      ],
      "payable": false,
      "stateMutability": "view",
      "type": "function",
      "signature": "0x61605f09"
    },
    {
      "constant": true,
      "inputs": [
        {
          "name": "start",
          "type": "uint256"
        },
        {
          "name": "length",
          "type": "uint256"
        },
        {
          "name": "owner",
          "type": "address"
        },
        {
          "name": "_idx",
          "type": "uint8"
        }
      ],
      "name": "activeOptractsLoop",
      "outputs": [
        {
          "name": "",
          "type": "uint256[]"
        }
      ],
      "payable": false,
      "stateMutability": "view",
      "type": "function",
      "signature": "0x3b47ea04"
    },
    {
      "constant": true,
      "inputs": [
        {
          "name": "start",
          "type": "uint256"
        },
        {
          "name": "length",
          "type": "uint256"
        },
        {
          "name": "owner",
          "type": "address"
        }
      ],
      "name": "activeOptractsFilledStatus",
      "outputs": [
        {
          "name": "",
          "type": "address[]"
        },
        {
          "name": "",
          "type": "bool[]"
        }
      ],
      "payable": false,
      "stateMutability": "view",
      "type": "function",
      "signature": "0x4b140961"
    },
    {
      "constant": true,
      "inputs": [
        {
          "name": "start",
          "type": "uint256"
        },
        {
          "name": "length",
          "type": "uint256"
        },
        {
          "name": "owner",
          "type": "address"
        }
      ],
      "name": "activeOptracts",
      "outputs": [
        {
          "name": "",
          "type": "address[]"
        },
        {
          "name": "",
          "type": "uint256[]"
        },
        {
          "name": "",
          "type": "uint256[]"
        },
        {
          "name": "",
          "type": "uint256[]"
        },
        {
          "name": "",
          "type": "uint256[]"
        },
        {
          "name": "",
          "type": "bool[]"
        }
      ],
      "payable": false,
      "stateMutability": "view",
      "type": "function",
      "signature": "0x6769f438"
    },
    {
      "constant": true,
      "inputs": [
        {
          "name": "start",
          "type": "uint256"
        },
        {
          "name": "length",
          "type": "uint256"
        },
        {
          "name": "owner",
          "type": "address"
        }
      ],
      "name": "_getNumOfInActiveOptracts",
      "outputs": [
        {
          "name": "",
          "type": "uint256"
        }
      ],
      "payable": false,
      "stateMutability": "view",
      "type": "function",
      "signature": "0x69edcbdc"
    },
    {
      "constant": true,
      "inputs": [
        {
          "name": "start",
          "type": "uint256"
        },
        {
          "name": "length",
          "type": "uint256"
        },
        {
          "name": "owner",
          "type": "address"
        },
        {
          "name": "_idx",
          "type": "uint8"
        }
      ],
      "name": "inactiveOptractsLoop",
      "outputs": [
        {
          "name": "",
          "type": "uint256[]"
        }
      ],
      "payable": false,
      "stateMutability": "view",
      "type": "function",
      "signature": "0xdac717e2"
    },
    {
      "constant": true,
      "inputs": [
        {
          "name": "start",
          "type": "uint256"
        },
        {
          "name": "length",
          "type": "uint256"
        },
        {
          "name": "owner",
          "type": "address"
        }
      ],
      "name": "inactiveOptractsFilledStatus",
      "outputs": [
        {
          "name": "",
          "type": "address[]"
        },
        {
          "name": "",
          "type": "bool[]"
        }
      ],
      "payable": false,
      "stateMutability": "view",
      "type": "function",
      "signature": "0xb7233fa5"
    },
    {
      "constant": true,
      "inputs": [
        {
          "name": "start",
          "type": "uint256"
        },
        {
          "name": "length",
          "type": "uint256"
        },
        {
          "name": "owner",
          "type": "address"
        }
      ],
      "name": "inactiveOptracts",
      "outputs": [
        {
          "name": "",
          "type": "address[]"
        },
        {
          "name": "",
          "type": "uint256[]"
        },
        {
          "name": "",
          "type": "uint256[]"
        },
        {
          "name": "",
          "type": "uint256[]"
        },
        {
          "name": "",
          "type": "uint256[]"
        },
        {
          "name": "",
          "type": "bool[]"
        }
      ],
      "payable": false,
      "stateMutability": "view",
      "type": "function",
      "signature": "0x26b057ad"
    }
  ],
  "bytecode": "0x6080604052674563918244f4000060055560006006556007805460ff1916905534801561002b57600080fd5b5060405160208061443e8339810180604052602081101561004b57600080fd5b505160008054600160a060020a03199081163317825560038054909116600160a060020a03909316929092179091556143b490819061008a90396000f3fe608060405234801561001057600080fd5b50600436106101305760003560e060020a9004806361605f09116100b1578063996916501161007557806399691650146105f2578063b7233fa5146105fa578063ba2eb5411461062c578063dac717e214610652578063e28d49061461068d57610130565b806361605f09146105295780636769f4381461055b57806369edcbdc1461058d5780636e9a01a2146105bf57806391d622b9146105ea57610130565b806328f402b1116100f857806328f402b114610346578063384404511461036a5780633b47ea04146103b75780634b140961146104425780635c975abb1461050d57610130565b806310bbc68a1461013557806314eb30371461014f5780632199a57d146101575780632537127f1461015f57806326b057ad14610167575b600080fd5b61013d6106aa565b60408051918252519081900360200190f35b61013d6106b0565b61013d6106b6565b61013d6106bc565b6101996004803603606081101561017d57600080fd5b5080359060208101359060400135600160a060020a0316610719565b6040518080602001806020018060200180602001806020018060200187810387528d818151815260200191508051906020019060200280838360005b838110156101ed5781810151838201526020016101d5565b5050505090500187810386528c818151815260200191508051906020019060200280838360005b8381101561022c578181015183820152602001610214565b5050505090500187810385528b818151815260200191508051906020019060200280838360005b8381101561026b578181015183820152602001610253565b5050505090500187810384528a818151815260200191508051906020019060200280838360005b838110156102aa578181015183820152602001610292565b50505050905001878103835289818151815260200191508051906020019060200280838360005b838110156102e95781810151838201526020016102d1565b50505050905001878103825288818151815260200191508051906020019060200280838360005b83811015610328578181015183820152602001610310565b505050509050019c5050505050505050505050505060405180910390f35b61034e610932565b60408051600160a060020a039092168252519081900360200190f35b6103906004803603602081101561038057600080fd5b5035600160a060020a0316610941565b604080519384526020840192909252600160a060020a031682820152519081900360600190f35b6103f2600480360360808110156103cd57600080fd5b508035906020810135906040810135600160a060020a0316906060013560ff1661096f565b60408051602080825283518183015283519192839290830191858101910280838360005b8381101561042e578181015183820152602001610416565b505050509050019250505060405180910390f35b6104746004803603606081101561045857600080fd5b5080359060208101359060400135600160a060020a0316611043565b604051808060200180602001838103835285818151815260200191508051906020019060200280838360005b838110156104b85781810151838201526020016104a0565b50505050905001838103825284818151815260200191508051906020019060200280838360005b838110156104f75781810151838201526020016104df565b5050505090500194505050505060405180910390f35b610515611492565b604080519115158252519081900360200190f35b61013d6004803603606081101561053f57600080fd5b5080359060208101359060400135600160a060020a031661149b565b6101996004803603606081101561057157600080fd5b5080359060208101359060400135600160a060020a03166116d4565b61013d600480360360608110156105a357600080fd5b5080359060208101359060400135600160a060020a03166118ce565b6105e8600480360360608110156105d557600080fd5b5080359060208101359060400135611aee565b005b61034e611d9d565b6105e8611dac565b6104746004803603606081101561061057600080fd5b5080359060208101359060400135600160a060020a0316611ea4565b6105156004803603602081101561064257600080fd5b5035600160a060020a03166122e3565b6103f26004803603608081101561066857600080fd5b508035906020810135906040810135600160a060020a0316906060013560ff16612303565b61034e600480360360208110156106a357600080fd5b50356129c8565b60055490565b60065481565b60055481565b336000908152600960205260408120600101544211156106db57600080fd5b33600090815260096020526040902060020154600160a060020a0316151561070257600080fd5b503360009081526009602052604090206001015490565b6060806060806060806000891180156107325750600088115b151561073d57600080fd5b600060065411801561075157508860065410155b151561075c57600080fd5b6006546001898b0103111561077657886006540360010197505b60606107838a8a8a6118ce565b6040519080825280602002602001820160405280156107ac578160200160208202803883390190505b50905060606107bc8b8b8b6118ce565b6040519080825280602002602001820160405280156107e5578160200160208202803883390190505b50905060606107f58c8c8c6118ce565b60405190808252806020026020018201604052801561081e578160200160208202803883390190505b509050606061082e8d8d8d6118ce565b604051908082528060200260200182016040528015610857578160200160208202803883390190505b50905060606108678e8e8e6118ce565b604051908082528060200260200182016040528015610890578160200160208202803883390190505b50905060606108a08f8f8f6118ce565b6040519080825280602002602001820160405280156108c9578160200160208202803883390190505b5090506108d98f8f8f6001612303565b94506108e88f8f8f6002612303565b93506108f78f8f8f6003612303565b92506109068f8f8f6004612303565b91506109138f8f8f611ea4565b909c50949a509298509096509450909250505093975093979195509350565b600454600160a060020a031681565b600160a060020a03908116600090815260096020526040902080546001820154600290920154909391921690565b606060018260ff1610158015610989575060048260ff1611155b15156109f657604080517f08c379a000000000000000000000000000000000000000000000000000000000815260206004820152601f60248201527f756e6b6e6f776e206f7074726163742063686172616374657269737469637300604482015290519081900360640190fd5b6006546001858701031115610a1057846006540360010193505b6000610a1d86868661149b565b9050606081604051908082528060200260200182016040528015610a4b578160200160208202803883390190505b5090506000600160a060020a0386161515610d3057875b600019898901018111610d2a5760008181526008602090815260409182902054825160e060020a63070ee0670281529251600160a060020a039091169263070ee067926004808301939192829003018186803b158015610ac157600080fd5b505afa158015610ad5573d6000803e3d6000fd5b505050506040513d6020811015610aeb57600080fd5b50511580610b275750600081815260086020908152604080832054600160a060020a0316835260099091529020600101544261707f1990910111155b15610b3157610d22565b8560ff1660011415610b8257600081815260086020908152604080832054600160a060020a0316835260099091529020600101548351849084908110610b7357fe5b60209081029091010152610d1b565b8560ff1660021415610c1a5760008181526008602090815260409182902054825160e060020a63b3fb9fc70281529251600160a060020a039091169263b3fb9fc7926004808301939192829003018186803b158015610be057600080fd5b505afa158015610bf4573d6000803e3d6000fd5b505050506040513d6020811015610c0a57600080fd5b50518351849084908110610b7357fe5b8560ff1660031415610c785760008181526008602090815260409182902054825160e160020a635817852d0281529251600160a060020a039091169263b02f0a5a926004808301939192829003018186803b158015610be057600080fd5b8560ff1660041415610d1b5760008181526008602090815260409182902054825160e160020a633b7c6e470281529251600160a060020a03909116926376f8dc8e926004808301939192829003018186803b158015610cd657600080fd5b505afa158015610cea573d6000803e3d6000fd5b505050506040513d6020811015610d0057600080fd5b50518351849084908110610d1057fe5b602090810290910101525b6001820191505b600101610a62565b50611036565b875b60001989890101811161103457600081815260086020908152604080832054600160a060020a039081168452600990925290912060020154811690881614610d795761102c565b60008181526008602090815260409182902054825160e060020a63070ee0670281529251600160a060020a039091169263070ee067926004808301939192829003018186803b158015610dcb57600080fd5b505afa158015610ddf573d6000803e3d6000fd5b505050506040513d6020811015610df557600080fd5b50511580610e315750600081815260086020908152604080832054600160a060020a0316835260099091529020600101544261707f1990910111155b15610e3b5761102c565b8560ff1660011415610e8c57600081815260086020908152604080832054600160a060020a0316835260099091529020600101548351849084908110610e7d57fe5b60209081029091010152611025565b8560ff1660021415610f245760008181526008602090815260409182902054825160e060020a63b3fb9fc70281529251600160a060020a039091169263b3fb9fc7926004808301939192829003018186803b158015610eea57600080fd5b505afa158015610efe573d6000803e3d6000fd5b505050506040513d6020811015610f1457600080fd5b50518351849084908110610e7d57fe5b8560ff1660031415610f825760008181526008602090815260409182902054825160e160020a635817852d0281529251600160a060020a039091169263b02f0a5a926004808301939192829003018186803b158015610eea57600080fd5b8560ff16600414156110255760008181526008602090815260409182902054825160e160020a633b7c6e470281529251600160a060020a03909116926376f8dc8e926004808301939192829003018186803b158015610fe057600080fd5b505afa158015610ff4573d6000803e3d6000fd5b505050506040513d602081101561100a57600080fd5b5051835184908490811061101a57fe5b602090810290910101525b6001820191505b600101610d32565b505b509150505b949350505050565b606080600654600185870103111561106057846006540360010193505b600061106d86868661149b565b905060608160405190808252806020026020018201604052801561109b578160200160208202803883390190505b5090506060826040519080825280602002602001820160405280156110ca578160200160208202803883390190505b5090506000600160a060020a038716151561129f57885b6000198a8a010181116112995760008181526008602090815260409182902054825160e060020a63070ee0670281529251600160a060020a0390911692839263070ee06792600480840193829003018186803b15801561114057600080fd5b505afa158015611154573d6000803e3d6000fd5b505050506040513d602081101561116a57600080fd5b5051158061119a5750600160a060020a0381166000908152600960205260409020600101544261707f1990910111155b156111a55750611291565b80600160a060020a031663b02f0a5a6040518163ffffffff1660e060020a02815260040160206040518083038186803b1580156111e157600080fd5b505afa1580156111f5573d6000803e3d6000fd5b505050506040513d602081101561120b57600080fd5b5051600160a060020a038216311415611242576001848481518110151561122e57fe5b911515602092830290910190910152611262565b6000848481518110151561125257fe5b9115156020928302909101909101525b80858481518110151561127157fe5b600160a060020a0390921660209283029091019091015250600191909101905b6001016110e1565b50611482565b885b6000198a8a0101811161148057600081815260086020908152604080832054600160a060020a03908116808552600990935292206002015490918a81169116146112eb5750611478565b80600160a060020a031663070ee0676040518163ffffffff1660e060020a02815260040160206040518083038186803b15801561132757600080fd5b505afa15801561133b573d6000803e3d6000fd5b505050506040513d602081101561135157600080fd5b505115806113815750600160a060020a0381166000908152600960205260409020600101544261707f1990910111155b1561138c5750611478565b80600160a060020a031663b02f0a5a6040518163ffffffff1660e060020a02815260040160206040518083038186803b1580156113c857600080fd5b505afa1580156113dc573d6000803e3d6000fd5b505050506040513d60208110156113f257600080fd5b5051600160a060020a038216311415611429576001848481518110151561141557fe5b911515602092830290910190910152611449565b6000848481518110151561143957fe5b9115156020928302909101909101525b80858481518110151561145857fe5b600160a060020a0390921660209283029091019091015250600191909101905b6001016112a1565b505b509093509150505b935093915050565b60075460ff1681565b60065460009081906000198686010111156114bb57846006540360010193505b600160a060020a03831615156115b157845b6000198686010181116115ab5760008181526008602090815260409182902054825160e060020a63070ee0670281529251600160a060020a039091169263070ee067926004808301939192829003018186803b15801561152c57600080fd5b505afa158015611540573d6000803e3d6000fd5b505050506040513d602081101561155657600080fd5b505115806115925750600081815260086020908152604080832054600160a060020a0316835260099091529020600101544261707f1990910111155b1561159c576115a3565b8160010191505b6001016114cd565b5061103b565b845b6000198686010181116116cb57600081815260086020908152604080832054600160a060020a0390811684526009909252909120600201548116908516146115fa576116c3565b60008181526008602090815260409182902054825160e060020a63070ee0670281529251600160a060020a039091169263070ee067926004808301939192829003018186803b15801561164c57600080fd5b505afa158015611660573d6000803e3d6000fd5b505050506040513d602081101561167657600080fd5b505115806116b25750600081815260086020908152604080832054600160a060020a0316835260099091529020600101544261707f1990910111155b156116bc576116c3565b8160010191505b6001016115b3565b50949350505050565b6060806060806060806000891180156116ed5750600088115b15156116f857600080fd5b600060065411801561170c57508860065410155b151561171757600080fd5b6006546001898b0103111561173157886006540360010197505b606061173e8a8a8a61149b565b604051908082528060200260200182016040528015611767578160200160208202803883390190505b50905060606117778b8b8b61149b565b6040519080825280602002602001820160405280156117a0578160200160208202803883390190505b50905060606117b08c8c8c61149b565b6040519080825280602002602001820160405280156117d9578160200160208202803883390190505b50905060606117e98d8d8d61149b565b604051908082528060200260200182016040528015611812578160200160208202803883390190505b50905060606118228e8e8e61149b565b60405190808252806020026020018201604052801561184b578160200160208202803883390190505b509050606061185b8f8f8f61149b565b604051908082528060200260200182016040528015611884578160200160208202803883390190505b5090506118948f8f8f600161096f565b94506118a38f8f8f600261096f565b93506118b28f8f8f600361096f565b92506118c18f8f8f600461096f565b91506109138f8f8f611043565b60065460009081906000198686010111156118ee57846006540360010193505b600160a060020a03831615156119d957845b6000198686010181116115ab5760008181526008602090815260409182902054825160e060020a63070ee0670281529251600160a060020a039091169263070ee067926004808301939192829003018186803b15801561195f57600080fd5b505afa158015611973573d6000803e3d6000fd5b505050506040513d602081101561198957600080fd5b505115806119c55750600081815260086020908152604080832054600160a060020a0316835260099091529020600101544261707f1990910111155b156119d1576001820191505b600101611900565b845b6000198686010181116116cb57600081815260086020908152604080832054600160a060020a039081168452600990925290912060020154811690851614611a2257611ae6565b60008181526008602090815260409182902054825160e060020a63070ee0670281529251600160a060020a039091169263070ee067926004808301939192829003018186803b158015611a7457600080fd5b505afa158015611a88573d6000803e3d6000fd5b505050506040513d6020811015611a9e57600080fd5b50511580611ada5750600081815260086020908152604080832054600160a060020a0316835260099091529020600101544261707f1990910111155b15611ae6576001820191505b6001016119db565b60075460ff1615611afe57600080fd5b600554600354604080517fdd62ed3e0000000000000000000000000000000000000000000000000000000081523360048201523060248201529051600160a060020a039092169163dd62ed3e91604480820192602092909190829003018186803b158015611b6b57600080fd5b505afa158015611b7f573d6000803e3d6000fd5b505050506040513d6020811015611b9557600080fd5b50511015611ba257600080fd5b6201518081620151800210158015611bc357506301e1338081620151800211155b1515611bce57600080fd5b6003831015611bdc57600080fd5b611be46129e5565b6006805460010190556004546003546000918691869130913391600160a060020a039081169116611c13612a10565b9586526020860194909452600160a060020a03928316604080870191909152918316606086015282166080850152911660a0830152519081900360c001906000f080158015611c66573d6000803e3d6000fd5b50600354600554604080517f23b872dd000000000000000000000000000000000000000000000000000000008152336004820152600160a060020a038086166024830152604482019390935290519394509116916323b872dd916064808201926020929091908290030181600087803b158015611ce257600080fd5b505af1158015611cf6573d6000803e3d6000fd5b505050506040513d6020811015611d0c57600080fd5b50511515611d1957600080fd5b600654808352620151809390930242016020808401918252336040808601918252600096875260088352808720805473ffffffffffffffffffffffffffffffffffffffff19908116600160a060020a039788169081179092559088526009909352909520935184559051600184015592516002909201805490931691161790555050565b600354600160a060020a031681565b336000908152600960209081526040808320548084526008909252909120805473ffffffffffffffffffffffffffffffffffffffff191690556006548114611e5f5760068054600090815260086020818152604080842054600160a060020a0390811685526009835281852087905585548552929091528083205485845281842080549190931673ffffffffffffffffffffffffffffffffffffffff199182161790925592548252919020805490911690555b503360009081526009602052604081208181556001810191909155600201805473ffffffffffffffffffffffffffffffffffffffff1916905560068054600019019055565b6060806006546001858701031115611ec157846006540360010193505b6000611ece8686866118ce565b9050606081604051908082528060200260200182016040528015611efc578160200160208202803883390190505b509050606082604051908082528060200260200182016040528015611f2b578160200160208202803883390190505b509050821515611f4157909350915061148a9050565b6000600160a060020a038716151561210757885b6000198a8a010181116112995760008181526008602090815260409182902054825160e060020a63070ee0670281529251600160a060020a0390911692839263070ee06792600480840193829003018186803b158015611fb457600080fd5b505afa158015611fc8573d6000803e3d6000fd5b505050506040513d6020811015611fde57600080fd5b5051158061200e5750600160a060020a0381166000908152600960205260409020600101544261707f1990910111155b156120fe5780600160a060020a031663b02f0a5a6040518163ffffffff1660e060020a02815260040160206040518083038186803b15801561204f57600080fd5b505afa158015612063573d6000803e3d6000fd5b505050506040513d602081101561207957600080fd5b5051600160a060020a0382163114156120b0576001848481518110151561209c57fe5b9115156020928302909101909101526120d0565b600084848151811015156120c057fe5b9115156020928302909101909101525b8085848151811015156120df57fe5b600160a060020a03909216602092830290910190910152600192909201915b50600101611f55565b885b6000198a8a0101811161148057600081815260086020908152604080832054600160a060020a03908116808552600990935292206002015490918a811691161461215357506122db565b80600160a060020a031663070ee0676040518163ffffffff1660e060020a02815260040160206040518083038186803b15801561218f57600080fd5b505afa1580156121a3573d6000803e3d6000fd5b505050506040513d60208110156121b957600080fd5b505115806121e95750600160a060020a0381166000908152600960205260409020600101544261707f1990910111155b156122d95780600160a060020a031663b02f0a5a6040518163ffffffff1660e060020a02815260040160206040518083038186803b15801561222a57600080fd5b505afa15801561223e573d6000803e3d6000fd5b505050506040513d602081101561225457600080fd5b5051600160a060020a03821631141561228b576001848481518110151561227757fe5b9115156020928302909101909101526122ab565b6000848481518110151561229b57fe5b9115156020928302909101909101525b8085848151811015156122ba57fe5b600160a060020a03909216602092830290910190910152600192909201915b505b600101612109565b600160a060020a0316600090815260096020526040902060010154421190565b606060018260ff161015801561231d575060048260ff1611155b151561238a57604080517f08c379a000000000000000000000000000000000000000000000000000000000815260206004820152601d60248201527f756e6b6e6f77206f707472616374206368726163746572697374696373000000604482015290519081900360640190fd5b60065460018587010311156123a457846006540360010193505b60006123b18686866118ce565b90506060816040519080825280602002602001820160405280156123df578160200160208202803883390190505b5090508115156123f257915061103b9050565b6000600160a060020a03861615156126c957875b600019898901018111610d2a5760008181526008602090815260409182902054825160e060020a63070ee0670281529251600160a060020a039091169263070ee067926004808301939192829003018186803b15801561246557600080fd5b505afa158015612479573d6000803e3d6000fd5b505050506040513d602081101561248f57600080fd5b505115806124cb5750600081815260086020908152604080832054600160a060020a0316835260099091529020600101544261707f1990910111155b156126c1578560ff166001141561252157600081815260086020908152604080832054600160a060020a031683526009909152902060010154835184908490811061251257fe5b602090810290910101526126ba565b8560ff16600214156125b95760008181526008602090815260409182902054825160e060020a63b3fb9fc70281529251600160a060020a039091169263b3fb9fc7926004808301939192829003018186803b15801561257f57600080fd5b505afa158015612593573d6000803e3d6000fd5b505050506040513d60208110156125a957600080fd5b5051835184908490811061251257fe5b8560ff16600314156126175760008181526008602090815260409182902054825160e160020a635817852d0281529251600160a060020a039091169263b02f0a5a926004808301939192829003018186803b15801561257f57600080fd5b8560ff16600414156126ba5760008181526008602090815260409182902054825160e160020a633b7c6e470281529251600160a060020a03909116926376f8dc8e926004808301939192829003018186803b15801561267557600080fd5b505afa158015612689573d6000803e3d6000fd5b505050506040513d602081101561269f57600080fd5b505183518490849081106126af57fe5b602090810290910101525b6001820191505b600101612406565b875b60001989890101811161103457600081815260086020908152604080832054600160a060020a039081168452600990925290912060020154811690881614612712576129c0565b60008181526008602090815260409182902054825160e060020a63070ee0670281529251600160a060020a039091169263070ee067926004808301939192829003018186803b15801561276457600080fd5b505afa158015612778573d6000803e3d6000fd5b505050506040513d602081101561278e57600080fd5b505115806127ca5750600081815260086020908152604080832054600160a060020a0316835260099091529020600101544261707f1990910111155b156129c0578560ff166001141561282057600081815260086020908152604080832054600160a060020a031683526009909152902060010154835184908490811061281157fe5b602090810290910101526129b9565b8560ff16600214156128b85760008181526008602090815260409182902054825160e060020a63b3fb9fc70281529251600160a060020a039091169263b3fb9fc7926004808301939192829003018186803b15801561287e57600080fd5b505afa158015612892573d6000803e3d6000fd5b505050506040513d60208110156128a857600080fd5b5051835184908490811061281157fe5b8560ff16600314156129165760008181526008602090815260409182902054825160e160020a635817852d0281529251600160a060020a039091169263b02f0a5a926004808301939192829003018186803b15801561287e57600080fd5b8560ff16600414156129b95760008181526008602090815260409182902054825160e160020a633b7c6e470281529251600160a060020a03909116926376f8dc8e926004808301939192829003018186803b15801561297457600080fd5b505afa158015612988573d6000803e3d6000fd5b505050506040513d602081101561299e57600080fd5b505183518490849081106129ae57fe5b602090810290910101525b6001820191505b6001016126cb565b600081600381106129d557fe5b0154600160a060020a0316905081565b60606040519081016040528060008152602001600081526020016000600160a060020a031681525090565b60405161196880612a218339019056fe6080604052600c805462ffff00191690556000600d819055600e5534801561002657600080fd5b5060405160c080611968833981018060405260c081101561004657600080fd5b508051602082015160408301516060840151608085015160a09095015160069490945560079290925560038054600160a060020a03928316600160a060020a03199182161790915560008054938316938216841790556004805495831695821695909517909455600580549190931690841617909155600c805460ff19166001908117909155805490921617905542600955610384600a5561187b806100ed6000396000f3fe6080604052600436106101d15760003560e060020a90048063b02f0a5a116100fb578063ce2ca19e11610099578063d92fe2df11610068578063d92fe2df14610583578063ef78d4fd14610598578063f1fffdcb146105ad578063f5e3fc30146105c2576101d1565b8063ce2ca19e1461051a578063cf444d9b14610544578063d6e8c27314610559578063d80cc0091461056e576101d1565b8063b3fb9fc7116100d5578063b3fb9fc7146104bc578063b56fb337146104d1578063c80bcf2e146104fd578063c98166c014610505576101d1565b8063b02f0a5a1461047d578063b0d31bc814610492578063b387ef92146104a7576101d1565b80634c2067c7116101735780638a56ca45116101425780638a56ca45146104295780639068f84a1461043e57806391d622b914610453578063aab8859614610468576101d1565b80634c2067c7146103d557806351da2eaa146103ea57806376f8dc8e146103ff5780637c47944914610414576101d1565b806328f402b1116101af57806328f402b11461023b57806331dc3b401461026c57806335b132f9146102815780633a0d3aab14610296576101d1565b8063070ee067146101d657806314c68b1b146101ff57806317ca325614610214575b600080fd5b3480156101e257600080fd5b506101eb6105d7565b604080519115158252519081900360200190f35b34801561020b57600080fd5b506101eb6105e0565b34801561022057600080fd5b506102296105ef565b60408051918252519081900360200190f35b34801561024757600080fd5b506102506105f5565b60408051600160a060020a039092168252519081900360200190f35b34801561027857600080fd5b50610229610604565b34801561028d57600080fd5b5061025061060a565b3480156102a257600080fd5b506101eb600480360360a08110156102b957600080fd5b8101906020810181356401000000008111156102d457600080fd5b8201836020820111156102e657600080fd5b8035906020019184602083028401116401000000008311171561030857600080fd5b919080806020026020016040519081016040528093929190818152602001838360200280828437600092019190915250929594936020810193503591505064010000000081111561035857600080fd5b82018360208201111561036a57600080fd5b8035906020019184602083028401116401000000008311171561038c57600080fd5b9190808060200260200160405190810160405280939291908181526020018383602002808284376000920191909152509295505082359350505060208101359060400135610619565b3480156103e157600080fd5b506101eb610ac7565b3480156103f657600080fd5b50610250610ad5565b34801561040b57600080fd5b50610229610ae4565b34801561042057600080fd5b50610229610aea565b34801561043557600080fd5b50610250610af0565b34801561044a57600080fd5b50610229610b06565b34801561045f57600080fd5b50610250610b0c565b34801561047457600080fd5b50610229610b1b565b34801561048957600080fd5b50610229610b21565b34801561049e57600080fd5b506101eb610b27565b3480156104b357600080fd5b50610250610b30565b3480156104c857600080fd5b50610229610b3f565b3480156104dd57600080fd5b506104fb600480360360208110156104f457600080fd5b5035610b45565b005b6104fb610d06565b34801561051157600080fd5b50610229610fe0565b34801561052657600080fd5b506104fb6004803603602081101561053d57600080fd5b5035610fe6565b34801561055057600080fd5b506101eb6110a6565b34801561056557600080fd5b506104fb6110ca565b34801561057a57600080fd5b506104fb6112ab565b34801561058f57600080fd5b506104fb6114c0565b3480156105a457600080fd5b506102296117f1565b3480156105b957600080fd5b506102506117f7565b3480156105ce57600080fd5b50610229611806565b600c5460ff1690565b600c5462010000900460ff1681565b600a5481565b600454600160a060020a031681565b600e5481565b600254600160a060020a031681565b600254600090600160a060020a031615801590610637575060003031115b151561064257600080fd5b600354604080517f2537127f0000000000000000000000000000000000000000000000000000000081529051600092600160a060020a031691632537127f916004808301926020929190829003018186803b1580156106a057600080fd5b505afa1580156106b4573d6000803e3d6000fd5b505050506040513d60208110156106ca57600080fd5b5051905061707f19810142106106df57600080fd5b600554604080517fdd62ed3e00000000000000000000000000000000000000000000000000000000815233600482015230602482015290516101f48604860192600160a060020a03169163dd62ed3e916044808301926020929190829003018186803b15801561074e57600080fd5b505afa158015610762573d6000803e3d6000fd5b505050506040513d602081101561077857600080fd5b5051101561078557600080fd5b600854831161079357600080fd5b6000600460009054906101000a9004600160a060020a0316600160a060020a031663fa7402c96040518163ffffffff1660e060020a02815260040160206040518083038186803b1580156107e657600080fd5b505afa1580156107fa573d6000803e3d6000fd5b505050506040513d602081101561081057600080fd5b5051600c5490915060ff161515600114801561082c5750600d54155b80156108385750600e54155b1561093557600c80546001805476ffffffffffffffffffffffffffffffffffffffff0000ff19909216600160a060020a0380841663010000009081029290921794859055600d869055600e8990553373ffffffffffffffffffffffffffffffffffffffff199094168417909255426009556005546040805160e060020a6323b872dd0281526004810195909552919094048216602484015260448301889052519216916323b872dd916064808201926020929091908290030181600087803b15801561090357600080fd5b505af1158015610917573d6000803e3d6000fd5b505050506040513d602081101561092d57600080fd5b50610ab99050565b600c5460ff161580156109495750600e5484115b80156109565750600d5481145b156101d15760018054600e8054908790553373ffffffffffffffffffffffffffffffffffffffff1983168117909355426009556005546040805160e060020a6323b872dd0281526004810195909552600160a060020a039384166024860181905260448601849052905190949293909116916323b872dd9160648083019260209291908290030181600087803b1580156109ef57600080fd5b505af1158015610a03573d6000803e3d6000fd5b505050506040513d6020811015610a1957600080fd5b5050600554600c546040805160e060020a6323b872dd0281523360048201526301000000909204600160a060020a039081166024840152848a03604484015290519216916323b872dd916064808201926020929091908290030181600087803b158015610a8557600080fd5b505af1158015610a99573d6000803e3d6000fd5b505050506040513d6020811015610aaf57600080fd5b50610ab992505050565b506001979650505050505050565b600c54610100900460ff1681565b600354600160a060020a031681565b60085490565b60085481565b600c5463010000009004600160a060020a031681565b60075481565b600554600160a060020a031681565b600d5481565b60065490565b600c5460ff1681565b600154600160a060020a031681565b60075490565b600254600160a060020a031615801590610b60575060003031115b1515610b6b57600080fd5b600154600160a060020a03163314610bbb576040805160e560020a62461bcd028152602060048201526009602482015260008051602061180d833981519152604482015290519081900360640190fd5b600354604080517f2537127f0000000000000000000000000000000000000000000000000000000081529051600092600160a060020a031691632537127f916004808301926020929190829003018186803b158015610c1957600080fd5b505afa158015610c2d573d6000803e3d6000fd5b505050506040513d6020811015610c4357600080fd5b5051905061707f1981014210610c5857600080fd5b600c5460ff1615610cb3576040805160e560020a62461bcd02815260206004820152601a60248201527f63616e206f6e6c7920707574206f6e2053746f636b206f6e6365000000000000604482015290519081900360640190fd5b50600c80546008929092556001805460ff199093161776ffffffffffffffffffffffffffffffffffffffff0000001916600160a060020a039092166301000000029190911790556000600d819055600e55565b600354604080517fba2eb5410000000000000000000000000000000000000000000000000000000081523060048201529051600160a060020a039092169163ba2eb54191602480820192602092909190829003018186803b158015610d6a57600080fd5b505afa158015610d7e573d6000803e3d6000fd5b505050506040513d6020811015610d9457600080fd5b505115610deb576040805160e560020a62461bcd02815260206004820152601160248201527f6e6f772063616e20657863657263697365000000000000000000000000000000604482015290519081900360640190fd5b600254600160a060020a031615610e4c576040805160e560020a62461bcd02815260206004820152601760248201527f6f74686572732066696c6c2045544820616c7265616479000000000000000000604482015290519081900360640190fd5b6006543414610e8f5760405160e560020a62461bcd02815260040180806020018281038252602381526020018061182d6023913960400191505060405180910390fd5b600360009054906101000a9004600160a060020a0316600160a060020a03166310bbc68a6040518163ffffffff1660e060020a02815260040160206040518083038186803b158015610ee057600080fd5b505afa158015610ef4573d6000803e3d6000fd5b505050506040513d6020811015610f0a57600080fd5b505160088190556002805473ffffffffffffffffffffffffffffffffffffffff19163390811790915542600955600c805460ff19169055600554604080517fa9059cbb000000000000000000000000000000000000000000000000000000008152600481019390935260248301939093529151600160a060020a03929092169163a9059cbb916044808201926020929091908290030181600087803b158015610fb257600080fd5b505af1158015610fc6573d6000803e3d6000fd5b505050506040513d6020811015610fdc57600080fd5b5050565b60065481565b600154600160a060020a03163314611036576040805160e560020a62461bcd028152602060048201526009602482015260008051602061180d833981519152604482015290519081900360640190fd5b600854811061104457600080fd5b600a546009540142116110a1576040805160e560020a62461bcd02815260206004820152601760248201527f63616e6e6f74206f70657261746520746f6f20736f6f6e000000000000000000604482015290519081900360640190fd5b600855565b600254600090600160a060020a0316158015906110c557506006543031145b905090565b600154600160a060020a0316331461111a576040805160e560020a62461bcd028152602060048201526009602482015260008051602061180d833981519152604482015290519081900360640190fd5b600354604080517fba2eb5410000000000000000000000000000000000000000000000000000000081523060048201529051600160a060020a039092169163ba2eb54191602480820192602092909190829003018186803b15801561117e57600080fd5b505afa158015611192573d6000803e3d6000fd5b505050506040513d60208110156111a857600080fd5b50511515600114611203576040805160e560020a62461bcd02815260206004820152601760248201527f63616e206e6f206c6f6e67657220657863657263697365000000000000000000604482015290519081900360640190fd5b600254600160a060020a03161561121957600080fd5b600054600160a060020a0316331461123057600080fd5b600354604080517f996916500000000000000000000000000000000000000000000000000000000081529051600160a060020a039092169163996916509160048082019260009290919082900301818387803b15801561128f57600080fd5b505af11580156112a3573d6000803e3d6000fd5b503392505050ff5b600354604080517fba2eb5410000000000000000000000000000000000000000000000000000000081523060048201529051600160a060020a039092169163ba2eb54191602480820192602092909190829003018186803b15801561130f57600080fd5b505afa158015611323573d6000803e3d6000fd5b505050506040513d602081101561133957600080fd5b50511515600114611394576040805160e560020a62461bcd02815260206004820152601760248201527f63616e206e6f206c6f6e67657220657863657263697365000000000000000000604482015290519081900360640190fd5b600254600160a060020a031633146113f6576040805160e560020a62461bcd02815260206004820152601a60248201527f6f6e6c792065746853656c6c65722063616e2063616c6c206974000000000000604482015290519081900360640190fd5b600c5462010000900460ff1615611457576040805160e560020a62461bcd02815260206004820152601160248201527f616c726561647920657865726369736564000000000000000000000000000000604482015290519081900360640190fd5b600c805460ff19169055600354604080517f996916500000000000000000000000000000000000000000000000000000000081529051600160a060020a039092169163996916509160048082019260009290919082900301818387803b15801561128f57600080fd5b600154600160a060020a03163314611510576040805160e560020a62461bcd028152602060048201526009602482015260008051602061180d833981519152604482015290519081900360640190fd5b600354604080517f2537127f0000000000000000000000000000000000000000000000000000000081529051600092600160a060020a031691632537127f916004808301926020929190829003018186803b15801561156e57600080fd5b505afa158015611582573d6000803e3d6000fd5b505050506040513d602081101561159857600080fd5b5051600c5490915060ff161580156115af57508042105b806115c85750617080810342101580156115c857508042105b15156115d357600080fd5b600a54600954014211611630576040805160e560020a62461bcd02815260206004820152601760248201527f63616e6e6f74206f70657261746520746f6f20736f6f6e000000000000000000604482015290519081900360640190fd5b600754600554604080517fdd62ed3e0000000000000000000000000000000000000000000000000000000081523360048201523060248201529051600160a060020a039092169163dd62ed3e91604480820192602092909190829003018186803b15801561169d57600080fd5b505afa1580156116b1573d6000803e3d6000fd5b505050506040513d60208110156116c757600080fd5b505110156116d457600080fd5b600c805462ff0000191662010000179055600354604080517f996916500000000000000000000000000000000000000000000000000000000081529051600160a060020a039092169163996916509160048082019260009290919082900301818387803b15801561174457600080fd5b505af1158015611758573d6000803e3d6000fd5b50506005546002546007546040805160e060020a6323b872dd028152336004820152600160a060020a0393841660248201526044810192909252519190921693506323b872dd925060648083019260209291908290030181600087803b1580156117c157600080fd5b505af11580156117d5573d6000803e3d6000fd5b505050506040513d60208110156117eb57600080fd5b50339050ff5b600b5481565b600054600160a060020a031681565b6009548156fe6e6f74206f776e657200000000000000000000000000000000000000000000006e65656420746f206465706f73697420657861637420616d6f756e74206f6620455448a165627a7a723058203ec7750eed2955879ebbf1e9635e08eb28457690bcf616442b7a3075586c6b140029a165627a7a7230582040784685e5c84d03ee8eeac2cdcb4042d16806af9db73d621dc30c35a5e23d170029",
  "source": "pragma solidity ^0.5.2;\n\nimport \"./ERC20.sol\";\nimport \"./Optract.sol\";\n//import \"./SafeMath.sol\";\n\ncontract OptractRegistry { // PoC ETH-DAI Optract\n\taddress[3] public operators;\n\taddress public currencyTokenAddr; // presumably 'DAI'\n\taddress public blkAddr; // side-chain merkle records\n\tuint public initialPayment = 5000000000000000000; // 5 DAIs\n\tuint public totalOpts = 0;\n\tbool public paused = false;\n\n\tstruct optractRecord {\n\t        uint id;\n\t\tuint expiredTime; // timestamp\n\t\taddress initialOwner; \n\t}\n\n\tmapping (uint => address) optractRecordsByIndex;\n\tmapping (address => optractRecord) optractRecordsByAddress;\n\n\t// Modifiers\n\tmodifier operatorOnly() {\n\t\trequire(msg.sender == operators[0] || msg.sender == operators[1] || msg.sender == operators[2]);\n\t\t_;\n\t}\n\n\tmodifier notPaused() {\n\t\trequire(paused == false);\n\t\t_;\n\t}\n\n\t// Constructor\n\tconstructor(address _currencyTokenAddr) public {\n\t\toperators[0] = msg.sender;\n\t\tcurrencyTokenAddr = _currencyTokenAddr;\n\t}\n\n\tfunction createOptract(uint256 ETHAmount, uint256 totalPrice, uint period) external notPaused {\n                require(ERC20(currencyTokenAddr).allowance(msg.sender, address(this)) >= initialPayment);\n                // require(period * 1 days >= 30 days && period * 1 days <= 365 days);\n                // require(ETHAmount >= 3 ether);\n                // for debug purpose, use ridiculously small values:\n                require(period * 1 days >= 1 days && period * 1 days <= 365 days);\n                require(ETHAmount >= 3 wei);\n\n\t\toptractRecord memory optRcd;\n                totalOpts = totalOpts + 1;\n                Optract opt = new Optract(ETHAmount, totalPrice, address(this), msg.sender, blkAddr, currencyTokenAddr);\n\n                require(ERC20(currencyTokenAddr).transferFrom(msg.sender, address(opt), initialPayment));\n\n                optRcd.id = totalOpts;\n                optRcd.expiredTime = block.timestamp + period * 1 days;\n                optRcd.initialOwner = msg.sender;\n\n                optractRecordsByIndex[totalOpts] = address(opt); // mapping start from uint key = 1\n                optractRecordsByAddress[address(opt)] = optRcd;\n\t}\n\n\tfunction destructRecord() external {\n                uint i = optractRecordsByAddress[msg.sender].id;\n                delete optractRecordsByIndex[i];\n                if (i != totalOpts){\n                        optractRecordsByAddress[optractRecordsByIndex[totalOpts]].id = i;\n                        optractRecordsByIndex[i] = optractRecordsByIndex[totalOpts];\n                        delete optractRecordsByIndex[totalOpts];\n                }\n                delete optractRecordsByAddress[msg.sender];\n                totalOpts -= 1;\n        }\n\n\t// Constant functions\n\tfunction queryInitPrice() public view returns (uint) { \n\t\treturn initialPayment; \n\t}\n\n\tfunction isExpired(address optractAddress) public view returns (bool) {\n\t\treturn block.timestamp > optractRecordsByAddress[optractAddress].expiredTime;\n\t}\n\n\tfunction getExpireTime() public view returns (uint) {\n\t\trequire(optractRecordsByAddress[msg.sender].expiredTime >= block.timestamp);\n\t\trequire(optractRecordsByAddress[msg.sender].initialOwner != address(0));\n\n\t\treturn optractRecordsByAddress[msg.sender].expiredTime;\n\t}\n\n        function queryOptractRecords(address _addr) external view returns (uint, uint, address) {\n                return (optractRecordsByAddress[_addr].id,\n                        optractRecordsByAddress[_addr].expiredTime,\n                        optractRecordsByAddress[_addr].initialOwner);\n        }\n\n        // Constant functions: list active and inactive optracts\n        function _getNumOfActiveOptracts(uint start, uint length, address owner) public view returns (uint) {\n\t        // will be internal function so don't check requirements\n\t        uint activeLength = 0;\n\t\tif (start + length - 1 > totalOpts) {\n\t\t\tlength = totalOpts - start + 1;\n\t\t}\n\n\t\tif (owner == address(0)) { // list all orders\n\t\t\tfor (uint i = start; i <= start + length - 1; i++) {\n\t\t\t\tif (Optract(optractRecordsByIndex[i]).queryOnStock() == false\n\t\t\t\t    || optractRecordsByAddress[optractRecordsByIndex[i]].expiredTime - 8 hours <= block.timestamp) continue;\n\t\t\t\tactiveLength = activeLength + 1;\n\t\n\t\t\t}\n\t\t} else { // list only those initialized by owner\n\t\t\tfor (uint i = start; i <= start + length - 1; i++) {\n\t\t\t\tif (optractRecordsByAddress[optractRecordsByIndex[i]].initialOwner != owner) continue;\n\t\t\t\tif (Optract(optractRecordsByIndex[i]).queryOnStock() == false\n\t\t\t\t    || optractRecordsByAddress[optractRecordsByIndex[i]].expiredTime - 8 hours <= block.timestamp) continue;\n\t\t\t\tactiveLength = activeLength + 1;\n\t\t\t}\n\t\t}\n\t\treturn activeLength;\n        }\n\n        function activeOptractsLoop(uint start, uint length, address owner, uint8 _idx) public view returns (uint[] memory) {\n                require(_idx >= 1 && _idx <= 4, \"unknown optract characteristics\");\n                // _idx: {1: expTimeList, 2: priceList, 3:ETHList, 4: opriceList}\n\t\tif (start + length - 1 > totalOpts) {\n\t\t\tlength = totalOpts - start + 1;\n\t\t}\n                uint activeLength = _getNumOfActiveOptracts(start, length, owner);\n\t\tuint[] memory returnList = new uint[](activeLength);\n\t\tuint count = 0;\n\n\t\tif (owner == address(0)) { // list all orders\n\t\t\tfor (uint i = start; i <= start + length - 1; i++) {\n\t\t\t\tif (Optract(optractRecordsByIndex[i]).queryOnStock() == false || optractRecordsByAddress[optractRecordsByIndex[i]].expiredTime - 8 hours <= block.timestamp) continue;\n\t\n\t                        if (_idx == 1) {\n                                        returnList[count] = optractRecordsByAddress[optractRecordsByIndex[i]].expiredTime;\n                                } else if (_idx == 2) {\n                                        returnList[count] = Optract(optractRecordsByIndex[i]).queryOrderPrice();\n                                } else if (_idx == 3) {\n\t\t\t\t        returnList[count] = Optract(optractRecordsByIndex[i]).queryOrderSize();\n                                } else if (_idx == 4) {\n                                        returnList[count] = Optract(optractRecordsByIndex[i]).queryOptionPrice();\n                                }\n\t\t\t\tcount += 1;\n\t\t\t}\n\t\t} else { // list only those initialized by owner\n\t\t\tfor (uint i = start; i <= start + length - 1; i++) {\n\t\t\t\tif (optractRecordsByAddress[optractRecordsByIndex[i]].initialOwner != owner) continue;\n\t\t\t\tif (Optract(optractRecordsByIndex[i]).queryOnStock() == false || optractRecordsByAddress[optractRecordsByIndex[i]].expiredTime - 8 hours <= block.timestamp) continue;\n\t                        if (_idx == 1) {\n                                        returnList[count] = optractRecordsByAddress[optractRecordsByIndex[i]].expiredTime;\n                                } else if (_idx == 2) {\n                                        returnList[count] = Optract(optractRecordsByIndex[i]).queryOrderPrice();\n                                } else if (_idx == 3) {\n\t\t\t\t        returnList[count] = Optract(optractRecordsByIndex[i]).queryOrderSize();\n                                } else if (_idx == 4) {\n                                        returnList[count] = Optract(optractRecordsByIndex[i]).queryOptionPrice();\n                                }\n\t\t\t\tcount += 1;\n\t\t\t}\n\t\t}\n\t\treturn returnList;\n        }\n\n\tfunction activeOptractsFilledStatus(uint start, uint length, address owner) public view returns (address[] memory, bool[] memory) {\n\t        // will be internal function so don't check requirements\n\t\tif (start + length - 1 > totalOpts) {\n\t\t\tlength = totalOpts - start + 1;\n\t\t}\n\n                uint activeLength = _getNumOfActiveOptracts(start, length, owner);\n\t\taddress[] memory addrlist = new address[](activeLength);\n\t\tbool[] memory filled = new bool[](activeLength);\n\t\tuint count = 0;\n\n\t\tif (owner == address(0)) { // list all orders\n\t\t\tfor (uint i = start; i <= start + length - 1; i++) {\n\t\t\t\taddress optAddr = optractRecordsByIndex[i];\n\t\t\t\tif (Optract(optAddr).queryOnStock() == false || optractRecordsByAddress[optAddr].expiredTime - 8 hours <= block.timestamp) continue;\n\t\n\t\t\t\tif (optAddr.balance == Optract(optAddr).queryOrderSize()) {  // or \">=\"?\n\t\t\t\t\tfilled[count] = true;\n\t\t\t\t} else {\n\t\t\t\t\tfilled[count] = false;\n\t\t\t\t}\n\t\t\t\taddrlist[count] = optAddr;\n\t\t\t\tcount += 1;\n\t\t\t}\n\t\t} else { // list only those initialized by owner\n\t\t\tfor (uint i = start; i <= start + length - 1; i++) {\n\t\t\t\taddress optAddr = optractRecordsByIndex[i];\n\t\t\t\tif (optractRecordsByAddress[optAddr].initialOwner != owner) continue;\n\t\t\t\tif (Optract(optAddr).queryOnStock() == false || optractRecordsByAddress[optAddr].expiredTime - 8 hours <= block.timestamp) continue;\n\t\n\t\t\t\tif (optAddr.balance == Optract(optAddr).queryOrderSize()) {\n\t\t\t\t\tfilled[count] = true;\n\t\t\t\t} else {\n\t\t\t\t\tfilled[count] = false;\n\t\t\t\t}\n\t\t\t\taddrlist[count] = optAddr;\n\t\t\t\tcount += 1;\n\t\t\t}\n\t\t}\n\t\treturn (addrlist, filled);\n\t}\n\n\tfunction activeOptracts(uint start, uint length, address owner) public view returns (\n\t\taddress[] memory,\n\t\t   uint[] memory,\n\t\t   uint[] memory,\n\t\t   uint[] memory,\n\t\t   uint[] memory,\n\t           bool[] memory)\n\t{\n\t\trequire(start > 0 && length > 0);\n\t\trequire(totalOpts > 0 && totalOpts >= start);\n\t\tif (start + length - 1 > totalOpts) {\n\t\t\tlength = totalOpts - start + 1;\n\t\t}\n\n\t\taddress[] memory addrlist = new address[](_getNumOfActiveOptracts(start, length, owner));\n\t\tuint[] memory expTimeList= new uint[](_getNumOfActiveOptracts(start, length, owner));\n\t\tuint[] memory priceList = new uint[](_getNumOfActiveOptracts(start, length, owner));\n\t\tuint[] memory ETHList = new uint[](_getNumOfActiveOptracts(start, length, owner));\n\t\tuint[] memory opriceList = new uint[](_getNumOfActiveOptracts(start, length, owner));\n\t\tbool[] memory filled = new bool[](_getNumOfActiveOptracts(start, length, owner));  // stack too deep if include this one\n\n                // assume all the following function calls return same order\n\t\texpTimeList = activeOptractsLoop(start, length, owner, 1);\n\t\tpriceList = activeOptractsLoop(start, length, owner, 2);\n\t\tETHList = activeOptractsLoop(start, length, owner, 3);\n\t\topriceList = activeOptractsLoop(start, length, owner, 4);\n\t\t(addrlist, filled) = activeOptractsFilledStatus(start, length, owner);\n\t\treturn (addrlist, expTimeList, priceList, ETHList, opriceList, filled);\n        }\n\n\n        function _getNumOfInActiveOptracts(uint start, uint length, address owner) public view returns (uint) {\n\t        // will be internal function so don't check requirements\n\t        uint inactiveLength = 0;\n\t\tif (start + length - 1 > totalOpts) {\n\t\t\tlength = totalOpts - start + 1;\n\t\t}\n\n\t\tif (owner == address(0)) { // list all orders\n\t\t\tfor (uint i = start; i <= start + length - 1; i++) {\n\t\t\t\tif (Optract(optractRecordsByIndex[i]).queryOnStock() == false\n\t\t\t\t    || optractRecordsByAddress[optractRecordsByIndex[i]].expiredTime - 8 hours <= block.timestamp)\n\t\t\t\t{\n\t\t\t\t        inactiveLength +=1;\n                                }\n\t\n\t\t\t}\n\t\t} else { // list only those initialized by owner\n\t\t\tfor (uint i = start; i <= start + length - 1; i++) {\n\t\t\t\tif (optractRecordsByAddress[optractRecordsByIndex[i]].initialOwner != owner) continue;\n\t\t\t\tif (Optract(optractRecordsByIndex[i]).queryOnStock() == false\n\t\t\t\t    || optractRecordsByAddress[optractRecordsByIndex[i]].expiredTime - 8 hours <= block.timestamp)\n                                {\n\t\t\t\t        inactiveLength += 1;\n                                }\n\t\t\t}\n\t\t}\n\t\treturn inactiveLength;\n        }\n\n        function inactiveOptractsLoop(uint start, uint length, address owner, uint8 _idx) public view returns (uint[] memory) {\n                require(_idx >= 1 && _idx <= 4, \"unknow optract chracteristics\");\n                // _idx: {1: expTimeList, 2: priceList, 3:ETHList, 4: opriceList}\n\t\tif (start + length - 1 > totalOpts) {\n\t\t\tlength = totalOpts - start + 1;\n\t\t}\n                uint inactiveLength = _getNumOfInActiveOptracts(start, length, owner);\n\t\tuint[] memory returnList = new uint[](inactiveLength);\n\t\tif (inactiveLength == 0) return (returnList);\n\t\tuint count = 0;\n\n\t\tif (owner == address(0)) { // list all orders\n\t\t\tfor (uint i = start; i <= start + length - 1; i++) {\n\t\t\t\tif (Optract(optractRecordsByIndex[i]).queryOnStock() == false\n\t\t\t\t    || optractRecordsByAddress[optractRecordsByIndex[i]].expiredTime - 8 hours <= block.timestamp)\n\n\t\t\t\t{\n                                        if (_idx == 1) {\n                                                returnList[count] = optractRecordsByAddress[optractRecordsByIndex[i]].expiredTime;\n                                        } else if (_idx == 2) {\n                                                returnList[count] = Optract(optractRecordsByIndex[i]).queryOrderPrice();\n                                        } else if (_idx == 3) {\n                                                returnList[count] = Optract(optractRecordsByIndex[i]).queryOrderSize();\n                                        } else if (_idx == 4) {\n                                                returnList[count] = Optract(optractRecordsByIndex[i]).queryOptionPrice();\n                                        }\n                                        count += 1;\n                                }\n\t\t\t}\n\t\t} else { // list only those initialized by owner\n\t\t\tfor (uint i = start; i <= start + length - 1; i++) {\n\t\t\t\tif (optractRecordsByAddress[optractRecordsByIndex[i]].initialOwner != owner) continue;\n\t\t\t\tif (Optract(optractRecordsByIndex[i]).queryOnStock() == false\n\t\t\t\t    || optractRecordsByAddress[optractRecordsByIndex[i]].expiredTime - 8 hours <= block.timestamp)\n                                {\n                                        if (_idx == 1) {\n                                                returnList[count] = optractRecordsByAddress[optractRecordsByIndex[i]].expiredTime;\n                                        } else if (_idx == 2) {\n                                                returnList[count] = Optract(optractRecordsByIndex[i]).queryOrderPrice();\n                                        } else if (_idx == 3) {\n                                                returnList[count] = Optract(optractRecordsByIndex[i]).queryOrderSize();\n                                        } else if (_idx == 4) {\n                                                returnList[count] = Optract(optractRecordsByIndex[i]).queryOptionPrice();\n                                        }\n                                        count += 1;\n                                }\n\t\t\t}\n\t\t}\n\t\treturn returnList;\n        }\n\n\tfunction inactiveOptractsFilledStatus(uint start, uint length, address owner) public view returns (address[] memory, bool[] memory) {\n\t        // will be internal function so don't check requirements\n\t\tif (start + length - 1 > totalOpts) {\n\t\t\tlength = totalOpts - start + 1;\n\t\t}\n\n                uint inactiveLength = _getNumOfInActiveOptracts(start, length, owner);\n\t\taddress[] memory addrlist = new address[](inactiveLength);\n\t\tbool[] memory filled = new bool[](inactiveLength);\n\t\tif (inactiveLength == 0) return (addrlist, filled);\n\t\tuint count = 0;\n\n\t\tif (owner == address(0)) { // list all orders\n\t\t\tfor (uint i = start; i <= start + length - 1; i++) {\n\t\t\t\taddress optAddr = optractRecordsByIndex[i];\n\t\t\t\tif (Optract(optAddr).queryOnStock() == false\n\t\t\t\t    || optractRecordsByAddress[optAddr].expiredTime - 8 hours <= block.timestamp)\n                                {\n                                        if (optAddr.balance == Optract(optAddr).queryOrderSize()) {\n                                                filled[count] = true;\n                                        } else {\n                                                filled[count] = false;\n                                        }\n                                        addrlist[count] = optAddr;\n                                        count += 1;\n                                }\n\t\t\t}\n\t\t} else { // list only those initialized by owner\n\t\t\tfor (uint i = start; i <= start + length - 1; i++) {\n\t\t\t\taddress optAddr = optractRecordsByIndex[i];\n\t\t\t\tif (optractRecordsByAddress[optAddr].initialOwner != owner) continue;\n\t\t\t\tif (Optract(optAddr).queryOnStock() == false\n\t\t\t\t    || optractRecordsByAddress[optAddr].expiredTime - 8 hours <= block.timestamp)\n                                {\n                                        if (optAddr.balance == Optract(optAddr).queryOrderSize()) {\n                                                filled[count] = true;\n                                        } else {\n                                                filled[count] = false;\n                                        }\n                                        addrlist[count] = optAddr;\n                                        count += 1;\n                                }\n\t\n\t\t\t}\n\t\t}\n\t\treturn (addrlist, filled);\n\t}\n\n\tfunction inactiveOptracts(uint start, uint length, address owner) public view returns (\n\t\taddress[] memory,\n\t\t   uint[] memory,\n\t\t   uint[] memory,\n\t\t   uint[] memory,\n\t\t   uint[] memory,\n\t           bool[] memory)\n\t{\n\t\trequire(start > 0 && length > 0);\n\t\trequire(totalOpts > 0 && totalOpts >= start);\n\n\t\tif (start + length - 1 > totalOpts) {\n\t\t\tlength = totalOpts - start + 1;\n\t\t}\n\n\t\taddress[] memory addrlist = new address[](_getNumOfInActiveOptracts(start, length, owner));\n\t\tuint[] memory expTimeList= new uint[](_getNumOfInActiveOptracts(start, length, owner));\n\t\tuint[] memory priceList = new uint[](_getNumOfInActiveOptracts(start, length, owner));\n\t\tuint[] memory ETHList = new uint[](_getNumOfInActiveOptracts(start, length, owner));\n\t\tuint[] memory opriceList = new uint[](_getNumOfInActiveOptracts(start, length, owner));\n\t\tbool[] memory filled = new bool[](_getNumOfInActiveOptracts(start, length, owner));\n\n                // assume all the following function calls return same order\n\t\texpTimeList = inactiveOptractsLoop(start, length, owner, 1);\n\t\tpriceList = inactiveOptractsLoop(start, length, owner, 2);\n\t\tETHList = inactiveOptractsLoop(start, length, owner, 3);\n\t\topriceList = inactiveOptractsLoop(start, length, owner, 4);\n\t\t(addrlist, filled) = inactiveOptractsFilledStatus(start, length, owner);\n\t\treturn (addrlist, expTimeList, priceList, ETHList, opriceList, filled);\n        }\n\n}\n",
  "sourcePath": "/home/kai/Work/project/Optract/contracts/OptractRegistry.sol",
  "compiler": {
    "name": "solc",
    "version": "0.5.2+commit.1df8f40c.Linux.g++"
  },
  "schemaVersion": "3.0.1",
  "updatedAt": "2019-03-04T18:03:18.500Z",
  "devdoc": {
    "methods": {}
  },
  "userdoc": {
    "methods": {}
  }
}