{
  "contractName": "OptractRegistry",
  "abi": [
    {
      "constant": true,
      "inputs": [],
      "name": "totalOpts",
      "outputs": [
        {
          "name": "",
          "type": "uint256"
        }
      ],
      "payable": false,
      "stateMutability": "view",
      "type": "function",
      "signature": "0x14eb3037"
    },
    {
      "constant": true,
      "inputs": [],
      "name": "initialPayment",
      "outputs": [
        {
          "name": "",
          "type": "uint256"
        }
      ],
      "payable": false,
      "stateMutability": "view",
      "type": "function",
      "signature": "0x2199a57d"
    },
    {
      "constant": true,
      "inputs": [],
      "name": "blkAddr",
      "outputs": [
        {
          "name": "",
          "type": "address"
        }
      ],
      "payable": false,
      "stateMutability": "view",
      "type": "function",
      "signature": "0x28f402b1"
    },
    {
      "constant": true,
      "inputs": [],
      "name": "debug2",
      "outputs": [
        {
          "name": "",
          "type": "bool"
        }
      ],
      "payable": false,
      "stateMutability": "view",
      "type": "function",
      "signature": "0x5ba88c28"
    },
    {
      "constant": true,
      "inputs": [],
      "name": "paused",
      "outputs": [
        {
          "name": "",
          "type": "bool"
        }
      ],
      "payable": false,
      "stateMutability": "view",
      "type": "function",
      "signature": "0x5c975abb"
    },
    {
      "constant": true,
      "inputs": [],
      "name": "debug3",
      "outputs": [
        {
          "name": "",
          "type": "bool"
        }
      ],
      "payable": false,
      "stateMutability": "view",
      "type": "function",
      "signature": "0x610da891"
    },
    {
      "constant": true,
      "inputs": [],
      "name": "debug1",
      "outputs": [
        {
          "name": "",
          "type": "bool"
        }
      ],
      "payable": false,
      "stateMutability": "view",
      "type": "function",
      "signature": "0x7dc7c5a5"
    },
    {
      "constant": true,
      "inputs": [],
      "name": "currencyTokenAddr",
      "outputs": [
        {
          "name": "",
          "type": "address"
        }
      ],
      "payable": false,
      "stateMutability": "view",
      "type": "function",
      "signature": "0x91d622b9"
    },
    {
      "constant": true,
      "inputs": [],
      "name": "debug4",
      "outputs": [
        {
          "name": "",
          "type": "bool"
        }
      ],
      "payable": false,
      "stateMutability": "view",
      "type": "function",
      "signature": "0xb70902bc"
    },
    {
      "constant": true,
      "inputs": [
        {
          "name": "",
          "type": "uint256"
        }
      ],
      "name": "operators",
      "outputs": [
        {
          "name": "",
          "type": "address"
        }
      ],
      "payable": false,
      "stateMutability": "view",
      "type": "function",
      "signature": "0xe28d4906"
    },
    {
      "inputs": [
        {
          "name": "_currencyTokenAddr",
          "type": "address"
        }
      ],
      "payable": false,
      "stateMutability": "nonpayable",
      "type": "constructor",
      "signature": "constructor"
    },
    {
      "constant": false,
      "inputs": [
        {
          "name": "_debug1",
          "type": "bool"
        },
        {
          "name": "_debug2",
          "type": "bool"
        },
        {
          "name": "_debug3",
          "type": "bool"
        },
        {
          "name": "_debug4",
          "type": "bool"
        }
      ],
      "name": "setDebugParams",
      "outputs": [],
      "payable": false,
      "stateMutability": "nonpayable",
      "type": "function",
      "signature": "0x37435e6c"
    },
    {
      "constant": false,
      "inputs": [
        {
          "name": "ETHAmount",
          "type": "uint256"
        },
        {
          "name": "totalPrice",
          "type": "uint256"
        },
        {
          "name": "period",
          "type": "uint256"
        }
      ],
      "name": "createOptract",
      "outputs": [],
      "payable": false,
      "stateMutability": "nonpayable",
      "type": "function",
      "signature": "0x6e9a01a2"
    },
    {
      "constant": true,
      "inputs": [],
      "name": "queryInitPrice",
      "outputs": [
        {
          "name": "",
          "type": "uint256"
        }
      ],
      "payable": false,
      "stateMutability": "view",
      "type": "function",
      "signature": "0x10bbc68a"
    },
    {
      "constant": true,
      "inputs": [
        {
          "name": "optractAddress",
          "type": "address"
        }
      ],
      "name": "isExpired",
      "outputs": [
        {
          "name": "",
          "type": "bool"
        }
      ],
      "payable": false,
      "stateMutability": "view",
      "type": "function",
      "signature": "0xba2eb541"
    },
    {
      "constant": true,
      "inputs": [],
      "name": "getExpireTime",
      "outputs": [
        {
          "name": "",
          "type": "uint256"
        }
      ],
      "payable": false,
      "stateMutability": "view",
      "type": "function",
      "signature": "0x2537127f"
    },
    {
      "constant": true,
      "inputs": [
        {
          "name": "start",
          "type": "uint256"
        },
        {
          "name": "length",
          "type": "uint256"
        },
        {
          "name": "owner",
          "type": "address"
        }
      ],
      "name": "_getNumOfActiveOptracts",
      "outputs": [
        {
          "name": "",
          "type": "uint256"
        }
      ],
      "payable": false,
      "stateMutability": "view",
      "type": "function",
      "signature": "0x61605f09"
    },
    {
      "constant": true,
      "inputs": [
        {
          "name": "start",
          "type": "uint256"
        },
        {
          "name": "length",
          "type": "uint256"
        },
        {
          "name": "owner",
          "type": "address"
        }
      ],
      "name": "activeOptractsExpiretime",
      "outputs": [
        {
          "name": "",
          "type": "address[]"
        },
        {
          "name": "",
          "type": "uint256[]"
        }
      ],
      "payable": false,
      "stateMutability": "view",
      "type": "function",
      "signature": "0xef49a43f"
    },
    {
      "constant": true,
      "inputs": [
        {
          "name": "start",
          "type": "uint256"
        },
        {
          "name": "length",
          "type": "uint256"
        },
        {
          "name": "owner",
          "type": "address"
        }
      ],
      "name": "activeOptractsPrices",
      "outputs": [
        {
          "name": "",
          "type": "address[]"
        },
        {
          "name": "",
          "type": "uint256[]"
        },
        {
          "name": "",
          "type": "uint256[]"
        },
        {
          "name": "",
          "type": "uint256[]"
        }
      ],
      "payable": false,
      "stateMutability": "view",
      "type": "function",
      "signature": "0x1d934419"
    },
    {
      "constant": true,
      "inputs": [
        {
          "name": "start",
          "type": "uint256"
        },
        {
          "name": "length",
          "type": "uint256"
        },
        {
          "name": "owner",
          "type": "address"
        }
      ],
      "name": "activeOptractsFilledStatus",
      "outputs": [
        {
          "name": "",
          "type": "address[]"
        },
        {
          "name": "",
          "type": "bool[]"
        }
      ],
      "payable": false,
      "stateMutability": "view",
      "type": "function",
      "signature": "0x4b140961"
    },
    {
      "constant": true,
      "inputs": [
        {
          "name": "start",
          "type": "uint256"
        },
        {
          "name": "length",
          "type": "uint256"
        },
        {
          "name": "owner",
          "type": "address"
        }
      ],
      "name": "activeOptracts",
      "outputs": [
        {
          "name": "",
          "type": "address[]"
        },
        {
          "name": "",
          "type": "uint256[]"
        },
        {
          "name": "",
          "type": "uint256[]"
        },
        {
          "name": "",
          "type": "uint256[]"
        },
        {
          "name": "",
          "type": "uint256[]"
        }
      ],
      "payable": false,
      "stateMutability": "view",
      "type": "function",
      "signature": "0x6769f438"
    }
  ],
  "bytecode": "0x6080604052674563918244f4000060055560006006556000600760006101000a81548160ff0219169083151502179055506001600a60006101000a81548160ff0219169083151502179055506000600a60016101000a81548160ff0219169083151502179055506000600a60026101000a81548160ff0219169083151502179055506001600a60036101000a81548160ff0219169083151502179055503480156100a857600080fd5b50604051602080620055a4833981018060405260208110156100c957600080fd5b8101908080519060200190929190505050336000806003811015156100ea57fe5b0160006101000a81548173ffffffffffffffffffffffffffffffffffffffff021916908373ffffffffffffffffffffffffffffffffffffffff16021790555080600360006101000a81548173ffffffffffffffffffffffffffffffffffffffff021916908373ffffffffffffffffffffffffffffffffffffffff16021790555050615429806200017b6000396000f3fe608060405234801561001057600080fd5b5060043610610149576000357c010000000000000000000000000000000000000000000000000000000090048063610da891116100ca57806391d622b91161008e57806391d622b9146107e1578063b70902bc1461082b578063ba2eb5411461084d578063e28d4906146108a9578063ef49a43f1461091757610149565b8063610da8911461052257806361605f09146105445780636769f438146105b05780636e9a01a21461077d5780637dc7c5a5146107bf57610149565b806328f402b11161011157806328f402b11461034b57806337435e6c146103955780634b140961146103e95780635ba88c28146104de5780635c975abb1461050057610149565b806310bbc68a1461014e57806314eb30371461016c5780631d9344191461018a5780632199a57d1461030f5780632537127f1461032d575b600080fd5b610156610a0c565b6040518082815260200191505060405180910390f35b610174610a16565b6040518082815260200191505060405180910390f35b6101e0600480360360608110156101a057600080fd5b810190808035906020019092919080359060200190929190803573ffffffffffffffffffffffffffffffffffffffff169060200190929190505050610a1c565b6040518080602001806020018060200180602001858103855289818151815260200191508051906020019060200280838360005b8381101561022f578082015181840152602081019050610214565b50505050905001858103845288818151815260200191508051906020019060200280838360005b83811015610271578082015181840152602081019050610256565b50505050905001858103835287818151815260200191508051906020019060200280838360005b838110156102b3578082015181840152602081019050610298565b50505050905001858103825286818151815260200191508051906020019060200280838360005b838110156102f55780820151818401526020810190506102da565b505050509050019850505050505050505060405180910390f35b61031761161f565b6040518082815260200191505060405180910390f35b610335611625565b6040518082815260200191505060405180910390f35b61035361175e565b604051808273ffffffffffffffffffffffffffffffffffffffff1673ffffffffffffffffffffffffffffffffffffffff16815260200191505060405180910390f35b6103e7600480360360808110156103ab57600080fd5b81019080803515159060200190929190803515159060200190929190803515159060200190929190803515159060200190929190505050611784565b005b61043f600480360360608110156103ff57600080fd5b810190808035906020019092919080359060200190929190803573ffffffffffffffffffffffffffffffffffffffff1690602001909291905050506117f2565b604051808060200180602001838103835285818151815260200191508051906020019060200280838360005b8381101561048657808201518184015260208101905061046b565b50505050905001838103825284818151815260200191508051906020019060200280838360005b838110156104c85780820151818401526020810190506104ad565b5050505090500194505050505060405180910390f35b6104e6611f1b565b604051808215151515815260200191505060405180910390f35b610508611f2e565b604051808215151515815260200191505060405180910390f35b61052a611f41565b604051808215151515815260200191505060405180910390f35b61059a6004803603606081101561055a57600080fd5b810190808035906020019092919080359060200190929190803573ffffffffffffffffffffffffffffffffffffffff169060200190929190505050611f54565b6040518082815260200191505060405180910390f35b610606600480360360608110156105c657600080fd5b810190808035906020019092919080359060200190929190803573ffffffffffffffffffffffffffffffffffffffff1690602001909291905050506123a6565b60405180806020018060200180602001806020018060200186810386528b818151815260200191508051906020019060200280838360005b8381101561065957808201518184015260208101905061063e565b5050505090500186810385528a818151815260200191508051906020019060200280838360005b8381101561069b578082015181840152602081019050610680565b50505050905001868103845289818151815260200191508051906020019060200280838360005b838110156106dd5780820151818401526020810190506106c2565b50505050905001868103835288818151815260200191508051906020019060200280838360005b8381101561071f578082015181840152602081019050610704565b50505050905001868103825287818151815260200191508051906020019060200280838360005b83811015610761578082015181840152602081019050610746565b505050509050019a505050505050505050505060405180910390f35b6107bd6004803603606081101561079357600080fd5b81019080803590602001909291908035906020019092919080359060200190929190505050612563565b005b6107c7612b37565b604051808215151515815260200191505060405180910390f35b6107e9612b4a565b604051808273ffffffffffffffffffffffffffffffffffffffff1673ffffffffffffffffffffffffffffffffffffffff16815260200191505060405180910390f35b610833612b70565b604051808215151515815260200191505060405180910390f35b61088f6004803603602081101561086357600080fd5b81019080803573ffffffffffffffffffffffffffffffffffffffff169060200190929190505050612b83565b604051808215151515815260200191505060405180910390f35b6108d5600480360360208110156108bf57600080fd5b8101908080359060200190929190505050612bd1565b604051808273ffffffffffffffffffffffffffffffffffffffff1673ffffffffffffffffffffffffffffffffffffffff16815260200191505060405180910390f35b61096d6004803603606081101561092d57600080fd5b810190808035906020019092919080359060200190929190803573ffffffffffffffffffffffffffffffffffffffff169060200190929190505050612c06565b604051808060200180602001838103835285818151815260200191508051906020019060200280838360005b838110156109b4578082015181840152602081019050610999565b50505050905001838103825284818151815260200191508051906020019060200280838360005b838110156109f65780820151818401526020810190506109db565b5050505090500194505050505060405180910390f35b6000600554905090565b60065481565b606080606080600087118015610a325750600086115b1515610a3d57600080fd5b6000600654118015610a5157508660065410155b1515610a5c57600080fd5b6006546001878901031115610a7657600187600654030195505b6000610a83888888611f54565b9050606081604051908082528060200260200182016040528015610ab65781602001602082028038833980820191505090505b509050606082604051908082528060200260200182016040528015610aea5781602001602082028038833980820191505090505b509050606083604051908082528060200260200182016040528015610b1e5781602001602082028038833980820191505090505b509050606084604051908082528060200260200182016040528015610b525781602001602082028038833980820191505090505b5090506000809050600073ffffffffffffffffffffffffffffffffffffffff168b73ffffffffffffffffffffffffffffffffffffffff1614156110645760008d90505b60018d8f01038111151561105e57600015156008600083815260200190815260200160002060009054906101000a900473ffffffffffffffffffffffffffffffffffffffff1673ffffffffffffffffffffffffffffffffffffffff1663070ee0676040518163ffffffff167c010000000000000000000000000000000000000000000000000000000002815260040160206040518083038186803b158015610c3c57600080fd5b505afa158015610c50573d6000803e3d6000fd5b505050506040513d6020811015610c6657600080fd5b810190808051906020019092919050505015151480610cfe575042617080600960006008600086815260200190815260200160002060009054906101000a900473ffffffffffffffffffffffffffffffffffffffff1673ffffffffffffffffffffffffffffffffffffffff1673ffffffffffffffffffffffffffffffffffffffff168152602001908152602001600020600001540311155b15610d0857611051565b6008600082815260200190815260200160002060009054906101000a900473ffffffffffffffffffffffffffffffffffffffff168683815181101515610d4a57fe5b9060200190602002019073ffffffffffffffffffffffffffffffffffffffff16908173ffffffffffffffffffffffffffffffffffffffff16815250506008600082815260200190815260200160002060009054906101000a900473ffffffffffffffffffffffffffffffffffffffff1673ffffffffffffffffffffffffffffffffffffffff1663b3fb9fc76040518163ffffffff167c010000000000000000000000000000000000000000000000000000000002815260040160206040518083038186803b158015610e1b57600080fd5b505afa158015610e2f573d6000803e3d6000fd5b505050506040513d6020811015610e4557600080fd5b81019080805190602001909291905050508583815181101515610e6457fe5b90602001906020020181815250506008600082815260200190815260200160002060009054906101000a900473ffffffffffffffffffffffffffffffffffffffff1673ffffffffffffffffffffffffffffffffffffffff1663b02f0a5a6040518163ffffffff167c010000000000000000000000000000000000000000000000000000000002815260040160206040518083038186803b158015610f0757600080fd5b505afa158015610f1b573d6000803e3d6000fd5b505050506040513d6020811015610f3157600080fd5b81019080805190602001909291905050508483815181101515610f5057fe5b90602001906020020181815250506008600082815260200190815260200160002060009054906101000a900473ffffffffffffffffffffffffffffffffffffffff1673ffffffffffffffffffffffffffffffffffffffff166376f8dc8e6040518163ffffffff167c010000000000000000000000000000000000000000000000000000000002815260040160206040518083038186803b158015610ff357600080fd5b505afa158015611007573d6000803e3d6000fd5b505050506040513d602081101561101d57600080fd5b8101908080519060200190929190505050838381518110151561103c57fe5b90602001906020020181815250506001820191505b8080600101915050610b95565b50611604565b60008d90505b60018d8f010381111515611602578b73ffffffffffffffffffffffffffffffffffffffff16600960006008600085815260200190815260200160002060009054906101000a900473ffffffffffffffffffffffffffffffffffffffff1673ffffffffffffffffffffffffffffffffffffffff1673ffffffffffffffffffffffffffffffffffffffff16815260200190815260200160002060010160009054906101000a900473ffffffffffffffffffffffffffffffffffffffff1673ffffffffffffffffffffffffffffffffffffffff16141515611147576115f5565b600015156008600083815260200190815260200160002060009054906101000a900473ffffffffffffffffffffffffffffffffffffffff1673ffffffffffffffffffffffffffffffffffffffff1663070ee0676040518163ffffffff167c010000000000000000000000000000000000000000000000000000000002815260040160206040518083038186803b1580156111e057600080fd5b505afa1580156111f4573d6000803e3d6000fd5b505050506040513d602081101561120a57600080fd5b8101908080519060200190929190505050151514806112a2575042617080600960006008600086815260200190815260200160002060009054906101000a900473ffffffffffffffffffffffffffffffffffffffff1673ffffffffffffffffffffffffffffffffffffffff1673ffffffffffffffffffffffffffffffffffffffff168152602001908152602001600020600001540311155b156112ac576115f5565b6008600082815260200190815260200160002060009054906101000a900473ffffffffffffffffffffffffffffffffffffffff1686838151811015156112ee57fe5b9060200190602002019073ffffffffffffffffffffffffffffffffffffffff16908173ffffffffffffffffffffffffffffffffffffffff16815250506008600082815260200190815260200160002060009054906101000a900473ffffffffffffffffffffffffffffffffffffffff1673ffffffffffffffffffffffffffffffffffffffff1663b3fb9fc76040518163ffffffff167c010000000000000000000000000000000000000000000000000000000002815260040160206040518083038186803b1580156113bf57600080fd5b505afa1580156113d3573d6000803e3d6000fd5b505050506040513d60208110156113e957600080fd5b8101908080519060200190929190505050858381518110151561140857fe5b90602001906020020181815250506008600082815260200190815260200160002060009054906101000a900473ffffffffffffffffffffffffffffffffffffffff1673ffffffffffffffffffffffffffffffffffffffff1663b02f0a5a6040518163ffffffff167c010000000000000000000000000000000000000000000000000000000002815260040160206040518083038186803b1580156114ab57600080fd5b505afa1580156114bf573d6000803e3d6000fd5b505050506040513d60208110156114d557600080fd5b810190808051906020019092919050505084838151811015156114f457fe5b90602001906020020181815250506008600082815260200190815260200160002060009054906101000a900473ffffffffffffffffffffffffffffffffffffffff1673ffffffffffffffffffffffffffffffffffffffff166376f8dc8e6040518163ffffffff167c010000000000000000000000000000000000000000000000000000000002815260040160206040518083038186803b15801561159757600080fd5b505afa1580156115ab573d6000803e3d6000fd5b505050506040513d60208110156115c157600080fd5b810190808051906020019092919050505083838151811015156115e057fe5b90602001906020020181815250506001820191505b808060010191505061106a565b505b84848484995099509950995050505050505093509350935093565b60055481565b600042600960003373ffffffffffffffffffffffffffffffffffffffff1673ffffffffffffffffffffffffffffffffffffffff168152602001908152602001600020600001541015151561167857600080fd5b600073ffffffffffffffffffffffffffffffffffffffff16600960003373ffffffffffffffffffffffffffffffffffffffff1673ffffffffffffffffffffffffffffffffffffffff16815260200190815260200160002060010160009054906101000a900473ffffffffffffffffffffffffffffffffffffffff1673ffffffffffffffffffffffffffffffffffffffff161415151561171657600080fd5b600960003373ffffffffffffffffffffffffffffffffffffffff1673ffffffffffffffffffffffffffffffffffffffff16815260200190815260200160002060000154905090565b600460009054906101000a900473ffffffffffffffffffffffffffffffffffffffff1681565b83600a60006101000a81548160ff02191690831515021790555082600a60016101000a81548160ff02191690831515021790555081600a60026101000a81548160ff02191690831515021790555080600a60036101000a81548160ff02191690831515021790555050505050565b6060806000851180156118055750600084115b151561181057600080fd5b600060065411801561182457508460065410155b151561182f57600080fd5b600654600185870103111561184957600185600654030193505b6000611856868686611f54565b90506060816040519080825280602002602001820160405280156118895781602001602082028038833980820191505090505b5090506060826040519080825280602002602001820160405280156118bd5781602001602082028038833980820191505090505b5090506000809050600073ffffffffffffffffffffffffffffffffffffffff168773ffffffffffffffffffffffffffffffffffffffff161415611bb55760008990505b6001898b010381111515611baf5760006008600083815260200190815260200160002060009054906101000a900473ffffffffffffffffffffffffffffffffffffffff169050600015158173ffffffffffffffffffffffffffffffffffffffff1663070ee0676040518163ffffffff167c010000000000000000000000000000000000000000000000000000000002815260040160206040518083038186803b1580156119ac57600080fd5b505afa1580156119c0573d6000803e3d6000fd5b505050506040513d60208110156119d657600080fd5b810190808051906020019092919050505015151480611a3b575042617080600960008473ffffffffffffffffffffffffffffffffffffffff1673ffffffffffffffffffffffffffffffffffffffff168152602001908152602001600020600001540311155b15611a465750611ba2565b8073ffffffffffffffffffffffffffffffffffffffff1663b02f0a5a6040518163ffffffff167c010000000000000000000000000000000000000000000000000000000002815260040160206040518083038186803b158015611aa857600080fd5b505afa158015611abc573d6000803e3d6000fd5b505050506040513d6020811015611ad257600080fd5b81019080805190602001909291905050508173ffffffffffffffffffffffffffffffffffffffff16311415611b2a5760018484815181101515611b1157fe5b9060200190602002019015159081151581525050611b4f565b60008484815181101515611b3a57fe5b90602001906020020190151590811515815250505b808584815181101515611b5e57fe5b9060200190602002019073ffffffffffffffffffffffffffffffffffffffff16908173ffffffffffffffffffffffffffffffffffffffff1681525050600183019250505b8080600101915050611900565b50611f09565b60008990505b6001898b010381111515611f075760006008600083815260200190815260200160002060009054906101000a900473ffffffffffffffffffffffffffffffffffffffff1690508873ffffffffffffffffffffffffffffffffffffffff16600960008373ffffffffffffffffffffffffffffffffffffffff1673ffffffffffffffffffffffffffffffffffffffff16815260200190815260200160002060010160009054906101000a900473ffffffffffffffffffffffffffffffffffffffff1673ffffffffffffffffffffffffffffffffffffffff16141515611c9e5750611efa565b600015158173ffffffffffffffffffffffffffffffffffffffff1663070ee0676040518163ffffffff167c010000000000000000000000000000000000000000000000000000000002815260040160206040518083038186803b158015611d0457600080fd5b505afa158015611d18573d6000803e3d6000fd5b505050506040513d6020811015611d2e57600080fd5b810190808051906020019092919050505015151480611d93575042617080600960008473ffffffffffffffffffffffffffffffffffffffff1673ffffffffffffffffffffffffffffffffffffffff168152602001908152602001600020600001540311155b15611d9e5750611efa565b8073ffffffffffffffffffffffffffffffffffffffff1663b02f0a5a6040518163ffffffff167c010000000000000000000000000000000000000000000000000000000002815260040160206040518083038186803b158015611e0057600080fd5b505afa158015611e14573d6000803e3d6000fd5b505050506040513d6020811015611e2a57600080fd5b81019080805190602001909291905050508173ffffffffffffffffffffffffffffffffffffffff16311415611e825760018484815181101515611e6957fe5b9060200190602002019015159081151581525050611ea7565b60008484815181101515611e9257fe5b90602001906020020190151590811515815250505b808584815181101515611eb657fe5b9060200190602002019073ffffffffffffffffffffffffffffffffffffffff16908173ffffffffffffffffffffffffffffffffffffffff1681525050600183019250505b8080600101915050611bbb565b505b82829550955050505050935093915050565b600a60019054906101000a900460ff1681565b600760009054906101000a900460ff1681565b600a60029054906101000a900460ff1681565b600080600090506006546001858701031115611f7557600185600654030193505b600073ffffffffffffffffffffffffffffffffffffffff168373ffffffffffffffffffffffffffffffffffffffff16141561213d5760008590505b6001858701038111151561213757600015156008600083815260200190815260200160002060009054906101000a900473ffffffffffffffffffffffffffffffffffffffff1673ffffffffffffffffffffffffffffffffffffffff1663070ee0676040518163ffffffff167c010000000000000000000000000000000000000000000000000000000002815260040160206040518083038186803b15801561205757600080fd5b505afa15801561206b573d6000803e3d6000fd5b505050506040513d602081101561208157600080fd5b810190808051906020019092919050505015151480612119575042617080600960006008600086815260200190815260200160002060009054906101000a900473ffffffffffffffffffffffffffffffffffffffff1673ffffffffffffffffffffffffffffffffffffffff1673ffffffffffffffffffffffffffffffffffffffff168152602001908152602001600020600001540311155b156121235761212a565b6001820191505b8080600101915050611fb0565b5061239b565b60008590505b60018587010381111515612399578373ffffffffffffffffffffffffffffffffffffffff16600960006008600085815260200190815260200160002060009054906101000a900473ffffffffffffffffffffffffffffffffffffffff1673ffffffffffffffffffffffffffffffffffffffff1673ffffffffffffffffffffffffffffffffffffffff16815260200190815260200160002060010160009054906101000a900473ffffffffffffffffffffffffffffffffffffffff1673ffffffffffffffffffffffffffffffffffffffff161415156122205761238c565b600015156008600083815260200190815260200160002060009054906101000a900473ffffffffffffffffffffffffffffffffffffffff1673ffffffffffffffffffffffffffffffffffffffff1663070ee0676040518163ffffffff167c010000000000000000000000000000000000000000000000000000000002815260040160206040518083038186803b1580156122b957600080fd5b505afa1580156122cd573d6000803e3d6000fd5b505050506040513d60208110156122e357600080fd5b81019080805190602001909291905050501515148061237b575042617080600960006008600086815260200190815260200160002060009054906101000a900473ffffffffffffffffffffffffffffffffffffffff1673ffffffffffffffffffffffffffffffffffffffff1673ffffffffffffffffffffffffffffffffffffffff168152602001908152602001600020600001540311155b156123855761238c565b6001820191505b8080600101915050612143565b505b809150509392505050565b60608060608060606000881180156123be5750600087115b15156123c957600080fd5b60006006541180156123dd57508760065410155b15156123e857600080fd5b6006546001888a0103111561240257600188600654030196505b600061240f898989611f54565b90506060816040519080825280602002602001820160405280156124425781602001602082028038833980820191505090505b5090506060826040519080825280602002602001820160405280156124765781602001602082028038833980820191505090505b5090506060836040519080825280602002602001820160405280156124aa5781602001602082028038833980820191505090505b5090506060846040519080825280602002602001820160405280156124de5781602001602082028038833980820191505090505b5090506060856040519080825280602002602001820160405280156125125781602001602082028038833980820191505090505b5090506125208e8e8e612c06565b80955081965050506125338e8e8e610a1c565b8094508195508296508398505050505084848484849a509a509a509a509a50505050505050939792965093509350565b60001515600760009054906101000a900460ff16151514151561258557600080fd5b600a60009054906101000a900460ff16156126d557600554600360009054906101000a900473ffffffffffffffffffffffffffffffffffffffff1673ffffffffffffffffffffffffffffffffffffffff1663dd62ed3e33306040518363ffffffff167c0100000000000000000000000000000000000000000000000000000000028152600401808373ffffffffffffffffffffffffffffffffffffffff1673ffffffffffffffffffffffffffffffffffffffff1681526020018273ffffffffffffffffffffffffffffffffffffffff1673ffffffffffffffffffffffffffffffffffffffff1681526020019250505060206040518083038186803b15801561268c57600080fd5b505afa1580156126a0573d6000803e3d6000fd5b505050506040513d60208110156126b657600080fd5b8101908080519060200190929190505050101515156126d457600080fd5b5b600a60019054906101000a900460ff16156127175762278d006201518082021015801561270b57506301e1338062015180820211155b151561271657600080fd5b5b600a60029054906101000a900460ff1615612744576729a2241af62c0000831015151561274357600080fd5b5b61274c613331565b600084843033600460009054906101000a900473ffffffffffffffffffffffffffffffffffffffff16600360009054906101000a900473ffffffffffffffffffffffffffffffffffffffff166127a0613361565b808781526020018681526020018573ffffffffffffffffffffffffffffffffffffffff1673ffffffffffffffffffffffffffffffffffffffff1681526020018473ffffffffffffffffffffffffffffffffffffffff1673ffffffffffffffffffffffffffffffffffffffff1681526020018373ffffffffffffffffffffffffffffffffffffffff1673ffffffffffffffffffffffffffffffffffffffff1681526020018273ffffffffffffffffffffffffffffffffffffffff1673ffffffffffffffffffffffffffffffffffffffff1681526020019650505050505050604051809103906000f080158015612899573d6000803e3d6000fd5b509050600a60039054906101000a900460ff16156129f357600360009054906101000a900473ffffffffffffffffffffffffffffffffffffffff1673ffffffffffffffffffffffffffffffffffffffff166323b872dd33836005546040518463ffffffff167c0100000000000000000000000000000000000000000000000000000000028152600401808473ffffffffffffffffffffffffffffffffffffffff1673ffffffffffffffffffffffffffffffffffffffff1681526020018373ffffffffffffffffffffffffffffffffffffffff1673ffffffffffffffffffffffffffffffffffffffff1681526020018281526020019350505050602060405180830381600087803b1580156129ac57600080fd5b505af11580156129c0573d6000803e3d6000fd5b505050506040513d60208110156129d657600080fd5b810190808051906020019092919050505015156129f257600080fd5b5b620151808302420182600001818152505033826020019073ffffffffffffffffffffffffffffffffffffffff16908173ffffffffffffffffffffffffffffffffffffffff16815250506001600654016006819055508060086000600654815260200190815260200160002060006101000a81548173ffffffffffffffffffffffffffffffffffffffff021916908373ffffffffffffffffffffffffffffffffffffffff16021790555081600960008373ffffffffffffffffffffffffffffffffffffffff1673ffffffffffffffffffffffffffffffffffffffff1681526020019081526020016000206000820151816000015560208201518160010160006101000a81548173ffffffffffffffffffffffffffffffffffffffff021916908373ffffffffffffffffffffffffffffffffffffffff1602179055509050505050505050565b600a60009054906101000a900460ff1681565b600360009054906101000a900473ffffffffffffffffffffffffffffffffffffffff1681565b600a60039054906101000a900460ff1681565b6000600960008373ffffffffffffffffffffffffffffffffffffffff1673ffffffffffffffffffffffffffffffffffffffff1681526020019081526020016000206000015442119050919050565b600081600381101515612be057fe5b016000915054906101000a900473ffffffffffffffffffffffffffffffffffffffff1681565b606080600085118015612c195750600084115b1515612c2457600080fd5b6000600654118015612c3857508460065410155b1515612c4357600080fd5b6006546001858701031115612c5d57600185600654030193505b6000612c6a868686611f54565b9050606081604051908082528060200260200182016040528015612c9d5781602001602082028038833980820191505090505b509050606082604051908082528060200260200182016040528015612cd15781602001602082028038833980820191505090505b5090506000809050600073ffffffffffffffffffffffffffffffffffffffff168773ffffffffffffffffffffffffffffffffffffffff161415612fb15760008990505b6001898b010381111515612fab57600015156008600083815260200190815260200160002060009054906101000a900473ffffffffffffffffffffffffffffffffffffffff1673ffffffffffffffffffffffffffffffffffffffff1663070ee0676040518163ffffffff167c010000000000000000000000000000000000000000000000000000000002815260040160206040518083038186803b158015612dbb57600080fd5b505afa158015612dcf573d6000803e3d6000fd5b505050506040513d6020811015612de557600080fd5b810190808051906020019092919050505015151480612e7d575042617080600960006008600086815260200190815260200160002060009054906101000a900473ffffffffffffffffffffffffffffffffffffffff1673ffffffffffffffffffffffffffffffffffffffff1673ffffffffffffffffffffffffffffffffffffffff168152602001908152602001600020600001540311155b15612e8757612f9e565b6008600082815260200190815260200160002060009054906101000a900473ffffffffffffffffffffffffffffffffffffffff168483815181101515612ec957fe5b9060200190602002019073ffffffffffffffffffffffffffffffffffffffff16908173ffffffffffffffffffffffffffffffffffffffff1681525050600960006008600084815260200190815260200160002060009054906101000a900473ffffffffffffffffffffffffffffffffffffffff1673ffffffffffffffffffffffffffffffffffffffff1673ffffffffffffffffffffffffffffffffffffffff168152602001908152602001600020600001548383815181101515612f8957fe5b90602001906020020181815250506001820191505b8080600101915050612d14565b5061331f565b60008990505b6001898b01038111151561331d578773ffffffffffffffffffffffffffffffffffffffff16600960006008600085815260200190815260200160002060009054906101000a900473ffffffffffffffffffffffffffffffffffffffff1673ffffffffffffffffffffffffffffffffffffffff1673ffffffffffffffffffffffffffffffffffffffff16815260200190815260200160002060010160009054906101000a900473ffffffffffffffffffffffffffffffffffffffff1673ffffffffffffffffffffffffffffffffffffffff1614151561309457613310565b600015156008600083815260200190815260200160002060009054906101000a900473ffffffffffffffffffffffffffffffffffffffff1673ffffffffffffffffffffffffffffffffffffffff1663070ee0676040518163ffffffff167c010000000000000000000000000000000000000000000000000000000002815260040160206040518083038186803b15801561312d57600080fd5b505afa158015613141573d6000803e3d6000fd5b505050506040513d602081101561315757600080fd5b8101908080519060200190929190505050151514806131ef575042617080600960006008600086815260200190815260200160002060009054906101000a900473ffffffffffffffffffffffffffffffffffffffff1673ffffffffffffffffffffffffffffffffffffffff1673ffffffffffffffffffffffffffffffffffffffff168152602001908152602001600020600001540311155b156131f957613310565b6008600082815260200190815260200160002060009054906101000a900473ffffffffffffffffffffffffffffffffffffffff16848381518110151561323b57fe5b9060200190602002019073ffffffffffffffffffffffffffffffffffffffff16908173ffffffffffffffffffffffffffffffffffffffff1681525050600960006008600084815260200190815260200160002060009054906101000a900473ffffffffffffffffffffffffffffffffffffffff1673ffffffffffffffffffffffffffffffffffffffff1673ffffffffffffffffffffffffffffffffffffffff1681526020019081526020016000206000015483838151811015156132fb57fe5b90602001906020020181815250506001820191505b8080600101915050612fb7565b505b82829550955050505050935093915050565b604080519081016040528060008152602001600073ffffffffffffffffffffffffffffffffffffffff1681525090565b60405161208c806133728339019056fe60806040526000600b60016101000a81548160ff0219169083151502179055506000600b60026101000a81548160ff02191690831515021790555034801561004657600080fd5b5060405160c08061208c833981018060405260c081101561006657600080fd5b81019080805190602001909291908051906020019092919080519060200190929190805190602001909291908051906020019092919080519060200190929190505050856006819055508460078190555083600360006101000a81548173ffffffffffffffffffffffffffffffffffffffff021916908373ffffffffffffffffffffffffffffffffffffffff160217905550826000806101000a81548173ffffffffffffffffffffffffffffffffffffffff021916908373ffffffffffffffffffffffffffffffffffffffff16021790555081600460006101000a81548173ffffffffffffffffffffffffffffffffffffffff021916908373ffffffffffffffffffffffffffffffffffffffff16021790555080600560006101000a81548173ffffffffffffffffffffffffffffffffffffffff021916908373ffffffffffffffffffffffffffffffffffffffff1602179055506001600b60006101000a81548160ff02191690831515021790555082600160006101000a81548173ffffffffffffffffffffffffffffffffffffffff021916908373ffffffffffffffffffffffffffffffffffffffff16021790555042600981905550505050505050611e5a806102326000396000f3fe608060405260043610610168576000357c010000000000000000000000000000000000000000000000000000000090048063b0d31bc8116100d3578063cf444d9b1161008c578063cf444d9b146106a8578063d80cc009146106d7578063d92fe2df146106ee578063ef78d4fd14610705578063f1fffdcb14610730578063f5e3fc301461078757610168565b8063b0d31bc814610587578063b387ef92146105b6578063b3fb9fc71461060d578063b56fb33714610638578063c80bcf2e14610673578063c98166c01461067d57610168565b80635d0a4cde116101255780635d0a4cde146102ff57806376f8dc8e146104845780637c479449146104af5780639068f84a146104da57806391d622b914610505578063b02f0a5a1461055c57610168565b8063070ee0671461016d57806314c68b1b1461019c57806328f402b1146101cb57806335b132f9146102225780634c2067c71461027957806351da2eaa146102a8575b600080fd5b34801561017957600080fd5b506101826107b2565b604051808215151515815260200191505060405180910390f35b3480156101a857600080fd5b506101b16107c9565b604051808215151515815260200191505060405180910390f35b3480156101d757600080fd5b506101e06107dc565b604051808273ffffffffffffffffffffffffffffffffffffffff1673ffffffffffffffffffffffffffffffffffffffff16815260200191505060405180910390f35b34801561022e57600080fd5b50610237610802565b604051808273ffffffffffffffffffffffffffffffffffffffff1673ffffffffffffffffffffffffffffffffffffffff16815260200191505060405180910390f35b34801561028557600080fd5b5061028e610828565b604051808215151515815260200191505060405180910390f35b3480156102b457600080fd5b506102bd61083b565b604051808273ffffffffffffffffffffffffffffffffffffffff1673ffffffffffffffffffffffffffffffffffffffff16815260200191505060405180910390f35b34801561030b57600080fd5b5061046a6004803603608081101561032257600080fd5b810190808035906020019064010000000081111561033f57600080fd5b82018360208201111561035157600080fd5b8035906020019184602083028401116401000000008311171561037357600080fd5b919080806020026020016040519081016040528093929190818152602001838360200280828437600081840152601f19601f820116905080830192505050505050509192919290803590602001906401000000008111156103d357600080fd5b8201836020820111156103e557600080fd5b8035906020019184602083028401116401000000008311171561040757600080fd5b919080806020026020016040519081016040528093929190818152602001838360200280828437600081840152601f19601f8201169050808301925050505050505091929192908035906020019092919080359060200190929190505050610861565b604051808215151515815260200191505060405180910390f35b34801561049057600080fd5b50610499610dda565b6040518082815260200191505060405180910390f35b3480156104bb57600080fd5b506104c4610de4565b6040518082815260200191505060405180910390f35b3480156104e657600080fd5b506104ef610dea565b6040518082815260200191505060405180910390f35b34801561051157600080fd5b5061051a610df0565b604051808273ffffffffffffffffffffffffffffffffffffffff1673ffffffffffffffffffffffffffffffffffffffff16815260200191505060405180910390f35b34801561056857600080fd5b50610571610e16565b6040518082815260200191505060405180910390f35b34801561059357600080fd5b5061059c610e20565b604051808215151515815260200191505060405180910390f35b3480156105c257600080fd5b506105cb610e33565b604051808273ffffffffffffffffffffffffffffffffffffffff1673ffffffffffffffffffffffffffffffffffffffff16815260200191505060405180910390f35b34801561061957600080fd5b50610622610e59565b6040518082815260200191505060405180910390f35b34801561064457600080fd5b506106716004803603602081101561065b57600080fd5b8101908080359060200190929190505050610e63565b005b61067b61112f565b005b34801561068957600080fd5b506106926115ef565b6040518082815260200191505060405180910390f35b3480156106b457600080fd5b506106bd6115f5565b604051808215151515815260200191505060405180910390f35b3480156106e357600080fd5b506106ec611671565b005b3480156106fa57600080fd5b506107036119c4565b005b34801561071157600080fd5b5061071a611dda565b6040518082815260200191505060405180910390f35b34801561073c57600080fd5b50610745611de0565b604051808273ffffffffffffffffffffffffffffffffffffffff1673ffffffffffffffffffffffffffffffffffffffff16815260200191505060405180910390f35b34801561079357600080fd5b5061079c611e05565b6040518082815260200191505060405180910390f35b6000600b60009054906101000a900460ff16905090565b600b60029054906101000a900460ff1681565b600460009054906101000a900473ffffffffffffffffffffffffffffffffffffffff1681565b600260009054906101000a900473ffffffffffffffffffffffffffffffffffffffff1681565b600b60019054906101000a900460ff1681565b600360009054906101000a900473ffffffffffffffffffffffffffffffffffffffff1681565b60008073ffffffffffffffffffffffffffffffffffffffff16600260009054906101000a900473ffffffffffffffffffffffffffffffffffffffff1673ffffffffffffffffffffffffffffffffffffffff16141580156108d8575060003073ffffffffffffffffffffffffffffffffffffffff1631115b15156108e357600080fd5b60011515600b60009054906101000a900460ff16151514151561096e576040517f08c379a000000000000000000000000000000000000000000000000000000000815260040180806020018281038252600c8152602001807f6e6f74206f6e2073746f636b000000000000000000000000000000000000000081525060200191505060405180910390fd5b6000600360009054906101000a900473ffffffffffffffffffffffffffffffffffffffff1673ffffffffffffffffffffffffffffffffffffffff16632537127f6040518163ffffffff167c010000000000000000000000000000000000000000000000000000000002815260040160206040518083038186803b1580156109f457600080fd5b505afa158015610a08573d6000803e3d6000fd5b505050506040513d6020811015610a1e57600080fd5b81019080805190602001909291905050509050617080810342101515610a4357600080fd5b6102586009540142111515610ac0576040517f08c379a00000000000000000000000000000000000000000000000000000000081526004018080602001828103825260178152602001807f63616e6e6f74206f70657261746520746f6f20736f6f6e00000000000000000081525060200191505060405180910390fd5b6101f4600854811515610acf57fe5b0460085401600560009054906101000a900473ffffffffffffffffffffffffffffffffffffffff1673ffffffffffffffffffffffffffffffffffffffff1663dd62ed3e33306040518363ffffffff167c0100000000000000000000000000000000000000000000000000000000028152600401808373ffffffffffffffffffffffffffffffffffffffff1673ffffffffffffffffffffffffffffffffffffffff1681526020018273ffffffffffffffffffffffffffffffffffffffff1673ffffffffffffffffffffffffffffffffffffffff1681526020019250505060206040518083038186803b158015610bc357600080fd5b505afa158015610bd7573d6000803e3d6000fd5b505050506040513d6020811015610bed57600080fd5b810190808051906020019092919050505010151515610c0b57600080fd5b6000600160009054906101000a900473ffffffffffffffffffffffffffffffffffffffff1690506000600b60006101000a81548160ff02191690831515021790555033600160006101000a81548173ffffffffffffffffffffffffffffffffffffffff021916908373ffffffffffffffffffffffffffffffffffffffff16021790555042600981905550600560009054906101000a900473ffffffffffffffffffffffffffffffffffffffff1673ffffffffffffffffffffffffffffffffffffffff166323b872dd33836008546040518463ffffffff167c0100000000000000000000000000000000000000000000000000000000028152600401808473ffffffffffffffffffffffffffffffffffffffff1673ffffffffffffffffffffffffffffffffffffffff1681526020018373ffffffffffffffffffffffffffffffffffffffff1673ffffffffffffffffffffffffffffffffffffffff1681526020018281526020019350505050602060405180830381600087803b158015610d9057600080fd5b505af1158015610da4573d6000803e3d6000fd5b505050506040513d6020811015610dba57600080fd5b810190808051906020019092919050505050600192505050949350505050565b6000600854905090565b60085481565b60075481565b600560009054906101000a900473ffffffffffffffffffffffffffffffffffffffff1681565b6000600654905090565b600b60009054906101000a900460ff1681565b600160009054906101000a900473ffffffffffffffffffffffffffffffffffffffff1681565b6000600754905090565b600073ffffffffffffffffffffffffffffffffffffffff16600260009054906101000a900473ffffffffffffffffffffffffffffffffffffffff1673ffffffffffffffffffffffffffffffffffffffff1614158015610ed9575060003073ffffffffffffffffffffffffffffffffffffffff1631115b1515610ee457600080fd5b600160009054906101000a900473ffffffffffffffffffffffffffffffffffffffff1673ffffffffffffffffffffffffffffffffffffffff163373ffffffffffffffffffffffffffffffffffffffff16141515610fa9576040517f08c379a00000000000000000000000000000000000000000000000000000000081526004018080602001828103825260098152602001807f6e6f74206f776e6572000000000000000000000000000000000000000000000081525060200191505060405180910390fd5b6000600360009054906101000a900473ffffffffffffffffffffffffffffffffffffffff1673ffffffffffffffffffffffffffffffffffffffff16632537127f6040518163ffffffff167c010000000000000000000000000000000000000000000000000000000002815260040160206040518083038186803b15801561102f57600080fd5b505afa158015611043573d6000803e3d6000fd5b505050506040513d602081101561105957600080fd5b8101908080519060200190929190505050905061708081034210151561107e57600080fd5b60001515600b60009054906101000a900460ff161515141515611109576040517f08c379a000000000000000000000000000000000000000000000000000000000815260040180806020018281038252601a8152602001807f63616e206f6e6c7920707574206f6e2053746f636b206f6e636500000000000081525060200191505060405180910390fd5b6001600b60006101000a81548160ff021916908315150217905550816008819055505050565b60001515600360009054906101000a900473ffffffffffffffffffffffffffffffffffffffff1673ffffffffffffffffffffffffffffffffffffffff1663ba2eb541306040518263ffffffff167c0100000000000000000000000000000000000000000000000000000000028152600401808273ffffffffffffffffffffffffffffffffffffffff1673ffffffffffffffffffffffffffffffffffffffff16815260200191505060206040518083038186803b1580156111ee57600080fd5b505afa158015611202573d6000803e3d6000fd5b505050506040513d602081101561121857600080fd5b810190808051906020019092919050505015151415156112a0576040517f08c379a00000000000000000000000000000000000000000000000000000000081526004018080602001828103825260118152602001807f6e6f772063616e2065786365726369736500000000000000000000000000000081525060200191505060405180910390fd5b600073ffffffffffffffffffffffffffffffffffffffff16600260009054906101000a900473ffffffffffffffffffffffffffffffffffffffff1673ffffffffffffffffffffffffffffffffffffffff16141515611366576040517f08c379a00000000000000000000000000000000000000000000000000000000081526004018080602001828103825260178152602001807f6f74686572732066696c6c2045544820616c726561647900000000000000000081525060200191505060405180910390fd5b600654341415156113c2576040517f08c379a0000000000000000000000000000000000000000000000000000000008152600401808060200182810382526023815260200180611e0c6023913960400191505060405180910390fd5b600360009054906101000a900473ffffffffffffffffffffffffffffffffffffffff1673ffffffffffffffffffffffffffffffffffffffff166310bbc68a6040518163ffffffff167c010000000000000000000000000000000000000000000000000000000002815260040160206040518083038186803b15801561144657600080fd5b505afa15801561145a573d6000803e3d6000fd5b505050506040513d602081101561147057600080fd5b810190808051906020019092919050505060088190555033600260006101000a81548173ffffffffffffffffffffffffffffffffffffffff021916908373ffffffffffffffffffffffffffffffffffffffff160217905550426009819055506000600b60006101000a81548160ff021916908315150217905550600560009054906101000a900473ffffffffffffffffffffffffffffffffffffffff1673ffffffffffffffffffffffffffffffffffffffff1663a9059cbb336008546040518363ffffffff167c0100000000000000000000000000000000000000000000000000000000028152600401808373ffffffffffffffffffffffffffffffffffffffff1673ffffffffffffffffffffffffffffffffffffffff16815260200182815260200192505050602060405180830381600087803b1580156115b157600080fd5b505af11580156115c5573d6000803e3d6000fd5b505050506040513d60208110156115db57600080fd5b810190808051906020019092919050505050565b60065481565b60008073ffffffffffffffffffffffffffffffffffffffff16600260009054906101000a900473ffffffffffffffffffffffffffffffffffffffff1673ffffffffffffffffffffffffffffffffffffffff161415801561166c575060003073ffffffffffffffffffffffffffffffffffffffff1631115b905090565b60011515600360009054906101000a900473ffffffffffffffffffffffffffffffffffffffff1673ffffffffffffffffffffffffffffffffffffffff1663ba2eb541306040518263ffffffff167c0100000000000000000000000000000000000000000000000000000000028152600401808273ffffffffffffffffffffffffffffffffffffffff1673ffffffffffffffffffffffffffffffffffffffff16815260200191505060206040518083038186803b15801561173057600080fd5b505afa158015611744573d6000803e3d6000fd5b505050506040513d602081101561175a57600080fd5b810190808051906020019092919050505015151415156117e2576040517f08c379a00000000000000000000000000000000000000000000000000000000081526004018080602001828103825260178152602001807f63616e206e6f206c6f6e6765722065786365726369736500000000000000000081525060200191505060405180910390fd5b600260009054906101000a900473ffffffffffffffffffffffffffffffffffffffff1673ffffffffffffffffffffffffffffffffffffffff163373ffffffffffffffffffffffffffffffffffffffff161415156118a7576040517f08c379a000000000000000000000000000000000000000000000000000000000815260040180806020018281038252601a8152602001807f6f6e6c792065746853656c6c65722063616e2063616c6c20697400000000000081525060200191505060405180910390fd5b60001515600b60029054906101000a900460ff161515141515611932576040517f08c379a00000000000000000000000000000000000000000000000000000000081526004018080602001828103825260118152602001807f616c72656164792065786572636973656400000000000000000000000000000081525060200191505060405180910390fd5b6000600b60006101000a81548160ff0219169083151502179055503373ffffffffffffffffffffffffffffffffffffffff166108fc3073ffffffffffffffffffffffffffffffffffffffff16319081150290604051600060405180830381858888f193505050501580156119aa573d6000803e3d6000fd5b503373ffffffffffffffffffffffffffffffffffffffff16ff5b600160009054906101000a900473ffffffffffffffffffffffffffffffffffffffff1673ffffffffffffffffffffffffffffffffffffffff163373ffffffffffffffffffffffffffffffffffffffff16141515611a89576040517f08c379a00000000000000000000000000000000000000000000000000000000081526004018080602001828103825260098152602001807f6e6f74206f776e6572000000000000000000000000000000000000000000000081525060200191505060405180910390fd5b6000600360009054906101000a900473ffffffffffffffffffffffffffffffffffffffff1673ffffffffffffffffffffffffffffffffffffffff16632537127f6040518163ffffffff167c010000000000000000000000000000000000000000000000000000000002815260040160206040518083038186803b158015611b0f57600080fd5b505afa158015611b23573d6000803e3d6000fd5b505050506040513d6020811015611b3957600080fd5b8101908080519060200190929190505050905060001515600b60009054906101000a900460ff161515148015611b6e57508042105b80611b88575061708081034210158015611b8757508042105b5b1515611b9357600080fd5b6102586009540142111515611c10576040517f08c379a00000000000000000000000000000000000000000000000000000000081526004018080602001828103825260178152602001807f63616e6e6f74206f70657261746520746f6f20736f6f6e00000000000000000081525060200191505060405180910390fd5b60001515600b60009054906101000a905050506001600b60026101000a81548160ff021916908315150217905550600560009054906101000a900473ffffffffffffffffffffffffffffffffffffffff1673ffffffffffffffffffffffffffffffffffffffff1663a9059cbb600260009054906101000a900473ffffffffffffffffffffffffffffffffffffffff166007546040518363ffffffff167c0100000000000000000000000000000000000000000000000000000000028152600401808373ffffffffffffffffffffffffffffffffffffffff1673ffffffffffffffffffffffffffffffffffffffff16815260200182815260200192505050602060405180830381600087803b158015611d2757600080fd5b505af1158015611d3b573d6000803e3d6000fd5b505050506040513d6020811015611d5157600080fd5b8101908080519060200190929190505050503373ffffffffffffffffffffffffffffffffffffffff166108fc3073ffffffffffffffffffffffffffffffffffffffff16319081150290604051600060405180830381858888f19350505050158015611dc0573d6000803e3d6000fd5b503373ffffffffffffffffffffffffffffffffffffffff16ff5b600a5481565b6000809054906101000a900473ffffffffffffffffffffffffffffffffffffffff1681565b6009548156fe6e65656420746f206465706f73697420657861637420616d6f756e74206f6620455448a165627a7a723058201ec26dda5deea3fe02c764e73cf105e9ba89f2c55dc22359f6ffb53b09410b600029a165627a7a72305820aff79aceb091d4adf3b6499778f94b82c58df2e529c62a57ab20a8c45ec678ec0029",
  "source": "pragma solidity ^0.5.2;\n\nimport \"./ERC20.sol\";\nimport \"./Optract.sol\";\n//import \"./SafeMath.sol\";\n\ncontract OptractRegistry { // PoC ETH-DAI Optract\n\taddress[3] public operators;\n\taddress public currencyTokenAddr; // presumably 'DAI'\n\taddress public blkAddr; // side-chain merkle records\n\tuint public initialPayment = 5000000000000000000; // 5 DAIs\n\tuint public totalOpts = 0;\n\tbool public paused = false;\n\n\tstruct optractRecord {\n\t\tuint expiredTime; // timestamp\n\t\taddress initialOwner; \n\t}\n\n\tmapping (uint => address) optractRecordsByIndex;\n\tmapping (address => optractRecord) optractRecordsByAddress;\n\n\t// Modifiers\n\tmodifier operatorOnly() {\n\t\trequire(msg.sender == operators[0] || msg.sender == operators[1] || msg.sender == operators[2]);\n\t\t_;\n\t}\n\n\tmodifier notPaused() {\n\t\trequire(paused == false);\n\t\t_;\n\t}\n\n\t// Constructor\n\tconstructor(address _currencyTokenAddr) public {\n\t\toperators[0] = msg.sender;\n\t\tcurrencyTokenAddr = _currencyTokenAddr;\n\t}\n\n        bool public debug1 = true;\n        bool public debug2 = false;\n        bool public debug3 = false;\n        bool public debug4 = true;\n        function setDebugParams(bool _debug1, bool _debug2, bool _debug3, bool _debug4) public {\n                debug1 = _debug1;\n                debug2 = _debug2;\n                debug3 = _debug3;\n                debug4 = _debug4;\n        }\n\n\tfunction createOptract(uint256 ETHAmount, uint256 totalPrice, uint period) external notPaused {\n\t        if (debug1){\n                    require(ERC20(currencyTokenAddr).allowance(msg.sender, address(this)) >= initialPayment);\n                }\n                if (debug2){\n                    require(period * 1 days >= 30 days && period * 1 days <= 365 days);\n                }\n                if (debug3){\n                    require(ETHAmount >= 3 ether);\n                }\n\n\t\toptractRecord memory optRcd;\n                Optract opt = new Optract(ETHAmount, totalPrice, address(this), msg.sender, blkAddr, currencyTokenAddr);\n\n                if (debug4) {\n                    require(ERC20(currencyTokenAddr).transferFrom(msg.sender, address(opt), initialPayment));\n                }\n\n                optRcd.expiredTime = block.timestamp + period * 1 days;\n                optRcd.initialOwner = msg.sender;\n\n                totalOpts = totalOpts + 1;\n                optractRecordsByIndex[totalOpts] = address(opt); // mapping start from uint key = 1\n                optractRecordsByAddress[address(opt)] = optRcd;\n\t}\n\n\t// Constant functions\n\tfunction queryInitPrice() public view returns (uint) { \n\t\treturn initialPayment; \n\t}\n\n\tfunction isExpired(address optractAddress) public view returns (bool) {\n\t\treturn block.timestamp > optractRecordsByAddress[optractAddress].expiredTime;\n\t}\n\n\tfunction getExpireTime() public view returns (uint) {\n\t\trequire(optractRecordsByAddress[msg.sender].expiredTime >= block.timestamp);\n\t\trequire(optractRecordsByAddress[msg.sender].initialOwner != address(0));\n\n\t\treturn optractRecordsByAddress[msg.sender].expiredTime;\n\t}\n\n        function _getNumOfActiveOptracts(uint start, uint length, address owner) public view returns (uint) {\n\t        // will be internal function so don't check requirements\n\t        uint activeLength = 0;\n\t\tif (start + length - 1 > totalOpts) {\n\t\t\tlength = totalOpts - start + 1;\n\t\t}\n\t\tif (owner == address(0)) { // list all orders\n\t\t\tfor (uint i = start; i <= start + length - 1; i++) {\n\t\t\t\tif (Optract(optractRecordsByIndex[i]).queryOnStock() == false\n\t\t\t\t    || optractRecordsByAddress[optractRecordsByIndex[i]].expiredTime - 8 hours <= block.timestamp) continue;\n\t\t\t\tactiveLength = activeLength + 1;\n\t\n\t\t\t}\n\t\t} else { // list only those initialized by owner\n\t\t\tfor (uint i = start; i <= start + length - 1; i++) {\n\t\t\t\tif (optractRecordsByAddress[optractRecordsByIndex[i]].initialOwner != owner) continue;\n\t\t\t\tif (Optract(optractRecordsByIndex[i]).queryOnStock() == false\n\t\t\t\t    || optractRecordsByAddress[optractRecordsByIndex[i]].expiredTime - 8 hours <= block.timestamp) continue;\n\t\t\t\tactiveLength = activeLength + 1;\n\t\t\t}\n\t\t}\n\t\treturn activeLength;\n        }\n\n\tfunction activeOptractsExpiretime(uint start, uint length, address owner) public view returns (\n\t        address[] memory,\n\t\t   uint[] memory)\n\t{\n\t\trequire(start > 0 && length > 0);\n\t\trequire(totalOpts > 0 && totalOpts >= start);\n\n\t\tif (start + length - 1 > totalOpts) {\n\t\t\tlength = totalOpts - start + 1;\n\t\t}\n\n                uint activeLength = _getNumOfActiveOptracts(start, length, owner);\n\t\taddress[] memory addrlist = new address[](activeLength);\n\t\tuint[] memory expTimeList= new uint[](activeLength);\n\t\tuint count = 0;\n\t\tif (owner == address(0)) { // list all orders\n\t\t\tfor (uint i = start; i <= start + length - 1; i++) {\n\t\t\t\tif (Optract(optractRecordsByIndex[i]).queryOnStock() == false || optractRecordsByAddress[optractRecordsByIndex[i]].expiredTime - 8 hours <= block.timestamp) continue;\n\t\n\t\t\t\taddrlist[count] = optractRecordsByIndex[i];\n\t\t\t\texpTimeList[count] = optractRecordsByAddress[optractRecordsByIndex[i]].expiredTime;\n\t\t\t\tcount += 1;\n\t\t\t}\n\t\t} else { // list only those initialized by owner\n\t\t\tfor (uint i = start; i <= start + length - 1; i++) {\n\t\t\t\tif (optractRecordsByAddress[optractRecordsByIndex[i]].initialOwner != owner) continue;\n\t\t\t\tif (Optract(optractRecordsByIndex[i]).queryOnStock() == false || optractRecordsByAddress[optractRecordsByIndex[i]].expiredTime - 8 hours <= block.timestamp) continue;\n\t\n\t\t\t\taddrlist[count] = optractRecordsByIndex[i];\n\t\t\t\texpTimeList[count] = optractRecordsByAddress[optractRecordsByIndex[i]].expiredTime;\n\t\t\t\tcount += 1;\n\t\t\t}\n\t\t}\n\t\treturn (addrlist, expTimeList);\n        }\n\n\tfunction activeOptractsPrices(uint start, uint length, address owner) public view returns (\n\t\taddress[] memory,\n\t\t   uint[] memory,\n\t\t   uint[] memory,\n\t\t   uint[] memory )\n\t{\n\t\trequire(start > 0 && length > 0);\n\t\trequire(totalOpts > 0 && totalOpts >= start);\n\n\t\tif (start + length - 1 > totalOpts) {\n\t\t\tlength = totalOpts - start + 1;\n\t\t}\n\n                uint activeLength = _getNumOfActiveOptracts(start, length, owner);\n\t\taddress[] memory addrlist = new address[](activeLength);\n\t\tuint[] memory priceList = new uint[](activeLength);\n\t\tuint[] memory ETHList = new uint[](activeLength);\n\t\tuint[] memory opriceList = new uint[](activeLength);\n\t\tuint count = 0;\n\n\t\tif (owner == address(0)) { // list all orders\n\t\t\tfor (uint i = start; i <= start + length - 1; i++) {\n\t\t\t\tif (Optract(optractRecordsByIndex[i]).queryOnStock() == false || optractRecordsByAddress[optractRecordsByIndex[i]].expiredTime - 8 hours <= block.timestamp) continue;\n\t\n\t\t\t\taddrlist[count] = optractRecordsByIndex[i];\n\t\t\t\tpriceList[count] = Optract(optractRecordsByIndex[i]).queryOrderPrice();\n\t\t\t\tETHList[count] = Optract(optractRecordsByIndex[i]).queryOrderSize();\n\t\t\t\topriceList[count] = Optract(optractRecordsByIndex[i]).queryOptionPrice();\n\t\t\t\tcount += 1;\n\t\t\t}\n\t\t} else { // list only those initialized by owner\n\t\t\tfor (uint i = start; i <= start + length - 1; i++) {\n\t\t\t\tif (optractRecordsByAddress[optractRecordsByIndex[i]].initialOwner != owner) continue;\n\t\t\t\tif (Optract(optractRecordsByIndex[i]).queryOnStock() == false || optractRecordsByAddress[optractRecordsByIndex[i]].expiredTime - 8 hours <= block.timestamp) continue;\n\t\n\t\t\t\taddrlist[count] = optractRecordsByIndex[i];\n\t\t\t\tpriceList[count] = Optract(optractRecordsByIndex[i]).queryOrderPrice();\n\t\t\t\tETHList[count] = Optract(optractRecordsByIndex[i]).queryOrderSize();\n\t\t\t\topriceList[count] = Optract(optractRecordsByIndex[i]).queryOptionPrice();\n\t\t\t\tcount += 1;\n\t\t\t}\n\t\t}\n\t\treturn (addrlist, priceList, ETHList, opriceList);\n\t}\n\n\tfunction activeOptractsFilledStatus(uint start, uint length, address owner) public view returns (\n\t    address[] memory,\n\t    bool[] memory )\n\t{\n\t\trequire(start > 0 && length > 0);\n\t\trequire(totalOpts > 0 && totalOpts >= start);\n\n\t\tif (start + length - 1 > totalOpts) {\n\t\t\tlength = totalOpts - start + 1;\n\t\t}\n\n                uint activeLength = _getNumOfActiveOptracts(start, length, owner);\n\t\taddress[] memory addrlist = new address[](activeLength);\n\t\tbool[] memory filled = new bool[](activeLength);\n\t\tuint count = 0;\n\n\t\tif (owner == address(0)) { // list all orders\n\t\t\tfor (uint i = start; i <= start + length - 1; i++) {\n\t\t\t\taddress optAddr = optractRecordsByIndex[i];\n\t\t\t\tif (Optract(optAddr).queryOnStock() == false || optractRecordsByAddress[optAddr].expiredTime - 8 hours <= block.timestamp) continue;\n\t\n\t\t\t\tif (optAddr.balance == Optract(optAddr).queryOrderSize()) {\n\t\t\t\t\tfilled[count] = true;\n\t\t\t\t} else {\n\t\t\t\t\tfilled[count] = false;\n\t\t\t\t}\n\t\t\t\taddrlist[count] = optAddr;\n\t\t\t\tcount += 1;\n\t\t\t}\n\t\t} else { // list only those initialized by owner\n\t\t\tfor (uint i = start; i <= start + length - 1; i++) {\n\t\t\t\taddress optAddr = optractRecordsByIndex[i];\n\t\t\t\tif (optractRecordsByAddress[optAddr].initialOwner != owner) continue;\n\t\t\t\tif (Optract(optAddr).queryOnStock() == false || optractRecordsByAddress[optAddr].expiredTime - 8 hours <= block.timestamp) continue;\n\t\n\t\t\t\tif (optAddr.balance == Optract(optAddr).queryOrderSize()) {\n\t\t\t\t\tfilled[count] = true;\n\t\t\t\t} else {\n\t\t\t\t\tfilled[count] = false;\n\t\t\t\t}\n\t\t\t\taddrlist[count] = optAddr;\n\t\t\t\tcount += 1;\n\t\t\t}\n\t\t}\n\t\treturn (addrlist, filled);\n\t}\n\n\tfunction activeOptracts(uint start, uint length, address owner) public view returns (\n\t\taddress[] memory,\n\t\t   uint[] memory,\n\t\t   uint[] memory,\n\t\t   uint[] memory,\n\t\t   uint[] memory)\n\t           // bool[] memory )\n\t{\n\t\trequire(start > 0 && length > 0);\n\t\trequire(totalOpts > 0 && totalOpts >= start);\n\n\t\tif (start + length - 1 > totalOpts) {\n\t\t\tlength = totalOpts - start + 1;\n\t\t}\n                uint activeLength = _getNumOfActiveOptracts(start, length, owner);\n\n                // assume all the following function calls return same addrlist\n\t\taddress[] memory addrlist = new address[](activeLength);\n\t\tuint[] memory expTimeList= new uint[](activeLength);\n\t\tuint[] memory priceList = new uint[](activeLength);\n\t\tuint[] memory ETHList = new uint[](activeLength);\n\t\tuint[] memory opriceList = new uint[](activeLength);\n\t\t// bool[] memory filled = new bool[](activeLength);\n\n\t\t(addrlist, expTimeList) = activeOptractsExpiretime(start, length, owner);\n\t\t(addrlist, priceList, ETHList, opriceList) = activeOptractsPrices(start, length, owner);\n\t\t// (addrlist, filled) = activeOptractsFilledStatus(start, length, owner);\n\t\t// return (addrlist, expTimeList, priceList, ETHList, opriceList, filled);\n\t\treturn (addrlist, expTimeList, priceList, ETHList, opriceList);\n        }\n}\n",
  "sourcePath": "/home/kai/Work/project/Optract/contracts/OptractRegistry.sol",
  "compiler": {
    "name": "solc",
    "version": "0.5.2+commit.1df8f40c.Linux.g++"
  },
  "schemaVersion": "3.0.1",
  "updatedAt": "2019-02-28T05:28:06.905Z",
  "devdoc": {
    "methods": {}
  },
  "userdoc": {
    "methods": {}
  }
}