{
  "contractName": "Optract",
  "abi": [
    {
      "constant": true,
      "inputs": [],
      "name": "exercised",
      "outputs": [
        {
          "name": "",
          "type": "bool"
        }
      ],
      "payable": false,
      "stateMutability": "view",
      "type": "function",
      "signature": "0x14c68b1b"
    },
    {
      "constant": true,
      "inputs": [],
      "name": "sblockTimeStep",
      "outputs": [
        {
          "name": "",
          "type": "uint256"
        }
      ],
      "payable": false,
      "stateMutability": "view",
      "type": "function",
      "signature": "0x17ca3256"
    },
    {
      "constant": true,
      "inputs": [],
      "name": "blkAddr",
      "outputs": [
        {
          "name": "",
          "type": "address"
        }
      ],
      "payable": false,
      "stateMutability": "view",
      "type": "function",
      "signature": "0x28f402b1"
    },
    {
      "constant": true,
      "inputs": [],
      "name": "lastOprice",
      "outputs": [
        {
          "name": "",
          "type": "uint256"
        }
      ],
      "payable": false,
      "stateMutability": "view",
      "type": "function",
      "signature": "0x31dc3b40"
    },
    {
      "constant": true,
      "inputs": [],
      "name": "ethSeller",
      "outputs": [
        {
          "name": "",
          "type": "address"
        }
      ],
      "payable": false,
      "stateMutability": "view",
      "type": "function",
      "signature": "0x35b132f9"
    },
    {
      "constant": true,
      "inputs": [],
      "name": "expired",
      "outputs": [
        {
          "name": "",
          "type": "bool"
        }
      ],
      "payable": false,
      "stateMutability": "view",
      "type": "function",
      "signature": "0x4c2067c7"
    },
    {
      "constant": true,
      "inputs": [],
      "name": "registryAddr",
      "outputs": [
        {
          "name": "",
          "type": "address"
        }
      ],
      "payable": false,
      "stateMutability": "view",
      "type": "function",
      "signature": "0x51da2eaa"
    },
    {
      "constant": true,
      "inputs": [],
      "name": "optionPrice",
      "outputs": [
        {
          "name": "",
          "type": "uint256"
        }
      ],
      "payable": false,
      "stateMutability": "view",
      "type": "function",
      "signature": "0x7c479449"
    },
    {
      "constant": true,
      "inputs": [],
      "name": "lastOwner",
      "outputs": [
        {
          "name": "",
          "type": "address"
        }
      ],
      "payable": false,
      "stateMutability": "view",
      "type": "function",
      "signature": "0x8a56ca45"
    },
    {
      "constant": true,
      "inputs": [],
      "name": "totalPriceInDai",
      "outputs": [
        {
          "name": "",
          "type": "uint256"
        }
      ],
      "payable": false,
      "stateMutability": "view",
      "type": "function",
      "signature": "0x9068f84a"
    },
    {
      "constant": true,
      "inputs": [],
      "name": "currencyTokenAddr",
      "outputs": [
        {
          "name": "",
          "type": "address"
        }
      ],
      "payable": false,
      "stateMutability": "view",
      "type": "function",
      "signature": "0x91d622b9"
    },
    {
      "constant": true,
      "inputs": [],
      "name": "lastSblockNo",
      "outputs": [
        {
          "name": "",
          "type": "uint256"
        }
      ],
      "payable": false,
      "stateMutability": "view",
      "type": "function",
      "signature": "0xaab88596"
    },
    {
      "constant": true,
      "inputs": [],
      "name": "onStock",
      "outputs": [
        {
          "name": "",
          "type": "bool"
        }
      ],
      "payable": false,
      "stateMutability": "view",
      "type": "function",
      "signature": "0xb0d31bc8"
    },
    {
      "constant": true,
      "inputs": [],
      "name": "currentOwner",
      "outputs": [
        {
          "name": "",
          "type": "address"
        }
      ],
      "payable": false,
      "stateMutability": "view",
      "type": "function",
      "signature": "0xb387ef92"
    },
    {
      "constant": true,
      "inputs": [],
      "name": "ethAmount",
      "outputs": [
        {
          "name": "",
          "type": "uint256"
        }
      ],
      "payable": false,
      "stateMutability": "view",
      "type": "function",
      "signature": "0xc98166c0"
    },
    {
      "constant": true,
      "inputs": [],
      "name": "period",
      "outputs": [
        {
          "name": "",
          "type": "uint256"
        }
      ],
      "payable": false,
      "stateMutability": "view",
      "type": "function",
      "signature": "0xef78d4fd"
    },
    {
      "constant": true,
      "inputs": [],
      "name": "originalOwner",
      "outputs": [
        {
          "name": "",
          "type": "address"
        }
      ],
      "payable": false,
      "stateMutability": "view",
      "type": "function",
      "signature": "0xf1fffdcb"
    },
    {
      "constant": true,
      "inputs": [],
      "name": "actionTime",
      "outputs": [
        {
          "name": "",
          "type": "uint256"
        }
      ],
      "payable": false,
      "stateMutability": "view",
      "type": "function",
      "signature": "0xf5e3fc30"
    },
    {
      "inputs": [
        {
          "name": "_ethAmount",
          "type": "uint256"
        },
        {
          "name": "_totalPriceInDai",
          "type": "uint256"
        },
        {
          "name": "_registryAddr",
          "type": "address"
        },
        {
          "name": "_originalOwner",
          "type": "address"
        },
        {
          "name": "_blkAddr",
          "type": "address"
        },
        {
          "name": "_currencyTokenAddr",
          "type": "address"
        }
      ],
      "payable": false,
      "stateMutability": "nonpayable",
      "type": "constructor",
      "signature": "constructor"
    },
    {
      "constant": false,
      "inputs": [],
      "name": "fillInEth",
      "outputs": [],
      "payable": true,
      "stateMutability": "payable",
      "type": "function",
      "signature": "0xc80bcf2e"
    },
    {
      "constant": false,
      "inputs": [
        {
          "name": "proof",
          "type": "bytes32[]"
        },
        {
          "name": "isLeft",
          "type": "bool[]"
        },
        {
          "name": "targetLeaf",
          "type": "bytes32"
        },
        {
          "name": "merkleRoot",
          "type": "bytes32"
        },
        {
          "name": "bidPrice",
          "type": "uint256"
        }
      ],
      "name": "claimOptract",
      "outputs": [
        {
          "name": "",
          "type": "bool"
        }
      ],
      "payable": false,
      "stateMutability": "nonpayable",
      "type": "function",
      "signature": "0x3a0d3aab"
    },
    {
      "constant": false,
      "inputs": [
        {
          "name": "_newOptionPrice",
          "type": "uint256"
        }
      ],
      "name": "putOnStock",
      "outputs": [],
      "payable": false,
      "stateMutability": "nonpayable",
      "type": "function",
      "signature": "0xb56fb337"
    },
    {
      "constant": false,
      "inputs": [
        {
          "name": "newPrice",
          "type": "uint256"
        }
      ],
      "name": "setNewOptionPrice",
      "outputs": [],
      "payable": false,
      "stateMutability": "nonpayable",
      "type": "function",
      "signature": "0xce2ca19e"
    },
    {
      "constant": false,
      "inputs": [],
      "name": "currentOwnerExercise",
      "outputs": [],
      "payable": false,
      "stateMutability": "nonpayable",
      "type": "function",
      "signature": "0xd92fe2df"
    },
    {
      "constant": false,
      "inputs": [],
      "name": "ethSellerWithdraw",
      "outputs": [],
      "payable": false,
      "stateMutability": "nonpayable",
      "type": "function",
      "signature": "0xd80cc009"
    },
    {
      "constant": false,
      "inputs": [],
      "name": "cancelOptractCall",
      "outputs": [],
      "payable": false,
      "stateMutability": "nonpayable",
      "type": "function",
      "signature": "0xd6e8c273"
    },
    {
      "constant": true,
      "inputs": [],
      "name": "queryOptionPrice",
      "outputs": [
        {
          "name": "",
          "type": "uint256"
        }
      ],
      "payable": false,
      "stateMutability": "view",
      "type": "function",
      "signature": "0x76f8dc8e"
    },
    {
      "constant": true,
      "inputs": [],
      "name": "queryOrderPrice",
      "outputs": [
        {
          "name": "",
          "type": "uint256"
        }
      ],
      "payable": false,
      "stateMutability": "view",
      "type": "function",
      "signature": "0xb3fb9fc7"
    },
    {
      "constant": true,
      "inputs": [],
      "name": "queryOrderSize",
      "outputs": [
        {
          "name": "",
          "type": "uint256"
        }
      ],
      "payable": false,
      "stateMutability": "view",
      "type": "function",
      "signature": "0xb02f0a5a"
    },
    {
      "constant": true,
      "inputs": [],
      "name": "queryOnStock",
      "outputs": [
        {
          "name": "",
          "type": "bool"
        }
      ],
      "payable": false,
      "stateMutability": "view",
      "type": "function",
      "signature": "0x070ee067"
    },
    {
      "constant": true,
      "inputs": [],
      "name": "isFilled",
      "outputs": [
        {
          "name": "",
          "type": "bool"
        }
      ],
      "payable": false,
      "stateMutability": "view",
      "type": "function",
      "signature": "0xcf444d9b"
    }
  ],
  "bytecode": "0x6080604052600c805462ffff00191690556000600d819055600e5534801561002657600080fd5b5060405160c080611968833981018060405260c081101561004657600080fd5b508051602082015160408301516060840151608085015160a09095015160069490945560079290925560038054600160a060020a03928316600160a060020a03199182161790915560008054938316938216841790556004805495831695821695909517909455600580549190931690841617909155600c805460ff19166001908117909155805490921617905542600955610384600a5561187b806100ed6000396000f3fe6080604052600436106101d15760003560e060020a90048063b02f0a5a116100fb578063ce2ca19e11610099578063d92fe2df11610068578063d92fe2df14610583578063ef78d4fd14610598578063f1fffdcb146105ad578063f5e3fc30146105c2576101d1565b8063ce2ca19e1461051a578063cf444d9b14610544578063d6e8c27314610559578063d80cc0091461056e576101d1565b8063b3fb9fc7116100d5578063b3fb9fc7146104bc578063b56fb337146104d1578063c80bcf2e146104fd578063c98166c014610505576101d1565b8063b02f0a5a1461047d578063b0d31bc814610492578063b387ef92146104a7576101d1565b80634c2067c7116101735780638a56ca45116101425780638a56ca45146104295780639068f84a1461043e57806391d622b914610453578063aab8859614610468576101d1565b80634c2067c7146103d557806351da2eaa146103ea57806376f8dc8e146103ff5780637c47944914610414576101d1565b806328f402b1116101af57806328f402b11461023b57806331dc3b401461026c57806335b132f9146102815780633a0d3aab14610296576101d1565b8063070ee067146101d657806314c68b1b146101ff57806317ca325614610214575b600080fd5b3480156101e257600080fd5b506101eb6105d7565b604080519115158252519081900360200190f35b34801561020b57600080fd5b506101eb6105e0565b34801561022057600080fd5b506102296105ef565b60408051918252519081900360200190f35b34801561024757600080fd5b506102506105f5565b60408051600160a060020a039092168252519081900360200190f35b34801561027857600080fd5b50610229610604565b34801561028d57600080fd5b5061025061060a565b3480156102a257600080fd5b506101eb600480360360a08110156102b957600080fd5b8101906020810181356401000000008111156102d457600080fd5b8201836020820111156102e657600080fd5b8035906020019184602083028401116401000000008311171561030857600080fd5b919080806020026020016040519081016040528093929190818152602001838360200280828437600092019190915250929594936020810193503591505064010000000081111561035857600080fd5b82018360208201111561036a57600080fd5b8035906020019184602083028401116401000000008311171561038c57600080fd5b9190808060200260200160405190810160405280939291908181526020018383602002808284376000920191909152509295505082359350505060208101359060400135610619565b3480156103e157600080fd5b506101eb610ac7565b3480156103f657600080fd5b50610250610ad5565b34801561040b57600080fd5b50610229610ae4565b34801561042057600080fd5b50610229610aea565b34801561043557600080fd5b50610250610af0565b34801561044a57600080fd5b50610229610b06565b34801561045f57600080fd5b50610250610b0c565b34801561047457600080fd5b50610229610b1b565b34801561048957600080fd5b50610229610b21565b34801561049e57600080fd5b506101eb610b27565b3480156104b357600080fd5b50610250610b30565b3480156104c857600080fd5b50610229610b3f565b3480156104dd57600080fd5b506104fb600480360360208110156104f457600080fd5b5035610b45565b005b6104fb610d06565b34801561051157600080fd5b50610229610fe0565b34801561052657600080fd5b506104fb6004803603602081101561053d57600080fd5b5035610fe6565b34801561055057600080fd5b506101eb6110a6565b34801561056557600080fd5b506104fb6110ca565b34801561057a57600080fd5b506104fb6112ab565b34801561058f57600080fd5b506104fb6114c0565b3480156105a457600080fd5b506102296117f1565b3480156105b957600080fd5b506102506117f7565b3480156105ce57600080fd5b50610229611806565b600c5460ff1690565b600c5462010000900460ff1681565b600a5481565b600454600160a060020a031681565b600e5481565b600254600160a060020a031681565b600254600090600160a060020a031615801590610637575060003031115b151561064257600080fd5b600354604080517f2537127f0000000000000000000000000000000000000000000000000000000081529051600092600160a060020a031691632537127f916004808301926020929190829003018186803b1580156106a057600080fd5b505afa1580156106b4573d6000803e3d6000fd5b505050506040513d60208110156106ca57600080fd5b5051905061707f19810142106106df57600080fd5b600554604080517fdd62ed3e00000000000000000000000000000000000000000000000000000000815233600482015230602482015290516101f48604860192600160a060020a03169163dd62ed3e916044808301926020929190829003018186803b15801561074e57600080fd5b505afa158015610762573d6000803e3d6000fd5b505050506040513d602081101561077857600080fd5b5051101561078557600080fd5b600854831161079357600080fd5b6000600460009054906101000a9004600160a060020a0316600160a060020a031663fa7402c96040518163ffffffff1660e060020a02815260040160206040518083038186803b1580156107e657600080fd5b505afa1580156107fa573d6000803e3d6000fd5b505050506040513d602081101561081057600080fd5b5051600c5490915060ff161515600114801561082c5750600d54155b80156108385750600e54155b1561093557600c80546001805476ffffffffffffffffffffffffffffffffffffffff0000ff19909216600160a060020a0380841663010000009081029290921794859055600d869055600e8990553373ffffffffffffffffffffffffffffffffffffffff199094168417909255426009556005546040805160e060020a6323b872dd0281526004810195909552919094048216602484015260448301889052519216916323b872dd916064808201926020929091908290030181600087803b15801561090357600080fd5b505af1158015610917573d6000803e3d6000fd5b505050506040513d602081101561092d57600080fd5b50610ab99050565b600c5460ff161580156109495750600e5484115b80156109565750600d5481145b156101d15760018054600e8054908790553373ffffffffffffffffffffffffffffffffffffffff1983168117909355426009556005546040805160e060020a6323b872dd0281526004810195909552600160a060020a039384166024860181905260448601849052905190949293909116916323b872dd9160648083019260209291908290030181600087803b1580156109ef57600080fd5b505af1158015610a03573d6000803e3d6000fd5b505050506040513d6020811015610a1957600080fd5b5050600554600c546040805160e060020a6323b872dd0281523360048201526301000000909204600160a060020a039081166024840152848a03604484015290519216916323b872dd916064808201926020929091908290030181600087803b158015610a8557600080fd5b505af1158015610a99573d6000803e3d6000fd5b505050506040513d6020811015610aaf57600080fd5b50610ab992505050565b506001979650505050505050565b600c54610100900460ff1681565b600354600160a060020a031681565b60085490565b60085481565b600c5463010000009004600160a060020a031681565b60075481565b600554600160a060020a031681565b600d5481565b60065490565b600c5460ff1681565b600154600160a060020a031681565b60075490565b600254600160a060020a031615801590610b60575060003031115b1515610b6b57600080fd5b600154600160a060020a03163314610bbb576040805160e560020a62461bcd028152602060048201526009602482015260008051602061180d833981519152604482015290519081900360640190fd5b600354604080517f2537127f0000000000000000000000000000000000000000000000000000000081529051600092600160a060020a031691632537127f916004808301926020929190829003018186803b158015610c1957600080fd5b505afa158015610c2d573d6000803e3d6000fd5b505050506040513d6020811015610c4357600080fd5b5051905061707f1981014210610c5857600080fd5b600c5460ff1615610cb3576040805160e560020a62461bcd02815260206004820152601a60248201527f63616e206f6e6c7920707574206f6e2053746f636b206f6e6365000000000000604482015290519081900360640190fd5b50600c80546008929092556001805460ff199093161776ffffffffffffffffffffffffffffffffffffffff0000001916600160a060020a039092166301000000029190911790556000600d819055600e55565b600354604080517fba2eb5410000000000000000000000000000000000000000000000000000000081523060048201529051600160a060020a039092169163ba2eb54191602480820192602092909190829003018186803b158015610d6a57600080fd5b505afa158015610d7e573d6000803e3d6000fd5b505050506040513d6020811015610d9457600080fd5b505115610deb576040805160e560020a62461bcd02815260206004820152601160248201527f6e6f772063616e20657863657263697365000000000000000000000000000000604482015290519081900360640190fd5b600254600160a060020a031615610e4c576040805160e560020a62461bcd02815260206004820152601760248201527f6f74686572732066696c6c2045544820616c7265616479000000000000000000604482015290519081900360640190fd5b6006543414610e8f5760405160e560020a62461bcd02815260040180806020018281038252602381526020018061182d6023913960400191505060405180910390fd5b600360009054906101000a9004600160a060020a0316600160a060020a03166310bbc68a6040518163ffffffff1660e060020a02815260040160206040518083038186803b158015610ee057600080fd5b505afa158015610ef4573d6000803e3d6000fd5b505050506040513d6020811015610f0a57600080fd5b505160088190556002805473ffffffffffffffffffffffffffffffffffffffff19163390811790915542600955600c805460ff19169055600554604080517fa9059cbb000000000000000000000000000000000000000000000000000000008152600481019390935260248301939093529151600160a060020a03929092169163a9059cbb916044808201926020929091908290030181600087803b158015610fb257600080fd5b505af1158015610fc6573d6000803e3d6000fd5b505050506040513d6020811015610fdc57600080fd5b5050565b60065481565b600154600160a060020a03163314611036576040805160e560020a62461bcd028152602060048201526009602482015260008051602061180d833981519152604482015290519081900360640190fd5b600854811061104457600080fd5b600a546009540142116110a1576040805160e560020a62461bcd02815260206004820152601760248201527f63616e6e6f74206f70657261746520746f6f20736f6f6e000000000000000000604482015290519081900360640190fd5b600855565b600254600090600160a060020a0316158015906110c557506006543031145b905090565b600154600160a060020a0316331461111a576040805160e560020a62461bcd028152602060048201526009602482015260008051602061180d833981519152604482015290519081900360640190fd5b600354604080517fba2eb5410000000000000000000000000000000000000000000000000000000081523060048201529051600160a060020a039092169163ba2eb54191602480820192602092909190829003018186803b15801561117e57600080fd5b505afa158015611192573d6000803e3d6000fd5b505050506040513d60208110156111a857600080fd5b50511515600114611203576040805160e560020a62461bcd02815260206004820152601760248201527f63616e206e6f206c6f6e67657220657863657263697365000000000000000000604482015290519081900360640190fd5b600254600160a060020a03161561121957600080fd5b600054600160a060020a0316331461123057600080fd5b600354604080517f996916500000000000000000000000000000000000000000000000000000000081529051600160a060020a039092169163996916509160048082019260009290919082900301818387803b15801561128f57600080fd5b505af11580156112a3573d6000803e3d6000fd5b503392505050ff5b600354604080517fba2eb5410000000000000000000000000000000000000000000000000000000081523060048201529051600160a060020a039092169163ba2eb54191602480820192602092909190829003018186803b15801561130f57600080fd5b505afa158015611323573d6000803e3d6000fd5b505050506040513d602081101561133957600080fd5b50511515600114611394576040805160e560020a62461bcd02815260206004820152601760248201527f63616e206e6f206c6f6e67657220657863657263697365000000000000000000604482015290519081900360640190fd5b600254600160a060020a031633146113f6576040805160e560020a62461bcd02815260206004820152601a60248201527f6f6e6c792065746853656c6c65722063616e2063616c6c206974000000000000604482015290519081900360640190fd5b600c5462010000900460ff1615611457576040805160e560020a62461bcd02815260206004820152601160248201527f616c726561647920657865726369736564000000000000000000000000000000604482015290519081900360640190fd5b600c805460ff19169055600354604080517f996916500000000000000000000000000000000000000000000000000000000081529051600160a060020a039092169163996916509160048082019260009290919082900301818387803b15801561128f57600080fd5b600154600160a060020a03163314611510576040805160e560020a62461bcd028152602060048201526009602482015260008051602061180d833981519152604482015290519081900360640190fd5b600354604080517f2537127f0000000000000000000000000000000000000000000000000000000081529051600092600160a060020a031691632537127f916004808301926020929190829003018186803b15801561156e57600080fd5b505afa158015611582573d6000803e3d6000fd5b505050506040513d602081101561159857600080fd5b5051600c5490915060ff161580156115af57508042105b806115c85750617080810342101580156115c857508042105b15156115d357600080fd5b600a54600954014211611630576040805160e560020a62461bcd02815260206004820152601760248201527f63616e6e6f74206f70657261746520746f6f20736f6f6e000000000000000000604482015290519081900360640190fd5b600754600554604080517fdd62ed3e0000000000000000000000000000000000000000000000000000000081523360048201523060248201529051600160a060020a039092169163dd62ed3e91604480820192602092909190829003018186803b15801561169d57600080fd5b505afa1580156116b1573d6000803e3d6000fd5b505050506040513d60208110156116c757600080fd5b505110156116d457600080fd5b600c805462ff0000191662010000179055600354604080517f996916500000000000000000000000000000000000000000000000000000000081529051600160a060020a039092169163996916509160048082019260009290919082900301818387803b15801561174457600080fd5b505af1158015611758573d6000803e3d6000fd5b50506005546002546007546040805160e060020a6323b872dd028152336004820152600160a060020a0393841660248201526044810192909252519190921693506323b872dd925060648083019260209291908290030181600087803b1580156117c157600080fd5b505af11580156117d5573d6000803e3d6000fd5b505050506040513d60208110156117eb57600080fd5b50339050ff5b600b5481565b600054600160a060020a031681565b6009548156fe6e6f74206f776e657200000000000000000000000000000000000000000000006e65656420746f206465706f73697420657861637420616d6f756e74206f6620455448a165627a7a72305820222d7629f2ee800728156b77a226eab0145cced4172209d15b52f81d7ccb24980029",
  "source": "pragma solidity ^0.5.2;\nimport \"./SafeMath.sol\";\nimport \"./RegistryInterface.sol\";\nimport \"./ERC20.sol\";\nimport \"./BlockRegistryInterface.sol\";\n\n/*\nroles:\n   * originalOwner: someone want to buy the right of some ETH, pay DAI to ethSeller\n   * ethSeller: someone want to sell the rights of some ETH, fill in ETH to this contract\n   * buyer: someone want to buy the ownership of those ETH, pay DAI to currentOwner and become new owner\n            (originalOwner is the first buyer)\ntime:\n   * `period`: in order of months\n   * the new contract owner cannot sell the ownership right away\n*/\n\ncontract Optract {\n    using SafeMath for uint256;\n    address public originalOwner;\n    address public currentOwner;\n    address public ethSeller;\n    address public registryAddr;  // the contract registry\n    address public blkAddr;  // the side-chain address\n    address public currencyTokenAddr;\n    uint256 public ethAmount;\n    uint256 public totalPriceInDai;\n    uint256 public optionPrice;\n    uint256 public actionTime;  // right now, the actions are contract creation and newOwner()\n    uint256 public sblockTimeStep;\n    uint256 public period;  // length of time\n    bool public onStock;\n    bool public expired = false;  // query \"registry\" to determine when to expire\n    bool public exercised = false;\n\n    // decide who and when can claimOptract(); update when claimOptract(), reset when putOnStock()\n    address public lastOwner;\n    uint256 public lastSblockNo = 0;  // `SblockNo` stand for sideblock number\n    uint256 public lastOprice = 0;  // `Oprice` stand for option price\n\n    constructor (\n        uint256 _ethAmount,\n        uint256 _totalPriceInDai,\n        address _registryAddr,\n        address _originalOwner,\n        address _blkAddr,\n        address _currencyTokenAddr\n    ) public {\n        ethAmount = _ethAmount;\n        totalPriceInDai = _totalPriceInDai;\n        registryAddr = _registryAddr;\n        originalOwner = _originalOwner;\n        blkAddr = _blkAddr;\n        currencyTokenAddr = _currencyTokenAddr;\n\n        onStock = true;  // for others to query\n        currentOwner = _originalOwner;\n        actionTime = block.timestamp;  // use this to avoid some too soon operations\n        // sblockTimeStep = iOptractRegistry(blkAddr).getSblockTimeStep();\n        sblockTimeStep = 15 minutes;\n    }\n\n    modifier ownerOnly() {\n        require(msg.sender == currentOwner, \"not owner\");\n        _;\n    }\n\n    modifier ethFilled() {\n        require (ethSeller != address(0) && address(this).balance > 0);\n        _;\n    }\n\n    modifier isOnStock() {\n        require(onStock == true, \"not on stock\");\n        _;\n    }\n\n    modifier whenExpired() {\n        require(iOptractRegistry(registryAddr).isExpired(address(this)) == true, \"can no longer excercise\");\n        _;\n    }\n\n    modifier whenNotExpired() {\n        require(iOptractRegistry(registryAddr).isExpired(address(this)) == false, \"now can excercise\");\n        _;\n    }\n\n    // modifier whenLastExerciseChance() {\n    //     uint256 expireTime = iOptractRegistry(registryAddr).getExpireTime();\n    //     require(block.timestamp >= expireTime - 8 hours && block.timestamp < expireTime);\n    //     _;\n    // }\n\n    modifier whenBeforeLastExerciseChance() {\n        uint256 expireTime = iOptractRegistry(registryAddr).getExpireTime();\n        require(block.timestamp < expireTime - 8 hours);\n        _;\n    }\n\n    modifier whenCanExercise() {\n        uint256 expireTime = iOptractRegistry(registryAddr).getExpireTime();\n        require((onStock == false && block.timestamp < expireTime)\n                || (block.timestamp >= expireTime - 8 hours && block.timestamp < expireTime)\n               );\n        _;\n    }\n\n    // after construct, need a ethSeller to fill in ETH, and the ethSeller obtain DAI\n    function fillInEth() public payable whenNotExpired {\n        require(ethSeller == address(0), \"others fill ETH already\");  // only one can fill in ETH\n        require(msg.value == ethAmount, \"need to deposit exact amount of ETH\");\n        optionPrice = iOptractRegistry(registryAddr).queryInitPrice();\n        ethSeller = msg.sender;\n        actionTime = block.timestamp;\n        onStock = false;\n        // address(this) get 5 DAI (the fix optionPrice for 1st trade) from originalOwner in 'Registry' contract\n        ERC20(currencyTokenAddr).transfer(msg.sender, optionPrice);\n        // note: the originalOwner can hold for some time then withdraw or putOnStock() at some point\n    }\n\n    // consider: gap of 'actionTime' should > 15 min = sidechain block time = 'sblockTimeStep'\n    // consider: setNewOptionPrice() only accept a lower optionPrice\n    // consider: claimOptract can call by: 1: option Buyers (once sideblock finished, there one real winner), 2: option seller, 3: 11BE\n    // cnosider: add a mapping or variable to record claimed price of a sideblockNo (sbNo)\n    //           if same sbNo, the price must larger; otherwise, current sbNo must > previous sbNo with a claimed price\n\n    // a successful buyer can get the ownership (verified through state channel)\n    function claimOptract(\n        bytes32[] memory proof,\n        bool[] memory isLeft,\n        bytes32 targetLeaf,\n        bytes32 merkleRoot,\n        uint256 bidPrice\n    ) public ethFilled whenBeforeLastExerciseChance returns(bool) {\n        // verify:  require(calculateLeaf(msg.sender, some_more_data...) == targetLeaf))\n        // require(iBlockRegistry(blkAddr).merkleTreeValidator(proof, isLeft, targetLeaf, merkleRoot) == true, \"invalid Merkle Proof\");\n\trequire(ERC20(currencyTokenAddr).allowance(msg.sender, address(this)) >= bidPrice + bidPrice/500);\n\trequire(bidPrice > optionPrice);\n        uint256 sblockNo = iBlockRegistry(blkAddr).getSblockNo();\n\n        // new owner; note the ownership could transfer several times in one sblockNo\n        if (onStock == true && lastSblockNo == 0 && lastOprice == 0) {  // for first one who claim during current sblockNo\n            onStock = false;\n            lastOwner = currentOwner;  // the owner before this sblockNo\n            lastSblockNo = sblockNo;\n\n            lastOprice = bidPrice;\n            currentOwner = msg.sender;\n            actionTime = block.timestamp;\n\n            ERC20(currencyTokenAddr).transferFrom(msg.sender, lastOwner, bidPrice);\n            // ERC20(currencyTokenAddr).transferFrom(msg.sender, iBlockRegistry(blkAddr), bidPrice/500);  // 0.2% fee to block contract\n        } else if (onStock == false && bidPrice > lastOprice && sblockNo == lastSblockNo) {  // happen when second buyer coming in same sblock\n            // in same sblock, highest bid win the contract, and the prevBidder get money back\n            address prevBidder = currentOwner;\n            uint256 prevBidPrice = lastOprice;\n\n            lastOprice = bidPrice;\n            currentOwner = msg.sender;\n            actionTime = block.timestamp;\n\n            ERC20(currencyTokenAddr).transferFrom(msg.sender, prevBidder, prevBidPrice);\n            ERC20(currencyTokenAddr).transferFrom(msg.sender, lastOwner, bidPrice - prevBidPrice);\n            // ERC20(currencyTokenAddr).transferFrom(msg.sender, iBlockRegistry(blkAddr), bidPrice/500);  // 0.2% fee to block contract\n        } else {\n            revert();\n        }\n        // optionPrice = optionPrice*mul(1.05);  // set new default price\n        return true;\n    }\n\n    function putOnStock(uint256 _newOptionPrice) public ethFilled ownerOnly whenBeforeLastExerciseChance {\n        // call it when a buyer want to sell the option\n        require(onStock == false, \"can only put on Stock once\");\n        // require(block.timestamp > actionTime + sblockTimeStep*2, \"cannot operate too soon\");  // comment for debug\n        onStock = true;\n        optionPrice = _newOptionPrice;\n        \n        // reset\n        lastOwner = currentOwner;\n        lastSblockNo = 0;\n        lastOprice = 0;\n    }\n\n    function setNewOptionPrice(uint newPrice) public ownerOnly {\n        require(newPrice < optionPrice);\n        require(block.timestamp > actionTime + sblockTimeStep, \"cannot operate too soon\");  // use small value for debug\n        optionPrice = newPrice;\n    }\n\n    // three ways to end this contract:\n    //   (whenNotExpired) the last owner pay DAI and withdraw ETH or\n    //   (whenExpired) ethSeller take ETH back, or\n    //                 if no one fillInEth() then originalOwner take back ETH\n    function currentOwnerExercise() public ownerOnly whenCanExercise {\n        require(block.timestamp > actionTime + sblockTimeStep, \"cannot operate too soon\");\n        require(ERC20(currencyTokenAddr).allowance(msg.sender, address(this)) >= totalPriceInDai);\n        onStock == false;\n        exercised = true;\n\n        iOptractRegistry(registryAddr).destructRecord();  // update record in \"registry\"\n        ERC20(currencyTokenAddr).transferFrom(msg.sender, ethSeller, totalPriceInDai);\n        selfdestruct(msg.sender);  // the residual send to msg.sender\n    }\n\n    function ethSellerWithdraw() public whenExpired {\n        // if the contract owner don't exercise, ethSeller get the eth back\n        require(msg.sender == ethSeller, \"only ethSeller can call it\");\n        require(exercised == false, \"already exercised\");\n        onStock = false;\n\n        iOptractRegistry(registryAddr).destructRecord();  // update record in \"registry\"\n        selfdestruct(msg.sender);  // the residual send to msg.sender\n    }\n\n    function cancelOptractCall() public ownerOnly whenExpired {\n        // if no one fill in this contract, one can calcel this optract after expired (or anytime?)\n        require(ethSeller == address(0));\n        require(msg.sender == originalOwner);\n        onStock == false;\n        iOptractRegistry(registryAddr).destructRecord();  // update record in \"registry\"\n        selfdestruct(msg.sender);  // the residual ETH send to msg.sender\n    }\n\n    // query functions\n    function queryOptionPrice() public view returns (uint256) {\n        return optionPrice;\n    }\n\n    function queryOrderPrice() public view returns (uint256) {\n        return totalPriceInDai;\n    }\n\n    function queryOrderSize() public view returns (uint256) {\n        return ethAmount;\n    }\n\n    function queryOnStock() public view returns (bool) {\n        return onStock;\n    }\n\n    function isFilled() public view returns (bool) {\n        return (ethSeller != address(0) && address(this).balance == ethAmount);\n    }\n\n}\n",
  "sourcePath": "/home/kai/Work/project/Optract/contracts/Optract.sol",
  "compiler": {
    "name": "solc",
    "version": "0.5.2+commit.1df8f40c.Linux.g++"
  },
  "schemaVersion": "3.0.1",
  "updatedAt": "2019-03-04T22:35:48.628Z",
  "devdoc": {
    "methods": {}
  },
  "userdoc": {
    "methods": {}
  }
}