{
  "contractName": "OptractRegistry",
  "abi": [
    {
      "constant": true,
      "inputs": [],
      "name": "totalOpts",
      "outputs": [
        {
          "name": "",
          "type": "uint256"
        }
      ],
      "payable": false,
      "stateMutability": "view",
      "type": "function",
      "signature": "0x14eb3037"
    },
    {
      "constant": true,
      "inputs": [],
      "name": "optionMinPrice",
      "outputs": [
        {
          "name": "",
          "type": "uint256"
        }
      ],
      "payable": false,
      "stateMutability": "view",
      "type": "function",
      "signature": "0x1e5fc06b"
    },
    {
      "constant": true,
      "inputs": [],
      "name": "blkAddr",
      "outputs": [
        {
          "name": "",
          "type": "address"
        }
      ],
      "payable": false,
      "stateMutability": "view",
      "type": "function",
      "signature": "0x28f402b1"
    },
    {
      "constant": true,
      "inputs": [],
      "name": "paused",
      "outputs": [
        {
          "name": "",
          "type": "bool"
        }
      ],
      "payable": false,
      "stateMutability": "view",
      "type": "function",
      "signature": "0x5c975abb"
    },
    {
      "constant": true,
      "inputs": [],
      "name": "currencyTokenAddr",
      "outputs": [
        {
          "name": "",
          "type": "address"
        }
      ],
      "payable": false,
      "stateMutability": "view",
      "type": "function",
      "signature": "0x91d622b9"
    },
    {
      "constant": true,
      "inputs": [
        {
          "name": "",
          "type": "uint256"
        }
      ],
      "name": "operators",
      "outputs": [
        {
          "name": "",
          "type": "address"
        }
      ],
      "payable": false,
      "stateMutability": "view",
      "type": "function",
      "signature": "0xe28d4906"
    },
    {
      "inputs": [
        {
          "name": "_currencyTokenAddr",
          "type": "address"
        },
        {
          "name": "_blkAddr",
          "type": "address"
        }
      ],
      "payable": false,
      "stateMutability": "nonpayable",
      "type": "constructor",
      "signature": "constructor"
    },
    {
      "constant": false,
      "inputs": [
        {
          "name": "ETHAmount",
          "type": "uint256"
        },
        {
          "name": "totalPrice",
          "type": "uint256"
        },
        {
          "name": "period",
          "type": "uint256"
        },
        {
          "name": "optionPrice",
          "type": "uint256"
        }
      ],
      "name": "createOptract",
      "outputs": [],
      "payable": false,
      "stateMutability": "nonpayable",
      "type": "function",
      "signature": "0x9eee80b1"
    },
    {
      "constant": false,
      "inputs": [],
      "name": "destructRecord",
      "outputs": [],
      "payable": false,
      "stateMutability": "nonpayable",
      "type": "function",
      "signature": "0x99691650"
    },
    {
      "constant": true,
      "inputs": [],
      "name": "queryOptionMinPrice",
      "outputs": [
        {
          "name": "",
          "type": "uint256"
        }
      ],
      "payable": false,
      "stateMutability": "pure",
      "type": "function",
      "signature": "0x64da7e24"
    },
    {
      "constant": true,
      "inputs": [
        {
          "name": "optractAddress",
          "type": "address"
        }
      ],
      "name": "isExpired",
      "outputs": [
        {
          "name": "",
          "type": "bool"
        }
      ],
      "payable": false,
      "stateMutability": "view",
      "type": "function",
      "signature": "0xba2eb541"
    },
    {
      "constant": true,
      "inputs": [],
      "name": "getExpireTime",
      "outputs": [
        {
          "name": "",
          "type": "uint256"
        }
      ],
      "payable": false,
      "stateMutability": "view",
      "type": "function",
      "signature": "0x2537127f"
    },
    {
      "constant": true,
      "inputs": [
        {
          "name": "_addr",
          "type": "address"
        }
      ],
      "name": "queryOptractRecords",
      "outputs": [
        {
          "name": "",
          "type": "uint256"
        },
        {
          "name": "",
          "type": "uint256"
        },
        {
          "name": "",
          "type": "address"
        }
      ],
      "payable": false,
      "stateMutability": "view",
      "type": "function",
      "signature": "0x38440451"
    },
    {
      "constant": false,
      "inputs": [
        {
          "name": "newCurrencyTokenAddr",
          "type": "address"
        }
      ],
      "name": "setCurrencyTokenAddr",
      "outputs": [
        {
          "name": "",
          "type": "bool"
        }
      ],
      "payable": false,
      "stateMutability": "nonpayable",
      "type": "function",
      "signature": "0x005bc3f4"
    },
    {
      "constant": false,
      "inputs": [
        {
          "name": "newBlkAddr",
          "type": "address"
        }
      ],
      "name": "setBlkAddr",
      "outputs": [
        {
          "name": "",
          "type": "bool"
        }
      ],
      "payable": false,
      "stateMutability": "nonpayable",
      "type": "function",
      "signature": "0x70747092"
    },
    {
      "constant": true,
      "inputs": [
        {
          "name": "start",
          "type": "uint256"
        },
        {
          "name": "length",
          "type": "uint256"
        },
        {
          "name": "owner",
          "type": "address"
        }
      ],
      "name": "_getNumOfActiveOptracts",
      "outputs": [
        {
          "name": "",
          "type": "uint256"
        }
      ],
      "payable": false,
      "stateMutability": "view",
      "type": "function",
      "signature": "0x61605f09"
    },
    {
      "constant": true,
      "inputs": [
        {
          "name": "start",
          "type": "uint256"
        },
        {
          "name": "length",
          "type": "uint256"
        },
        {
          "name": "owner",
          "type": "address"
        },
        {
          "name": "_idx",
          "type": "uint8"
        }
      ],
      "name": "activeOptractsLoop",
      "outputs": [
        {
          "name": "",
          "type": "uint256[]"
        }
      ],
      "payable": false,
      "stateMutability": "view",
      "type": "function",
      "signature": "0x3b47ea04"
    },
    {
      "constant": true,
      "inputs": [
        {
          "name": "start",
          "type": "uint256"
        },
        {
          "name": "length",
          "type": "uint256"
        },
        {
          "name": "owner",
          "type": "address"
        }
      ],
      "name": "activeOptractsFilledStatus",
      "outputs": [
        {
          "name": "",
          "type": "address[]"
        },
        {
          "name": "",
          "type": "bool[]"
        }
      ],
      "payable": false,
      "stateMutability": "view",
      "type": "function",
      "signature": "0x4b140961"
    },
    {
      "constant": true,
      "inputs": [
        {
          "name": "start",
          "type": "uint256"
        },
        {
          "name": "length",
          "type": "uint256"
        },
        {
          "name": "owner",
          "type": "address"
        }
      ],
      "name": "activeOptracts",
      "outputs": [
        {
          "name": "",
          "type": "address[]"
        },
        {
          "name": "",
          "type": "uint256[]"
        },
        {
          "name": "",
          "type": "uint256[]"
        },
        {
          "name": "",
          "type": "uint256[]"
        },
        {
          "name": "",
          "type": "uint256[]"
        },
        {
          "name": "",
          "type": "bool[]"
        }
      ],
      "payable": false,
      "stateMutability": "view",
      "type": "function",
      "signature": "0x6769f438"
    },
    {
      "constant": true,
      "inputs": [
        {
          "name": "start",
          "type": "uint256"
        },
        {
          "name": "length",
          "type": "uint256"
        },
        {
          "name": "owner",
          "type": "address"
        }
      ],
      "name": "_getNumOfInActiveOptracts",
      "outputs": [
        {
          "name": "",
          "type": "uint256"
        }
      ],
      "payable": false,
      "stateMutability": "view",
      "type": "function",
      "signature": "0x69edcbdc"
    },
    {
      "constant": true,
      "inputs": [
        {
          "name": "start",
          "type": "uint256"
        },
        {
          "name": "length",
          "type": "uint256"
        },
        {
          "name": "owner",
          "type": "address"
        },
        {
          "name": "_idx",
          "type": "uint8"
        }
      ],
      "name": "inactiveOptractsLoop",
      "outputs": [
        {
          "name": "",
          "type": "uint256[]"
        }
      ],
      "payable": false,
      "stateMutability": "view",
      "type": "function",
      "signature": "0xdac717e2"
    },
    {
      "constant": true,
      "inputs": [
        {
          "name": "start",
          "type": "uint256"
        },
        {
          "name": "length",
          "type": "uint256"
        },
        {
          "name": "owner",
          "type": "address"
        }
      ],
      "name": "inactiveOptractsFilledStatus",
      "outputs": [
        {
          "name": "",
          "type": "address[]"
        },
        {
          "name": "",
          "type": "bool[]"
        }
      ],
      "payable": false,
      "stateMutability": "view",
      "type": "function",
      "signature": "0xb7233fa5"
    },
    {
      "constant": true,
      "inputs": [
        {
          "name": "start",
          "type": "uint256"
        },
        {
          "name": "length",
          "type": "uint256"
        },
        {
          "name": "owner",
          "type": "address"
        }
      ],
      "name": "inactiveOptracts",
      "outputs": [
        {
          "name": "",
          "type": "address[]"
        },
        {
          "name": "",
          "type": "uint256[]"
        },
        {
          "name": "",
          "type": "uint256[]"
        },
        {
          "name": "",
          "type": "uint256[]"
        },
        {
          "name": "",
          "type": "uint256[]"
        },
        {
          "name": "",
          "type": "bool[]"
        }
      ],
      "payable": false,
      "stateMutability": "view",
      "type": "function",
      "signature": "0x26b057ad"
    }
  ],
  "bytecode": "0x608060405260006005556006805460ff1916905534801561001f57600080fd5b506040516040806148aa8339810180604052604081101561003f57600080fd5b50805160209091015160008054600160a060020a03199081163317825560038054600160a060020a039586169083161790556004805494909316931692909217905561481990819061009190396000f3fe608060405234801561001057600080fd5b50600436106101455760003560e060020a9004806364da7e24116100bc578063996916501161008057806399691650146106285780639eee80b114610632578063b7233fa514610661578063ba2eb54114610693578063dac717e2146106b9578063e28d4906146106f457610145565b806364da7e241461058e5780636769f4381461059657806369edcbdc146105c857806370747092146105fa57806391d622b91461062057610145565b806328f402b11161010e57806328f402b11461038d57806338440451146103b15780633b47ea04146103fe5780634b140961146104895780635c975abb1461055457806361605f091461055c57610145565b80625bc3f41461014a57806314eb3037146101845780631e5fc06b1461019e5780632537127f146101a657806326b057ad146101ae575b600080fd5b6101706004803603602081101561016057600080fd5b5035600160a060020a0316610711565b604080519115158252519081900360200190f35b61018c6107a4565b60408051918252519081900360200190f35b61018c6107aa565b61018c6107b6565b6101e0600480360360608110156101c457600080fd5b5080359060208101359060400135600160a060020a0316610813565b6040518080602001806020018060200180602001806020018060200187810387528d818151815260200191508051906020019060200280838360005b8381101561023457818101518382015260200161021c565b5050505090500187810386528c818151815260200191508051906020019060200280838360005b8381101561027357818101518382015260200161025b565b5050505090500187810385528b818151815260200191508051906020019060200280838360005b838110156102b257818101518382015260200161029a565b5050505090500187810384528a818151815260200191508051906020019060200280838360005b838110156102f15781810151838201526020016102d9565b50505050905001878103835289818151815260200191508051906020019060200280838360005b83811015610330578181015183820152602001610318565b50505050905001878103825288818151815260200191508051906020019060200280838360005b8381101561036f578181015183820152602001610357565b505050509050019c5050505050505050505050505060405180910390f35b610395610a2c565b60408051600160a060020a039092168252519081900360200190f35b6103d7600480360360208110156103c757600080fd5b5035600160a060020a0316610a3b565b604080519384526020840192909252600160a060020a031682820152519081900360600190f35b6104396004803603608081101561041457600080fd5b508035906020810135906040810135600160a060020a0316906060013560ff16610a69565b60408051602080825283518183015283519192839290830191858101910280838360005b8381101561047557818101518382015260200161045d565b505050509050019250505060405180910390f35b6104bb6004803603606081101561049f57600080fd5b5080359060208101359060400135600160a060020a031661113d565b604051808060200180602001838103835285818151815260200191508051906020019060200280838360005b838110156104ff5781810151838201526020016104e7565b50505050905001838103825284818151815260200191508051906020019060200280838360005b8381101561053e578181015183820152602001610526565b5050505090500194505050505060405180910390f35b61017061158c565b61018c6004803603606081101561057257600080fd5b5080359060208101359060400135600160a060020a0316611595565b61018c6117ce565b6101e0600480360360608110156105ac57600080fd5b5080359060208101359060400135600160a060020a03166117da565b61018c600480360360608110156105de57600080fd5b5080359060208101359060400135600160a060020a03166119d4565b6101706004803603602081101561061057600080fd5b5035600160a060020a0316611bf4565b610395611c87565b610630611c96565b005b6106306004803603608081101561064857600080fd5b5080359060208101359060408101359060600135611d8e565b6104bb6004803603606081101561067757600080fd5b5080359060208101359060400135600160a060020a0316612055565b610170600480360360208110156106a957600080fd5b5035600160a060020a0316612494565b610439600480360360808110156106cf57600080fd5b508035906020810135906040810135600160a060020a0316906060013560ff166124b4565b6103956004803603602081101561070a57600080fd5b5035612b79565b600080800154600160a060020a031633148061073a5750600060010154600160a060020a031633145b806107525750600060020154600160a060020a031633145b151561075d57600080fd5b600160a060020a038216151561077257600080fd5b5060038054600160a060020a03831673ffffffffffffffffffffffffffffffffffffffff199091161790556001919050565b60055481565b674563918244f4000081565b336000908152600860205260408120600101544211156107d557600080fd5b33600090815260086020526040902060020154600160a060020a031615156107fc57600080fd5b503360009081526008602052604090206001015490565b60608060608060608060008911801561082c5750600088115b151561083757600080fd5b600060055411801561084b57508860055410155b151561085657600080fd5b6005546001898b0103111561087057886005540360010197505b606061087d8a8a8a6119d4565b6040519080825280602002602001820160405280156108a6578160200160208202803883390190505b50905060606108b68b8b8b6119d4565b6040519080825280602002602001820160405280156108df578160200160208202803883390190505b50905060606108ef8c8c8c6119d4565b604051908082528060200260200182016040528015610918578160200160208202803883390190505b50905060606109288d8d8d6119d4565b604051908082528060200260200182016040528015610951578160200160208202803883390190505b50905060606109618e8e8e6119d4565b60405190808252806020026020018201604052801561098a578160200160208202803883390190505b509050606061099a8f8f8f6119d4565b6040519080825280602002602001820160405280156109c3578160200160208202803883390190505b5090506109d38f8f8f60016124b4565b94506109e28f8f8f60026124b4565b93506109f18f8f8f60036124b4565b9250610a008f8f8f60046124b4565b9150610a0d8f8f8f612055565b909c50949a509298509096509450909250505093975093979195509350565b600454600160a060020a031681565b600160a060020a03908116600090815260086020526040902080546001820154600290920154909391921690565b606060018260ff1610158015610a83575060048260ff1611155b1515610af057604080517f08c379a000000000000000000000000000000000000000000000000000000000815260206004820152601f60248201527f756e6b6e6f776e206f7074726163742063686172616374657269737469637300604482015290519081900360640190fd5b6005546001858701031115610b0a57846005540360010193505b6000610b17868686611595565b9050606081604051908082528060200260200182016040528015610b45578160200160208202803883390190505b5090506000600160a060020a0386161515610e2a57875b600019898901018111610e245760008181526007602090815260409182902054825160e060020a63070ee0670281529251600160a060020a039091169263070ee067926004808301939192829003018186803b158015610bbb57600080fd5b505afa158015610bcf573d6000803e3d6000fd5b505050506040513d6020811015610be557600080fd5b50511580610c215750600081815260076020908152604080832054600160a060020a0316835260089091529020600101544261707f1990910111155b15610c2b57610e1c565b8560ff1660011415610c7c57600081815260076020908152604080832054600160a060020a0316835260089091529020600101548351849084908110610c6d57fe5b60209081029091010152610e15565b8560ff1660021415610d145760008181526007602090815260409182902054825160e060020a63b3fb9fc70281529251600160a060020a039091169263b3fb9fc7926004808301939192829003018186803b158015610cda57600080fd5b505afa158015610cee573d6000803e3d6000fd5b505050506040513d6020811015610d0457600080fd5b50518351849084908110610c6d57fe5b8560ff1660031415610d725760008181526007602090815260409182902054825160e160020a635817852d0281529251600160a060020a039091169263b02f0a5a926004808301939192829003018186803b158015610cda57600080fd5b8560ff1660041415610e155760008181526007602090815260409182902054825160e160020a633b7c6e470281529251600160a060020a03909116926376f8dc8e926004808301939192829003018186803b158015610dd057600080fd5b505afa158015610de4573d6000803e3d6000fd5b505050506040513d6020811015610dfa57600080fd5b50518351849084908110610e0a57fe5b602090810290910101525b6001820191505b600101610b5c565b50611130565b875b60001989890101811161112e57600081815260076020908152604080832054600160a060020a039081168452600890925290912060020154811690881614610e7357611126565b60008181526007602090815260409182902054825160e060020a63070ee0670281529251600160a060020a039091169263070ee067926004808301939192829003018186803b158015610ec557600080fd5b505afa158015610ed9573d6000803e3d6000fd5b505050506040513d6020811015610eef57600080fd5b50511580610f2b5750600081815260076020908152604080832054600160a060020a0316835260089091529020600101544261707f1990910111155b15610f3557611126565b8560ff1660011415610f8657600081815260076020908152604080832054600160a060020a0316835260089091529020600101548351849084908110610f7757fe5b6020908102909101015261111f565b8560ff166002141561101e5760008181526007602090815260409182902054825160e060020a63b3fb9fc70281529251600160a060020a039091169263b3fb9fc7926004808301939192829003018186803b158015610fe457600080fd5b505afa158015610ff8573d6000803e3d6000fd5b505050506040513d602081101561100e57600080fd5b50518351849084908110610f7757fe5b8560ff166003141561107c5760008181526007602090815260409182902054825160e160020a635817852d0281529251600160a060020a039091169263b02f0a5a926004808301939192829003018186803b158015610fe457600080fd5b8560ff166004141561111f5760008181526007602090815260409182902054825160e160020a633b7c6e470281529251600160a060020a03909116926376f8dc8e926004808301939192829003018186803b1580156110da57600080fd5b505afa1580156110ee573d6000803e3d6000fd5b505050506040513d602081101561110457600080fd5b5051835184908490811061111457fe5b602090810290910101525b6001820191505b600101610e2c565b505b509150505b949350505050565b606080600554600185870103111561115a57846005540360010193505b6000611167868686611595565b9050606081604051908082528060200260200182016040528015611195578160200160208202803883390190505b5090506060826040519080825280602002602001820160405280156111c4578160200160208202803883390190505b5090506000600160a060020a038716151561139957885b6000198a8a010181116113935760008181526007602090815260409182902054825160e060020a63070ee0670281529251600160a060020a0390911692839263070ee06792600480840193829003018186803b15801561123a57600080fd5b505afa15801561124e573d6000803e3d6000fd5b505050506040513d602081101561126457600080fd5b505115806112945750600160a060020a0381166000908152600860205260409020600101544261707f1990910111155b1561129f575061138b565b80600160a060020a031663b02f0a5a6040518163ffffffff1660e060020a02815260040160206040518083038186803b1580156112db57600080fd5b505afa1580156112ef573d6000803e3d6000fd5b505050506040513d602081101561130557600080fd5b5051600160a060020a03821631141561133c576001848481518110151561132857fe5b91151560209283029091019091015261135c565b6000848481518110151561134c57fe5b9115156020928302909101909101525b80858481518110151561136b57fe5b600160a060020a0390921660209283029091019091015250600191909101905b6001016111db565b5061157c565b885b6000198a8a0101811161157a57600081815260076020908152604080832054600160a060020a03908116808552600890935292206002015490918a81169116146113e55750611572565b80600160a060020a031663070ee0676040518163ffffffff1660e060020a02815260040160206040518083038186803b15801561142157600080fd5b505afa158015611435573d6000803e3d6000fd5b505050506040513d602081101561144b57600080fd5b5051158061147b5750600160a060020a0381166000908152600860205260409020600101544261707f1990910111155b156114865750611572565b80600160a060020a031663b02f0a5a6040518163ffffffff1660e060020a02815260040160206040518083038186803b1580156114c257600080fd5b505afa1580156114d6573d6000803e3d6000fd5b505050506040513d60208110156114ec57600080fd5b5051600160a060020a038216311415611523576001848481518110151561150f57fe5b911515602092830290910190910152611543565b6000848481518110151561153357fe5b9115156020928302909101909101525b80858481518110151561155257fe5b600160a060020a0390921660209283029091019091015250600191909101905b60010161139b565b505b509093509150505b935093915050565b60065460ff1681565b60055460009081906000198686010111156115b557846005540360010193505b600160a060020a03831615156116ab57845b6000198686010181116116a55760008181526007602090815260409182902054825160e060020a63070ee0670281529251600160a060020a039091169263070ee067926004808301939192829003018186803b15801561162657600080fd5b505afa15801561163a573d6000803e3d6000fd5b505050506040513d602081101561165057600080fd5b5051158061168c5750600081815260076020908152604080832054600160a060020a0316835260089091529020600101544261707f1990910111155b156116965761169d565b8160010191505b6001016115c7565b50611135565b845b6000198686010181116117c557600081815260076020908152604080832054600160a060020a0390811684526008909252909120600201548116908516146116f4576117bd565b60008181526007602090815260409182902054825160e060020a63070ee0670281529251600160a060020a039091169263070ee067926004808301939192829003018186803b15801561174657600080fd5b505afa15801561175a573d6000803e3d6000fd5b505050506040513d602081101561177057600080fd5b505115806117ac5750600081815260076020908152604080832054600160a060020a0316835260089091529020600101544261707f1990910111155b156117b6576117bd565b8160010191505b6001016116ad565b50949350505050565b674563918244f4000090565b6060806060806060806000891180156117f35750600088115b15156117fe57600080fd5b600060055411801561181257508860055410155b151561181d57600080fd5b6005546001898b0103111561183757886005540360010197505b60606118448a8a8a611595565b60405190808252806020026020018201604052801561186d578160200160208202803883390190505b509050606061187d8b8b8b611595565b6040519080825280602002602001820160405280156118a6578160200160208202803883390190505b50905060606118b68c8c8c611595565b6040519080825280602002602001820160405280156118df578160200160208202803883390190505b50905060606118ef8d8d8d611595565b604051908082528060200260200182016040528015611918578160200160208202803883390190505b50905060606119288e8e8e611595565b604051908082528060200260200182016040528015611951578160200160208202803883390190505b50905060606119618f8f8f611595565b60405190808252806020026020018201604052801561198a578160200160208202803883390190505b50905061199a8f8f8f6001610a69565b94506119a98f8f8f6002610a69565b93506119b88f8f8f6003610a69565b92506119c78f8f8f6004610a69565b9150610a0d8f8f8f61113d565b60055460009081906000198686010111156119f457846005540360010193505b600160a060020a0383161515611adf57845b6000198686010181116116a55760008181526007602090815260409182902054825160e060020a63070ee0670281529251600160a060020a039091169263070ee067926004808301939192829003018186803b158015611a6557600080fd5b505afa158015611a79573d6000803e3d6000fd5b505050506040513d6020811015611a8f57600080fd5b50511580611acb5750600081815260076020908152604080832054600160a060020a0316835260089091529020600101544261707f1990910111155b15611ad7576001820191505b600101611a06565b845b6000198686010181116117c557600081815260076020908152604080832054600160a060020a039081168452600890925290912060020154811690851614611b2857611bec565b60008181526007602090815260409182902054825160e060020a63070ee0670281529251600160a060020a039091169263070ee067926004808301939192829003018186803b158015611b7a57600080fd5b505afa158015611b8e573d6000803e3d6000fd5b505050506040513d6020811015611ba457600080fd5b50511580611be05750600081815260076020908152604080832054600160a060020a0316835260089091529020600101544261707f1990910111155b15611bec576001820191505b600101611ae1565b600080800154600160a060020a0316331480611c1d5750600060010154600160a060020a031633145b80611c355750600060020154600160a060020a031633145b1515611c4057600080fd5b600160a060020a0382161515611c5557600080fd5b5060048054600160a060020a03831673ffffffffffffffffffffffffffffffffffffffff199091161790556001919050565b600354600160a060020a031681565b336000908152600860209081526040808320548084526007909252909120805473ffffffffffffffffffffffffffffffffffffffff191690556005548114611d495760058054600090815260076020818152604080842054600160a060020a0390811685526008835281852087905585548552929091528083205485845281842080549190931673ffffffffffffffffffffffffffffffffffffffff199182161790925592548252919020805490911690555b503360009081526008602052604081208181556001810191909155600201805473ffffffffffffffffffffffffffffffffffffffff1916905560058054600019019055565b60065460ff1615611d9e57600080fd5b674563918244f40000811015611db357600080fd5b600354604080517fdd62ed3e00000000000000000000000000000000000000000000000000000000815233600482015230602482015290518392600160a060020a03169163dd62ed3e916044808301926020929190829003018186803b158015611e1c57600080fd5b505afa158015611e30573d6000803e3d6000fd5b505050506040513d6020811015611e4657600080fd5b50511015611e5357600080fd5b6201518082620151800210158015611e7457506301e1338082620151800211155b1515611e7f57600080fd5b6003841015611e8d57600080fd5b611e95612b96565b60058054600101905560045460035460009187918791869130913391600160a060020a039182169116611ec6612bc1565b9687526020870195909552604080870194909452600160a060020a0392831660608701529082166080860152811660a08501529190911660c0830152519081900360e001906000f080158015611f20573d6000803e3d6000fd5b50600354604080517f23b872dd000000000000000000000000000000000000000000000000000000008152336004820152600160a060020a0380851660248301526044820188905291519394509116916323b872dd916064808201926020929091908290030181600087803b158015611f9857600080fd5b505af1158015611fac573d6000803e3d6000fd5b505050506040513d6020811015611fc257600080fd5b50511515611fcf57600080fd5b600554808352620151809490940242016020808401918252336040808601918252600097885260078352808820805473ffffffffffffffffffffffffffffffffffffffff19908116600160a060020a0397881690811790925590895260089093529096209351845590516001840155935160029092018054909416911617909155505050565b606080600554600185870103111561207257846005540360010193505b600061207f8686866119d4565b90506060816040519080825280602002602001820160405280156120ad578160200160208202803883390190505b5090506060826040519080825280602002602001820160405280156120dc578160200160208202803883390190505b5090508215156120f25790935091506115849050565b6000600160a060020a03871615156122b857885b6000198a8a010181116113935760008181526007602090815260409182902054825160e060020a63070ee0670281529251600160a060020a0390911692839263070ee06792600480840193829003018186803b15801561216557600080fd5b505afa158015612179573d6000803e3d6000fd5b505050506040513d602081101561218f57600080fd5b505115806121bf5750600160a060020a0381166000908152600860205260409020600101544261707f1990910111155b156122af5780600160a060020a031663b02f0a5a6040518163ffffffff1660e060020a02815260040160206040518083038186803b15801561220057600080fd5b505afa158015612214573d6000803e3d6000fd5b505050506040513d602081101561222a57600080fd5b5051600160a060020a038216311415612261576001848481518110151561224d57fe5b911515602092830290910190910152612281565b6000848481518110151561227157fe5b9115156020928302909101909101525b80858481518110151561229057fe5b600160a060020a03909216602092830290910190910152600192909201915b50600101612106565b885b6000198a8a0101811161157a57600081815260076020908152604080832054600160a060020a03908116808552600890935292206002015490918a8116911614612304575061248c565b80600160a060020a031663070ee0676040518163ffffffff1660e060020a02815260040160206040518083038186803b15801561234057600080fd5b505afa158015612354573d6000803e3d6000fd5b505050506040513d602081101561236a57600080fd5b5051158061239a5750600160a060020a0381166000908152600860205260409020600101544261707f1990910111155b1561248a5780600160a060020a031663b02f0a5a6040518163ffffffff1660e060020a02815260040160206040518083038186803b1580156123db57600080fd5b505afa1580156123ef573d6000803e3d6000fd5b505050506040513d602081101561240557600080fd5b5051600160a060020a03821631141561243c576001848481518110151561242857fe5b91151560209283029091019091015261245c565b6000848481518110151561244c57fe5b9115156020928302909101909101525b80858481518110151561246b57fe5b600160a060020a03909216602092830290910190910152600192909201915b505b6001016122ba565b600160a060020a0316600090815260086020526040902060010154421190565b606060018260ff16101580156124ce575060048260ff1611155b151561253b57604080517f08c379a000000000000000000000000000000000000000000000000000000000815260206004820152601d60248201527f756e6b6e6f77206f707472616374206368726163746572697374696373000000604482015290519081900360640190fd5b600554600185870103111561255557846005540360010193505b60006125628686866119d4565b9050606081604051908082528060200260200182016040528015612590578160200160208202803883390190505b5090508115156125a35791506111359050565b6000600160a060020a038616151561287a57875b600019898901018111610e245760008181526007602090815260409182902054825160e060020a63070ee0670281529251600160a060020a039091169263070ee067926004808301939192829003018186803b15801561261657600080fd5b505afa15801561262a573d6000803e3d6000fd5b505050506040513d602081101561264057600080fd5b5051158061267c5750600081815260076020908152604080832054600160a060020a0316835260089091529020600101544261707f1990910111155b15612872578560ff16600114156126d257600081815260076020908152604080832054600160a060020a03168352600890915290206001015483518490849081106126c357fe5b6020908102909101015261286b565b8560ff166002141561276a5760008181526007602090815260409182902054825160e060020a63b3fb9fc70281529251600160a060020a039091169263b3fb9fc7926004808301939192829003018186803b15801561273057600080fd5b505afa158015612744573d6000803e3d6000fd5b505050506040513d602081101561275a57600080fd5b505183518490849081106126c357fe5b8560ff16600314156127c85760008181526007602090815260409182902054825160e160020a635817852d0281529251600160a060020a039091169263b02f0a5a926004808301939192829003018186803b15801561273057600080fd5b8560ff166004141561286b5760008181526007602090815260409182902054825160e160020a633b7c6e470281529251600160a060020a03909116926376f8dc8e926004808301939192829003018186803b15801561282657600080fd5b505afa15801561283a573d6000803e3d6000fd5b505050506040513d602081101561285057600080fd5b5051835184908490811061286057fe5b602090810290910101525b6001820191505b6001016125b7565b875b60001989890101811161112e57600081815260076020908152604080832054600160a060020a0390811684526008909252909120600201548116908816146128c357612b71565b60008181526007602090815260409182902054825160e060020a63070ee0670281529251600160a060020a039091169263070ee067926004808301939192829003018186803b15801561291557600080fd5b505afa158015612929573d6000803e3d6000fd5b505050506040513d602081101561293f57600080fd5b5051158061297b5750600081815260076020908152604080832054600160a060020a0316835260089091529020600101544261707f1990910111155b15612b71578560ff16600114156129d157600081815260076020908152604080832054600160a060020a03168352600890915290206001015483518490849081106129c257fe5b60209081029091010152612b6a565b8560ff1660021415612a695760008181526007602090815260409182902054825160e060020a63b3fb9fc70281529251600160a060020a039091169263b3fb9fc7926004808301939192829003018186803b158015612a2f57600080fd5b505afa158015612a43573d6000803e3d6000fd5b505050506040513d6020811015612a5957600080fd5b505183518490849081106129c257fe5b8560ff1660031415612ac75760008181526007602090815260409182902054825160e160020a635817852d0281529251600160a060020a039091169263b02f0a5a926004808301939192829003018186803b158015612a2f57600080fd5b8560ff1660041415612b6a5760008181526007602090815260409182902054825160e160020a633b7c6e470281529251600160a060020a03909116926376f8dc8e926004808301939192829003018186803b158015612b2557600080fd5b505afa158015612b39573d6000803e3d6000fd5b505050506040513d6020811015612b4f57600080fd5b50518351849084908110612b5f57fe5b602090810290910101525b6001820191505b60010161287c565b60008160038110612b8657fe5b0154600160a060020a0316905081565b60606040519081016040528060008152602001600081526020016000600160a060020a031681525090565b604051611c1c80612bd28339019056fe6080604052600c805462ffff00191690556000600d819055600e5534801561002657600080fd5b5060405160e080611c1c833981018060405260e081101561004657600080fd5b508051602082015160408301516060840151608085015160a086015160c09096015160069590955560079390935560089190915560038054600160a060020a03928316600160a060020a03199182161790915560008054938316938216841790556004805495831695821695909517909455600580549190931690841617909155600c805460ff191660019081179091558054909216179055426009556078600a55611b25806100f76000396000f3fe6080604052600436106101d15760003560e060020a90048063b02f0a5a116100fb578063ce2ca19e11610099578063d92fe2df11610068578063d92fe2df14610583578063ef78d4fd14610598578063f1fffdcb146105ad578063f5e3fc30146105c2576101d1565b8063ce2ca19e1461051a578063cf444d9b14610544578063d6e8c27314610559578063d80cc0091461056e576101d1565b8063b3fb9fc7116100d5578063b3fb9fc7146104bc578063b56fb337146104d1578063c80bcf2e146104fd578063c98166c014610505576101d1565b8063b02f0a5a1461047d578063b0d31bc814610492578063b387ef92146104a7576101d1565b80634c2067c7116101735780638a56ca45116101425780638a56ca45146104295780639068f84a1461043e57806391d622b914610453578063aab8859614610468576101d1565b80634c2067c7146103d557806351da2eaa146103ea57806376f8dc8e146103ff5780637c47944914610414576101d1565b806328f402b1116101af57806328f402b11461023b57806331dc3b401461026c57806335b132f9146102815780633a0d3aab14610296576101d1565b8063070ee067146101d657806314c68b1b146101ff57806317ca325614610214575b600080fd5b3480156101e257600080fd5b506101eb6105d7565b604080519115158252519081900360200190f35b34801561020b57600080fd5b506101eb6105e0565b34801561022057600080fd5b506102296105ef565b60408051918252519081900360200190f35b34801561024757600080fd5b506102506105f5565b60408051600160a060020a039092168252519081900360200190f35b34801561027857600080fd5b50610229610604565b34801561028d57600080fd5b5061025061060a565b3480156102a257600080fd5b506101eb600480360360a08110156102b957600080fd5b8101906020810181356401000000008111156102d457600080fd5b8201836020820111156102e657600080fd5b8035906020019184602083028401116401000000008311171561030857600080fd5b919080806020026020016040519081016040528093929190818152602001838360200280828437600092019190915250929594936020810193503591505064010000000081111561035857600080fd5b82018360208201111561036a57600080fd5b8035906020019184602083028401116401000000008311171561038c57600080fd5b9190808060200260200160405190810160405280939291908181526020018383602002808284376000920191909152509295505082359350505060208101359060400135610619565b3480156103e157600080fd5b506101eb610d69565b3480156103f657600080fd5b50610250610d77565b34801561040b57600080fd5b50610229610d86565b34801561042057600080fd5b50610229610d8c565b34801561043557600080fd5b50610250610d92565b34801561044a57600080fd5b50610229610da8565b34801561045f57600080fd5b50610250610dae565b34801561047457600080fd5b50610229610dbd565b34801561048957600080fd5b50610229610dc3565b34801561049e57600080fd5b506101eb610dc9565b3480156104b357600080fd5b50610250610dd2565b3480156104c857600080fd5b50610229610de1565b3480156104dd57600080fd5b506104fb600480360360208110156104f457600080fd5b5035610de7565b005b6104fb611031565b34801561051157600080fd5b5061022961128a565b34801561052657600080fd5b506104fb6004803603602081101561053d57600080fd5b5035611290565b34801561055057600080fd5b506101eb611350565b34801561056557600080fd5b506104fb611374565b34801561057a57600080fd5b506104fb611555565b34801561058f57600080fd5b506104fb61176a565b3480156105a457600080fd5b50610229611a9b565b3480156105b957600080fd5b50610250611aa1565b3480156105ce57600080fd5b50610229611ab0565b600c5460ff1690565b600c5462010000900460ff1681565b600a5481565b600454600160a060020a031681565b600e5481565b600254600160a060020a031681565b600254600090600160a060020a031615801590610637575060003031115b151561064257600080fd5b600354604080517f2537127f0000000000000000000000000000000000000000000000000000000081529051600092600160a060020a031691632537127f916004808301926020929190829003018186803b1580156106a057600080fd5b505afa1580156106b4573d6000803e3d6000fd5b505050506040513d60208110156106ca57600080fd5b5051905061707f19810142106106df57600080fd5b600480546040517fb8f69e3700000000000000000000000000000000000000000000000000000000815260448101889052606481018790526080928101928352895160848201528951600160a060020a039092169263b8f69e37928b928b928b928b928291602482019160a401906020808a01910280838360005b8381101561077257818101518382015260200161075a565b50505050905001838103825286818151815260200191508051906020019060200280838360005b838110156107b1578181015183820152602001610799565b50505050905001965050505050505060206040518083038186803b1580156107d857600080fd5b505afa1580156107ec573d6000803e3d6000fd5b505050506040513d602081101561080257600080fd5b5051151560011461085d576040805160e560020a62461bcd02815260206004820152601460248201527f696e76616c6964204d65726b6c652050726f6f66000000000000000000000000604482015290519081900360640190fd5b600554604080517fdd62ed3e00000000000000000000000000000000000000000000000000000000815233600482015230602482015290516101f48604860192600160a060020a03169163dd62ed3e916044808301926020929190829003018186803b1580156108cc57600080fd5b505afa1580156108e0573d6000803e3d6000fd5b505050506040513d60208110156108f657600080fd5b5051101561090357600080fd5b600854831161091157600080fd5b6000600460009054906101000a9004600160a060020a0316600160a060020a031663fa7402c96040518163ffffffff1660e060020a02815260040160206040518083038186803b15801561096457600080fd5b505afa158015610978573d6000803e3d6000fd5b505050506040513d602081101561098e57600080fd5b5051600c5490915060ff16151560011480156109aa5750600d54155b80156109b65750600e54155b15610b4557600c80546001805476ffffffffffffffffffffffffffffffffffffffff0000ff19909216600160a060020a0380841663010000009081029290921794859055600d869055600e8990553373ffffffffffffffffffffffffffffffffffffffff199094168417909255426009556005546040805160e060020a6323b872dd0281526004810195909552919094048216602484015260448301889052519216916323b872dd916064808201926020929091908290030181600087803b158015610a8157600080fd5b505af1158015610a95573d6000803e3d6000fd5b505050506040513d6020811015610aab57600080fd5b5050600554600480546040805160e060020a6323b872dd0281523393810193909352600160a060020a0391821660248401526101f488046044840152519216916323b872dd916064808201926020929091908290030181600087803b158015610b1357600080fd5b505af1158015610b27573d6000803e3d6000fd5b505050506040513d6020811015610b3d57600080fd5b50610d5b9050565b600c5460ff16158015610b595750600e5484115b8015610b665750600d5481145b156101d15760018054600e8054908790553373ffffffffffffffffffffffffffffffffffffffff1983168117909355426009556005546040805160e060020a6323b872dd0281526004810195909552600160a060020a039384166024860181905260448601849052905190949293909116916323b872dd9160648083019260209291908290030181600087803b158015610bff57600080fd5b505af1158015610c13573d6000803e3d6000fd5b505050506040513d6020811015610c2957600080fd5b5050600554600c546040805160e060020a6323b872dd0281523360048201526301000000909204600160a060020a039081166024840152848a03604484015290519216916323b872dd916064808201926020929091908290030181600087803b158015610c9557600080fd5b505af1158015610ca9573d6000803e3d6000fd5b505050506040513d6020811015610cbf57600080fd5b5050600554600480546040805160e060020a6323b872dd0281523393810193909352600160a060020a0391821660248401526101f48a046044840152519216916323b872dd916064808201926020929091908290030181600087803b158015610d2757600080fd5b505af1158015610d3b573d6000803e3d6000fd5b505050506040513d6020811015610d5157600080fd5b50610d5b92505050565b506001979650505050505050565b600c54610100900460ff1681565b600354600160a060020a031681565b60085490565b60085481565b600c5463010000009004600160a060020a031681565b60075481565b600554600160a060020a031681565b600d5481565b60065490565b600c5460ff1681565b600154600160a060020a031681565b60075490565b600254600160a060020a031615801590610e02575060003031115b1515610e0d57600080fd5b600154600160a060020a03163314610e5d576040805160e560020a62461bcd0281526020600482015260096024820152600080516020611ab7833981519152604482015290519081900360640190fd5b600354604080517f2537127f0000000000000000000000000000000000000000000000000000000081529051600092600160a060020a031691632537127f916004808301926020929190829003018186803b158015610ebb57600080fd5b505afa158015610ecf573d6000803e3d6000fd5b505050506040513d6020811015610ee557600080fd5b5051905061707f1981014210610efa57600080fd5b600c5460ff1615610f55576040805160e560020a62461bcd02815260206004820152601a60248201527f63616e206f6e6c7920707574206f6e2053746f636b206f6e6365000000000000604482015290519081900360640190fd5b600360009054906101000a9004600160a060020a0316600160a060020a03166364da7e246040518163ffffffff1660e060020a02815260040160206040518083038186803b158015610fa657600080fd5b505afa158015610fba573d6000803e3d6000fd5b505050506040513d6020811015610fd057600080fd5b5051821015610fde57600080fd5b50600c80546008929092556001805460ff199093161776ffffffffffffffffffffffffffffffffffffffff0000001916600160a060020a039092166301000000029190911790556000600d819055600e55565b600354604080517fba2eb5410000000000000000000000000000000000000000000000000000000081523060048201529051600160a060020a039092169163ba2eb54191602480820192602092909190829003018186803b15801561109557600080fd5b505afa1580156110a9573d6000803e3d6000fd5b505050506040513d60208110156110bf57600080fd5b505115611116576040805160e560020a62461bcd02815260206004820152601160248201527f6e6f772063616e20657863657263697365000000000000000000000000000000604482015290519081900360640190fd5b600254600160a060020a031615611177576040805160e560020a62461bcd02815260206004820152601760248201527f6f74686572732066696c6c2045544820616c7265616479000000000000000000604482015290519081900360640190fd5b60065434146111ba5760405160e560020a62461bcd028152600401808060200182810382526023815260200180611ad76023913960400191505060405180910390fd5b6002805473ffffffffffffffffffffffffffffffffffffffff19163390811790915542600955600c805460ff19169055600554600854604080517fa9059cbb0000000000000000000000000000000000000000000000000000000081526004810194909452602484019190915251600160a060020a03919091169163a9059cbb9160448083019260209291908290030181600087803b15801561125c57600080fd5b505af1158015611270573d6000803e3d6000fd5b505050506040513d602081101561128657600080fd5b5050565b60065481565b600154600160a060020a031633146112e0576040805160e560020a62461bcd0281526020600482015260096024820152600080516020611ab7833981519152604482015290519081900360640190fd5b60085481106112ee57600080fd5b600a5460095401421161134b576040805160e560020a62461bcd02815260206004820152601760248201527f63616e6e6f74206f70657261746520746f6f20736f6f6e000000000000000000604482015290519081900360640190fd5b600855565b600254600090600160a060020a03161580159061136f57506006543031145b905090565b600154600160a060020a031633146113c4576040805160e560020a62461bcd0281526020600482015260096024820152600080516020611ab7833981519152604482015290519081900360640190fd5b600354604080517fba2eb5410000000000000000000000000000000000000000000000000000000081523060048201529051600160a060020a039092169163ba2eb54191602480820192602092909190829003018186803b15801561142857600080fd5b505afa15801561143c573d6000803e3d6000fd5b505050506040513d602081101561145257600080fd5b505115156001146114ad576040805160e560020a62461bcd02815260206004820152601760248201527f63616e206e6f206c6f6e67657220657863657263697365000000000000000000604482015290519081900360640190fd5b600254600160a060020a0316156114c357600080fd5b600054600160a060020a031633146114da57600080fd5b600354604080517f996916500000000000000000000000000000000000000000000000000000000081529051600160a060020a039092169163996916509160048082019260009290919082900301818387803b15801561153957600080fd5b505af115801561154d573d6000803e3d6000fd5b503392505050ff5b600354604080517fba2eb5410000000000000000000000000000000000000000000000000000000081523060048201529051600160a060020a039092169163ba2eb54191602480820192602092909190829003018186803b1580156115b957600080fd5b505afa1580156115cd573d6000803e3d6000fd5b505050506040513d60208110156115e357600080fd5b5051151560011461163e576040805160e560020a62461bcd02815260206004820152601760248201527f63616e206e6f206c6f6e67657220657863657263697365000000000000000000604482015290519081900360640190fd5b600254600160a060020a031633146116a0576040805160e560020a62461bcd02815260206004820152601a60248201527f6f6e6c792065746853656c6c65722063616e2063616c6c206974000000000000604482015290519081900360640190fd5b600c5462010000900460ff1615611701576040805160e560020a62461bcd02815260206004820152601160248201527f616c726561647920657865726369736564000000000000000000000000000000604482015290519081900360640190fd5b600c805460ff19169055600354604080517f996916500000000000000000000000000000000000000000000000000000000081529051600160a060020a039092169163996916509160048082019260009290919082900301818387803b15801561153957600080fd5b600154600160a060020a031633146117ba576040805160e560020a62461bcd0281526020600482015260096024820152600080516020611ab7833981519152604482015290519081900360640190fd5b600354604080517f2537127f0000000000000000000000000000000000000000000000000000000081529051600092600160a060020a031691632537127f916004808301926020929190829003018186803b15801561181857600080fd5b505afa15801561182c573d6000803e3d6000fd5b505050506040513d602081101561184257600080fd5b5051600c5490915060ff1615801561185957508042105b8061187257506170808103421015801561187257508042105b151561187d57600080fd5b600a546009540142116118da576040805160e560020a62461bcd02815260206004820152601760248201527f63616e6e6f74206f70657261746520746f6f20736f6f6e000000000000000000604482015290519081900360640190fd5b600754600554604080517fdd62ed3e0000000000000000000000000000000000000000000000000000000081523360048201523060248201529051600160a060020a039092169163dd62ed3e91604480820192602092909190829003018186803b15801561194757600080fd5b505afa15801561195b573d6000803e3d6000fd5b505050506040513d602081101561197157600080fd5b5051101561197e57600080fd5b600c805462ff00ff191662010000179055600354604080517f996916500000000000000000000000000000000000000000000000000000000081529051600160a060020a039092169163996916509160048082019260009290919082900301818387803b1580156119ee57600080fd5b505af1158015611a02573d6000803e3d6000fd5b50506005546002546007546040805160e060020a6323b872dd028152336004820152600160a060020a0393841660248201526044810192909252519190921693506323b872dd925060648083019260209291908290030181600087803b158015611a6b57600080fd5b505af1158015611a7f573d6000803e3d6000fd5b505050506040513d6020811015611a9557600080fd5b50339050ff5b600b5481565b600054600160a060020a031681565b6009548156fe6e6f74206f776e657200000000000000000000000000000000000000000000006e65656420746f206465706f73697420657861637420616d6f756e74206f6620455448a165627a7a72305820f5c2b6515b2e808a2b8b62056f4ff64657846f1466407bdd7ee1403dfe4906b60029a165627a7a72305820fea080199432e32e8979b1c94331832b1f5bc5127d22d198aeababe4a7a7d4790029",
  "source": "pragma solidity ^0.5.2;\n\nimport \"./ERC20.sol\";\nimport \"./Optract.sol\";\n//import \"./SafeMath.sol\";\n\n// todo: memberOnly\n\ncontract OptractRegistry { // PoC ETH-DAI Optract\n\taddress[3] public operators;\n\taddress public currencyTokenAddr; // presumably 'DAI'\n\taddress public blkAddr; // side-chain merkle records\n\tuint public constant optionMinPrice = 5000000000000000000; // 5 DAIs\n\tuint public totalOpts = 0;\n\tbool public paused = false;\n\n\tstruct optractRecord {\n\t        uint id;\n\t\tuint expiredTime; // timestamp\n\t\taddress initialOwner; \n\t}\n\n\tmapping (uint => address) optractRecordsByIndex;\n\tmapping (address => optractRecord) optractRecordsByAddress;\n\n\t// Modifiers\n\tmodifier operatorOnly() {\n\t\trequire(msg.sender == operators[0] || msg.sender == operators[1] || msg.sender == operators[2]);\n\t\t_;\n\t}\n\n\tmodifier notPaused() {\n\t\trequire(paused == false);\n\t\t_;\n\t}\n\n\t// Constructor\n\tconstructor(address _currencyTokenAddr, address _blkAddr) public {\n\t\toperators[0] = msg.sender;\n\t\tcurrencyTokenAddr = _currencyTokenAddr;\n\t\tblkAddr = _blkAddr;\n\t}\n\n\tfunction createOptract(uint256 ETHAmount, uint256 totalPrice, uint period, uint optionPrice) external notPaused {\n\t        require(optionPrice >= optionMinPrice);\n                require(ERC20(currencyTokenAddr).allowance(msg.sender, address(this)) >= optionPrice);\n                // require(period * 1 days >= 30 days && period * 1 days <= 365 days);\n                // require(ETHAmount >= 3 ether);\n                // for debug purpose, use ridiculously small values:\n                require(period * 1 days >= 1 days && period * 1 days <= 365 days);\n                require(ETHAmount >= 3 wei);\n\n\t\toptractRecord memory optRcd;\n                totalOpts = totalOpts + 1;\n                Optract opt = new Optract(ETHAmount, totalPrice, optionPrice, address(this), msg.sender, blkAddr, currencyTokenAddr);\n\n                require(ERC20(currencyTokenAddr).transferFrom(msg.sender, address(opt), optionPrice));\n\n                optRcd.id = totalOpts;\n                optRcd.expiredTime = block.timestamp + period * 1 days;\n                optRcd.initialOwner = msg.sender;\n\n                optractRecordsByIndex[totalOpts] = address(opt); // mapping start from uint key = 1\n                optractRecordsByAddress[address(opt)] = optRcd;\n\t}\n\n\tfunction destructRecord() external {\n                uint i = optractRecordsByAddress[msg.sender].id;\n                delete optractRecordsByIndex[i];\n                if (i != totalOpts){\n                        optractRecordsByAddress[optractRecordsByIndex[totalOpts]].id = i;\n                        optractRecordsByIndex[i] = optractRecordsByIndex[totalOpts];\n                        delete optractRecordsByIndex[totalOpts];\n                }\n                delete optractRecordsByAddress[msg.sender];\n                totalOpts -= 1;\n        }\n\n\t// Constant functions\n\tfunction queryOptionMinPrice() public pure returns (uint) {\n\t        return optionMinPrice;\n        }\n\n\tfunction isExpired(address optractAddress) public view returns (bool) {\n\t\treturn block.timestamp > optractRecordsByAddress[optractAddress].expiredTime;\n\t}\n\n\tfunction getExpireTime() public view returns (uint) {\n\t\trequire(optractRecordsByAddress[msg.sender].expiredTime >= block.timestamp);\n\t\trequire(optractRecordsByAddress[msg.sender].initialOwner != address(0));\n\n\t\treturn optractRecordsByAddress[msg.sender].expiredTime;\n\t}\n\n        function queryOptractRecords(address _addr) external view returns (uint, uint, address) {\n                return (optractRecordsByAddress[_addr].id,\n                        optractRecordsByAddress[_addr].expiredTime,\n                        optractRecordsByAddress[_addr].initialOwner);\n        }\n\n        // upgradable\n        function setCurrencyTokenAddr(address newCurrencyTokenAddr) public operatorOnly returns (bool) {\n                require(newCurrencyTokenAddr != address(0));\n                currencyTokenAddr = newCurrencyTokenAddr;\n                return true;\n        }\n\n        function setBlkAddr(address newBlkAddr) public operatorOnly returns (bool) {\n                require(newBlkAddr != address(0));\n                blkAddr = newBlkAddr;\n                return true;\n        }\n\n        // Constant functions: list active and inactive optracts\n        function _getNumOfActiveOptracts(uint start, uint length, address owner) public view returns (uint) {\n\t        // will be internal function so don't check requirements\n\t        uint activeLength = 0;\n\t\tif (start + length - 1 > totalOpts) {\n\t\t\tlength = totalOpts - start + 1;\n\t\t}\n\n\t\tif (owner == address(0)) { // list all orders\n\t\t\tfor (uint i = start; i <= start + length - 1; i++) {\n\t\t\t\tif (Optract(optractRecordsByIndex[i]).queryOnStock() == false\n\t\t\t\t    || optractRecordsByAddress[optractRecordsByIndex[i]].expiredTime - 8 hours <= block.timestamp) continue;\n\t\t\t\tactiveLength = activeLength + 1;\n\t\n\t\t\t}\n\t\t} else { // list only those initialized by owner\n\t\t\tfor (uint i = start; i <= start + length - 1; i++) {\n\t\t\t\tif (optractRecordsByAddress[optractRecordsByIndex[i]].initialOwner != owner) continue;\n\t\t\t\tif (Optract(optractRecordsByIndex[i]).queryOnStock() == false\n\t\t\t\t    || optractRecordsByAddress[optractRecordsByIndex[i]].expiredTime - 8 hours <= block.timestamp) continue;\n\t\t\t\tactiveLength = activeLength + 1;\n\t\t\t}\n\t\t}\n\t\treturn activeLength;\n        }\n\n        function activeOptractsLoop(uint start, uint length, address owner, uint8 _idx) public view returns (uint[] memory) {\n                require(_idx >= 1 && _idx <= 4, \"unknown optract characteristics\");\n                // _idx: {1: expTimeList, 2: priceList, 3:ETHList, 4: opriceList}\n\t\tif (start + length - 1 > totalOpts) {\n\t\t\tlength = totalOpts - start + 1;\n\t\t}\n                uint activeLength = _getNumOfActiveOptracts(start, length, owner);\n\t\tuint[] memory returnList = new uint[](activeLength);\n\t\tuint count = 0;\n\n\t\tif (owner == address(0)) { // list all orders\n\t\t\tfor (uint i = start; i <= start + length - 1; i++) {\n\t\t\t\tif (Optract(optractRecordsByIndex[i]).queryOnStock() == false || optractRecordsByAddress[optractRecordsByIndex[i]].expiredTime - 8 hours <= block.timestamp) continue;\n\t\n\t                        if (_idx == 1) {\n                                        returnList[count] = optractRecordsByAddress[optractRecordsByIndex[i]].expiredTime;\n                                } else if (_idx == 2) {\n                                        returnList[count] = Optract(optractRecordsByIndex[i]).queryOrderPrice();\n                                } else if (_idx == 3) {\n\t\t\t\t        returnList[count] = Optract(optractRecordsByIndex[i]).queryOrderSize();\n                                } else if (_idx == 4) {\n                                        returnList[count] = Optract(optractRecordsByIndex[i]).queryOptionPrice();\n                                }\n\t\t\t\tcount += 1;\n\t\t\t}\n\t\t} else { // list only those initialized by owner\n\t\t\tfor (uint i = start; i <= start + length - 1; i++) {\n\t\t\t\tif (optractRecordsByAddress[optractRecordsByIndex[i]].initialOwner != owner) continue;\n\t\t\t\tif (Optract(optractRecordsByIndex[i]).queryOnStock() == false || optractRecordsByAddress[optractRecordsByIndex[i]].expiredTime - 8 hours <= block.timestamp) continue;\n\t                        if (_idx == 1) {\n                                        returnList[count] = optractRecordsByAddress[optractRecordsByIndex[i]].expiredTime;\n                                } else if (_idx == 2) {\n                                        returnList[count] = Optract(optractRecordsByIndex[i]).queryOrderPrice();\n                                } else if (_idx == 3) {\n\t\t\t\t        returnList[count] = Optract(optractRecordsByIndex[i]).queryOrderSize();\n                                } else if (_idx == 4) {\n                                        returnList[count] = Optract(optractRecordsByIndex[i]).queryOptionPrice();\n                                }\n\t\t\t\tcount += 1;\n\t\t\t}\n\t\t}\n\t\treturn returnList;\n        }\n\n\tfunction activeOptractsFilledStatus(uint start, uint length, address owner) public view returns (address[] memory, bool[] memory) {\n\t        // will be internal function so don't check requirements\n\t\tif (start + length - 1 > totalOpts) {\n\t\t\tlength = totalOpts - start + 1;\n\t\t}\n\n                uint activeLength = _getNumOfActiveOptracts(start, length, owner);\n\t\taddress[] memory addrlist = new address[](activeLength);\n\t\tbool[] memory filled = new bool[](activeLength);\n\t\tuint count = 0;\n\n\t\tif (owner == address(0)) { // list all orders\n\t\t\tfor (uint i = start; i <= start + length - 1; i++) {\n\t\t\t\taddress optAddr = optractRecordsByIndex[i];\n\t\t\t\tif (Optract(optAddr).queryOnStock() == false || optractRecordsByAddress[optAddr].expiredTime - 8 hours <= block.timestamp) continue;\n\t\n\t\t\t\tif (optAddr.balance == Optract(optAddr).queryOrderSize()) {  // or \">=\"?\n\t\t\t\t\tfilled[count] = true;\n\t\t\t\t} else {\n\t\t\t\t\tfilled[count] = false;\n\t\t\t\t}\n\t\t\t\taddrlist[count] = optAddr;\n\t\t\t\tcount += 1;\n\t\t\t}\n\t\t} else { // list only those initialized by owner\n\t\t\tfor (uint i = start; i <= start + length - 1; i++) {\n\t\t\t\taddress optAddr = optractRecordsByIndex[i];\n\t\t\t\tif (optractRecordsByAddress[optAddr].initialOwner != owner) continue;\n\t\t\t\tif (Optract(optAddr).queryOnStock() == false || optractRecordsByAddress[optAddr].expiredTime - 8 hours <= block.timestamp) continue;\n\t\n\t\t\t\tif (optAddr.balance == Optract(optAddr).queryOrderSize()) {\n\t\t\t\t\tfilled[count] = true;\n\t\t\t\t} else {\n\t\t\t\t\tfilled[count] = false;\n\t\t\t\t}\n\t\t\t\taddrlist[count] = optAddr;\n\t\t\t\tcount += 1;\n\t\t\t}\n\t\t}\n\t\treturn (addrlist, filled);\n\t}\n\n\tfunction activeOptracts(uint start, uint length, address owner) public view returns (\n\t\taddress[] memory,\n\t\t   uint[] memory,\n\t\t   uint[] memory,\n\t\t   uint[] memory,\n\t\t   uint[] memory,\n\t           bool[] memory)\n\t{\n\t\trequire(start > 0 && length > 0);\n\t\trequire(totalOpts > 0 && totalOpts >= start);\n\t\tif (start + length - 1 > totalOpts) {\n\t\t\tlength = totalOpts - start + 1;\n\t\t}\n\n\t\taddress[] memory addrlist = new address[](_getNumOfActiveOptracts(start, length, owner));\n\t\tuint[] memory expTimeList= new uint[](_getNumOfActiveOptracts(start, length, owner));\n\t\tuint[] memory priceList = new uint[](_getNumOfActiveOptracts(start, length, owner));\n\t\tuint[] memory ETHList = new uint[](_getNumOfActiveOptracts(start, length, owner));\n\t\tuint[] memory opriceList = new uint[](_getNumOfActiveOptracts(start, length, owner));\n\t\tbool[] memory filled = new bool[](_getNumOfActiveOptracts(start, length, owner));  // stack too deep if include this one\n\n                // assume all the following function calls return same order\n\t\texpTimeList = activeOptractsLoop(start, length, owner, 1);\n\t\tpriceList = activeOptractsLoop(start, length, owner, 2);\n\t\tETHList = activeOptractsLoop(start, length, owner, 3);\n\t\topriceList = activeOptractsLoop(start, length, owner, 4);\n\t\t(addrlist, filled) = activeOptractsFilledStatus(start, length, owner);\n\t\treturn (addrlist, expTimeList, priceList, ETHList, opriceList, filled);\n        }\n\n\n        function _getNumOfInActiveOptracts(uint start, uint length, address owner) public view returns (uint) {\n\t        // will be internal function so don't check requirements\n\t        uint inactiveLength = 0;\n\t\tif (start + length - 1 > totalOpts) {\n\t\t\tlength = totalOpts - start + 1;\n\t\t}\n\n\t\tif (owner == address(0)) { // list all orders\n\t\t\tfor (uint i = start; i <= start + length - 1; i++) {\n\t\t\t\tif (Optract(optractRecordsByIndex[i]).queryOnStock() == false\n\t\t\t\t    || optractRecordsByAddress[optractRecordsByIndex[i]].expiredTime - 8 hours <= block.timestamp)\n\t\t\t\t{\n\t\t\t\t        inactiveLength +=1;\n                                }\n\t\n\t\t\t}\n\t\t} else { // list only those initialized by owner\n\t\t\tfor (uint i = start; i <= start + length - 1; i++) {\n\t\t\t\tif (optractRecordsByAddress[optractRecordsByIndex[i]].initialOwner != owner) continue;\n\t\t\t\tif (Optract(optractRecordsByIndex[i]).queryOnStock() == false\n\t\t\t\t    || optractRecordsByAddress[optractRecordsByIndex[i]].expiredTime - 8 hours <= block.timestamp)\n                                {\n\t\t\t\t        inactiveLength += 1;\n                                }\n\t\t\t}\n\t\t}\n\t\treturn inactiveLength;\n        }\n\n        function inactiveOptractsLoop(uint start, uint length, address owner, uint8 _idx) public view returns (uint[] memory) {\n                require(_idx >= 1 && _idx <= 4, \"unknow optract chracteristics\");\n                // _idx: {1: expTimeList, 2: priceList, 3:ETHList, 4: opriceList}\n\t\tif (start + length - 1 > totalOpts) {\n\t\t\tlength = totalOpts - start + 1;\n\t\t}\n                uint inactiveLength = _getNumOfInActiveOptracts(start, length, owner);\n\t\tuint[] memory returnList = new uint[](inactiveLength);\n\t\tif (inactiveLength == 0) return (returnList);\n\t\tuint count = 0;\n\n\t\tif (owner == address(0)) { // list all orders\n\t\t\tfor (uint i = start; i <= start + length - 1; i++) {\n\t\t\t\tif (Optract(optractRecordsByIndex[i]).queryOnStock() == false\n\t\t\t\t    || optractRecordsByAddress[optractRecordsByIndex[i]].expiredTime - 8 hours <= block.timestamp)\n\n\t\t\t\t{\n                                        if (_idx == 1) {\n                                                returnList[count] = optractRecordsByAddress[optractRecordsByIndex[i]].expiredTime;\n                                        } else if (_idx == 2) {\n                                                returnList[count] = Optract(optractRecordsByIndex[i]).queryOrderPrice();\n                                        } else if (_idx == 3) {\n                                                returnList[count] = Optract(optractRecordsByIndex[i]).queryOrderSize();\n                                        } else if (_idx == 4) {\n                                                returnList[count] = Optract(optractRecordsByIndex[i]).queryOptionPrice();\n                                        }\n                                        count += 1;\n                                }\n\t\t\t}\n\t\t} else { // list only those initialized by owner\n\t\t\tfor (uint i = start; i <= start + length - 1; i++) {\n\t\t\t\tif (optractRecordsByAddress[optractRecordsByIndex[i]].initialOwner != owner) continue;\n\t\t\t\tif (Optract(optractRecordsByIndex[i]).queryOnStock() == false\n\t\t\t\t    || optractRecordsByAddress[optractRecordsByIndex[i]].expiredTime - 8 hours <= block.timestamp)\n                                {\n                                        if (_idx == 1) {\n                                                returnList[count] = optractRecordsByAddress[optractRecordsByIndex[i]].expiredTime;\n                                        } else if (_idx == 2) {\n                                                returnList[count] = Optract(optractRecordsByIndex[i]).queryOrderPrice();\n                                        } else if (_idx == 3) {\n                                                returnList[count] = Optract(optractRecordsByIndex[i]).queryOrderSize();\n                                        } else if (_idx == 4) {\n                                                returnList[count] = Optract(optractRecordsByIndex[i]).queryOptionPrice();\n                                        }\n                                        count += 1;\n                                }\n\t\t\t}\n\t\t}\n\t\treturn returnList;\n        }\n\n\tfunction inactiveOptractsFilledStatus(uint start, uint length, address owner) public view returns (address[] memory, bool[] memory) {\n\t        // will be internal function so don't check requirements\n\t\tif (start + length - 1 > totalOpts) {\n\t\t\tlength = totalOpts - start + 1;\n\t\t}\n\n                uint inactiveLength = _getNumOfInActiveOptracts(start, length, owner);\n\t\taddress[] memory addrlist = new address[](inactiveLength);\n\t\tbool[] memory filled = new bool[](inactiveLength);\n\t\tif (inactiveLength == 0) return (addrlist, filled);\n\t\tuint count = 0;\n\n\t\tif (owner == address(0)) { // list all orders\n\t\t\tfor (uint i = start; i <= start + length - 1; i++) {\n\t\t\t\taddress optAddr = optractRecordsByIndex[i];\n\t\t\t\tif (Optract(optAddr).queryOnStock() == false\n\t\t\t\t    || optractRecordsByAddress[optAddr].expiredTime - 8 hours <= block.timestamp)\n                                {\n                                        if (optAddr.balance == Optract(optAddr).queryOrderSize()) {\n                                                filled[count] = true;\n                                        } else {\n                                                filled[count] = false;\n                                        }\n                                        addrlist[count] = optAddr;\n                                        count += 1;\n                                }\n\t\t\t}\n\t\t} else { // list only those initialized by owner\n\t\t\tfor (uint i = start; i <= start + length - 1; i++) {\n\t\t\t\taddress optAddr = optractRecordsByIndex[i];\n\t\t\t\tif (optractRecordsByAddress[optAddr].initialOwner != owner) continue;\n\t\t\t\tif (Optract(optAddr).queryOnStock() == false\n\t\t\t\t    || optractRecordsByAddress[optAddr].expiredTime - 8 hours <= block.timestamp)\n                                {\n                                        if (optAddr.balance == Optract(optAddr).queryOrderSize()) {\n                                                filled[count] = true;\n                                        } else {\n                                                filled[count] = false;\n                                        }\n                                        addrlist[count] = optAddr;\n                                        count += 1;\n                                }\n\t\n\t\t\t}\n\t\t}\n\t\treturn (addrlist, filled);\n\t}\n\n\tfunction inactiveOptracts(uint start, uint length, address owner) public view returns (\n\t\taddress[] memory,\n\t\t   uint[] memory,\n\t\t   uint[] memory,\n\t\t   uint[] memory,\n\t\t   uint[] memory,\n\t           bool[] memory)\n\t{\n\t\trequire(start > 0 && length > 0);\n\t\trequire(totalOpts > 0 && totalOpts >= start);\n\n\t\tif (start + length - 1 > totalOpts) {\n\t\t\tlength = totalOpts - start + 1;\n\t\t}\n\n\t\taddress[] memory addrlist = new address[](_getNumOfInActiveOptracts(start, length, owner));\n\t\tuint[] memory expTimeList= new uint[](_getNumOfInActiveOptracts(start, length, owner));\n\t\tuint[] memory priceList = new uint[](_getNumOfInActiveOptracts(start, length, owner));\n\t\tuint[] memory ETHList = new uint[](_getNumOfInActiveOptracts(start, length, owner));\n\t\tuint[] memory opriceList = new uint[](_getNumOfInActiveOptracts(start, length, owner));\n\t\tbool[] memory filled = new bool[](_getNumOfInActiveOptracts(start, length, owner));\n\n                // assume all the following function calls return same order\n\t\texpTimeList = inactiveOptractsLoop(start, length, owner, 1);\n\t\tpriceList = inactiveOptractsLoop(start, length, owner, 2);\n\t\tETHList = inactiveOptractsLoop(start, length, owner, 3);\n\t\topriceList = inactiveOptractsLoop(start, length, owner, 4);\n\t\t(addrlist, filled) = inactiveOptractsFilledStatus(start, length, owner);\n\t\treturn (addrlist, expTimeList, priceList, ETHList, opriceList, filled);\n        }\n\n}\n",
  "sourcePath": "/home/kai/Work/project/Optract/contracts/OptractRegistry.sol",
  "compiler": {
    "name": "solc",
    "version": "0.5.2+commit.1df8f40c.Linux.g++"
  },
  "schemaVersion": "3.0.1",
  "updatedAt": "2019-03-14T08:04:19.764Z",
  "devdoc": {
    "methods": {}
  },
  "userdoc": {
    "methods": {}
  }
}