{
  "contractName": "OptractRegistry",
  "abi": [
    {
      "constant": true,
      "inputs": [],
      "name": "totalOpts",
      "outputs": [
        {
          "name": "",
          "type": "uint256"
        }
      ],
      "payable": false,
      "stateMutability": "view",
      "type": "function",
      "signature": "0x14eb3037"
    },
    {
      "constant": true,
      "inputs": [],
      "name": "initialPayment",
      "outputs": [
        {
          "name": "",
          "type": "uint256"
        }
      ],
      "payable": false,
      "stateMutability": "view",
      "type": "function",
      "signature": "0x2199a57d"
    },
    {
      "constant": true,
      "inputs": [],
      "name": "blkAddr",
      "outputs": [
        {
          "name": "",
          "type": "address"
        }
      ],
      "payable": false,
      "stateMutability": "view",
      "type": "function",
      "signature": "0x28f402b1"
    },
    {
      "constant": true,
      "inputs": [],
      "name": "paused",
      "outputs": [
        {
          "name": "",
          "type": "bool"
        }
      ],
      "payable": false,
      "stateMutability": "view",
      "type": "function",
      "signature": "0x5c975abb"
    },
    {
      "constant": true,
      "inputs": [],
      "name": "currencyTokenAddr",
      "outputs": [
        {
          "name": "",
          "type": "address"
        }
      ],
      "payable": false,
      "stateMutability": "view",
      "type": "function",
      "signature": "0x91d622b9"
    },
    {
      "constant": true,
      "inputs": [
        {
          "name": "",
          "type": "uint256"
        }
      ],
      "name": "operators",
      "outputs": [
        {
          "name": "",
          "type": "address"
        }
      ],
      "payable": false,
      "stateMutability": "view",
      "type": "function",
      "signature": "0xe28d4906"
    },
    {
      "inputs": [
        {
          "name": "_currencyTokenAddr",
          "type": "address"
        }
      ],
      "payable": false,
      "stateMutability": "nonpayable",
      "type": "constructor",
      "signature": "constructor"
    },
    {
      "constant": false,
      "inputs": [
        {
          "name": "ETHAmount",
          "type": "uint256"
        },
        {
          "name": "totalPrice",
          "type": "uint256"
        },
        {
          "name": "period",
          "type": "uint256"
        }
      ],
      "name": "createOptract",
      "outputs": [],
      "payable": false,
      "stateMutability": "nonpayable",
      "type": "function",
      "signature": "0x6e9a01a2"
    },
    {
      "constant": true,
      "inputs": [],
      "name": "queryInitPrice",
      "outputs": [
        {
          "name": "",
          "type": "uint256"
        }
      ],
      "payable": false,
      "stateMutability": "view",
      "type": "function",
      "signature": "0x10bbc68a"
    },
    {
      "constant": true,
      "inputs": [
        {
          "name": "optractAddress",
          "type": "address"
        }
      ],
      "name": "isExpired",
      "outputs": [
        {
          "name": "",
          "type": "bool"
        }
      ],
      "payable": false,
      "stateMutability": "view",
      "type": "function",
      "signature": "0xba2eb541"
    },
    {
      "constant": true,
      "inputs": [],
      "name": "getExpireTime",
      "outputs": [
        {
          "name": "",
          "type": "uint256"
        }
      ],
      "payable": false,
      "stateMutability": "view",
      "type": "function",
      "signature": "0x2537127f"
    },
    {
      "constant": true,
      "inputs": [
        {
          "name": "start",
          "type": "uint256"
        },
        {
          "name": "length",
          "type": "uint256"
        }
      ],
      "name": "activeOptracts",
      "outputs": [
        {
          "name": "addrlist",
          "type": "address[]"
        },
        {
          "name": "expTimeList",
          "type": "uint256[]"
        },
        {
          "name": "priceList",
          "type": "uint256[]"
        },
        {
          "name": "ETHList",
          "type": "uint256[]"
        },
        {
          "name": "opriceList",
          "type": "uint256[]"
        },
        {
          "name": "filled",
          "type": "bool[]"
        }
      ],
      "payable": false,
      "stateMutability": "view",
      "type": "function",
      "signature": "0xd8898862"
    }
  ],
  "bytecode": "0x6080604052674563918244f4000060055560006006556000600760006101000a81548160ff02191690831515021790555034801561003c57600080fd5b506040516020806133ba8339810180604052602081101561005c57600080fd5b81019080805190602001909291905050503360008060038110151561007d57fe5b0160006101000a81548173ffffffffffffffffffffffffffffffffffffffff021916908373ffffffffffffffffffffffffffffffffffffffff16021790555080600360006101000a81548173ffffffffffffffffffffffffffffffffffffffff021916908373ffffffffffffffffffffffffffffffffffffffff160217905550506132ad8061010d6000396000f3fe608060405234801561001057600080fd5b50600436106100c6576000357c0100000000000000000000000000000000000000000000000000000000900480635c975abb1161008e5780635c975abb1461018d5780636e9a01a2146101af57806391d622b9146101f1578063ba2eb5411461023b578063d889886214610297578063e28d49061461048c576100c6565b806310bbc68a146100cb57806314eb3037146100e95780632199a57d146101075780632537127f1461012557806328f402b114610143575b600080fd5b6100d36104fa565b6040518082815260200191505060405180910390f35b6100f1610504565b6040518082815260200191505060405180910390f35b61010f61050a565b6040518082815260200191505060405180910390f35b61012d610510565b6040518082815260200191505060405180910390f35b61014b6105fc565b604051808273ffffffffffffffffffffffffffffffffffffffff1673ffffffffffffffffffffffffffffffffffffffff16815260200191505060405180910390f35b610195610622565b604051808215151515815260200191505060405180910390f35b6101ef600480360360608110156101c557600080fd5b81019080803590602001909291908035906020019092919080359060200190929190505050610635565b005b6101f9610b30565b604051808273ffffffffffffffffffffffffffffffffffffffff1673ffffffffffffffffffffffffffffffffffffffff16815260200191505060405180910390f35b61027d6004803603602081101561025157600080fd5b81019080803573ffffffffffffffffffffffffffffffffffffffff169060200190929190505050610b56565b604051808215151515815260200191505060405180910390f35b6102cd600480360360408110156102ad57600080fd5b810190808035906020019092919080359060200190929190505050610ba4565b6040518080602001806020018060200180602001806020018060200187810387528d818151815260200191508051906020019060200280838360005b83811015610324578082015181840152602081019050610309565b5050505090500187810386528c818151815260200191508051906020019060200280838360005b8381101561036657808201518184015260208101905061034b565b5050505090500187810385528b818151815260200191508051906020019060200280838360005b838110156103a857808201518184015260208101905061038d565b5050505090500187810384528a818151815260200191508051906020019060200280838360005b838110156103ea5780820151818401526020810190506103cf565b50505050905001878103835289818151815260200191508051906020019060200280838360005b8381101561042c578082015181840152602081019050610411565b50505050905001878103825288818151815260200191508051906020019060200280838360005b8381101561046e578082015181840152602081019050610453565b505050509050019c5050505050505050505050505060405180910390f35b6104b8600480360360208110156104a257600080fd5b8101908080359060200190929190505050611153565b604051808273ffffffffffffffffffffffffffffffffffffffff1673ffffffffffffffffffffffffffffffffffffffff16815260200191505060405180910390f35b6000600554905090565b60065481565b60055481565b600042600960003373ffffffffffffffffffffffffffffffffffffffff1673ffffffffffffffffffffffffffffffffffffffff168152602001908152602001600020600001541015151561056357600080fd5b6000600960003373ffffffffffffffffffffffffffffffffffffffff1673ffffffffffffffffffffffffffffffffffffffff168152602001908152602001600020600101541115156105b457600080fd5b600960003373ffffffffffffffffffffffffffffffffffffffff1673ffffffffffffffffffffffffffffffffffffffff16815260200190815260200160002060000154905090565b600460009054906101000a900473ffffffffffffffffffffffffffffffffffffffff1681565b600760009054906101000a900460ff1681565b60001515600760009054906101000a900460ff16151514151561065757600080fd5b600554600360009054906101000a900473ffffffffffffffffffffffffffffffffffffffff1673ffffffffffffffffffffffffffffffffffffffff1663dd62ed3e33306040518363ffffffff167c0100000000000000000000000000000000000000000000000000000000028152600401808373ffffffffffffffffffffffffffffffffffffffff1673ffffffffffffffffffffffffffffffffffffffff1681526020018273ffffffffffffffffffffffffffffffffffffffff1673ffffffffffffffffffffffffffffffffffffffff1681526020019250505060206040518083038186803b15801561074957600080fd5b505afa15801561075d573d6000803e3d6000fd5b505050506040513d602081101561077357600080fd5b81019080805190602001909291905050501015151561079157600080fd5b62278d0081101580156107a857506301e133808111155b15156107b357600080fd5b600383101515156107c357600080fd5b6107cb611188565b600084843033600460009054906101000a900473ffffffffffffffffffffffffffffffffffffffff16600360009054906101000a900473ffffffffffffffffffffffffffffffffffffffff1661081f6111a2565b808781526020018681526020018573ffffffffffffffffffffffffffffffffffffffff1673ffffffffffffffffffffffffffffffffffffffff1681526020018473ffffffffffffffffffffffffffffffffffffffff1673ffffffffffffffffffffffffffffffffffffffff1681526020018373ffffffffffffffffffffffffffffffffffffffff1673ffffffffffffffffffffffffffffffffffffffff1681526020018273ffffffffffffffffffffffffffffffffffffffff1673ffffffffffffffffffffffffffffffffffffffff1681526020019650505050505050604051809103906000f080158015610918573d6000803e3d6000fd5b509050600360009054906101000a900473ffffffffffffffffffffffffffffffffffffffff1673ffffffffffffffffffffffffffffffffffffffff166323b872dd33836005546040518463ffffffff167c0100000000000000000000000000000000000000000000000000000000028152600401808473ffffffffffffffffffffffffffffffffffffffff1673ffffffffffffffffffffffffffffffffffffffff1681526020018373ffffffffffffffffffffffffffffffffffffffff1673ffffffffffffffffffffffffffffffffffffffff1681526020018281526020019350505050602060405180830381600087803b158015610a1657600080fd5b505af1158015610a2a573d6000803e3d6000fd5b505050506040513d6020811015610a4057600080fd5b81019080805190602001909291905050501515610a5c57600080fd5b824201826000018181525050428260200181815250506001600654016006819055508060086000600654815260200190815260200160002060006101000a81548173ffffffffffffffffffffffffffffffffffffffff021916908373ffffffffffffffffffffffffffffffffffffffff16021790555081600960008373ffffffffffffffffffffffffffffffffffffffff1673ffffffffffffffffffffffffffffffffffffffff16815260200190815260200160002060008201518160000155602082015181600101559050505050505050565b600360009054906101000a900473ffffffffffffffffffffffffffffffffffffffff1681565b6000600960008373ffffffffffffffffffffffffffffffffffffffff1673ffffffffffffffffffffffffffffffffffffffff1681526020019081526020016000206000015442119050919050565b606080606080606080600088118015610bbd5750600087115b1515610bc857600080fd5b6000600654118015610bdc57508760065410155b1515610be757600080fd5b6006546001888a01031115610c0157600188600654030196505b60008890505b6001888a0103811115156111485760006008600083815260200190815260200160002060009054906101000a900473ffffffffffffffffffffffffffffffffffffffff169050600015158173ffffffffffffffffffffffffffffffffffffffff1663070ee0676040518163ffffffff167c010000000000000000000000000000000000000000000000000000000002815260040160206040518083038186803b158015610cb357600080fd5b505afa158015610cc7573d6000803e3d6000fd5b505050506040513d6020811015610cdd57600080fd5b810190808051906020019092919050505015151480610d42575042617080600960008473ffffffffffffffffffffffffffffffffffffffff1673ffffffffffffffffffffffffffffffffffffffff168152602001908152602001600020600001540311155b15610d4d575061113b565b8073ffffffffffffffffffffffffffffffffffffffff1663b02f0a5a6040518163ffffffff167c010000000000000000000000000000000000000000000000000000000002815260040160206040518083038186803b158015610daf57600080fd5b505afa158015610dc3573d6000803e3d6000fd5b505050506040513d6020811015610dd957600080fd5b81019080805190602001909291905050508173ffffffffffffffffffffffffffffffffffffffff16311415610e33576001838b8403815181101515610e1a57fe5b9060200190602002019015159081151581525050610e5a565b6000838b8403815181101515610e4557fe5b90602001906020020190151590811515815250505b80888b8403815181101515610e6b57fe5b9060200190602002019073ffffffffffffffffffffffffffffffffffffffff16908173ffffffffffffffffffffffffffffffffffffffff1681525050600960008273ffffffffffffffffffffffffffffffffffffffff1673ffffffffffffffffffffffffffffffffffffffff16815260200190815260200160002060000154878b8403815181101515610efa57fe5b90602001906020020181815250508073ffffffffffffffffffffffffffffffffffffffff1663b3fb9fc76040518163ffffffff167c010000000000000000000000000000000000000000000000000000000002815260040160206040518083038186803b158015610f6a57600080fd5b505afa158015610f7e573d6000803e3d6000fd5b505050506040513d6020811015610f9457600080fd5b8101908080519060200190929190505050868b8403815181101515610fb557fe5b90602001906020020181815250508073ffffffffffffffffffffffffffffffffffffffff1663b02f0a5a6040518163ffffffff167c010000000000000000000000000000000000000000000000000000000002815260040160206040518083038186803b15801561102557600080fd5b505afa158015611039573d6000803e3d6000fd5b505050506040513d602081101561104f57600080fd5b8101908080519060200190929190505050858b840381518110151561107057fe5b90602001906020020181815250508073ffffffffffffffffffffffffffffffffffffffff166376f8dc8e6040518163ffffffff167c010000000000000000000000000000000000000000000000000000000002815260040160206040518083038186803b1580156110e057600080fd5b505afa1580156110f4573d6000803e3d6000fd5b505050506040513d602081101561110a57600080fd5b8101908080519060200190929190505050848b840381518110151561112b57fe5b9060200190602002018181525050505b8080600101915050610c07565b509295509295509295565b60008160038110151561116257fe5b016000915054906101000a900473ffffffffffffffffffffffffffffffffffffffff1681565b604080519081016040528060008152602001600081525090565b6040516120cf806111b38339019056fe60806040526000600b60016101000a81548160ff0219169083151502179055506000600b60026101000a81548160ff02191690831515021790555034801561004657600080fd5b5060405160c0806120cf833981018060405260c081101561006657600080fd5b81019080805190602001909291908051906020019092919080519060200190929190805190602001909291908051906020019092919080519060200190929190505050856006819055508460078190555083600360006101000a81548173ffffffffffffffffffffffffffffffffffffffff021916908373ffffffffffffffffffffffffffffffffffffffff160217905550826000806101000a81548173ffffffffffffffffffffffffffffffffffffffff021916908373ffffffffffffffffffffffffffffffffffffffff16021790555081600460006101000a81548173ffffffffffffffffffffffffffffffffffffffff021916908373ffffffffffffffffffffffffffffffffffffffff16021790555080600560006101000a81548173ffffffffffffffffffffffffffffffffffffffff021916908373ffffffffffffffffffffffffffffffffffffffff1602179055506001600b60006101000a81548160ff02191690831515021790555082600160006101000a81548173ffffffffffffffffffffffffffffffffffffffff021916908373ffffffffffffffffffffffffffffffffffffffff16021790555042600981905550505050505050611e9d806102326000396000f3fe608060405260043610610168576000357c010000000000000000000000000000000000000000000000000000000090048063b0d31bc8116100d3578063cf444d9b1161008c578063cf444d9b146106a8578063d80cc009146106d7578063d92fe2df146106ee578063ef78d4fd14610705578063f1fffdcb14610730578063f5e3fc301461078757610168565b8063b0d31bc814610587578063b387ef92146105b6578063b3fb9fc71461060d578063b56fb33714610638578063c80bcf2e14610673578063c98166c01461067d57610168565b80635d0a4cde116101255780635d0a4cde146102ff57806376f8dc8e146104845780637c479449146104af5780639068f84a146104da57806391d622b914610505578063b02f0a5a1461055c57610168565b8063070ee0671461016d57806314c68b1b1461019c57806328f402b1146101cb57806335b132f9146102225780634c2067c71461027957806351da2eaa146102a8575b600080fd5b34801561017957600080fd5b506101826107b2565b604051808215151515815260200191505060405180910390f35b3480156101a857600080fd5b506101b16107c9565b604051808215151515815260200191505060405180910390f35b3480156101d757600080fd5b506101e06107dc565b604051808273ffffffffffffffffffffffffffffffffffffffff1673ffffffffffffffffffffffffffffffffffffffff16815260200191505060405180910390f35b34801561022e57600080fd5b50610237610802565b604051808273ffffffffffffffffffffffffffffffffffffffff1673ffffffffffffffffffffffffffffffffffffffff16815260200191505060405180910390f35b34801561028557600080fd5b5061028e610828565b604051808215151515815260200191505060405180910390f35b3480156102b457600080fd5b506102bd61083b565b604051808273ffffffffffffffffffffffffffffffffffffffff1673ffffffffffffffffffffffffffffffffffffffff16815260200191505060405180910390f35b34801561030b57600080fd5b5061046a6004803603608081101561032257600080fd5b810190808035906020019064010000000081111561033f57600080fd5b82018360208201111561035157600080fd5b8035906020019184602083028401116401000000008311171561037357600080fd5b919080806020026020016040519081016040528093929190818152602001838360200280828437600081840152601f19601f820116905080830192505050505050509192919290803590602001906401000000008111156103d357600080fd5b8201836020820111156103e557600080fd5b8035906020019184602083028401116401000000008311171561040757600080fd5b919080806020026020016040519081016040528093929190818152602001838360200280828437600081840152601f19601f8201169050808301925050505050505091929192908035906020019092919080359060200190929190505050610861565b604051808215151515815260200191505060405180910390f35b34801561049057600080fd5b50610499610dda565b6040518082815260200191505060405180910390f35b3480156104bb57600080fd5b506104c4610de4565b6040518082815260200191505060405180910390f35b3480156104e657600080fd5b506104ef610dea565b6040518082815260200191505060405180910390f35b34801561051157600080fd5b5061051a610df0565b604051808273ffffffffffffffffffffffffffffffffffffffff1673ffffffffffffffffffffffffffffffffffffffff16815260200191505060405180910390f35b34801561056857600080fd5b50610571610e16565b6040518082815260200191505060405180910390f35b34801561059357600080fd5b5061059c610e20565b604051808215151515815260200191505060405180910390f35b3480156105c257600080fd5b506105cb610e33565b604051808273ffffffffffffffffffffffffffffffffffffffff1673ffffffffffffffffffffffffffffffffffffffff16815260200191505060405180910390f35b34801561061957600080fd5b50610622610e59565b6040518082815260200191505060405180910390f35b34801561064457600080fd5b506106716004803603602081101561065b57600080fd5b8101908080359060200190929190505050610e63565b005b61067b61112f565b005b34801561068957600080fd5b50610692611623565b6040518082815260200191505060405180910390f35b3480156106b457600080fd5b506106bd611629565b604051808215151515815260200191505060405180910390f35b3480156106e357600080fd5b506106ec6116a5565b005b3480156106fa57600080fd5b506107036119f8565b005b34801561071157600080fd5b5061071a611e1d565b6040518082815260200191505060405180910390f35b34801561073c57600080fd5b50610745611e23565b604051808273ffffffffffffffffffffffffffffffffffffffff1673ffffffffffffffffffffffffffffffffffffffff16815260200191505060405180910390f35b34801561079357600080fd5b5061079c611e48565b6040518082815260200191505060405180910390f35b6000600b60009054906101000a900460ff16905090565b600b60029054906101000a900460ff1681565b600460009054906101000a900473ffffffffffffffffffffffffffffffffffffffff1681565b600260009054906101000a900473ffffffffffffffffffffffffffffffffffffffff1681565b600b60019054906101000a900460ff1681565b600360009054906101000a900473ffffffffffffffffffffffffffffffffffffffff1681565b60008073ffffffffffffffffffffffffffffffffffffffff16600260009054906101000a900473ffffffffffffffffffffffffffffffffffffffff1673ffffffffffffffffffffffffffffffffffffffff16141580156108d8575060003073ffffffffffffffffffffffffffffffffffffffff1631115b15156108e357600080fd5b60011515600b60009054906101000a900460ff16151514151561096e576040517f08c379a000000000000000000000000000000000000000000000000000000000815260040180806020018281038252600c8152602001807f6e6f74206f6e2073746f636b000000000000000000000000000000000000000081525060200191505060405180910390fd5b6000600360009054906101000a900473ffffffffffffffffffffffffffffffffffffffff1673ffffffffffffffffffffffffffffffffffffffff16632537127f6040518163ffffffff167c010000000000000000000000000000000000000000000000000000000002815260040160206040518083038186803b1580156109f457600080fd5b505afa158015610a08573d6000803e3d6000fd5b505050506040513d6020811015610a1e57600080fd5b81019080805190602001909291905050509050617080810342101515610a4357600080fd5b611c206009540142111515610ac0576040517f08c379a00000000000000000000000000000000000000000000000000000000081526004018080602001828103825260208152602001807f63616e6e6f74206368616e6765206f776e65727368697020746f6f20736f6f6e81525060200191505060405180910390fd5b6101f4600854811515610acf57fe5b0460085401600560009054906101000a900473ffffffffffffffffffffffffffffffffffffffff1673ffffffffffffffffffffffffffffffffffffffff1663dd62ed3e33306040518363ffffffff167c0100000000000000000000000000000000000000000000000000000000028152600401808373ffffffffffffffffffffffffffffffffffffffff1673ffffffffffffffffffffffffffffffffffffffff1681526020018273ffffffffffffffffffffffffffffffffffffffff1673ffffffffffffffffffffffffffffffffffffffff1681526020019250505060206040518083038186803b158015610bc357600080fd5b505afa158015610bd7573d6000803e3d6000fd5b505050506040513d6020811015610bed57600080fd5b810190808051906020019092919050505010151515610c0b57600080fd5b6000600160009054906101000a900473ffffffffffffffffffffffffffffffffffffffff1690506000600b60006101000a81548160ff02191690831515021790555033600160006101000a81548173ffffffffffffffffffffffffffffffffffffffff021916908373ffffffffffffffffffffffffffffffffffffffff16021790555042600981905550600560009054906101000a900473ffffffffffffffffffffffffffffffffffffffff1673ffffffffffffffffffffffffffffffffffffffff166323b872dd33836008546040518463ffffffff167c0100000000000000000000000000000000000000000000000000000000028152600401808473ffffffffffffffffffffffffffffffffffffffff1673ffffffffffffffffffffffffffffffffffffffff1681526020018373ffffffffffffffffffffffffffffffffffffffff1673ffffffffffffffffffffffffffffffffffffffff1681526020018281526020019350505050602060405180830381600087803b158015610d9057600080fd5b505af1158015610da4573d6000803e3d6000fd5b505050506040513d6020811015610dba57600080fd5b810190808051906020019092919050505050600192505050949350505050565b6000600854905090565b60085481565b60075481565b600560009054906101000a900473ffffffffffffffffffffffffffffffffffffffff1681565b6000600654905090565b600b60009054906101000a900460ff1681565b600160009054906101000a900473ffffffffffffffffffffffffffffffffffffffff1681565b6000600754905090565b600073ffffffffffffffffffffffffffffffffffffffff16600260009054906101000a900473ffffffffffffffffffffffffffffffffffffffff1673ffffffffffffffffffffffffffffffffffffffff1614158015610ed9575060003073ffffffffffffffffffffffffffffffffffffffff1631115b1515610ee457600080fd5b600160009054906101000a900473ffffffffffffffffffffffffffffffffffffffff1673ffffffffffffffffffffffffffffffffffffffff163373ffffffffffffffffffffffffffffffffffffffff16141515610fa9576040517f08c379a00000000000000000000000000000000000000000000000000000000081526004018080602001828103825260098152602001807f6e6f74206f776e6572000000000000000000000000000000000000000000000081525060200191505060405180910390fd5b6000600360009054906101000a900473ffffffffffffffffffffffffffffffffffffffff1673ffffffffffffffffffffffffffffffffffffffff16632537127f6040518163ffffffff167c010000000000000000000000000000000000000000000000000000000002815260040160206040518083038186803b15801561102f57600080fd5b505afa158015611043573d6000803e3d6000fd5b505050506040513d602081101561105957600080fd5b8101908080519060200190929190505050905061708081034210151561107e57600080fd5b60001515600b60009054906101000a900460ff161515141515611109576040517f08c379a000000000000000000000000000000000000000000000000000000000815260040180806020018281038252601a8152602001807f63616e206f6e6c7920707574206f6e2053746f636b206f6e636500000000000081525060200191505060405180910390fd5b6001600b60006101000a81548160ff021916908315150217905550816008819055505050565b60001515600360009054906101000a900473ffffffffffffffffffffffffffffffffffffffff1673ffffffffffffffffffffffffffffffffffffffff1663ba2eb541306040518263ffffffff167c0100000000000000000000000000000000000000000000000000000000028152600401808273ffffffffffffffffffffffffffffffffffffffff1673ffffffffffffffffffffffffffffffffffffffff16815260200191505060206040518083038186803b1580156111ee57600080fd5b505afa158015611202573d6000803e3d6000fd5b505050506040513d602081101561121857600080fd5b810190808051906020019092919050505015151415156112a0576040517f08c379a00000000000000000000000000000000000000000000000000000000081526004018080602001828103825260118152602001807f6e6f772063616e2065786365726369736500000000000000000000000000000081525060200191505060405180910390fd5b600073ffffffffffffffffffffffffffffffffffffffff16600260009054906101000a900473ffffffffffffffffffffffffffffffffffffffff1673ffffffffffffffffffffffffffffffffffffffff16141515611366576040517f08c379a00000000000000000000000000000000000000000000000000000000081526004018080602001828103825260178152602001807f6f74686572732066696c6c2045544820616c726561647900000000000000000081525060200191505060405180910390fd5b600654341415156113c2576040517f08c379a0000000000000000000000000000000000000000000000000000000008152600401808060200182810382526023815260200180611e4f6023913960400191505060405180910390fd5b600360009054906101000a900473ffffffffffffffffffffffffffffffffffffffff1673ffffffffffffffffffffffffffffffffffffffff166310bbc68a6040518163ffffffff167c010000000000000000000000000000000000000000000000000000000002815260040160206040518083038186803b15801561144657600080fd5b505afa15801561145a573d6000803e3d6000fd5b505050506040513d602081101561147057600080fd5b810190808051906020019092919050505060088190555033600260006101000a81548173ffffffffffffffffffffffffffffffffffffffff021916908373ffffffffffffffffffffffffffffffffffffffff160217905550426009819055506000600b60006101000a81548160ff021916908315150217905550600560009054906101000a900473ffffffffffffffffffffffffffffffffffffffff1673ffffffffffffffffffffffffffffffffffffffff166323b872dd30336008546040518463ffffffff167c0100000000000000000000000000000000000000000000000000000000028152600401808473ffffffffffffffffffffffffffffffffffffffff1673ffffffffffffffffffffffffffffffffffffffff1681526020018373ffffffffffffffffffffffffffffffffffffffff1673ffffffffffffffffffffffffffffffffffffffff1681526020018281526020019350505050602060405180830381600087803b1580156115e557600080fd5b505af11580156115f9573d6000803e3d6000fd5b505050506040513d602081101561160f57600080fd5b810190808051906020019092919050505050565b60065481565b60008073ffffffffffffffffffffffffffffffffffffffff16600260009054906101000a900473ffffffffffffffffffffffffffffffffffffffff1673ffffffffffffffffffffffffffffffffffffffff16141580156116a0575060003073ffffffffffffffffffffffffffffffffffffffff1631115b905090565b60011515600360009054906101000a900473ffffffffffffffffffffffffffffffffffffffff1673ffffffffffffffffffffffffffffffffffffffff1663ba2eb541306040518263ffffffff167c0100000000000000000000000000000000000000000000000000000000028152600401808273ffffffffffffffffffffffffffffffffffffffff1673ffffffffffffffffffffffffffffffffffffffff16815260200191505060206040518083038186803b15801561176457600080fd5b505afa158015611778573d6000803e3d6000fd5b505050506040513d602081101561178e57600080fd5b81019080805190602001909291905050501515141515611816576040517f08c379a00000000000000000000000000000000000000000000000000000000081526004018080602001828103825260178152602001807f63616e206e6f206c6f6e6765722065786365726369736500000000000000000081525060200191505060405180910390fd5b600260009054906101000a900473ffffffffffffffffffffffffffffffffffffffff1673ffffffffffffffffffffffffffffffffffffffff163373ffffffffffffffffffffffffffffffffffffffff161415156118db576040517f08c379a000000000000000000000000000000000000000000000000000000000815260040180806020018281038252601a8152602001807f6f6e6c792065746853656c6c65722063616e2063616c6c20697400000000000081525060200191505060405180910390fd5b60001515600b60029054906101000a900460ff161515141515611966576040517f08c379a00000000000000000000000000000000000000000000000000000000081526004018080602001828103825260118152602001807f616c72656164792065786572636973656400000000000000000000000000000081525060200191505060405180910390fd5b6000600b60006101000a81548160ff0219169083151502179055503373ffffffffffffffffffffffffffffffffffffffff166108fc3073ffffffffffffffffffffffffffffffffffffffff16319081150290604051600060405180830381858888f193505050501580156119de573d6000803e3d6000fd5b503373ffffffffffffffffffffffffffffffffffffffff16ff5b600160009054906101000a900473ffffffffffffffffffffffffffffffffffffffff1673ffffffffffffffffffffffffffffffffffffffff163373ffffffffffffffffffffffffffffffffffffffff16141515611abd576040517f08c379a00000000000000000000000000000000000000000000000000000000081526004018080602001828103825260098152602001807f6e6f74206f776e6572000000000000000000000000000000000000000000000081525060200191505060405180910390fd5b6000600360009054906101000a900473ffffffffffffffffffffffffffffffffffffffff1673ffffffffffffffffffffffffffffffffffffffff16632537127f6040518163ffffffff167c010000000000000000000000000000000000000000000000000000000002815260040160206040518083038186803b158015611b4357600080fd5b505afa158015611b57573d6000803e3d6000fd5b505050506040513d6020811015611b6d57600080fd5b8101908080519060200190929190505050905060001515600b60009054906101000a900460ff161515148015611ba257508042105b80611bbc575061708081034210158015611bbb57508042105b5b1515611bc757600080fd5b611c206009540142111515611c1f576040517f08c379a0000000000000000000000000000000000000000000000000000000008152600401808060200182810382526000815260200160200191505060405180910390fd5b60001515600b60009054906101000a905050506001600b60026101000a81548160ff021916908315150217905550600560009054906101000a900473ffffffffffffffffffffffffffffffffffffffff1673ffffffffffffffffffffffffffffffffffffffff166323b872dd33600260009054906101000a900473ffffffffffffffffffffffffffffffffffffffff166007546040518463ffffffff167c0100000000000000000000000000000000000000000000000000000000028152600401808473ffffffffffffffffffffffffffffffffffffffff1673ffffffffffffffffffffffffffffffffffffffff1681526020018373ffffffffffffffffffffffffffffffffffffffff1673ffffffffffffffffffffffffffffffffffffffff1681526020018281526020019350505050602060405180830381600087803b158015611d6a57600080fd5b505af1158015611d7e573d6000803e3d6000fd5b505050506040513d6020811015611d9457600080fd5b8101908080519060200190929190505050503373ffffffffffffffffffffffffffffffffffffffff166108fc3073ffffffffffffffffffffffffffffffffffffffff16319081150290604051600060405180830381858888f19350505050158015611e03573d6000803e3d6000fd5b503373ffffffffffffffffffffffffffffffffffffffff16ff5b600a5481565b6000809054906101000a900473ffffffffffffffffffffffffffffffffffffffff1681565b6009548156fe6e65656420746f206465706f73697420657861637420616d6f756e74206f6620455448a165627a7a723058209d178b0b721f14f89b69f8d3a3074acebf429bf56b672df04254ddc2f39d55b20029a165627a7a7230582077572b727a12e5099ddc1545e727c8587867697088b4f66990af00f8094ca8be0029",
  "source": "pragma solidity ^0.5.2;\n\nimport \"./ERC20.sol\";\nimport \"./Optract.sol\";\n//import \"./SafeMath.sol\";\n\ncontract OptractRegistry { // PoC ETH-DAI Optract\n\taddress[3] public operators;\n\taddress public currencyTokenAddr; // presumably 'DAI'\n\taddress public blkAddr; // side-chain merkle records\n\tuint public initialPayment = 5000000000000000000; // 5 DAIs\n\tuint public totalOpts = 0;\n\tbool public paused = false;\n\n\tstruct optractRecord {\n\t\tuint expiredTime; // timestamp\n\t\tuint since; // timestamp\n\t}\n\n\tmapping (uint => address) optractRecordsByIndex;\n\tmapping (address => optractRecord) optractRecordsByAddress;\n\n\t// Modifiers\n\tmodifier operatorOnly() {\n\t\trequire(msg.sender == operators[0] || msg.sender == operators[1] || msg.sender == operators[2]);\n\t\t_;\n\t}\n\n\tmodifier notPaused() {\n\t\trequire(paused == false);\n\t\t_;\n\t}\n\n\t// Constructor\n\tconstructor(address _currencyTokenAddr) public {\n\t\toperators[0] = msg.sender;\n\t\tcurrencyTokenAddr = _currencyTokenAddr;\n\t}\n\n\tfunction createOptract(uint256 ETHAmount, uint256 totalPrice, uint period) external notPaused {\n\t\trequire(ERC20(currencyTokenAddr).allowance(msg.sender, address(this)) >= initialPayment);\n\t\trequire(period >= 30 days && period <= 365 days);\n\t\trequire(ETHAmount >= 3);\n\n\t\toptractRecord memory optRcd;\n\t\tOptract opt = new Optract(ETHAmount, totalPrice, address(this), msg.sender, blkAddr, currencyTokenAddr);\n\t\trequire(ERC20(currencyTokenAddr).transferFrom(msg.sender, address(opt), initialPayment));\n\n\t\toptRcd.expiredTime = block.timestamp + period;\n\t\toptRcd.since = block.timestamp;\n\n\t\ttotalOpts = totalOpts + 1;\n\t\toptractRecordsByIndex[totalOpts] = address(opt); // mapping start from uint key = 1\n\t\toptractRecordsByAddress[address(opt)] = optRcd;\n\t}\n\n\t// Constant functions\n\tfunction queryInitPrice() public view returns (uint) { \n\t\treturn initialPayment; \n\t}\n\n\tfunction isExpired(address optractAddress) public view returns (bool) {\n\t\treturn block.timestamp > optractRecordsByAddress[optractAddress].expiredTime;\n\t}\n\n\tfunction getExpireTime() public view returns (uint) {\n\t\trequire(optractRecordsByAddress[msg.sender].expiredTime >= block.timestamp);\n\t\trequire(optractRecordsByAddress[msg.sender].since > 0);\n\n\t\treturn optractRecordsByAddress[msg.sender].expiredTime;\n\t}\n\n\tfunction activeOptracts(uint start, uint length) public view returns (\n\t\taddress[] memory addrlist, \n\t\t   uint[] memory expTimeList, \n\t\t   uint[] memory priceList, \n\t\t   uint[] memory ETHList,\n\t\t   uint[] memory opriceList, \n\t\t   bool[] memory filled\t) \n\t{\n\t\trequire(start > 0 && length > 0);\n\t\trequire(totalOpts > 0 && totalOpts >= start);\n\n\t\tif (start + length - 1 > totalOpts) {\n\t\t\tlength = totalOpts - start + 1;\n\t\t}\n\n\t\tfor (uint i = start; i <= start + length - 1; i++) {\n\t\t\taddress optAddr = optractRecordsByIndex[i];\n\t\t\tif (Optract(optAddr).queryOnStock() == false || optractRecordsByAddress[optAddr].expiredTime - 8 hours <= block.timestamp) continue;\n\n\t\t\tif (optAddr.balance == Optract(optAddr).queryOrderSize()) {\n\t\t\t\tfilled[i-start] = true;\n\t\t\t} else {\n\t\t\t\tfilled[i-start] = false;\n\t\t\t}\n\n\t\t\taddrlist[i-start] = optAddr;\n\t\t\texpTimeList[i-start] = optractRecordsByAddress[optAddr].expiredTime;\n\t\t\tpriceList[i-start] = Optract(optAddr).queryOrderPrice();\n\t\t\tETHList[i-start] = Optract(optAddr).queryOrderSize();\n\t\t\topriceList[i-start] = Optract(optAddr).queryOptionPrice();\n\t\t}\n\t}\n}\n",
  "sourcePath": "/home/kai/Work/project/Optract/contracts/OptractRegistry.sol",
  "compiler": {
    "name": "solc",
    "version": "0.5.2+commit.1df8f40c.Linux.g++"
  },
  "schemaVersion": "3.0.1",
  "updatedAt": "2019-02-26T20:32:33.713Z",
  "devdoc": {
    "methods": {}
  },
  "userdoc": {
    "methods": {}
  }
}