{
  "contractName": "OptractRegistry",
  "abi": [
    {
      "constant": true,
      "inputs": [],
      "name": "totalOpts",
      "outputs": [
        {
          "name": "",
          "type": "uint256"
        }
      ],
      "payable": false,
      "stateMutability": "view",
      "type": "function",
      "signature": "0x14eb3037"
    },
    {
      "constant": true,
      "inputs": [],
      "name": "initialPayment",
      "outputs": [
        {
          "name": "",
          "type": "uint256"
        }
      ],
      "payable": false,
      "stateMutability": "view",
      "type": "function",
      "signature": "0x2199a57d"
    },
    {
      "constant": true,
      "inputs": [],
      "name": "blkAddr",
      "outputs": [
        {
          "name": "",
          "type": "address"
        }
      ],
      "payable": false,
      "stateMutability": "view",
      "type": "function",
      "signature": "0x28f402b1"
    },
    {
      "constant": true,
      "inputs": [],
      "name": "debug2",
      "outputs": [
        {
          "name": "",
          "type": "bool"
        }
      ],
      "payable": false,
      "stateMutability": "view",
      "type": "function",
      "signature": "0x5ba88c28"
    },
    {
      "constant": true,
      "inputs": [],
      "name": "paused",
      "outputs": [
        {
          "name": "",
          "type": "bool"
        }
      ],
      "payable": false,
      "stateMutability": "view",
      "type": "function",
      "signature": "0x5c975abb"
    },
    {
      "constant": true,
      "inputs": [],
      "name": "debug3",
      "outputs": [
        {
          "name": "",
          "type": "bool"
        }
      ],
      "payable": false,
      "stateMutability": "view",
      "type": "function",
      "signature": "0x610da891"
    },
    {
      "constant": true,
      "inputs": [],
      "name": "debug1",
      "outputs": [
        {
          "name": "",
          "type": "bool"
        }
      ],
      "payable": false,
      "stateMutability": "view",
      "type": "function",
      "signature": "0x7dc7c5a5"
    },
    {
      "constant": true,
      "inputs": [],
      "name": "currencyTokenAddr",
      "outputs": [
        {
          "name": "",
          "type": "address"
        }
      ],
      "payable": false,
      "stateMutability": "view",
      "type": "function",
      "signature": "0x91d622b9"
    },
    {
      "constant": true,
      "inputs": [],
      "name": "debug4",
      "outputs": [
        {
          "name": "",
          "type": "bool"
        }
      ],
      "payable": false,
      "stateMutability": "view",
      "type": "function",
      "signature": "0xb70902bc"
    },
    {
      "constant": true,
      "inputs": [
        {
          "name": "",
          "type": "uint256"
        }
      ],
      "name": "operators",
      "outputs": [
        {
          "name": "",
          "type": "address"
        }
      ],
      "payable": false,
      "stateMutability": "view",
      "type": "function",
      "signature": "0xe28d4906"
    },
    {
      "inputs": [
        {
          "name": "_currencyTokenAddr",
          "type": "address"
        }
      ],
      "payable": false,
      "stateMutability": "nonpayable",
      "type": "constructor",
      "signature": "constructor"
    },
    {
      "constant": false,
      "inputs": [
        {
          "name": "_debug1",
          "type": "bool"
        },
        {
          "name": "_debug2",
          "type": "bool"
        },
        {
          "name": "_debug3",
          "type": "bool"
        },
        {
          "name": "_debug4",
          "type": "bool"
        }
      ],
      "name": "setDebugParams",
      "outputs": [],
      "payable": false,
      "stateMutability": "nonpayable",
      "type": "function",
      "signature": "0x37435e6c"
    },
    {
      "constant": false,
      "inputs": [
        {
          "name": "ETHAmount",
          "type": "uint256"
        },
        {
          "name": "totalPrice",
          "type": "uint256"
        },
        {
          "name": "period",
          "type": "uint256"
        }
      ],
      "name": "createOptract",
      "outputs": [],
      "payable": false,
      "stateMutability": "nonpayable",
      "type": "function",
      "signature": "0x6e9a01a2"
    },
    {
      "constant": true,
      "inputs": [],
      "name": "queryInitPrice",
      "outputs": [
        {
          "name": "",
          "type": "uint256"
        }
      ],
      "payable": false,
      "stateMutability": "view",
      "type": "function",
      "signature": "0x10bbc68a"
    },
    {
      "constant": true,
      "inputs": [
        {
          "name": "optractAddress",
          "type": "address"
        }
      ],
      "name": "isExpired",
      "outputs": [
        {
          "name": "",
          "type": "bool"
        }
      ],
      "payable": false,
      "stateMutability": "view",
      "type": "function",
      "signature": "0xba2eb541"
    },
    {
      "constant": true,
      "inputs": [],
      "name": "getExpireTime",
      "outputs": [
        {
          "name": "",
          "type": "uint256"
        }
      ],
      "payable": false,
      "stateMutability": "view",
      "type": "function",
      "signature": "0x2537127f"
    },
    {
      "constant": true,
      "inputs": [
        {
          "name": "start",
          "type": "uint256"
        },
        {
          "name": "length",
          "type": "uint256"
        },
        {
          "name": "owner",
          "type": "address"
        }
      ],
      "name": "activeOptracts",
      "outputs": [
        {
          "name": "",
          "type": "address[]"
        },
        {
          "name": "",
          "type": "uint256[]"
        },
        {
          "name": "",
          "type": "uint256[]"
        },
        {
          "name": "",
          "type": "uint256[]"
        },
        {
          "name": "",
          "type": "uint256[]"
        }
      ],
      "payable": false,
      "stateMutability": "view",
      "type": "function",
      "signature": "0x6769f438"
    }
  ],
  "bytecode": "0x6080604052674563918244f4000060055560006006556000600760006101000a81548160ff0219169083151502179055506001600a60006101000a81548160ff0219169083151502179055506001600a60016101000a81548160ff0219169083151502179055506001600a60026101000a81548160ff0219169083151502179055506001600a60036101000a81548160ff0219169083151502179055503480156100a857600080fd5b50604051602080613ecd833981018060405260208110156100c857600080fd5b8101908080519060200190929190505050336000806003811015156100e957fe5b0160006101000a81548173ffffffffffffffffffffffffffffffffffffffff021916908373ffffffffffffffffffffffffffffffffffffffff16021790555080600360006101000a81548173ffffffffffffffffffffffffffffffffffffffff021916908373ffffffffffffffffffffffffffffffffffffffff16021790555050613d54806101796000396000f3fe608060405234801561001057600080fd5b506004361061011d576000357c010000000000000000000000000000000000000000000000000000000090048063610da891116100b457806391d622b91161008357806391d622b9146104cf578063b70902bc14610519578063ba2eb5411461053b578063e28d4906146105975761011d565b8063610da8911461027c5780636769f4381461029e5780636e9a01a21461046b5780637dc7c5a5146104ad5761011d565b806328f402b1116100f057806328f402b11461019a57806337435e6c146101e45780635ba88c28146102385780635c975abb1461025a5761011d565b806310bbc68a1461012257806314eb3037146101405780632199a57d1461015e5780632537127f1461017c575b600080fd5b61012a610605565b6040518082815260200191505060405180910390f35b61014861060f565b6040518082815260200191505060405180910390f35b610166610615565b6040518082815260200191505060405180910390f35b61018461061b565b6040518082815260200191505060405180910390f35b6101a2610754565b604051808273ffffffffffffffffffffffffffffffffffffffff1673ffffffffffffffffffffffffffffffffffffffff16815260200191505060405180910390f35b610236600480360360808110156101fa57600080fd5b8101908080351515906020019092919080351515906020019092919080351515906020019092919080351515906020019092919050505061077a565b005b6102406107e8565b604051808215151515815260200191505060405180910390f35b6102626107fb565b604051808215151515815260200191505060405180910390f35b61028461080e565b604051808215151515815260200191505060405180910390f35b6102f4600480360360608110156102b457600080fd5b810190808035906020019092919080359060200190929190803573ffffffffffffffffffffffffffffffffffffffff169060200190929190505050610821565b60405180806020018060200180602001806020018060200186810386528b818151815260200191508051906020019060200280838360005b8381101561034757808201518184015260208101905061032c565b5050505090500186810385528a818151815260200191508051906020019060200280838360005b8381101561038957808201518184015260208101905061036e565b50505050905001868103845289818151815260200191508051906020019060200280838360005b838110156103cb5780820151818401526020810190506103b0565b50505050905001868103835288818151815260200191508051906020019060200280838360005b8381101561040d5780820151818401526020810190506103f2565b50505050905001868103825287818151815260200191508051906020019060200280838360005b8381101561044f578082015181840152602081019050610434565b505050509050019a505050505050505050505060405180910390f35b6104ab6004803603606081101561048157600080fd5b81019080803590602001909291908035906020019092919080359060200190929190505050611576565b005b6104b5611b4a565b604051808215151515815260200191505060405180910390f35b6104d7611b5d565b604051808273ffffffffffffffffffffffffffffffffffffffff1673ffffffffffffffffffffffffffffffffffffffff16815260200191505060405180910390f35b610521611b83565b604051808215151515815260200191505060405180910390f35b61057d6004803603602081101561055157600080fd5b81019080803573ffffffffffffffffffffffffffffffffffffffff169060200190929190505050611b96565b604051808215151515815260200191505060405180910390f35b6105c3600480360360208110156105ad57600080fd5b8101908080359060200190929190505050611be4565b604051808273ffffffffffffffffffffffffffffffffffffffff1673ffffffffffffffffffffffffffffffffffffffff16815260200191505060405180910390f35b6000600554905090565b60065481565b60055481565b600042600960003373ffffffffffffffffffffffffffffffffffffffff1673ffffffffffffffffffffffffffffffffffffffff168152602001908152602001600020600001541015151561066e57600080fd5b600073ffffffffffffffffffffffffffffffffffffffff16600960003373ffffffffffffffffffffffffffffffffffffffff1673ffffffffffffffffffffffffffffffffffffffff16815260200190815260200160002060010160009054906101000a900473ffffffffffffffffffffffffffffffffffffffff1673ffffffffffffffffffffffffffffffffffffffff161415151561070c57600080fd5b600960003373ffffffffffffffffffffffffffffffffffffffff1673ffffffffffffffffffffffffffffffffffffffff16815260200190815260200160002060000154905090565b600460009054906101000a900473ffffffffffffffffffffffffffffffffffffffff1681565b83600a60006101000a81548160ff02191690831515021790555082600a60016101000a81548160ff02191690831515021790555081600a60026101000a81548160ff02191690831515021790555080600a60036101000a81548160ff02191690831515021790555050505050565b600a60019054906101000a900460ff1681565b600760009054906101000a900460ff1681565b600a60029054906101000a900460ff1681565b60608060608060606000881180156108395750600087115b151561084457600080fd5b600060065411801561085857508760065410155b151561086357600080fd5b6006546001888a0103111561087d57600188600654030196505b6060876040519080825280602002602001820160405280156108ae5781602001602082028038833980820191505090505b5090506060886040519080825280602002602001820160405280156108e25781602001602082028038833980820191505090505b5090506060896040519080825280602002602001820160405280156109165781602001602082028038833980820191505090505b50905060608a60405190808252806020026020018201604052801561094a5781602001602082028038833980820191505090505b50905060608b60405190808252806020026020018201604052801561097e5781602001602082028038833980820191505090505b509050600073ffffffffffffffffffffffffffffffffffffffff168b73ffffffffffffffffffffffffffffffffffffffff161415610f215760008d90505b60018d8f010381111515610f1b57600015156008600083815260200190815260200160002060009054906101000a900473ffffffffffffffffffffffffffffffffffffffff1673ffffffffffffffffffffffffffffffffffffffff1663070ee0676040518163ffffffff167c010000000000000000000000000000000000000000000000000000000002815260040160206040518083038186803b158015610a6357600080fd5b505afa158015610a77573d6000803e3d6000fd5b505050506040513d6020811015610a8d57600080fd5b810190808051906020019092919050505015151480610b25575042617080600960006008600086815260200190815260200160002060009054906101000a900473ffffffffffffffffffffffffffffffffffffffff1673ffffffffffffffffffffffffffffffffffffffff1673ffffffffffffffffffffffffffffffffffffffff168152602001908152602001600020600001540311155b15610b2f57610f0e565b6008600082815260200190815260200160002060009054906101000a900473ffffffffffffffffffffffffffffffffffffffff16868f8303815181101515610b7357fe5b9060200190602002019073ffffffffffffffffffffffffffffffffffffffff16908173ffffffffffffffffffffffffffffffffffffffff1681525050600960006008600084815260200190815260200160002060009054906101000a900473ffffffffffffffffffffffffffffffffffffffff1673ffffffffffffffffffffffffffffffffffffffff1673ffffffffffffffffffffffffffffffffffffffff16815260200190815260200160002060000154858f8303815181101515610c3557fe5b90602001906020020181815250506008600082815260200190815260200160002060009054906101000a900473ffffffffffffffffffffffffffffffffffffffff1673ffffffffffffffffffffffffffffffffffffffff1663b3fb9fc76040518163ffffffff167c010000000000000000000000000000000000000000000000000000000002815260040160206040518083038186803b158015610cd857600080fd5b505afa158015610cec573d6000803e3d6000fd5b505050506040513d6020811015610d0257600080fd5b8101908080519060200190929190505050848f8303815181101515610d2357fe5b90602001906020020181815250506008600082815260200190815260200160002060009054906101000a900473ffffffffffffffffffffffffffffffffffffffff1673ffffffffffffffffffffffffffffffffffffffff1663b02f0a5a6040518163ffffffff167c010000000000000000000000000000000000000000000000000000000002815260040160206040518083038186803b158015610dc657600080fd5b505afa158015610dda573d6000803e3d6000fd5b505050506040513d6020811015610df057600080fd5b8101908080519060200190929190505050838f8303815181101515610e1157fe5b90602001906020020181815250506008600082815260200190815260200160002060009054906101000a900473ffffffffffffffffffffffffffffffffffffffff1673ffffffffffffffffffffffffffffffffffffffff166376f8dc8e6040518163ffffffff167c010000000000000000000000000000000000000000000000000000000002815260040160206040518083038186803b158015610eb457600080fd5b505afa158015610ec8573d6000803e3d6000fd5b505050506040513d6020811015610ede57600080fd5b8101908080519060200190929190505050828f8303815181101515610eff57fe5b90602001906020020181815250505b80806001019150506109bc565b50611557565b60008d90505b60018d8f010381111515611555578b73ffffffffffffffffffffffffffffffffffffffff16600960006008600085815260200190815260200160002060009054906101000a900473ffffffffffffffffffffffffffffffffffffffff1673ffffffffffffffffffffffffffffffffffffffff1673ffffffffffffffffffffffffffffffffffffffff16815260200190815260200160002060010160009054906101000a900473ffffffffffffffffffffffffffffffffffffffff1673ffffffffffffffffffffffffffffffffffffffff1614151561100457611548565b600015156008600083815260200190815260200160002060009054906101000a900473ffffffffffffffffffffffffffffffffffffffff1673ffffffffffffffffffffffffffffffffffffffff1663070ee0676040518163ffffffff167c010000000000000000000000000000000000000000000000000000000002815260040160206040518083038186803b15801561109d57600080fd5b505afa1580156110b1573d6000803e3d6000fd5b505050506040513d60208110156110c757600080fd5b81019080805190602001909291905050501515148061115f575042617080600960006008600086815260200190815260200160002060009054906101000a900473ffffffffffffffffffffffffffffffffffffffff1673ffffffffffffffffffffffffffffffffffffffff1673ffffffffffffffffffffffffffffffffffffffff168152602001908152602001600020600001540311155b1561116957611548565b6008600082815260200190815260200160002060009054906101000a900473ffffffffffffffffffffffffffffffffffffffff16868f83038151811015156111ad57fe5b9060200190602002019073ffffffffffffffffffffffffffffffffffffffff16908173ffffffffffffffffffffffffffffffffffffffff1681525050600960006008600084815260200190815260200160002060009054906101000a900473ffffffffffffffffffffffffffffffffffffffff1673ffffffffffffffffffffffffffffffffffffffff1673ffffffffffffffffffffffffffffffffffffffff16815260200190815260200160002060000154858f830381518110151561126f57fe5b90602001906020020181815250506008600082815260200190815260200160002060009054906101000a900473ffffffffffffffffffffffffffffffffffffffff1673ffffffffffffffffffffffffffffffffffffffff1663b3fb9fc76040518163ffffffff167c010000000000000000000000000000000000000000000000000000000002815260040160206040518083038186803b15801561131257600080fd5b505afa158015611326573d6000803e3d6000fd5b505050506040513d602081101561133c57600080fd5b8101908080519060200190929190505050848f830381518110151561135d57fe5b90602001906020020181815250506008600082815260200190815260200160002060009054906101000a900473ffffffffffffffffffffffffffffffffffffffff1673ffffffffffffffffffffffffffffffffffffffff1663b02f0a5a6040518163ffffffff167c010000000000000000000000000000000000000000000000000000000002815260040160206040518083038186803b15801561140057600080fd5b505afa158015611414573d6000803e3d6000fd5b505050506040513d602081101561142a57600080fd5b8101908080519060200190929190505050838f830381518110151561144b57fe5b90602001906020020181815250506008600082815260200190815260200160002060009054906101000a900473ffffffffffffffffffffffffffffffffffffffff1673ffffffffffffffffffffffffffffffffffffffff166376f8dc8e6040518163ffffffff167c010000000000000000000000000000000000000000000000000000000002815260040160206040518083038186803b1580156114ee57600080fd5b505afa158015611502573d6000803e3d6000fd5b505050506040513d602081101561151857600080fd5b8101908080519060200190929190505050828f830381518110151561153957fe5b90602001906020020181815250505b8080600101915050610f27565b505b8484848484995099509950995099505050505050939792965093509350565b60001515600760009054906101000a900460ff16151514151561159857600080fd5b600a60009054906101000a900460ff16156116e857600554600360009054906101000a900473ffffffffffffffffffffffffffffffffffffffff1673ffffffffffffffffffffffffffffffffffffffff1663dd62ed3e33306040518363ffffffff167c0100000000000000000000000000000000000000000000000000000000028152600401808373ffffffffffffffffffffffffffffffffffffffff1673ffffffffffffffffffffffffffffffffffffffff1681526020018273ffffffffffffffffffffffffffffffffffffffff1673ffffffffffffffffffffffffffffffffffffffff1681526020019250505060206040518083038186803b15801561169f57600080fd5b505afa1580156116b3573d6000803e3d6000fd5b505050506040513d60208110156116c957600080fd5b8101908080519060200190929190505050101515156116e757600080fd5b5b600a60019054906101000a900460ff161561172a5762278d006201518082021015801561171e57506301e1338062015180820211155b151561172957600080fd5b5b600a60029054906101000a900460ff1615611757576729a2241af62c0000831015151561175657600080fd5b5b61175f611c19565b600084843033600460009054906101000a900473ffffffffffffffffffffffffffffffffffffffff16600360009054906101000a900473ffffffffffffffffffffffffffffffffffffffff166117b3611c49565b808781526020018681526020018573ffffffffffffffffffffffffffffffffffffffff1673ffffffffffffffffffffffffffffffffffffffff1681526020018473ffffffffffffffffffffffffffffffffffffffff1673ffffffffffffffffffffffffffffffffffffffff1681526020018373ffffffffffffffffffffffffffffffffffffffff1673ffffffffffffffffffffffffffffffffffffffff1681526020018273ffffffffffffffffffffffffffffffffffffffff1673ffffffffffffffffffffffffffffffffffffffff1681526020019650505050505050604051809103906000f0801580156118ac573d6000803e3d6000fd5b509050600a60039054906101000a900460ff1615611a0657600360009054906101000a900473ffffffffffffffffffffffffffffffffffffffff1673ffffffffffffffffffffffffffffffffffffffff166323b872dd33836005546040518463ffffffff167c0100000000000000000000000000000000000000000000000000000000028152600401808473ffffffffffffffffffffffffffffffffffffffff1673ffffffffffffffffffffffffffffffffffffffff1681526020018373ffffffffffffffffffffffffffffffffffffffff1673ffffffffffffffffffffffffffffffffffffffff1681526020018281526020019350505050602060405180830381600087803b1580156119bf57600080fd5b505af11580156119d3573d6000803e3d6000fd5b505050506040513d60208110156119e957600080fd5b81019080805190602001909291905050501515611a0557600080fd5b5b620151808302420182600001818152505033826020019073ffffffffffffffffffffffffffffffffffffffff16908173ffffffffffffffffffffffffffffffffffffffff16815250506001600654016006819055508060086000600654815260200190815260200160002060006101000a81548173ffffffffffffffffffffffffffffffffffffffff021916908373ffffffffffffffffffffffffffffffffffffffff16021790555081600960008373ffffffffffffffffffffffffffffffffffffffff1673ffffffffffffffffffffffffffffffffffffffff1681526020019081526020016000206000820151816000015560208201518160010160006101000a81548173ffffffffffffffffffffffffffffffffffffffff021916908373ffffffffffffffffffffffffffffffffffffffff1602179055509050505050505050565b600a60009054906101000a900460ff1681565b600360009054906101000a900473ffffffffffffffffffffffffffffffffffffffff1681565b600a60039054906101000a900460ff1681565b6000600960008373ffffffffffffffffffffffffffffffffffffffff1673ffffffffffffffffffffffffffffffffffffffff1681526020019081526020016000206000015442119050919050565b600081600381101515611bf357fe5b016000915054906101000a900473ffffffffffffffffffffffffffffffffffffffff1681565b604080519081016040528060008152602001600073ffffffffffffffffffffffffffffffffffffffff1681525090565b6040516120cf80611c5a8339019056fe60806040526000600b60016101000a81548160ff0219169083151502179055506000600b60026101000a81548160ff02191690831515021790555034801561004657600080fd5b5060405160c0806120cf833981018060405260c081101561006657600080fd5b81019080805190602001909291908051906020019092919080519060200190929190805190602001909291908051906020019092919080519060200190929190505050856006819055508460078190555083600360006101000a81548173ffffffffffffffffffffffffffffffffffffffff021916908373ffffffffffffffffffffffffffffffffffffffff160217905550826000806101000a81548173ffffffffffffffffffffffffffffffffffffffff021916908373ffffffffffffffffffffffffffffffffffffffff16021790555081600460006101000a81548173ffffffffffffffffffffffffffffffffffffffff021916908373ffffffffffffffffffffffffffffffffffffffff16021790555080600560006101000a81548173ffffffffffffffffffffffffffffffffffffffff021916908373ffffffffffffffffffffffffffffffffffffffff1602179055506001600b60006101000a81548160ff02191690831515021790555082600160006101000a81548173ffffffffffffffffffffffffffffffffffffffff021916908373ffffffffffffffffffffffffffffffffffffffff16021790555042600981905550505050505050611e9d806102326000396000f3fe608060405260043610610168576000357c010000000000000000000000000000000000000000000000000000000090048063b0d31bc8116100d3578063cf444d9b1161008c578063cf444d9b146106a8578063d80cc009146106d7578063d92fe2df146106ee578063ef78d4fd14610705578063f1fffdcb14610730578063f5e3fc301461078757610168565b8063b0d31bc814610587578063b387ef92146105b6578063b3fb9fc71461060d578063b56fb33714610638578063c80bcf2e14610673578063c98166c01461067d57610168565b80635d0a4cde116101255780635d0a4cde146102ff57806376f8dc8e146104845780637c479449146104af5780639068f84a146104da57806391d622b914610505578063b02f0a5a1461055c57610168565b8063070ee0671461016d57806314c68b1b1461019c57806328f402b1146101cb57806335b132f9146102225780634c2067c71461027957806351da2eaa146102a8575b600080fd5b34801561017957600080fd5b506101826107b2565b604051808215151515815260200191505060405180910390f35b3480156101a857600080fd5b506101b16107c9565b604051808215151515815260200191505060405180910390f35b3480156101d757600080fd5b506101e06107dc565b604051808273ffffffffffffffffffffffffffffffffffffffff1673ffffffffffffffffffffffffffffffffffffffff16815260200191505060405180910390f35b34801561022e57600080fd5b50610237610802565b604051808273ffffffffffffffffffffffffffffffffffffffff1673ffffffffffffffffffffffffffffffffffffffff16815260200191505060405180910390f35b34801561028557600080fd5b5061028e610828565b604051808215151515815260200191505060405180910390f35b3480156102b457600080fd5b506102bd61083b565b604051808273ffffffffffffffffffffffffffffffffffffffff1673ffffffffffffffffffffffffffffffffffffffff16815260200191505060405180910390f35b34801561030b57600080fd5b5061046a6004803603608081101561032257600080fd5b810190808035906020019064010000000081111561033f57600080fd5b82018360208201111561035157600080fd5b8035906020019184602083028401116401000000008311171561037357600080fd5b919080806020026020016040519081016040528093929190818152602001838360200280828437600081840152601f19601f820116905080830192505050505050509192919290803590602001906401000000008111156103d357600080fd5b8201836020820111156103e557600080fd5b8035906020019184602083028401116401000000008311171561040757600080fd5b919080806020026020016040519081016040528093929190818152602001838360200280828437600081840152601f19601f8201169050808301925050505050505091929192908035906020019092919080359060200190929190505050610861565b604051808215151515815260200191505060405180910390f35b34801561049057600080fd5b50610499610dda565b6040518082815260200191505060405180910390f35b3480156104bb57600080fd5b506104c4610de4565b6040518082815260200191505060405180910390f35b3480156104e657600080fd5b506104ef610dea565b6040518082815260200191505060405180910390f35b34801561051157600080fd5b5061051a610df0565b604051808273ffffffffffffffffffffffffffffffffffffffff1673ffffffffffffffffffffffffffffffffffffffff16815260200191505060405180910390f35b34801561056857600080fd5b50610571610e16565b6040518082815260200191505060405180910390f35b34801561059357600080fd5b5061059c610e20565b604051808215151515815260200191505060405180910390f35b3480156105c257600080fd5b506105cb610e33565b604051808273ffffffffffffffffffffffffffffffffffffffff1673ffffffffffffffffffffffffffffffffffffffff16815260200191505060405180910390f35b34801561061957600080fd5b50610622610e59565b6040518082815260200191505060405180910390f35b34801561064457600080fd5b506106716004803603602081101561065b57600080fd5b8101908080359060200190929190505050610e63565b005b61067b61112f565b005b34801561068957600080fd5b50610692611623565b6040518082815260200191505060405180910390f35b3480156106b457600080fd5b506106bd611629565b604051808215151515815260200191505060405180910390f35b3480156106e357600080fd5b506106ec6116a5565b005b3480156106fa57600080fd5b506107036119f8565b005b34801561071157600080fd5b5061071a611e1d565b6040518082815260200191505060405180910390f35b34801561073c57600080fd5b50610745611e23565b604051808273ffffffffffffffffffffffffffffffffffffffff1673ffffffffffffffffffffffffffffffffffffffff16815260200191505060405180910390f35b34801561079357600080fd5b5061079c611e48565b6040518082815260200191505060405180910390f35b6000600b60009054906101000a900460ff16905090565b600b60029054906101000a900460ff1681565b600460009054906101000a900473ffffffffffffffffffffffffffffffffffffffff1681565b600260009054906101000a900473ffffffffffffffffffffffffffffffffffffffff1681565b600b60019054906101000a900460ff1681565b600360009054906101000a900473ffffffffffffffffffffffffffffffffffffffff1681565b60008073ffffffffffffffffffffffffffffffffffffffff16600260009054906101000a900473ffffffffffffffffffffffffffffffffffffffff1673ffffffffffffffffffffffffffffffffffffffff16141580156108d8575060003073ffffffffffffffffffffffffffffffffffffffff1631115b15156108e357600080fd5b60011515600b60009054906101000a900460ff16151514151561096e576040517f08c379a000000000000000000000000000000000000000000000000000000000815260040180806020018281038252600c8152602001807f6e6f74206f6e2073746f636b000000000000000000000000000000000000000081525060200191505060405180910390fd5b6000600360009054906101000a900473ffffffffffffffffffffffffffffffffffffffff1673ffffffffffffffffffffffffffffffffffffffff16632537127f6040518163ffffffff167c010000000000000000000000000000000000000000000000000000000002815260040160206040518083038186803b1580156109f457600080fd5b505afa158015610a08573d6000803e3d6000fd5b505050506040513d6020811015610a1e57600080fd5b81019080805190602001909291905050509050617080810342101515610a4357600080fd5b611c206009540142111515610ac0576040517f08c379a00000000000000000000000000000000000000000000000000000000081526004018080602001828103825260208152602001807f63616e6e6f74206368616e6765206f776e65727368697020746f6f20736f6f6e81525060200191505060405180910390fd5b6101f4600854811515610acf57fe5b0460085401600560009054906101000a900473ffffffffffffffffffffffffffffffffffffffff1673ffffffffffffffffffffffffffffffffffffffff1663dd62ed3e33306040518363ffffffff167c0100000000000000000000000000000000000000000000000000000000028152600401808373ffffffffffffffffffffffffffffffffffffffff1673ffffffffffffffffffffffffffffffffffffffff1681526020018273ffffffffffffffffffffffffffffffffffffffff1673ffffffffffffffffffffffffffffffffffffffff1681526020019250505060206040518083038186803b158015610bc357600080fd5b505afa158015610bd7573d6000803e3d6000fd5b505050506040513d6020811015610bed57600080fd5b810190808051906020019092919050505010151515610c0b57600080fd5b6000600160009054906101000a900473ffffffffffffffffffffffffffffffffffffffff1690506000600b60006101000a81548160ff02191690831515021790555033600160006101000a81548173ffffffffffffffffffffffffffffffffffffffff021916908373ffffffffffffffffffffffffffffffffffffffff16021790555042600981905550600560009054906101000a900473ffffffffffffffffffffffffffffffffffffffff1673ffffffffffffffffffffffffffffffffffffffff166323b872dd33836008546040518463ffffffff167c0100000000000000000000000000000000000000000000000000000000028152600401808473ffffffffffffffffffffffffffffffffffffffff1673ffffffffffffffffffffffffffffffffffffffff1681526020018373ffffffffffffffffffffffffffffffffffffffff1673ffffffffffffffffffffffffffffffffffffffff1681526020018281526020019350505050602060405180830381600087803b158015610d9057600080fd5b505af1158015610da4573d6000803e3d6000fd5b505050506040513d6020811015610dba57600080fd5b810190808051906020019092919050505050600192505050949350505050565b6000600854905090565b60085481565b60075481565b600560009054906101000a900473ffffffffffffffffffffffffffffffffffffffff1681565b6000600654905090565b600b60009054906101000a900460ff1681565b600160009054906101000a900473ffffffffffffffffffffffffffffffffffffffff1681565b6000600754905090565b600073ffffffffffffffffffffffffffffffffffffffff16600260009054906101000a900473ffffffffffffffffffffffffffffffffffffffff1673ffffffffffffffffffffffffffffffffffffffff1614158015610ed9575060003073ffffffffffffffffffffffffffffffffffffffff1631115b1515610ee457600080fd5b600160009054906101000a900473ffffffffffffffffffffffffffffffffffffffff1673ffffffffffffffffffffffffffffffffffffffff163373ffffffffffffffffffffffffffffffffffffffff16141515610fa9576040517f08c379a00000000000000000000000000000000000000000000000000000000081526004018080602001828103825260098152602001807f6e6f74206f776e6572000000000000000000000000000000000000000000000081525060200191505060405180910390fd5b6000600360009054906101000a900473ffffffffffffffffffffffffffffffffffffffff1673ffffffffffffffffffffffffffffffffffffffff16632537127f6040518163ffffffff167c010000000000000000000000000000000000000000000000000000000002815260040160206040518083038186803b15801561102f57600080fd5b505afa158015611043573d6000803e3d6000fd5b505050506040513d602081101561105957600080fd5b8101908080519060200190929190505050905061708081034210151561107e57600080fd5b60001515600b60009054906101000a900460ff161515141515611109576040517f08c379a000000000000000000000000000000000000000000000000000000000815260040180806020018281038252601a8152602001807f63616e206f6e6c7920707574206f6e2053746f636b206f6e636500000000000081525060200191505060405180910390fd5b6001600b60006101000a81548160ff021916908315150217905550816008819055505050565b60001515600360009054906101000a900473ffffffffffffffffffffffffffffffffffffffff1673ffffffffffffffffffffffffffffffffffffffff1663ba2eb541306040518263ffffffff167c0100000000000000000000000000000000000000000000000000000000028152600401808273ffffffffffffffffffffffffffffffffffffffff1673ffffffffffffffffffffffffffffffffffffffff16815260200191505060206040518083038186803b1580156111ee57600080fd5b505afa158015611202573d6000803e3d6000fd5b505050506040513d602081101561121857600080fd5b810190808051906020019092919050505015151415156112a0576040517f08c379a00000000000000000000000000000000000000000000000000000000081526004018080602001828103825260118152602001807f6e6f772063616e2065786365726369736500000000000000000000000000000081525060200191505060405180910390fd5b600073ffffffffffffffffffffffffffffffffffffffff16600260009054906101000a900473ffffffffffffffffffffffffffffffffffffffff1673ffffffffffffffffffffffffffffffffffffffff16141515611366576040517f08c379a00000000000000000000000000000000000000000000000000000000081526004018080602001828103825260178152602001807f6f74686572732066696c6c2045544820616c726561647900000000000000000081525060200191505060405180910390fd5b600654341415156113c2576040517f08c379a0000000000000000000000000000000000000000000000000000000008152600401808060200182810382526023815260200180611e4f6023913960400191505060405180910390fd5b600360009054906101000a900473ffffffffffffffffffffffffffffffffffffffff1673ffffffffffffffffffffffffffffffffffffffff166310bbc68a6040518163ffffffff167c010000000000000000000000000000000000000000000000000000000002815260040160206040518083038186803b15801561144657600080fd5b505afa15801561145a573d6000803e3d6000fd5b505050506040513d602081101561147057600080fd5b810190808051906020019092919050505060088190555033600260006101000a81548173ffffffffffffffffffffffffffffffffffffffff021916908373ffffffffffffffffffffffffffffffffffffffff160217905550426009819055506000600b60006101000a81548160ff021916908315150217905550600560009054906101000a900473ffffffffffffffffffffffffffffffffffffffff1673ffffffffffffffffffffffffffffffffffffffff166323b872dd30336008546040518463ffffffff167c0100000000000000000000000000000000000000000000000000000000028152600401808473ffffffffffffffffffffffffffffffffffffffff1673ffffffffffffffffffffffffffffffffffffffff1681526020018373ffffffffffffffffffffffffffffffffffffffff1673ffffffffffffffffffffffffffffffffffffffff1681526020018281526020019350505050602060405180830381600087803b1580156115e557600080fd5b505af11580156115f9573d6000803e3d6000fd5b505050506040513d602081101561160f57600080fd5b810190808051906020019092919050505050565b60065481565b60008073ffffffffffffffffffffffffffffffffffffffff16600260009054906101000a900473ffffffffffffffffffffffffffffffffffffffff1673ffffffffffffffffffffffffffffffffffffffff16141580156116a0575060003073ffffffffffffffffffffffffffffffffffffffff1631115b905090565b60011515600360009054906101000a900473ffffffffffffffffffffffffffffffffffffffff1673ffffffffffffffffffffffffffffffffffffffff1663ba2eb541306040518263ffffffff167c0100000000000000000000000000000000000000000000000000000000028152600401808273ffffffffffffffffffffffffffffffffffffffff1673ffffffffffffffffffffffffffffffffffffffff16815260200191505060206040518083038186803b15801561176457600080fd5b505afa158015611778573d6000803e3d6000fd5b505050506040513d602081101561178e57600080fd5b81019080805190602001909291905050501515141515611816576040517f08c379a00000000000000000000000000000000000000000000000000000000081526004018080602001828103825260178152602001807f63616e206e6f206c6f6e6765722065786365726369736500000000000000000081525060200191505060405180910390fd5b600260009054906101000a900473ffffffffffffffffffffffffffffffffffffffff1673ffffffffffffffffffffffffffffffffffffffff163373ffffffffffffffffffffffffffffffffffffffff161415156118db576040517f08c379a000000000000000000000000000000000000000000000000000000000815260040180806020018281038252601a8152602001807f6f6e6c792065746853656c6c65722063616e2063616c6c20697400000000000081525060200191505060405180910390fd5b60001515600b60029054906101000a900460ff161515141515611966576040517f08c379a00000000000000000000000000000000000000000000000000000000081526004018080602001828103825260118152602001807f616c72656164792065786572636973656400000000000000000000000000000081525060200191505060405180910390fd5b6000600b60006101000a81548160ff0219169083151502179055503373ffffffffffffffffffffffffffffffffffffffff166108fc3073ffffffffffffffffffffffffffffffffffffffff16319081150290604051600060405180830381858888f193505050501580156119de573d6000803e3d6000fd5b503373ffffffffffffffffffffffffffffffffffffffff16ff5b600160009054906101000a900473ffffffffffffffffffffffffffffffffffffffff1673ffffffffffffffffffffffffffffffffffffffff163373ffffffffffffffffffffffffffffffffffffffff16141515611abd576040517f08c379a00000000000000000000000000000000000000000000000000000000081526004018080602001828103825260098152602001807f6e6f74206f776e6572000000000000000000000000000000000000000000000081525060200191505060405180910390fd5b6000600360009054906101000a900473ffffffffffffffffffffffffffffffffffffffff1673ffffffffffffffffffffffffffffffffffffffff16632537127f6040518163ffffffff167c010000000000000000000000000000000000000000000000000000000002815260040160206040518083038186803b158015611b4357600080fd5b505afa158015611b57573d6000803e3d6000fd5b505050506040513d6020811015611b6d57600080fd5b8101908080519060200190929190505050905060001515600b60009054906101000a900460ff161515148015611ba257508042105b80611bbc575061708081034210158015611bbb57508042105b5b1515611bc757600080fd5b611c206009540142111515611c1f576040517f08c379a0000000000000000000000000000000000000000000000000000000008152600401808060200182810382526000815260200160200191505060405180910390fd5b60001515600b60009054906101000a905050506001600b60026101000a81548160ff021916908315150217905550600560009054906101000a900473ffffffffffffffffffffffffffffffffffffffff1673ffffffffffffffffffffffffffffffffffffffff166323b872dd33600260009054906101000a900473ffffffffffffffffffffffffffffffffffffffff166007546040518463ffffffff167c0100000000000000000000000000000000000000000000000000000000028152600401808473ffffffffffffffffffffffffffffffffffffffff1673ffffffffffffffffffffffffffffffffffffffff1681526020018373ffffffffffffffffffffffffffffffffffffffff1673ffffffffffffffffffffffffffffffffffffffff1681526020018281526020019350505050602060405180830381600087803b158015611d6a57600080fd5b505af1158015611d7e573d6000803e3d6000fd5b505050506040513d6020811015611d9457600080fd5b8101908080519060200190929190505050503373ffffffffffffffffffffffffffffffffffffffff166108fc3073ffffffffffffffffffffffffffffffffffffffff16319081150290604051600060405180830381858888f19350505050158015611e03573d6000803e3d6000fd5b503373ffffffffffffffffffffffffffffffffffffffff16ff5b600a5481565b6000809054906101000a900473ffffffffffffffffffffffffffffffffffffffff1681565b6009548156fe6e65656420746f206465706f73697420657861637420616d6f756e74206f6620455448a165627a7a723058202d8f91176480aeaebeb7d2387a3f8d8edd3275fdede12d2380e943274cf96c490029a165627a7a72305820d572a819f7ef1939ff1c664d1e21c9b7e485f14ae1e6091985b92b45662beeb90029",
  "source": "pragma solidity ^0.5.2;\n\nimport \"./ERC20.sol\";\nimport \"./Optract.sol\";\n//import \"./SafeMath.sol\";\n\ncontract OptractRegistry { // PoC ETH-DAI Optract\n\taddress[3] public operators;\n\taddress public currencyTokenAddr; // presumably 'DAI'\n\taddress public blkAddr; // side-chain merkle records\n\tuint public initialPayment = 5000000000000000000; // 5 DAIs\n\tuint public totalOpts = 0;\n\tbool public paused = false;\n\n\tstruct optractRecord {\n\t\tuint expiredTime; // timestamp\n\t\taddress initialOwner; \n\t}\n\n\tmapping (uint => address) optractRecordsByIndex;\n\tmapping (address => optractRecord) optractRecordsByAddress;\n\n\t// Modifiers\n\tmodifier operatorOnly() {\n\t\trequire(msg.sender == operators[0] || msg.sender == operators[1] || msg.sender == operators[2]);\n\t\t_;\n\t}\n\n\tmodifier notPaused() {\n\t\trequire(paused == false);\n\t\t_;\n\t}\n\n\t// Constructor\n\tconstructor(address _currencyTokenAddr) public {\n\t\toperators[0] = msg.sender;\n\t\tcurrencyTokenAddr = _currencyTokenAddr;\n\t}\n\n        bool public debug1 = true;\n        bool public debug2 = true;\n        bool public debug3 = true;\n        bool public debug4 = true;\n        function setDebugParams(bool _debug1, bool _debug2, bool _debug3, bool _debug4) public {\n                debug1 = _debug1;\n                debug2 = _debug2;\n                debug3 = _debug3;\n                debug4 = _debug4;\n        }\n\n\tfunction createOptract(uint256 ETHAmount, uint256 totalPrice, uint period) external notPaused {\n\t        if (debug1){\n                    require(ERC20(currencyTokenAddr).allowance(msg.sender, address(this)) >= initialPayment);\n                }\n                if (debug2){\n                    require(period * 1 days >= 30 days && period * 1 days <= 365 days);\n                }\n                if (debug3){\n                    require(ETHAmount >= 3 ether);\n                }\n\n\t\toptractRecord memory optRcd;\n                Optract opt = new Optract(ETHAmount, totalPrice, address(this), msg.sender, blkAddr, currencyTokenAddr);\n\n                if (debug4) {\n                    require(ERC20(currencyTokenAddr).transferFrom(msg.sender, address(opt), initialPayment));\n                }\n\n                optRcd.expiredTime = block.timestamp + period * 1 days;\n                optRcd.initialOwner = msg.sender;\n\n                totalOpts = totalOpts + 1;\n                optractRecordsByIndex[totalOpts] = address(opt); // mapping start from uint key = 1\n                optractRecordsByAddress[address(opt)] = optRcd;\n\t}\n\n\t// Constant functions\n\tfunction queryInitPrice() public view returns (uint) { \n\t\treturn initialPayment; \n\t}\n\n\tfunction isExpired(address optractAddress) public view returns (bool) {\n\t\treturn block.timestamp > optractRecordsByAddress[optractAddress].expiredTime;\n\t}\n\n\tfunction getExpireTime() public view returns (uint) {\n\t\trequire(optractRecordsByAddress[msg.sender].expiredTime >= block.timestamp);\n\t\trequire(optractRecordsByAddress[msg.sender].initialOwner != address(0));\n\n\t\treturn optractRecordsByAddress[msg.sender].expiredTime;\n\t}\n\n\tfunction activeOptracts(uint start, uint length, address owner) public view returns (\n\t\taddress[] memory,\n\t\t   uint[] memory,\n\t\t   uint[] memory,\n\t\t   uint[] memory,\n\t\t   uint[] memory )\n\t\t   // bool[] memory )\n\t{\n\t\trequire(start > 0 && length > 0);\n\t\trequire(totalOpts > 0 && totalOpts >= start);\n\n\t\tif (start + length - 1 > totalOpts) {\n\t\t\tlength = totalOpts - start + 1;\n\t\t}\n\n\t\taddress[] memory addrlist = new address[](length);\n\t\tuint[] memory expTimeList= new uint[](length);\n\t\tuint[] memory priceList = new uint[](length);\n\t\tuint[] memory ETHList = new uint[](length);\n\t\tuint[] memory opriceList = new uint[](length);\n\t\t// bool[] memory filled = new bool[](length);\n\n\t\tif (owner == address(0)) { // list all orders\n\t\t\tfor (uint i = start; i <= start + length - 1; i++) {\n\t\t\t\t// address optAddr = optractRecordsByIndex[i];\n\t\t\t\tif (Optract(optractRecordsByIndex[i]).queryOnStock() == false || optractRecordsByAddress[optractRecordsByIndex[i]].expiredTime - 8 hours <= block.timestamp) continue;\n\t\n\t\t\t\t// if (optractRecordsByIndex[i].balance == Optract(optractRecordsByIndex[i]).queryOrderSize()) {\n\t\t\t\t// \tfilled[i-start] = true;\n\t\t\t\t// } else {\n\t\t\t\t// \tfilled[i-start] = false;\n\t\t\t\t// }\n\t\n\t\t\t\taddrlist[i-start] = optractRecordsByIndex[i];\n\t\t\t\texpTimeList[i-start] = optractRecordsByAddress[optractRecordsByIndex[i]].expiredTime;\n\t\t\t\tpriceList[i-start] = Optract(optractRecordsByIndex[i]).queryOrderPrice();\n\t\t\t\tETHList[i-start] = Optract(optractRecordsByIndex[i]).queryOrderSize();\n\t\t\t\topriceList[i-start] = Optract(optractRecordsByIndex[i]).queryOptionPrice();\n\t\t\t}\n\t\t} else { // list only those initialized by owner\n\t\t\tfor (uint i = start; i <= start + length - 1; i++) {\n\t\t\t\t// address optAddr = optractRecordsByIndex[i];\n\t\t\t\tif (optractRecordsByAddress[optractRecordsByIndex[i]].initialOwner != owner) continue;\n\t\t\t\tif (Optract(optractRecordsByIndex[i]).queryOnStock() == false || optractRecordsByAddress[optractRecordsByIndex[i]].expiredTime - 8 hours <= block.timestamp) continue;\n\t\n\t\t\t\t// if (optractRecordsByIndex[i].balance == Optract(optractRecordsByIndex[i]).queryOrderSize()) {\n\t\t\t\t// \tfilled[i-start] = true;\n\t\t\t\t// } else {\n\t\t\t\t// \tfilled[i-start] = false;\n\t\t\t\t// }\n\t\n\t\t\t\taddrlist[i-start] = optractRecordsByIndex[i];\n\t\t\t\texpTimeList[i-start] = optractRecordsByAddress[optractRecordsByIndex[i]].expiredTime;\n\t\t\t\tpriceList[i-start] = Optract(optractRecordsByIndex[i]).queryOrderPrice();\n\t\t\t\tETHList[i-start] = Optract(optractRecordsByIndex[i]).queryOrderSize();\n\t\t\t\topriceList[i-start] = Optract(optractRecordsByIndex[i]).queryOptionPrice();\n\t\t\t}\n\t\t}\n\n\t\treturn (addrlist, expTimeList, priceList, ETHList, opriceList);\n\t\t// return (addrlist, expTimeList, priceList, ETHList, opriceList, filled);\n\t\t// return (addrlist, expTimeList, priceList, ETHList, filled);\n\t}\n}\n",
  "sourcePath": "/home/kai/Work/project/Optract/contracts/OptractRegistry.sol",
  "compiler": {
    "name": "solc",
    "version": "0.5.2+commit.1df8f40c.Linux.g++"
  },
  "schemaVersion": "3.0.1",
  "updatedAt": "2019-02-27T22:02:19.042Z",
  "devdoc": {
    "methods": {}
  },
  "userdoc": {
    "methods": {}
  }
}