{
  "contractName": "OptractRegistry",
  "abi": [
    {
      "constant": true,
      "inputs": [],
      "name": "totalOpts",
      "outputs": [
        {
          "name": "",
          "type": "uint256"
        }
      ],
      "payable": false,
      "stateMutability": "view",
      "type": "function",
      "signature": "0x14eb3037"
    },
    {
      "constant": true,
      "inputs": [],
      "name": "initialPayment",
      "outputs": [
        {
          "name": "",
          "type": "uint256"
        }
      ],
      "payable": false,
      "stateMutability": "view",
      "type": "function",
      "signature": "0x2199a57d"
    },
    {
      "constant": true,
      "inputs": [],
      "name": "blkAddr",
      "outputs": [
        {
          "name": "",
          "type": "address"
        }
      ],
      "payable": false,
      "stateMutability": "view",
      "type": "function",
      "signature": "0x28f402b1"
    },
    {
      "constant": true,
      "inputs": [],
      "name": "paused",
      "outputs": [
        {
          "name": "",
          "type": "bool"
        }
      ],
      "payable": false,
      "stateMutability": "view",
      "type": "function",
      "signature": "0x5c975abb"
    },
    {
      "constant": true,
      "inputs": [],
      "name": "currencyTokenAddr",
      "outputs": [
        {
          "name": "",
          "type": "address"
        }
      ],
      "payable": false,
      "stateMutability": "view",
      "type": "function",
      "signature": "0x91d622b9"
    },
    {
      "constant": true,
      "inputs": [
        {
          "name": "",
          "type": "uint256"
        }
      ],
      "name": "operators",
      "outputs": [
        {
          "name": "",
          "type": "address"
        }
      ],
      "payable": false,
      "stateMutability": "view",
      "type": "function",
      "signature": "0xe28d4906"
    },
    {
      "inputs": [
        {
          "name": "_currencyTokenAddr",
          "type": "address"
        }
      ],
      "payable": false,
      "stateMutability": "nonpayable",
      "type": "constructor",
      "signature": "constructor"
    },
    {
      "constant": false,
      "inputs": [
        {
          "name": "ETHAmount",
          "type": "uint256"
        },
        {
          "name": "totalPrice",
          "type": "uint256"
        },
        {
          "name": "period",
          "type": "uint256"
        }
      ],
      "name": "createOptract",
      "outputs": [],
      "payable": false,
      "stateMutability": "nonpayable",
      "type": "function",
      "signature": "0x6e9a01a2"
    },
    {
      "constant": false,
      "inputs": [],
      "name": "destructRecord",
      "outputs": [],
      "payable": false,
      "stateMutability": "nonpayable",
      "type": "function",
      "signature": "0x99691650"
    },
    {
      "constant": true,
      "inputs": [],
      "name": "queryInitPrice",
      "outputs": [
        {
          "name": "",
          "type": "uint256"
        }
      ],
      "payable": false,
      "stateMutability": "view",
      "type": "function",
      "signature": "0x10bbc68a"
    },
    {
      "constant": true,
      "inputs": [
        {
          "name": "optractAddress",
          "type": "address"
        }
      ],
      "name": "isExpired",
      "outputs": [
        {
          "name": "",
          "type": "bool"
        }
      ],
      "payable": false,
      "stateMutability": "view",
      "type": "function",
      "signature": "0xba2eb541"
    },
    {
      "constant": true,
      "inputs": [],
      "name": "getExpireTime",
      "outputs": [
        {
          "name": "",
          "type": "uint256"
        }
      ],
      "payable": false,
      "stateMutability": "view",
      "type": "function",
      "signature": "0x2537127f"
    },
    {
      "constant": true,
      "inputs": [
        {
          "name": "start",
          "type": "uint256"
        },
        {
          "name": "length",
          "type": "uint256"
        },
        {
          "name": "owner",
          "type": "address"
        }
      ],
      "name": "_getNumOfActiveOptracts",
      "outputs": [
        {
          "name": "",
          "type": "uint256"
        }
      ],
      "payable": false,
      "stateMutability": "view",
      "type": "function",
      "signature": "0x61605f09"
    },
    {
      "constant": true,
      "inputs": [
        {
          "name": "start",
          "type": "uint256"
        },
        {
          "name": "length",
          "type": "uint256"
        },
        {
          "name": "owner",
          "type": "address"
        },
        {
          "name": "_idx",
          "type": "uint8"
        }
      ],
      "name": "activeOptractsLoop",
      "outputs": [
        {
          "name": "",
          "type": "uint256[]"
        }
      ],
      "payable": false,
      "stateMutability": "view",
      "type": "function",
      "signature": "0x3b47ea04"
    },
    {
      "constant": true,
      "inputs": [
        {
          "name": "start",
          "type": "uint256"
        },
        {
          "name": "length",
          "type": "uint256"
        },
        {
          "name": "owner",
          "type": "address"
        }
      ],
      "name": "activeOptractsFilledStatus",
      "outputs": [
        {
          "name": "",
          "type": "address[]"
        },
        {
          "name": "",
          "type": "bool[]"
        }
      ],
      "payable": false,
      "stateMutability": "view",
      "type": "function",
      "signature": "0x4b140961"
    },
    {
      "constant": true,
      "inputs": [
        {
          "name": "start",
          "type": "uint256"
        },
        {
          "name": "length",
          "type": "uint256"
        },
        {
          "name": "owner",
          "type": "address"
        }
      ],
      "name": "activeOptracts",
      "outputs": [
        {
          "name": "",
          "type": "address[]"
        },
        {
          "name": "",
          "type": "uint256[]"
        },
        {
          "name": "",
          "type": "uint256[]"
        },
        {
          "name": "",
          "type": "uint256[]"
        },
        {
          "name": "",
          "type": "uint256[]"
        },
        {
          "name": "",
          "type": "bool[]"
        }
      ],
      "payable": false,
      "stateMutability": "view",
      "type": "function",
      "signature": "0x6769f438"
    },
    {
      "constant": true,
      "inputs": [
        {
          "name": "start",
          "type": "uint256"
        },
        {
          "name": "length",
          "type": "uint256"
        },
        {
          "name": "owner",
          "type": "address"
        }
      ],
      "name": "_getNumOfInActiveOptracts",
      "outputs": [
        {
          "name": "",
          "type": "uint256"
        }
      ],
      "payable": false,
      "stateMutability": "view",
      "type": "function",
      "signature": "0x69edcbdc"
    },
    {
      "constant": true,
      "inputs": [
        {
          "name": "start",
          "type": "uint256"
        },
        {
          "name": "length",
          "type": "uint256"
        },
        {
          "name": "owner",
          "type": "address"
        },
        {
          "name": "_idx",
          "type": "uint8"
        }
      ],
      "name": "inactiveOptractsLoop",
      "outputs": [
        {
          "name": "",
          "type": "uint256[]"
        }
      ],
      "payable": false,
      "stateMutability": "view",
      "type": "function",
      "signature": "0xdac717e2"
    },
    {
      "constant": true,
      "inputs": [
        {
          "name": "start",
          "type": "uint256"
        },
        {
          "name": "length",
          "type": "uint256"
        },
        {
          "name": "owner",
          "type": "address"
        }
      ],
      "name": "inactiveOptractsFilledStatus",
      "outputs": [
        {
          "name": "",
          "type": "address[]"
        },
        {
          "name": "",
          "type": "bool[]"
        }
      ],
      "payable": false,
      "stateMutability": "view",
      "type": "function",
      "signature": "0xb7233fa5"
    },
    {
      "constant": true,
      "inputs": [
        {
          "name": "start",
          "type": "uint256"
        },
        {
          "name": "length",
          "type": "uint256"
        },
        {
          "name": "owner",
          "type": "address"
        }
      ],
      "name": "inactiveOptracts",
      "outputs": [
        {
          "name": "",
          "type": "address[]"
        },
        {
          "name": "",
          "type": "uint256[]"
        },
        {
          "name": "",
          "type": "uint256[]"
        },
        {
          "name": "",
          "type": "uint256[]"
        },
        {
          "name": "",
          "type": "uint256[]"
        },
        {
          "name": "",
          "type": "bool[]"
        }
      ],
      "payable": false,
      "stateMutability": "view",
      "type": "function",
      "signature": "0x26b057ad"
    }
  ],
  "bytecode": "0x6080604052674563918244f4000060055560006006556007805460ff1916905534801561002b57600080fd5b50604051602080613e538339810180604052602081101561004b57600080fd5b505160008054600160a060020a03199081163317825560038054909116600160a060020a0390931692909217909155613dc990819061008a90396000f3fe608060405234801561001057600080fd5b50600436106101255760003560e060020a9004806361605f09116100b15780639969165011610075578063996916501461059a578063b7233fa5146105a2578063ba2eb541146105d4578063dac717e2146105fa578063e28d49061461063557610125565b806361605f09146104d15780636769f4381461050357806369edcbdc146105355780636e9a01a21461056757806391d622b91461059257610125565b806326b057ad116100f857806326b057ad1461015c57806328f402b11461033b5780633b47ea041461035f5780634b140961146103ea5780635c975abb146104b557610125565b806310bbc68a1461012a57806314eb3037146101445780632199a57d1461014c5780632537127f14610154575b600080fd5b610132610652565b60408051918252519081900360200190f35b610132610658565b61013261065e565b610132610664565b61018e6004803603606081101561017257600080fd5b5080359060208101359060400135600160a060020a03166106c1565b6040518080602001806020018060200180602001806020018060200187810387528d818151815260200191508051906020019060200280838360005b838110156101e25781810151838201526020016101ca565b5050505090500187810386528c818151815260200191508051906020019060200280838360005b83811015610221578181015183820152602001610209565b5050505090500187810385528b818151815260200191508051906020019060200280838360005b83811015610260578181015183820152602001610248565b5050505090500187810384528a818151815260200191508051906020019060200280838360005b8381101561029f578181015183820152602001610287565b50505050905001878103835289818151815260200191508051906020019060200280838360005b838110156102de5781810151838201526020016102c6565b50505050905001878103825288818151815260200191508051906020019060200280838360005b8381101561031d578181015183820152602001610305565b505050509050019c5050505050505050505050505060405180910390f35b6103436108da565b60408051600160a060020a039092168252519081900360200190f35b61039a6004803603608081101561037557600080fd5b508035906020810135906040810135600160a060020a0316906060013560ff166108e9565b60408051602080825283518183015283519192839290830191858101910280838360005b838110156103d65781810151838201526020016103be565b505050509050019250505060405180910390f35b61041c6004803603606081101561040057600080fd5b5080359060208101359060400135600160a060020a0316610fbd565b604051808060200180602001838103835285818151815260200191508051906020019060200280838360005b83811015610460578181015183820152602001610448565b50505050905001838103825284818151815260200191508051906020019060200280838360005b8381101561049f578181015183820152602001610487565b5050505090500194505050505060405180910390f35b6104bd61140c565b604080519115158252519081900360200190f35b610132600480360360608110156104e757600080fd5b5080359060208101359060400135600160a060020a0316611415565b61018e6004803603606081101561051957600080fd5b5080359060208101359060400135600160a060020a031661164e565b6101326004803603606081101561054b57600080fd5b5080359060208101359060400135600160a060020a0316611848565b6105906004803603606081101561057d57600080fd5b5080359060208101359060400135611a68565b005b610343611d17565b610590611d26565b61041c600480360360608110156105b857600080fd5b5080359060208101359060400135600160a060020a0316611e1e565b6104bd600480360360208110156105ea57600080fd5b5035600160a060020a031661225d565b61039a6004803603608081101561061057600080fd5b508035906020810135906040810135600160a060020a0316906060013560ff1661227d565b6103436004803603602081101561064b57600080fd5b5035612942565b60055490565b60065481565b60055481565b3360009081526009602052604081206001015442111561068357600080fd5b33600090815260096020526040902060020154600160a060020a031615156106aa57600080fd5b503360009081526009602052604090206001015490565b6060806060806060806000891180156106da5750600088115b15156106e557600080fd5b60006006541180156106f957508860065410155b151561070457600080fd5b6006546001898b0103111561071e57886006540360010197505b606061072b8a8a8a611848565b604051908082528060200260200182016040528015610754578160200160208202803883390190505b50905060606107648b8b8b611848565b60405190808252806020026020018201604052801561078d578160200160208202803883390190505b509050606061079d8c8c8c611848565b6040519080825280602002602001820160405280156107c6578160200160208202803883390190505b50905060606107d68d8d8d611848565b6040519080825280602002602001820160405280156107ff578160200160208202803883390190505b509050606061080f8e8e8e611848565b604051908082528060200260200182016040528015610838578160200160208202803883390190505b50905060606108488f8f8f611848565b604051908082528060200260200182016040528015610871578160200160208202803883390190505b5090506108818f8f8f600161227d565b94506108908f8f8f600261227d565b935061089f8f8f8f600361227d565b92506108ae8f8f8f600461227d565b91506108bb8f8f8f611e1e565b909c50949a509298509096509450909250505093975093979195509350565b600454600160a060020a031681565b606060018260ff1610158015610903575060048260ff1611155b151561097057604080517f08c379a000000000000000000000000000000000000000000000000000000000815260206004820152601f60248201527f756e6b6e6f776e206f7074726163742063686172616374657269737469637300604482015290519081900360640190fd5b600654600185870103111561098a57846006540360010193505b6000610997868686611415565b90506060816040519080825280602002602001820160405280156109c5578160200160208202803883390190505b5090506000600160a060020a0386161515610caa57875b600019898901018111610ca45760008181526008602090815260409182902054825160e060020a63070ee0670281529251600160a060020a039091169263070ee067926004808301939192829003018186803b158015610a3b57600080fd5b505afa158015610a4f573d6000803e3d6000fd5b505050506040513d6020811015610a6557600080fd5b50511580610aa15750600081815260086020908152604080832054600160a060020a0316835260099091529020600101544261707f1990910111155b15610aab57610c9c565b8560ff1660011415610afc57600081815260086020908152604080832054600160a060020a0316835260099091529020600101548351849084908110610aed57fe5b60209081029091010152610c95565b8560ff1660021415610b945760008181526008602090815260409182902054825160e060020a63b3fb9fc70281529251600160a060020a039091169263b3fb9fc7926004808301939192829003018186803b158015610b5a57600080fd5b505afa158015610b6e573d6000803e3d6000fd5b505050506040513d6020811015610b8457600080fd5b50518351849084908110610aed57fe5b8560ff1660031415610bf25760008181526008602090815260409182902054825160e160020a635817852d0281529251600160a060020a039091169263b02f0a5a926004808301939192829003018186803b158015610b5a57600080fd5b8560ff1660041415610c955760008181526008602090815260409182902054825160e160020a633b7c6e470281529251600160a060020a03909116926376f8dc8e926004808301939192829003018186803b158015610c5057600080fd5b505afa158015610c64573d6000803e3d6000fd5b505050506040513d6020811015610c7a57600080fd5b50518351849084908110610c8a57fe5b602090810290910101525b6001820191505b6001016109dc565b50610fb0565b875b600019898901018111610fae57600081815260086020908152604080832054600160a060020a039081168452600990925290912060020154811690881614610cf357610fa6565b60008181526008602090815260409182902054825160e060020a63070ee0670281529251600160a060020a039091169263070ee067926004808301939192829003018186803b158015610d4557600080fd5b505afa158015610d59573d6000803e3d6000fd5b505050506040513d6020811015610d6f57600080fd5b50511580610dab5750600081815260086020908152604080832054600160a060020a0316835260099091529020600101544261707f1990910111155b15610db557610fa6565b8560ff1660011415610e0657600081815260086020908152604080832054600160a060020a0316835260099091529020600101548351849084908110610df757fe5b60209081029091010152610f9f565b8560ff1660021415610e9e5760008181526008602090815260409182902054825160e060020a63b3fb9fc70281529251600160a060020a039091169263b3fb9fc7926004808301939192829003018186803b158015610e6457600080fd5b505afa158015610e78573d6000803e3d6000fd5b505050506040513d6020811015610e8e57600080fd5b50518351849084908110610df757fe5b8560ff1660031415610efc5760008181526008602090815260409182902054825160e160020a635817852d0281529251600160a060020a039091169263b02f0a5a926004808301939192829003018186803b158015610e6457600080fd5b8560ff1660041415610f9f5760008181526008602090815260409182902054825160e160020a633b7c6e470281529251600160a060020a03909116926376f8dc8e926004808301939192829003018186803b158015610f5a57600080fd5b505afa158015610f6e573d6000803e3d6000fd5b505050506040513d6020811015610f8457600080fd5b50518351849084908110610f9457fe5b602090810290910101525b6001820191505b600101610cac565b505b509150505b949350505050565b6060806006546001858701031115610fda57846006540360010193505b6000610fe7868686611415565b9050606081604051908082528060200260200182016040528015611015578160200160208202803883390190505b509050606082604051908082528060200260200182016040528015611044578160200160208202803883390190505b5090506000600160a060020a038716151561121957885b6000198a8a010181116112135760008181526008602090815260409182902054825160e060020a63070ee0670281529251600160a060020a0390911692839263070ee06792600480840193829003018186803b1580156110ba57600080fd5b505afa1580156110ce573d6000803e3d6000fd5b505050506040513d60208110156110e457600080fd5b505115806111145750600160a060020a0381166000908152600960205260409020600101544261707f1990910111155b1561111f575061120b565b80600160a060020a031663b02f0a5a6040518163ffffffff1660e060020a02815260040160206040518083038186803b15801561115b57600080fd5b505afa15801561116f573d6000803e3d6000fd5b505050506040513d602081101561118557600080fd5b5051600160a060020a0382163114156111bc57600184848151811015156111a857fe5b9115156020928302909101909101526111dc565b600084848151811015156111cc57fe5b9115156020928302909101909101525b8085848151811015156111eb57fe5b600160a060020a0390921660209283029091019091015250600191909101905b60010161105b565b506113fc565b885b6000198a8a010181116113fa57600081815260086020908152604080832054600160a060020a03908116808552600990935292206002015490918a811691161461126557506113f2565b80600160a060020a031663070ee0676040518163ffffffff1660e060020a02815260040160206040518083038186803b1580156112a157600080fd5b505afa1580156112b5573d6000803e3d6000fd5b505050506040513d60208110156112cb57600080fd5b505115806112fb5750600160a060020a0381166000908152600960205260409020600101544261707f1990910111155b1561130657506113f2565b80600160a060020a031663b02f0a5a6040518163ffffffff1660e060020a02815260040160206040518083038186803b15801561134257600080fd5b505afa158015611356573d6000803e3d6000fd5b505050506040513d602081101561136c57600080fd5b5051600160a060020a0382163114156113a3576001848481518110151561138f57fe5b9115156020928302909101909101526113c3565b600084848151811015156113b357fe5b9115156020928302909101909101525b8085848151811015156113d257fe5b600160a060020a0390921660209283029091019091015250600191909101905b60010161121b565b505b509093509150505b935093915050565b60075460ff1681565b600654600090819060001986860101111561143557846006540360010193505b600160a060020a038316151561152b57845b6000198686010181116115255760008181526008602090815260409182902054825160e060020a63070ee0670281529251600160a060020a039091169263070ee067926004808301939192829003018186803b1580156114a657600080fd5b505afa1580156114ba573d6000803e3d6000fd5b505050506040513d60208110156114d057600080fd5b5051158061150c5750600081815260086020908152604080832054600160a060020a0316835260099091529020600101544261707f1990910111155b156115165761151d565b8160010191505b600101611447565b50610fb5565b845b60001986860101811161164557600081815260086020908152604080832054600160a060020a0390811684526009909252909120600201548116908516146115745761163d565b60008181526008602090815260409182902054825160e060020a63070ee0670281529251600160a060020a039091169263070ee067926004808301939192829003018186803b1580156115c657600080fd5b505afa1580156115da573d6000803e3d6000fd5b505050506040513d60208110156115f057600080fd5b5051158061162c5750600081815260086020908152604080832054600160a060020a0316835260099091529020600101544261707f1990910111155b156116365761163d565b8160010191505b60010161152d565b50949350505050565b6060806060806060806000891180156116675750600088115b151561167257600080fd5b600060065411801561168657508860065410155b151561169157600080fd5b6006546001898b010311156116ab57886006540360010197505b60606116b88a8a8a611415565b6040519080825280602002602001820160405280156116e1578160200160208202803883390190505b50905060606116f18b8b8b611415565b60405190808252806020026020018201604052801561171a578160200160208202803883390190505b509050606061172a8c8c8c611415565b604051908082528060200260200182016040528015611753578160200160208202803883390190505b50905060606117638d8d8d611415565b60405190808252806020026020018201604052801561178c578160200160208202803883390190505b509050606061179c8e8e8e611415565b6040519080825280602002602001820160405280156117c5578160200160208202803883390190505b50905060606117d58f8f8f611415565b6040519080825280602002602001820160405280156117fe578160200160208202803883390190505b50905061180e8f8f8f60016108e9565b945061181d8f8f8f60026108e9565b935061182c8f8f8f60036108e9565b925061183b8f8f8f60046108e9565b91506108bb8f8f8f610fbd565b600654600090819060001986860101111561186857846006540360010193505b600160a060020a038316151561195357845b6000198686010181116115255760008181526008602090815260409182902054825160e060020a63070ee0670281529251600160a060020a039091169263070ee067926004808301939192829003018186803b1580156118d957600080fd5b505afa1580156118ed573d6000803e3d6000fd5b505050506040513d602081101561190357600080fd5b5051158061193f5750600081815260086020908152604080832054600160a060020a0316835260099091529020600101544261707f1990910111155b1561194b576001820191505b60010161187a565b845b60001986860101811161164557600081815260086020908152604080832054600160a060020a03908116845260099092529091206002015481169085161461199c57611a60565b60008181526008602090815260409182902054825160e060020a63070ee0670281529251600160a060020a039091169263070ee067926004808301939192829003018186803b1580156119ee57600080fd5b505afa158015611a02573d6000803e3d6000fd5b505050506040513d6020811015611a1857600080fd5b50511580611a545750600081815260086020908152604080832054600160a060020a0316835260099091529020600101544261707f1990910111155b15611a60576001820191505b600101611955565b60075460ff1615611a7857600080fd5b600554600354604080517fdd62ed3e0000000000000000000000000000000000000000000000000000000081523360048201523060248201529051600160a060020a039092169163dd62ed3e91604480820192602092909190829003018186803b158015611ae557600080fd5b505afa158015611af9573d6000803e3d6000fd5b505050506040513d6020811015611b0f57600080fd5b50511015611b1c57600080fd5b6201518081620151800210158015611b3d57506301e1338081620151800211155b1515611b4857600080fd5b6003831015611b5657600080fd5b611b5e61295f565b6006805460010190556004546003546000918691869130913391600160a060020a039081169116611b8d61298a565b9586526020860194909452600160a060020a03928316604080870191909152918316606086015282166080850152911660a0830152519081900360c001906000f080158015611be0573d6000803e3d6000fd5b50600354600554604080517f23b872dd000000000000000000000000000000000000000000000000000000008152336004820152600160a060020a038086166024830152604482019390935290519394509116916323b872dd916064808201926020929091908290030181600087803b158015611c5c57600080fd5b505af1158015611c70573d6000803e3d6000fd5b505050506040513d6020811015611c8657600080fd5b50511515611c9357600080fd5b600654808352620151809390930242016020808401918252336040808601918252600096875260088352808720805473ffffffffffffffffffffffffffffffffffffffff19908116600160a060020a039788169081179092559088526009909352909520935184559051600184015592516002909201805490931691161790555050565b600354600160a060020a031681565b336000908152600960209081526040808320548084526008909252909120805473ffffffffffffffffffffffffffffffffffffffff191690556006548114611dd95760068054600090815260086020818152604080842054600160a060020a0390811685526009835281852087905585548552929091528083205485845281842080549190931673ffffffffffffffffffffffffffffffffffffffff199182161790925592548252919020805490911690555b503360009081526009602052604081208181556001810191909155600201805473ffffffffffffffffffffffffffffffffffffffff1916905560068054600019019055565b6060806006546001858701031115611e3b57846006540360010193505b6000611e48868686611848565b9050606081604051908082528060200260200182016040528015611e76578160200160208202803883390190505b509050606082604051908082528060200260200182016040528015611ea5578160200160208202803883390190505b509050821515611ebb5790935091506114049050565b6000600160a060020a038716151561208157885b6000198a8a010181116112135760008181526008602090815260409182902054825160e060020a63070ee0670281529251600160a060020a0390911692839263070ee06792600480840193829003018186803b158015611f2e57600080fd5b505afa158015611f42573d6000803e3d6000fd5b505050506040513d6020811015611f5857600080fd5b50511580611f885750600160a060020a0381166000908152600960205260409020600101544261707f1990910111155b156120785780600160a060020a031663b02f0a5a6040518163ffffffff1660e060020a02815260040160206040518083038186803b158015611fc957600080fd5b505afa158015611fdd573d6000803e3d6000fd5b505050506040513d6020811015611ff357600080fd5b5051600160a060020a03821631141561202a576001848481518110151561201657fe5b91151560209283029091019091015261204a565b6000848481518110151561203a57fe5b9115156020928302909101909101525b80858481518110151561205957fe5b600160a060020a03909216602092830290910190910152600192909201915b50600101611ecf565b885b6000198a8a010181116113fa57600081815260086020908152604080832054600160a060020a03908116808552600990935292206002015490918a81169116146120cd5750612255565b80600160a060020a031663070ee0676040518163ffffffff1660e060020a02815260040160206040518083038186803b15801561210957600080fd5b505afa15801561211d573d6000803e3d6000fd5b505050506040513d602081101561213357600080fd5b505115806121635750600160a060020a0381166000908152600960205260409020600101544261707f1990910111155b156122535780600160a060020a031663b02f0a5a6040518163ffffffff1660e060020a02815260040160206040518083038186803b1580156121a457600080fd5b505afa1580156121b8573d6000803e3d6000fd5b505050506040513d60208110156121ce57600080fd5b5051600160a060020a03821631141561220557600184848151811015156121f157fe5b911515602092830290910190910152612225565b6000848481518110151561221557fe5b9115156020928302909101909101525b80858481518110151561223457fe5b600160a060020a03909216602092830290910190910152600192909201915b505b600101612083565b600160a060020a0316600090815260096020526040902060010154421190565b606060018260ff1610158015612297575060048260ff1611155b151561230457604080517f08c379a000000000000000000000000000000000000000000000000000000000815260206004820152601d60248201527f756e6b6e6f77206f707472616374206368726163746572697374696373000000604482015290519081900360640190fd5b600654600185870103111561231e57846006540360010193505b600061232b868686611848565b9050606081604051908082528060200260200182016040528015612359578160200160208202803883390190505b50905081151561236c579150610fb59050565b6000600160a060020a038616151561264357875b600019898901018111610ca45760008181526008602090815260409182902054825160e060020a63070ee0670281529251600160a060020a039091169263070ee067926004808301939192829003018186803b1580156123df57600080fd5b505afa1580156123f3573d6000803e3d6000fd5b505050506040513d602081101561240957600080fd5b505115806124455750600081815260086020908152604080832054600160a060020a0316835260099091529020600101544261707f1990910111155b1561263b578560ff166001141561249b57600081815260086020908152604080832054600160a060020a031683526009909152902060010154835184908490811061248c57fe5b60209081029091010152612634565b8560ff16600214156125335760008181526008602090815260409182902054825160e060020a63b3fb9fc70281529251600160a060020a039091169263b3fb9fc7926004808301939192829003018186803b1580156124f957600080fd5b505afa15801561250d573d6000803e3d6000fd5b505050506040513d602081101561252357600080fd5b5051835184908490811061248c57fe5b8560ff16600314156125915760008181526008602090815260409182902054825160e160020a635817852d0281529251600160a060020a039091169263b02f0a5a926004808301939192829003018186803b1580156124f957600080fd5b8560ff16600414156126345760008181526008602090815260409182902054825160e160020a633b7c6e470281529251600160a060020a03909116926376f8dc8e926004808301939192829003018186803b1580156125ef57600080fd5b505afa158015612603573d6000803e3d6000fd5b505050506040513d602081101561261957600080fd5b5051835184908490811061262957fe5b602090810290910101525b6001820191505b600101612380565b875b600019898901018111610fae57600081815260086020908152604080832054600160a060020a03908116845260099092529091206002015481169088161461268c5761293a565b60008181526008602090815260409182902054825160e060020a63070ee0670281529251600160a060020a039091169263070ee067926004808301939192829003018186803b1580156126de57600080fd5b505afa1580156126f2573d6000803e3d6000fd5b505050506040513d602081101561270857600080fd5b505115806127445750600081815260086020908152604080832054600160a060020a0316835260099091529020600101544261707f1990910111155b1561293a578560ff166001141561279a57600081815260086020908152604080832054600160a060020a031683526009909152902060010154835184908490811061278b57fe5b60209081029091010152612933565b8560ff16600214156128325760008181526008602090815260409182902054825160e060020a63b3fb9fc70281529251600160a060020a039091169263b3fb9fc7926004808301939192829003018186803b1580156127f857600080fd5b505afa15801561280c573d6000803e3d6000fd5b505050506040513d602081101561282257600080fd5b5051835184908490811061278b57fe5b8560ff16600314156128905760008181526008602090815260409182902054825160e160020a635817852d0281529251600160a060020a039091169263b02f0a5a926004808301939192829003018186803b1580156127f857600080fd5b8560ff16600414156129335760008181526008602090815260409182902054825160e160020a633b7c6e470281529251600160a060020a03909116926376f8dc8e926004808301939192829003018186803b1580156128ee57600080fd5b505afa158015612902573d6000803e3d6000fd5b505050506040513d602081101561291857600080fd5b5051835184908490811061292857fe5b602090810290910101525b6001820191505b600101612645565b6000816003811061294f57fe5b0154600160a060020a0316905081565b60606040519081016040528060008152602001600081526020016000600160a060020a031681525090565b6040516114038061299b8339019056fe6080604052600b805462ffff001916905534801561001c57600080fd5b5060405160c080611403833981018060405260c081101561003c57600080fd5b508051602082015160408301516060840151608085015160a09095015160069490945560079290925560038054600160a060020a03928316600160a060020a03199182161790915560008054938316938216841790556004805495831695821695909517909455600580549190931690841617909155600b805460ff19166001908117909155805490921617905542600955611326806100dd6000396000f3fe608060405260043610610168576000357c010000000000000000000000000000000000000000000000000000000090048063b0d31bc8116100d3578063cf444d9b1161008c578063cf444d9b14610457578063d80cc0091461046c578063d92fe2df14610481578063ef78d4fd14610496578063f1fffdcb146104ab578063f5e3fc30146104c057610168565b8063b0d31bc8146103cf578063b387ef92146103e4578063b3fb9fc7146103f9578063b56fb3371461040e578063c80bcf2e1461043a578063c98166c01461044257610168565b80635d0a4cde116101255780635d0a4cde1461021b57806376f8dc8e146103545780637c4794491461037b5780639068f84a1461039057806391d622b9146103a5578063b02f0a5a146103ba57610168565b8063070ee0671461016d57806314c68b1b1461019657806328f402b1146101ab57806335b132f9146101dc5780634c2067c7146101f157806351da2eaa14610206575b600080fd5b34801561017957600080fd5b506101826104d5565b604080519115158252519081900360200190f35b3480156101a257600080fd5b506101826104de565b3480156101b757600080fd5b506101c06104ed565b60408051600160a060020a039092168252519081900360200190f35b3480156101e857600080fd5b506101c06104fc565b3480156101fd57600080fd5b5061018261050b565b34801561021257600080fd5b506101c0610519565b34801561022757600080fd5b506101826004803603608081101561023e57600080fd5b81019060208101813564010000000081111561025957600080fd5b82018360208201111561026b57600080fd5b8035906020019184602083028401116401000000008311171561028d57600080fd5b91908080602002602001604051908101604052809392919081815260200183836020028082843760009201919091525092959493602081019350359150506401000000008111156102dd57600080fd5b8201836020820111156102ef57600080fd5b8035906020019184602083028401116401000000008311171561031157600080fd5b9190808060200260200160405190810160405280939291908181526020018383602002808284376000920191909152509295505082359350505060200135610528565b34801561036057600080fd5b5061036961083e565b60408051918252519081900360200190f35b34801561038757600080fd5b50610369610844565b34801561039c57600080fd5b5061036961084a565b3480156103b157600080fd5b506101c0610850565b3480156103c657600080fd5b5061036961085f565b3480156103db57600080fd5b50610182610865565b3480156103f057600080fd5b506101c061086e565b34801561040557600080fd5b5061036961087d565b34801561041a57600080fd5b506104386004803603602081101561043157600080fd5b5035610883565b005b610438610a16565b34801561044e57600080fd5b50610369610d09565b34801561046357600080fd5b50610182610d0f565b34801561047857600080fd5b50610438610d32565b34801561048d57600080fd5b50610438610f63565b3480156104a257600080fd5b506103696112bc565b3480156104b757600080fd5b506101c06112c2565b3480156104cc57600080fd5b506103696112d1565b600b5460ff1690565b600b5462010000900460ff1681565b600454600160a060020a031681565b600254600160a060020a031681565b600b54610100900460ff1681565b600354600160a060020a031681565b600254600090600160a060020a031615801590610546575060003031115b151561055157600080fd5b600b5460ff1615156001146105b0576040805160e560020a62461bcd02815260206004820152600c60248201527f6e6f74206f6e2073746f636b0000000000000000000000000000000000000000604482015290519081900360640190fd5b600354604080517f2537127f0000000000000000000000000000000000000000000000000000000081529051600092600160a060020a031691632537127f916004808301926020929190829003018186803b15801561060e57600080fd5b505afa158015610622573d6000803e3d6000fd5b505050506040513d602081101561063857600080fd5b5051905061707f198101421061064d57600080fd5b6009546102580142116106aa576040805160e560020a62461bcd02815260206004820152601760248201527f63616e6e6f74206f70657261746520746f6f20736f6f6e000000000000000000604482015290519081900360640190fd5b600854600554604080517fdd62ed3e00000000000000000000000000000000000000000000000000000000815233600482015230602482015290516101f4840490930192600160a060020a039092169163dd62ed3e91604480820192602092909190829003018186803b15801561072057600080fd5b505afa158015610734573d6000803e3d6000fd5b505050506040513d602081101561074a57600080fd5b5051101561075757600080fd5b60018054600b805460ff191690553373ffffffffffffffffffffffffffffffffffffffff198216811790925542600955600554600854604080517f23b872dd0000000000000000000000000000000000000000000000000000000081526004810195909552600160a060020a0393841660248601819052604486019290925251909392909116916323b872dd9160648083019260209291908290030181600087803b15801561080557600080fd5b505af1158015610819573d6000803e3d6000fd5b505050506040513d602081101561082f57600080fd5b50600198975050505050505050565b60085490565b60085481565b60075481565b600554600160a060020a031681565b60065490565b600b5460ff1681565b600154600160a060020a031681565b60075490565b600254600160a060020a03161580159061089e575060003031115b15156108a957600080fd5b600154600160a060020a0316331461090b576040805160e560020a62461bcd02815260206004820152600960248201527f6e6f74206f776e65720000000000000000000000000000000000000000000000604482015290519081900360640190fd5b600354604080517f2537127f0000000000000000000000000000000000000000000000000000000081529051600092600160a060020a031691632537127f916004808301926020929190829003018186803b15801561096957600080fd5b505afa15801561097d573d6000803e3d6000fd5b505050506040513d602081101561099357600080fd5b5051905061707f19810142106109a857600080fd5b600b5460ff1615610a03576040805160e560020a62461bcd02815260206004820152601a60248201527f63616e206f6e6c7920707574206f6e2053746f636b206f6e6365000000000000604482015290519081900360640190fd5b50600b805460ff19166001179055600855565b600354604080517fba2eb5410000000000000000000000000000000000000000000000000000000081523060048201529051600160a060020a039092169163ba2eb54191602480820192602092909190829003018186803b158015610a7a57600080fd5b505afa158015610a8e573d6000803e3d6000fd5b505050506040513d6020811015610aa457600080fd5b505115610afb576040805160e560020a62461bcd02815260206004820152601160248201527f6e6f772063616e20657863657263697365000000000000000000000000000000604482015290519081900360640190fd5b600254600160a060020a031615610b5c576040805160e560020a62461bcd02815260206004820152601760248201527f6f74686572732066696c6c2045544820616c7265616479000000000000000000604482015290519081900360640190fd5b6006543414610b9f5760405160e560020a62461bcd0281526004018080602001828103825260238152602001806112d86023913960400191505060405180910390fd5b600360009054906101000a9004600160a060020a0316600160a060020a03166310bbc68a6040518163ffffffff167c010000000000000000000000000000000000000000000000000000000002815260040160206040518083038186803b158015610c0957600080fd5b505afa158015610c1d573d6000803e3d6000fd5b505050506040513d6020811015610c3357600080fd5b505160088190556002805473ffffffffffffffffffffffffffffffffffffffff19163390811790915542600955600b805460ff19169055600554604080517fa9059cbb000000000000000000000000000000000000000000000000000000008152600481019390935260248301939093529151600160a060020a03929092169163a9059cbb916044808201926020929091908290030181600087803b158015610cdb57600080fd5b505af1158015610cef573d6000803e3d6000fd5b505050506040513d6020811015610d0557600080fd5b5050565b60065481565b600254600090600160a060020a031615801590610d2d575060003031115b905090565b600354604080517fba2eb5410000000000000000000000000000000000000000000000000000000081523060048201529051600160a060020a039092169163ba2eb54191602480820192602092909190829003018186803b158015610d9657600080fd5b505afa158015610daa573d6000803e3d6000fd5b505050506040513d6020811015610dc057600080fd5b50511515600114610e1b576040805160e560020a62461bcd02815260206004820152601760248201527f63616e206e6f206c6f6e67657220657863657263697365000000000000000000604482015290519081900360640190fd5b600254600160a060020a03163314610e7d576040805160e560020a62461bcd02815260206004820152601a60248201527f6f6e6c792065746853656c6c65722063616e2063616c6c206974000000000000604482015290519081900360640190fd5b600b5462010000900460ff1615610ede576040805160e560020a62461bcd02815260206004820152601160248201527f616c726561647920657865726369736564000000000000000000000000000000604482015290519081900360640190fd5b600b805460ff19169055600354604080517f996916500000000000000000000000000000000000000000000000000000000081529051600160a060020a039092169163996916509160048082019260009290919082900301818387803b158015610f4757600080fd5b505af1158015610f5b573d6000803e3d6000fd5b503392505050ff5b600154600160a060020a03163314610fc5576040805160e560020a62461bcd02815260206004820152600960248201527f6e6f74206f776e65720000000000000000000000000000000000000000000000604482015290519081900360640190fd5b600354604080517f2537127f0000000000000000000000000000000000000000000000000000000081529051600092600160a060020a031691632537127f916004808301926020929190829003018186803b15801561102357600080fd5b505afa158015611037573d6000803e3d6000fd5b505050506040513d602081101561104d57600080fd5b5051600b5490915060ff1615801561106457508042105b8061107d57506170808103421015801561107d57508042105b151561108857600080fd5b6009546102580142116110e5576040805160e560020a62461bcd02815260206004820152601760248201527f63616e6e6f74206f70657261746520746f6f20736f6f6e000000000000000000604482015290519081900360640190fd5b600754600554604080517fdd62ed3e0000000000000000000000000000000000000000000000000000000081523360048201523060248201529051600160a060020a039092169163dd62ed3e91604480820192602092909190829003018186803b15801561115257600080fd5b505afa158015611166573d6000803e3d6000fd5b505050506040513d602081101561117c57600080fd5b5051101561118957600080fd5b600b805462ff0000191662010000179055600354604080517f996916500000000000000000000000000000000000000000000000000000000081529051600160a060020a039092169163996916509160048082019260009290919082900301818387803b1580156111f957600080fd5b505af115801561120d573d6000803e3d6000fd5b5050600554600254600754604080517f23b872dd000000000000000000000000000000000000000000000000000000008152336004820152600160a060020a0393841660248201526044810192909252519190921693506323b872dd925060648083019260209291908290030181600087803b15801561128c57600080fd5b505af11580156112a0573d6000803e3d6000fd5b505050506040513d60208110156112b657600080fd5b50339050ff5b600a5481565b600054600160a060020a031681565b6009548156fe6e65656420746f206465706f73697420657861637420616d6f756e74206f6620455448a165627a7a7230582023adfb5a86a8597bc4cf06d02ffc150e282a778bb4f521ab7dc0277c7a6f65550029a165627a7a72305820cca28e4d938e03a5df82b7ef7d08aa0de4c0ab32ab119d292918649e5349240c0029",
  "source": "pragma solidity ^0.5.2;\n\nimport \"./ERC20.sol\";\nimport \"./Optract.sol\";\n//import \"./SafeMath.sol\";\n\ncontract OptractRegistry { // PoC ETH-DAI Optract\n\taddress[3] public operators;\n\taddress public currencyTokenAddr; // presumably 'DAI'\n\taddress public blkAddr; // side-chain merkle records\n\tuint public initialPayment = 5000000000000000000; // 5 DAIs\n\tuint public totalOpts = 0;\n\tbool public paused = false;\n\n\tstruct optractRecord {\n\t        uint id;\n\t\tuint expiredTime; // timestamp\n\t\taddress initialOwner; \n\t}\n\n\tmapping (uint => address) optractRecordsByIndex;\n\tmapping (address => optractRecord) optractRecordsByAddress;\n\n\t// Modifiers\n\tmodifier operatorOnly() {\n\t\trequire(msg.sender == operators[0] || msg.sender == operators[1] || msg.sender == operators[2]);\n\t\t_;\n\t}\n\n\tmodifier notPaused() {\n\t\trequire(paused == false);\n\t\t_;\n\t}\n\n\t// Constructor\n\tconstructor(address _currencyTokenAddr) public {\n\t\toperators[0] = msg.sender;\n\t\tcurrencyTokenAddr = _currencyTokenAddr;\n\t}\n\n\tfunction createOptract(uint256 ETHAmount, uint256 totalPrice, uint period) external notPaused {\n                require(ERC20(currencyTokenAddr).allowance(msg.sender, address(this)) >= initialPayment);\n                // require(period * 1 days >= 30 days && period * 1 days <= 365 days);\n                // require(ETHAmount >= 3 ether);\n                // for debug purpose, use ridiculously small values:\n                require(period * 1 days >= 1 days && period * 1 days <= 365 days);\n                require(ETHAmount >= 3 wei);\n\n\t\toptractRecord memory optRcd;\n                totalOpts = totalOpts + 1;\n                Optract opt = new Optract(ETHAmount, totalPrice, address(this), msg.sender, blkAddr, currencyTokenAddr);\n\n                require(ERC20(currencyTokenAddr).transferFrom(msg.sender, address(opt), initialPayment));\n\n                optRcd.id = totalOpts;\n                optRcd.expiredTime = block.timestamp + period * 1 days;\n                optRcd.initialOwner = msg.sender;\n\n                optractRecordsByIndex[totalOpts] = address(opt); // mapping start from uint key = 1\n                optractRecordsByAddress[address(opt)] = optRcd;\n\t}\n\n\tfunction destructRecord() external {\n                uint i = optractRecordsByAddress[msg.sender].id;\n                delete optractRecordsByIndex[i];\n                if (i != totalOpts){\n                        optractRecordsByAddress[optractRecordsByIndex[totalOpts]].id = i;\n                        optractRecordsByIndex[i] = optractRecordsByIndex[totalOpts];\n                        delete optractRecordsByIndex[totalOpts];\n                }\n                delete optractRecordsByAddress[msg.sender];\n                totalOpts -= 1;\n        }\n\n\t// Constant functions\n\tfunction queryInitPrice() public view returns (uint) { \n\t\treturn initialPayment; \n\t}\n\n\tfunction isExpired(address optractAddress) public view returns (bool) {\n\t\treturn block.timestamp > optractRecordsByAddress[optractAddress].expiredTime;\n\t}\n\n\tfunction getExpireTime() public view returns (uint) {\n\t\trequire(optractRecordsByAddress[msg.sender].expiredTime >= block.timestamp);\n\t\trequire(optractRecordsByAddress[msg.sender].initialOwner != address(0));\n\n\t\treturn optractRecordsByAddress[msg.sender].expiredTime;\n\t}\n\n        function _getNumOfActiveOptracts(uint start, uint length, address owner) public view returns (uint) {\n\t        // will be internal function so don't check requirements\n\t        uint activeLength = 0;\n\t\tif (start + length - 1 > totalOpts) {\n\t\t\tlength = totalOpts - start + 1;\n\t\t}\n\n\t\tif (owner == address(0)) { // list all orders\n\t\t\tfor (uint i = start; i <= start + length - 1; i++) {\n\t\t\t\tif (Optract(optractRecordsByIndex[i]).queryOnStock() == false\n\t\t\t\t    || optractRecordsByAddress[optractRecordsByIndex[i]].expiredTime - 8 hours <= block.timestamp) continue;\n\t\t\t\tactiveLength = activeLength + 1;\n\t\n\t\t\t}\n\t\t} else { // list only those initialized by owner\n\t\t\tfor (uint i = start; i <= start + length - 1; i++) {\n\t\t\t\tif (optractRecordsByAddress[optractRecordsByIndex[i]].initialOwner != owner) continue;\n\t\t\t\tif (Optract(optractRecordsByIndex[i]).queryOnStock() == false\n\t\t\t\t    || optractRecordsByAddress[optractRecordsByIndex[i]].expiredTime - 8 hours <= block.timestamp) continue;\n\t\t\t\tactiveLength = activeLength + 1;\n\t\t\t}\n\t\t}\n\t\treturn activeLength;\n        }\n\n        function activeOptractsLoop(uint start, uint length, address owner, uint8 _idx) public view returns (uint[] memory) {\n                require(_idx >= 1 && _idx <= 4, \"unknown optract characteristics\");\n                // _idx: {1: expTimeList, 2: priceList, 3:ETHList, 4: opriceList}\n\t\tif (start + length - 1 > totalOpts) {\n\t\t\tlength = totalOpts - start + 1;\n\t\t}\n                uint activeLength = _getNumOfActiveOptracts(start, length, owner);\n\t\tuint[] memory returnList = new uint[](activeLength);\n\t\tuint count = 0;\n\n\t\tif (owner == address(0)) { // list all orders\n\t\t\tfor (uint i = start; i <= start + length - 1; i++) {\n\t\t\t\tif (Optract(optractRecordsByIndex[i]).queryOnStock() == false || optractRecordsByAddress[optractRecordsByIndex[i]].expiredTime - 8 hours <= block.timestamp) continue;\n\t\n\t                        if (_idx == 1) {\n                                        returnList[count] = optractRecordsByAddress[optractRecordsByIndex[i]].expiredTime;\n                                } else if (_idx == 2) {\n                                        returnList[count] = Optract(optractRecordsByIndex[i]).queryOrderPrice();\n                                } else if (_idx == 3) {\n\t\t\t\t        returnList[count] = Optract(optractRecordsByIndex[i]).queryOrderSize();\n                                } else if (_idx == 4) {\n                                        returnList[count] = Optract(optractRecordsByIndex[i]).queryOptionPrice();\n                                }\n\t\t\t\tcount += 1;\n\t\t\t}\n\t\t} else { // list only those initialized by owner\n\t\t\tfor (uint i = start; i <= start + length - 1; i++) {\n\t\t\t\tif (optractRecordsByAddress[optractRecordsByIndex[i]].initialOwner != owner) continue;\n\t\t\t\tif (Optract(optractRecordsByIndex[i]).queryOnStock() == false || optractRecordsByAddress[optractRecordsByIndex[i]].expiredTime - 8 hours <= block.timestamp) continue;\n\t                        if (_idx == 1) {\n                                        returnList[count] = optractRecordsByAddress[optractRecordsByIndex[i]].expiredTime;\n                                } else if (_idx == 2) {\n                                        returnList[count] = Optract(optractRecordsByIndex[i]).queryOrderPrice();\n                                } else if (_idx == 3) {\n\t\t\t\t        returnList[count] = Optract(optractRecordsByIndex[i]).queryOrderSize();\n                                } else if (_idx == 4) {\n                                        returnList[count] = Optract(optractRecordsByIndex[i]).queryOptionPrice();\n                                }\n\t\t\t\tcount += 1;\n\t\t\t}\n\t\t}\n\t\treturn returnList;\n        }\n\n\tfunction activeOptractsFilledStatus(uint start, uint length, address owner) public view returns (address[] memory, bool[] memory) {\n\t        // will be internal function so don't check requirements\n\t\tif (start + length - 1 > totalOpts) {\n\t\t\tlength = totalOpts - start + 1;\n\t\t}\n\n                uint activeLength = _getNumOfActiveOptracts(start, length, owner);\n\t\taddress[] memory addrlist = new address[](activeLength);\n\t\tbool[] memory filled = new bool[](activeLength);\n\t\tuint count = 0;\n\n\t\tif (owner == address(0)) { // list all orders\n\t\t\tfor (uint i = start; i <= start + length - 1; i++) {\n\t\t\t\taddress optAddr = optractRecordsByIndex[i];\n\t\t\t\tif (Optract(optAddr).queryOnStock() == false || optractRecordsByAddress[optAddr].expiredTime - 8 hours <= block.timestamp) continue;\n\t\n\t\t\t\tif (optAddr.balance == Optract(optAddr).queryOrderSize()) {  // or \">=\"?\n\t\t\t\t\tfilled[count] = true;\n\t\t\t\t} else {\n\t\t\t\t\tfilled[count] = false;\n\t\t\t\t}\n\t\t\t\taddrlist[count] = optAddr;\n\t\t\t\tcount += 1;\n\t\t\t}\n\t\t} else { // list only those initialized by owner\n\t\t\tfor (uint i = start; i <= start + length - 1; i++) {\n\t\t\t\taddress optAddr = optractRecordsByIndex[i];\n\t\t\t\tif (optractRecordsByAddress[optAddr].initialOwner != owner) continue;\n\t\t\t\tif (Optract(optAddr).queryOnStock() == false || optractRecordsByAddress[optAddr].expiredTime - 8 hours <= block.timestamp) continue;\n\t\n\t\t\t\tif (optAddr.balance == Optract(optAddr).queryOrderSize()) {\n\t\t\t\t\tfilled[count] = true;\n\t\t\t\t} else {\n\t\t\t\t\tfilled[count] = false;\n\t\t\t\t}\n\t\t\t\taddrlist[count] = optAddr;\n\t\t\t\tcount += 1;\n\t\t\t}\n\t\t}\n\t\treturn (addrlist, filled);\n\t}\n\n\tfunction activeOptracts(uint start, uint length, address owner) public view returns (\n\t\taddress[] memory,\n\t\t   uint[] memory,\n\t\t   uint[] memory,\n\t\t   uint[] memory,\n\t\t   uint[] memory,\n\t           bool[] memory)\n\t{\n\t\trequire(start > 0 && length > 0);\n\t\trequire(totalOpts > 0 && totalOpts >= start);\n\t\tif (start + length - 1 > totalOpts) {\n\t\t\tlength = totalOpts - start + 1;\n\t\t}\n\n\t\taddress[] memory addrlist = new address[](_getNumOfActiveOptracts(start, length, owner));\n\t\tuint[] memory expTimeList= new uint[](_getNumOfActiveOptracts(start, length, owner));\n\t\tuint[] memory priceList = new uint[](_getNumOfActiveOptracts(start, length, owner));\n\t\tuint[] memory ETHList = new uint[](_getNumOfActiveOptracts(start, length, owner));\n\t\tuint[] memory opriceList = new uint[](_getNumOfActiveOptracts(start, length, owner));\n\t\tbool[] memory filled = new bool[](_getNumOfActiveOptracts(start, length, owner));  // stack too deep if include this one\n\n                // assume all the following function calls return same order\n\t\texpTimeList = activeOptractsLoop(start, length, owner, 1);\n\t\tpriceList = activeOptractsLoop(start, length, owner, 2);\n\t\tETHList = activeOptractsLoop(start, length, owner, 3);\n\t\topriceList = activeOptractsLoop(start, length, owner, 4);\n\t\t(addrlist, filled) = activeOptractsFilledStatus(start, length, owner);\n\t\treturn (addrlist, expTimeList, priceList, ETHList, opriceList, filled);\n        }\n\n\n        function _getNumOfInActiveOptracts(uint start, uint length, address owner) public view returns (uint) {\n\t        // will be internal function so don't check requirements\n\t        uint inactiveLength = 0;\n\t\tif (start + length - 1 > totalOpts) {\n\t\t\tlength = totalOpts - start + 1;\n\t\t}\n\n\t\tif (owner == address(0)) { // list all orders\n\t\t\tfor (uint i = start; i <= start + length - 1; i++) {\n\t\t\t\tif (Optract(optractRecordsByIndex[i]).queryOnStock() == false\n\t\t\t\t    || optractRecordsByAddress[optractRecordsByIndex[i]].expiredTime - 8 hours <= block.timestamp)\n\t\t\t\t{\n\t\t\t\t        inactiveLength +=1;\n                                }\n\t\n\t\t\t}\n\t\t} else { // list only those initialized by owner\n\t\t\tfor (uint i = start; i <= start + length - 1; i++) {\n\t\t\t\tif (optractRecordsByAddress[optractRecordsByIndex[i]].initialOwner != owner) continue;\n\t\t\t\tif (Optract(optractRecordsByIndex[i]).queryOnStock() == false\n\t\t\t\t    || optractRecordsByAddress[optractRecordsByIndex[i]].expiredTime - 8 hours <= block.timestamp)\n                                {\n\t\t\t\t        inactiveLength += 1;\n                                }\n\t\t\t}\n\t\t}\n\t\treturn inactiveLength;\n        }\n\n        function inactiveOptractsLoop(uint start, uint length, address owner, uint8 _idx) public view returns (uint[] memory) {\n                require(_idx >= 1 && _idx <= 4, \"unknow optract chracteristics\");\n                // _idx: {1: expTimeList, 2: priceList, 3:ETHList, 4: opriceList}\n\t\tif (start + length - 1 > totalOpts) {\n\t\t\tlength = totalOpts - start + 1;\n\t\t}\n                uint inactiveLength = _getNumOfInActiveOptracts(start, length, owner);\n\t\tuint[] memory returnList = new uint[](inactiveLength);\n\t\tif (inactiveLength == 0) return (returnList);\n\t\tuint count = 0;\n\n\t\tif (owner == address(0)) { // list all orders\n\t\t\tfor (uint i = start; i <= start + length - 1; i++) {\n\t\t\t\tif (Optract(optractRecordsByIndex[i]).queryOnStock() == false\n\t\t\t\t    || optractRecordsByAddress[optractRecordsByIndex[i]].expiredTime - 8 hours <= block.timestamp)\n\n\t\t\t\t{\n                                        if (_idx == 1) {\n                                                returnList[count] = optractRecordsByAddress[optractRecordsByIndex[i]].expiredTime;\n                                        } else if (_idx == 2) {\n                                                returnList[count] = Optract(optractRecordsByIndex[i]).queryOrderPrice();\n                                        } else if (_idx == 3) {\n                                                returnList[count] = Optract(optractRecordsByIndex[i]).queryOrderSize();\n                                        } else if (_idx == 4) {\n                                                returnList[count] = Optract(optractRecordsByIndex[i]).queryOptionPrice();\n                                        }\n                                        count += 1;\n                                }\n\t\t\t}\n\t\t} else { // list only those initialized by owner\n\t\t\tfor (uint i = start; i <= start + length - 1; i++) {\n\t\t\t\tif (optractRecordsByAddress[optractRecordsByIndex[i]].initialOwner != owner) continue;\n\t\t\t\tif (Optract(optractRecordsByIndex[i]).queryOnStock() == false\n\t\t\t\t    || optractRecordsByAddress[optractRecordsByIndex[i]].expiredTime - 8 hours <= block.timestamp)\n                                {\n                                        if (_idx == 1) {\n                                                returnList[count] = optractRecordsByAddress[optractRecordsByIndex[i]].expiredTime;\n                                        } else if (_idx == 2) {\n                                                returnList[count] = Optract(optractRecordsByIndex[i]).queryOrderPrice();\n                                        } else if (_idx == 3) {\n                                                returnList[count] = Optract(optractRecordsByIndex[i]).queryOrderSize();\n                                        } else if (_idx == 4) {\n                                                returnList[count] = Optract(optractRecordsByIndex[i]).queryOptionPrice();\n                                        }\n                                        count += 1;\n                                }\n\t\t\t}\n\t\t}\n\t\treturn returnList;\n        }\n\n\tfunction inactiveOptractsFilledStatus(uint start, uint length, address owner) public view returns (address[] memory, bool[] memory) {\n\t        // will be internal function so don't check requirements\n\t\tif (start + length - 1 > totalOpts) {\n\t\t\tlength = totalOpts - start + 1;\n\t\t}\n\n                uint inactiveLength = _getNumOfInActiveOptracts(start, length, owner);\n\t\taddress[] memory addrlist = new address[](inactiveLength);\n\t\tbool[] memory filled = new bool[](inactiveLength);\n\t\tif (inactiveLength == 0) return (addrlist, filled);\n\t\tuint count = 0;\n\n\t\tif (owner == address(0)) { // list all orders\n\t\t\tfor (uint i = start; i <= start + length - 1; i++) {\n\t\t\t\taddress optAddr = optractRecordsByIndex[i];\n\t\t\t\tif (Optract(optAddr).queryOnStock() == false\n\t\t\t\t    || optractRecordsByAddress[optAddr].expiredTime - 8 hours <= block.timestamp)\n                                {\n                                        if (optAddr.balance == Optract(optAddr).queryOrderSize()) {\n                                                filled[count] = true;\n                                        } else {\n                                                filled[count] = false;\n                                        }\n                                        addrlist[count] = optAddr;\n                                        count += 1;\n                                }\n\t\t\t}\n\t\t} else { // list only those initialized by owner\n\t\t\tfor (uint i = start; i <= start + length - 1; i++) {\n\t\t\t\taddress optAddr = optractRecordsByIndex[i];\n\t\t\t\tif (optractRecordsByAddress[optAddr].initialOwner != owner) continue;\n\t\t\t\tif (Optract(optAddr).queryOnStock() == false\n\t\t\t\t    || optractRecordsByAddress[optAddr].expiredTime - 8 hours <= block.timestamp)\n                                {\n                                        if (optAddr.balance == Optract(optAddr).queryOrderSize()) {\n                                                filled[count] = true;\n                                        } else {\n                                                filled[count] = false;\n                                        }\n                                        addrlist[count] = optAddr;\n                                        count += 1;\n                                }\n\t\n\t\t\t}\n\t\t}\n\t\treturn (addrlist, filled);\n\t}\n\n\tfunction inactiveOptracts(uint start, uint length, address owner) public view returns (\n\t\taddress[] memory,\n\t\t   uint[] memory,\n\t\t   uint[] memory,\n\t\t   uint[] memory,\n\t\t   uint[] memory,\n\t           bool[] memory)\n\t{\n\t\trequire(start > 0 && length > 0);\n\t\trequire(totalOpts > 0 && totalOpts >= start);\n\n\t\tif (start + length - 1 > totalOpts) {\n\t\t\tlength = totalOpts - start + 1;\n\t\t}\n\n\t\taddress[] memory addrlist = new address[](_getNumOfInActiveOptracts(start, length, owner));\n\t\tuint[] memory expTimeList= new uint[](_getNumOfInActiveOptracts(start, length, owner));\n\t\tuint[] memory priceList = new uint[](_getNumOfInActiveOptracts(start, length, owner));\n\t\tuint[] memory ETHList = new uint[](_getNumOfInActiveOptracts(start, length, owner));\n\t\tuint[] memory opriceList = new uint[](_getNumOfInActiveOptracts(start, length, owner));\n\t\tbool[] memory filled = new bool[](_getNumOfInActiveOptracts(start, length, owner));\n\n                // assume all the following function calls return same order\n\t\texpTimeList = inactiveOptractsLoop(start, length, owner, 1);\n\t\tpriceList = inactiveOptractsLoop(start, length, owner, 2);\n\t\tETHList = inactiveOptractsLoop(start, length, owner, 3);\n\t\topriceList = inactiveOptractsLoop(start, length, owner, 4);\n\t\t(addrlist, filled) = inactiveOptractsFilledStatus(start, length, owner);\n\t\treturn (addrlist, expTimeList, priceList, ETHList, opriceList, filled);\n        }\n\n}\n",
  "sourcePath": "/home/kai/Work/project/Optract/contracts/OptractRegistry.sol",
  "compiler": {
    "name": "solc",
    "version": "0.5.2+commit.1df8f40c.Linux.g++"
  },
  "schemaVersion": "3.0.1",
  "updatedAt": "2019-02-28T23:18:52.477Z",
  "devdoc": {
    "methods": {}
  },
  "userdoc": {
    "methods": {}
  }
}