{
  "contractName": "Optract",
  "abi": [
    {
      "constant": true,
      "inputs": [],
      "name": "exercised",
      "outputs": [
        {
          "name": "",
          "type": "bool"
        }
      ],
      "payable": false,
      "stateMutability": "view",
      "type": "function",
      "signature": "0x14c68b1b"
    },
    {
      "constant": true,
      "inputs": [],
      "name": "blkAddr",
      "outputs": [
        {
          "name": "",
          "type": "address"
        }
      ],
      "payable": false,
      "stateMutability": "view",
      "type": "function",
      "signature": "0x28f402b1"
    },
    {
      "constant": true,
      "inputs": [],
      "name": "ethSeller",
      "outputs": [
        {
          "name": "",
          "type": "address"
        }
      ],
      "payable": false,
      "stateMutability": "view",
      "type": "function",
      "signature": "0x35b132f9"
    },
    {
      "constant": true,
      "inputs": [],
      "name": "expired",
      "outputs": [
        {
          "name": "",
          "type": "bool"
        }
      ],
      "payable": false,
      "stateMutability": "view",
      "type": "function",
      "signature": "0x4c2067c7"
    },
    {
      "constant": true,
      "inputs": [],
      "name": "registryAddr",
      "outputs": [
        {
          "name": "",
          "type": "address"
        }
      ],
      "payable": false,
      "stateMutability": "view",
      "type": "function",
      "signature": "0x51da2eaa"
    },
    {
      "constant": true,
      "inputs": [],
      "name": "optionPrice",
      "outputs": [
        {
          "name": "",
          "type": "uint256"
        }
      ],
      "payable": false,
      "stateMutability": "view",
      "type": "function",
      "signature": "0x7c479449"
    },
    {
      "constant": true,
      "inputs": [],
      "name": "totalPriceInDai",
      "outputs": [
        {
          "name": "",
          "type": "uint256"
        }
      ],
      "payable": false,
      "stateMutability": "view",
      "type": "function",
      "signature": "0x9068f84a"
    },
    {
      "constant": true,
      "inputs": [],
      "name": "currencyTokenAddr",
      "outputs": [
        {
          "name": "",
          "type": "address"
        }
      ],
      "payable": false,
      "stateMutability": "view",
      "type": "function",
      "signature": "0x91d622b9"
    },
    {
      "constant": true,
      "inputs": [],
      "name": "onStock",
      "outputs": [
        {
          "name": "",
          "type": "bool"
        }
      ],
      "payable": false,
      "stateMutability": "view",
      "type": "function",
      "signature": "0xb0d31bc8"
    },
    {
      "constant": true,
      "inputs": [],
      "name": "currentOwner",
      "outputs": [
        {
          "name": "",
          "type": "address"
        }
      ],
      "payable": false,
      "stateMutability": "view",
      "type": "function",
      "signature": "0xb387ef92"
    },
    {
      "constant": true,
      "inputs": [],
      "name": "ethAmount",
      "outputs": [
        {
          "name": "",
          "type": "uint256"
        }
      ],
      "payable": false,
      "stateMutability": "view",
      "type": "function",
      "signature": "0xc98166c0"
    },
    {
      "constant": true,
      "inputs": [],
      "name": "period",
      "outputs": [
        {
          "name": "",
          "type": "uint256"
        }
      ],
      "payable": false,
      "stateMutability": "view",
      "type": "function",
      "signature": "0xef78d4fd"
    },
    {
      "constant": true,
      "inputs": [],
      "name": "originalOwner",
      "outputs": [
        {
          "name": "",
          "type": "address"
        }
      ],
      "payable": false,
      "stateMutability": "view",
      "type": "function",
      "signature": "0xf1fffdcb"
    },
    {
      "constant": true,
      "inputs": [],
      "name": "actionTime",
      "outputs": [
        {
          "name": "",
          "type": "uint256"
        }
      ],
      "payable": false,
      "stateMutability": "view",
      "type": "function",
      "signature": "0xf5e3fc30"
    },
    {
      "inputs": [
        {
          "name": "_ethAmount",
          "type": "uint256"
        },
        {
          "name": "_totalPriceInDai",
          "type": "uint256"
        },
        {
          "name": "_registryAddr",
          "type": "address"
        },
        {
          "name": "_originalOwner",
          "type": "address"
        },
        {
          "name": "_blkAddr",
          "type": "address"
        },
        {
          "name": "_currencyTokenAddr",
          "type": "address"
        }
      ],
      "payable": false,
      "stateMutability": "nonpayable",
      "type": "constructor",
      "signature": "constructor"
    },
    {
      "constant": false,
      "inputs": [],
      "name": "fillInEth",
      "outputs": [],
      "payable": true,
      "stateMutability": "payable",
      "type": "function",
      "signature": "0xc80bcf2e"
    },
    {
      "constant": false,
      "inputs": [
        {
          "name": "proof",
          "type": "bytes32[]"
        },
        {
          "name": "isLeft",
          "type": "bool[]"
        },
        {
          "name": "targetLeaf",
          "type": "bytes32"
        },
        {
          "name": "merkleRoot",
          "type": "bytes32"
        }
      ],
      "name": "claimOptract",
      "outputs": [
        {
          "name": "",
          "type": "bool"
        }
      ],
      "payable": false,
      "stateMutability": "nonpayable",
      "type": "function",
      "signature": "0x5d0a4cde"
    },
    {
      "constant": false,
      "inputs": [
        {
          "name": "_newOptionPrice",
          "type": "uint256"
        }
      ],
      "name": "putOnStock",
      "outputs": [],
      "payable": false,
      "stateMutability": "nonpayable",
      "type": "function",
      "signature": "0xb56fb337"
    },
    {
      "constant": false,
      "inputs": [],
      "name": "currentOwnerExercise",
      "outputs": [],
      "payable": false,
      "stateMutability": "nonpayable",
      "type": "function",
      "signature": "0xd92fe2df"
    },
    {
      "constant": false,
      "inputs": [],
      "name": "ethSellerWithdraw",
      "outputs": [],
      "payable": false,
      "stateMutability": "nonpayable",
      "type": "function",
      "signature": "0xd80cc009"
    },
    {
      "constant": true,
      "inputs": [],
      "name": "queryOptionPrice",
      "outputs": [
        {
          "name": "",
          "type": "uint256"
        }
      ],
      "payable": false,
      "stateMutability": "view",
      "type": "function",
      "signature": "0x76f8dc8e"
    },
    {
      "constant": true,
      "inputs": [],
      "name": "queryOrderPrice",
      "outputs": [
        {
          "name": "",
          "type": "uint256"
        }
      ],
      "payable": false,
      "stateMutability": "view",
      "type": "function",
      "signature": "0xb3fb9fc7"
    },
    {
      "constant": true,
      "inputs": [],
      "name": "queryOrderSize",
      "outputs": [
        {
          "name": "",
          "type": "uint256"
        }
      ],
      "payable": false,
      "stateMutability": "view",
      "type": "function",
      "signature": "0xb02f0a5a"
    },
    {
      "constant": true,
      "inputs": [],
      "name": "queryOnStock",
      "outputs": [
        {
          "name": "",
          "type": "bool"
        }
      ],
      "payable": false,
      "stateMutability": "view",
      "type": "function",
      "signature": "0x070ee067"
    },
    {
      "constant": true,
      "inputs": [],
      "name": "isFilled",
      "outputs": [
        {
          "name": "",
          "type": "bool"
        }
      ],
      "payable": false,
      "stateMutability": "view",
      "type": "function",
      "signature": "0xcf444d9b"
    }
  ],
  "bytecode": "0x60806040526000600b60016101000a81548160ff0219169083151502179055506000600b60026101000a81548160ff02191690831515021790555034801561004657600080fd5b5060405160c08061209b833981018060405260c081101561006657600080fd5b81019080805190602001909291908051906020019092919080519060200190929190805190602001909291908051906020019092919080519060200190929190505050856006819055508460078190555083600360006101000a81548173ffffffffffffffffffffffffffffffffffffffff021916908373ffffffffffffffffffffffffffffffffffffffff160217905550826000806101000a81548173ffffffffffffffffffffffffffffffffffffffff021916908373ffffffffffffffffffffffffffffffffffffffff16021790555081600460006101000a81548173ffffffffffffffffffffffffffffffffffffffff021916908373ffffffffffffffffffffffffffffffffffffffff16021790555080600560006101000a81548173ffffffffffffffffffffffffffffffffffffffff021916908373ffffffffffffffffffffffffffffffffffffffff1602179055506001600b60006101000a81548160ff02191690831515021790555082600160006101000a81548173ffffffffffffffffffffffffffffffffffffffff021916908373ffffffffffffffffffffffffffffffffffffffff16021790555042600981905550505050505050611e69806102326000396000f3fe608060405260043610610168576000357c010000000000000000000000000000000000000000000000000000000090048063b0d31bc8116100d3578063cf444d9b1161008c578063cf444d9b146106a8578063d80cc009146106d7578063d92fe2df146106ee578063ef78d4fd14610705578063f1fffdcb14610730578063f5e3fc301461078757610168565b8063b0d31bc814610587578063b387ef92146105b6578063b3fb9fc71461060d578063b56fb33714610638578063c80bcf2e14610673578063c98166c01461067d57610168565b80635d0a4cde116101255780635d0a4cde146102ff57806376f8dc8e146104845780637c479449146104af5780639068f84a146104da57806391d622b914610505578063b02f0a5a1461055c57610168565b8063070ee0671461016d57806314c68b1b1461019c57806328f402b1146101cb57806335b132f9146102225780634c2067c71461027957806351da2eaa146102a8575b600080fd5b34801561017957600080fd5b506101826107b2565b604051808215151515815260200191505060405180910390f35b3480156101a857600080fd5b506101b16107c9565b604051808215151515815260200191505060405180910390f35b3480156101d757600080fd5b506101e06107dc565b604051808273ffffffffffffffffffffffffffffffffffffffff1673ffffffffffffffffffffffffffffffffffffffff16815260200191505060405180910390f35b34801561022e57600080fd5b50610237610802565b604051808273ffffffffffffffffffffffffffffffffffffffff1673ffffffffffffffffffffffffffffffffffffffff16815260200191505060405180910390f35b34801561028557600080fd5b5061028e610828565b604051808215151515815260200191505060405180910390f35b3480156102b457600080fd5b506102bd61083b565b604051808273ffffffffffffffffffffffffffffffffffffffff1673ffffffffffffffffffffffffffffffffffffffff16815260200191505060405180910390f35b34801561030b57600080fd5b5061046a6004803603608081101561032257600080fd5b810190808035906020019064010000000081111561033f57600080fd5b82018360208201111561035157600080fd5b8035906020019184602083028401116401000000008311171561037357600080fd5b919080806020026020016040519081016040528093929190818152602001838360200280828437600081840152601f19601f820116905080830192505050505050509192919290803590602001906401000000008111156103d357600080fd5b8201836020820111156103e557600080fd5b8035906020019184602083028401116401000000008311171561040757600080fd5b919080806020026020016040519081016040528093929190818152602001838360200280828437600081840152601f19601f8201169050808301925050505050505091929192908035906020019092919080359060200190929190505050610861565b604051808215151515815260200191505060405180910390f35b34801561049057600080fd5b50610499610dda565b6040518082815260200191505060405180910390f35b3480156104bb57600080fd5b506104c4610de4565b6040518082815260200191505060405180910390f35b3480156104e657600080fd5b506104ef610dea565b6040518082815260200191505060405180910390f35b34801561051157600080fd5b5061051a610df0565b604051808273ffffffffffffffffffffffffffffffffffffffff1673ffffffffffffffffffffffffffffffffffffffff16815260200191505060405180910390f35b34801561056857600080fd5b50610571610e16565b6040518082815260200191505060405180910390f35b34801561059357600080fd5b5061059c610e20565b604051808215151515815260200191505060405180910390f35b3480156105c257600080fd5b506105cb610e33565b604051808273ffffffffffffffffffffffffffffffffffffffff1673ffffffffffffffffffffffffffffffffffffffff16815260200191505060405180910390f35b34801561061957600080fd5b50610622610e59565b6040518082815260200191505060405180910390f35b34801561064457600080fd5b506106716004803603602081101561065b57600080fd5b8101908080359060200190929190505050610e63565b005b61067b61112f565b005b34801561068957600080fd5b506106926115ef565b6040518082815260200191505060405180910390f35b3480156106b457600080fd5b506106bd6115f5565b604051808215151515815260200191505060405180910390f35b3480156106e357600080fd5b506106ec611671565b005b3480156106fa57600080fd5b506107036119c4565b005b34801561071157600080fd5b5061071a611de9565b6040518082815260200191505060405180910390f35b34801561073c57600080fd5b50610745611def565b604051808273ffffffffffffffffffffffffffffffffffffffff1673ffffffffffffffffffffffffffffffffffffffff16815260200191505060405180910390f35b34801561079357600080fd5b5061079c611e14565b6040518082815260200191505060405180910390f35b6000600b60009054906101000a900460ff16905090565b600b60029054906101000a900460ff1681565b600460009054906101000a900473ffffffffffffffffffffffffffffffffffffffff1681565b600260009054906101000a900473ffffffffffffffffffffffffffffffffffffffff1681565b600b60019054906101000a900460ff1681565b600360009054906101000a900473ffffffffffffffffffffffffffffffffffffffff1681565b60008073ffffffffffffffffffffffffffffffffffffffff16600260009054906101000a900473ffffffffffffffffffffffffffffffffffffffff1673ffffffffffffffffffffffffffffffffffffffff16141580156108d8575060003073ffffffffffffffffffffffffffffffffffffffff1631115b15156108e357600080fd5b60011515600b60009054906101000a900460ff16151514151561096e576040517f08c379a000000000000000000000000000000000000000000000000000000000815260040180806020018281038252600c8152602001807f6e6f74206f6e2073746f636b000000000000000000000000000000000000000081525060200191505060405180910390fd5b6000600360009054906101000a900473ffffffffffffffffffffffffffffffffffffffff1673ffffffffffffffffffffffffffffffffffffffff16632537127f6040518163ffffffff167c010000000000000000000000000000000000000000000000000000000002815260040160206040518083038186803b1580156109f457600080fd5b505afa158015610a08573d6000803e3d6000fd5b505050506040513d6020811015610a1e57600080fd5b81019080805190602001909291905050509050617080810342101515610a4357600080fd5b611c206009540142111515610ac0576040517f08c379a00000000000000000000000000000000000000000000000000000000081526004018080602001828103825260208152602001807f63616e6e6f74206368616e6765206f776e65727368697020746f6f20736f6f6e81525060200191505060405180910390fd5b6101f4600854811515610acf57fe5b0460085401600560009054906101000a900473ffffffffffffffffffffffffffffffffffffffff1673ffffffffffffffffffffffffffffffffffffffff1663dd62ed3e33306040518363ffffffff167c0100000000000000000000000000000000000000000000000000000000028152600401808373ffffffffffffffffffffffffffffffffffffffff1673ffffffffffffffffffffffffffffffffffffffff1681526020018273ffffffffffffffffffffffffffffffffffffffff1673ffffffffffffffffffffffffffffffffffffffff1681526020019250505060206040518083038186803b158015610bc357600080fd5b505afa158015610bd7573d6000803e3d6000fd5b505050506040513d6020811015610bed57600080fd5b810190808051906020019092919050505010151515610c0b57600080fd5b6000600160009054906101000a900473ffffffffffffffffffffffffffffffffffffffff1690506000600b60006101000a81548160ff02191690831515021790555033600160006101000a81548173ffffffffffffffffffffffffffffffffffffffff021916908373ffffffffffffffffffffffffffffffffffffffff16021790555042600981905550600560009054906101000a900473ffffffffffffffffffffffffffffffffffffffff1673ffffffffffffffffffffffffffffffffffffffff166323b872dd33836008546040518463ffffffff167c0100000000000000000000000000000000000000000000000000000000028152600401808473ffffffffffffffffffffffffffffffffffffffff1673ffffffffffffffffffffffffffffffffffffffff1681526020018373ffffffffffffffffffffffffffffffffffffffff1673ffffffffffffffffffffffffffffffffffffffff1681526020018281526020019350505050602060405180830381600087803b158015610d9057600080fd5b505af1158015610da4573d6000803e3d6000fd5b505050506040513d6020811015610dba57600080fd5b810190808051906020019092919050505050600192505050949350505050565b6000600854905090565b60085481565b60075481565b600560009054906101000a900473ffffffffffffffffffffffffffffffffffffffff1681565b6000600654905090565b600b60009054906101000a900460ff1681565b600160009054906101000a900473ffffffffffffffffffffffffffffffffffffffff1681565b6000600754905090565b600073ffffffffffffffffffffffffffffffffffffffff16600260009054906101000a900473ffffffffffffffffffffffffffffffffffffffff1673ffffffffffffffffffffffffffffffffffffffff1614158015610ed9575060003073ffffffffffffffffffffffffffffffffffffffff1631115b1515610ee457600080fd5b600160009054906101000a900473ffffffffffffffffffffffffffffffffffffffff1673ffffffffffffffffffffffffffffffffffffffff163373ffffffffffffffffffffffffffffffffffffffff16141515610fa9576040517f08c379a00000000000000000000000000000000000000000000000000000000081526004018080602001828103825260098152602001807f6e6f74206f776e6572000000000000000000000000000000000000000000000081525060200191505060405180910390fd5b6000600360009054906101000a900473ffffffffffffffffffffffffffffffffffffffff1673ffffffffffffffffffffffffffffffffffffffff16632537127f6040518163ffffffff167c010000000000000000000000000000000000000000000000000000000002815260040160206040518083038186803b15801561102f57600080fd5b505afa158015611043573d6000803e3d6000fd5b505050506040513d602081101561105957600080fd5b8101908080519060200190929190505050905061708081034210151561107e57600080fd5b60001515600b60009054906101000a900460ff161515141515611109576040517f08c379a000000000000000000000000000000000000000000000000000000000815260040180806020018281038252601a8152602001807f63616e206f6e6c7920707574206f6e2053746f636b206f6e636500000000000081525060200191505060405180910390fd5b6001600b60006101000a81548160ff021916908315150217905550816008819055505050565b60001515600360009054906101000a900473ffffffffffffffffffffffffffffffffffffffff1673ffffffffffffffffffffffffffffffffffffffff1663ba2eb541306040518263ffffffff167c0100000000000000000000000000000000000000000000000000000000028152600401808273ffffffffffffffffffffffffffffffffffffffff1673ffffffffffffffffffffffffffffffffffffffff16815260200191505060206040518083038186803b1580156111ee57600080fd5b505afa158015611202573d6000803e3d6000fd5b505050506040513d602081101561121857600080fd5b810190808051906020019092919050505015151415156112a0576040517f08c379a00000000000000000000000000000000000000000000000000000000081526004018080602001828103825260118152602001807f6e6f772063616e2065786365726369736500000000000000000000000000000081525060200191505060405180910390fd5b600073ffffffffffffffffffffffffffffffffffffffff16600260009054906101000a900473ffffffffffffffffffffffffffffffffffffffff1673ffffffffffffffffffffffffffffffffffffffff16141515611366576040517f08c379a00000000000000000000000000000000000000000000000000000000081526004018080602001828103825260178152602001807f6f74686572732066696c6c2045544820616c726561647900000000000000000081525060200191505060405180910390fd5b600654341415156113c2576040517f08c379a0000000000000000000000000000000000000000000000000000000008152600401808060200182810382526023815260200180611e1b6023913960400191505060405180910390fd5b600360009054906101000a900473ffffffffffffffffffffffffffffffffffffffff1673ffffffffffffffffffffffffffffffffffffffff166310bbc68a6040518163ffffffff167c010000000000000000000000000000000000000000000000000000000002815260040160206040518083038186803b15801561144657600080fd5b505afa15801561145a573d6000803e3d6000fd5b505050506040513d602081101561147057600080fd5b810190808051906020019092919050505060088190555033600260006101000a81548173ffffffffffffffffffffffffffffffffffffffff021916908373ffffffffffffffffffffffffffffffffffffffff160217905550426009819055506000600b60006101000a81548160ff021916908315150217905550600560009054906101000a900473ffffffffffffffffffffffffffffffffffffffff1673ffffffffffffffffffffffffffffffffffffffff1663a9059cbb336008546040518363ffffffff167c0100000000000000000000000000000000000000000000000000000000028152600401808373ffffffffffffffffffffffffffffffffffffffff1673ffffffffffffffffffffffffffffffffffffffff16815260200182815260200192505050602060405180830381600087803b1580156115b157600080fd5b505af11580156115c5573d6000803e3d6000fd5b505050506040513d60208110156115db57600080fd5b810190808051906020019092919050505050565b60065481565b60008073ffffffffffffffffffffffffffffffffffffffff16600260009054906101000a900473ffffffffffffffffffffffffffffffffffffffff1673ffffffffffffffffffffffffffffffffffffffff161415801561166c575060003073ffffffffffffffffffffffffffffffffffffffff1631115b905090565b60011515600360009054906101000a900473ffffffffffffffffffffffffffffffffffffffff1673ffffffffffffffffffffffffffffffffffffffff1663ba2eb541306040518263ffffffff167c0100000000000000000000000000000000000000000000000000000000028152600401808273ffffffffffffffffffffffffffffffffffffffff1673ffffffffffffffffffffffffffffffffffffffff16815260200191505060206040518083038186803b15801561173057600080fd5b505afa158015611744573d6000803e3d6000fd5b505050506040513d602081101561175a57600080fd5b810190808051906020019092919050505015151415156117e2576040517f08c379a00000000000000000000000000000000000000000000000000000000081526004018080602001828103825260178152602001807f63616e206e6f206c6f6e6765722065786365726369736500000000000000000081525060200191505060405180910390fd5b600260009054906101000a900473ffffffffffffffffffffffffffffffffffffffff1673ffffffffffffffffffffffffffffffffffffffff163373ffffffffffffffffffffffffffffffffffffffff161415156118a7576040517f08c379a000000000000000000000000000000000000000000000000000000000815260040180806020018281038252601a8152602001807f6f6e6c792065746853656c6c65722063616e2063616c6c20697400000000000081525060200191505060405180910390fd5b60001515600b60029054906101000a900460ff161515141515611932576040517f08c379a00000000000000000000000000000000000000000000000000000000081526004018080602001828103825260118152602001807f616c72656164792065786572636973656400000000000000000000000000000081525060200191505060405180910390fd5b6000600b60006101000a81548160ff0219169083151502179055503373ffffffffffffffffffffffffffffffffffffffff166108fc3073ffffffffffffffffffffffffffffffffffffffff16319081150290604051600060405180830381858888f193505050501580156119aa573d6000803e3d6000fd5b503373ffffffffffffffffffffffffffffffffffffffff16ff5b600160009054906101000a900473ffffffffffffffffffffffffffffffffffffffff1673ffffffffffffffffffffffffffffffffffffffff163373ffffffffffffffffffffffffffffffffffffffff16141515611a89576040517f08c379a00000000000000000000000000000000000000000000000000000000081526004018080602001828103825260098152602001807f6e6f74206f776e6572000000000000000000000000000000000000000000000081525060200191505060405180910390fd5b6000600360009054906101000a900473ffffffffffffffffffffffffffffffffffffffff1673ffffffffffffffffffffffffffffffffffffffff16632537127f6040518163ffffffff167c010000000000000000000000000000000000000000000000000000000002815260040160206040518083038186803b158015611b0f57600080fd5b505afa158015611b23573d6000803e3d6000fd5b505050506040513d6020811015611b3957600080fd5b8101908080519060200190929190505050905060001515600b60009054906101000a900460ff161515148015611b6e57508042105b80611b88575061708081034210158015611b8757508042105b5b1515611b9357600080fd5b611c206009540142111515611beb576040517f08c379a0000000000000000000000000000000000000000000000000000000008152600401808060200182810382526000815260200160200191505060405180910390fd5b60001515600b60009054906101000a905050506001600b60026101000a81548160ff021916908315150217905550600560009054906101000a900473ffffffffffffffffffffffffffffffffffffffff1673ffffffffffffffffffffffffffffffffffffffff166323b872dd33600260009054906101000a900473ffffffffffffffffffffffffffffffffffffffff166007546040518463ffffffff167c0100000000000000000000000000000000000000000000000000000000028152600401808473ffffffffffffffffffffffffffffffffffffffff1673ffffffffffffffffffffffffffffffffffffffff1681526020018373ffffffffffffffffffffffffffffffffffffffff1673ffffffffffffffffffffffffffffffffffffffff1681526020018281526020019350505050602060405180830381600087803b158015611d3657600080fd5b505af1158015611d4a573d6000803e3d6000fd5b505050506040513d6020811015611d6057600080fd5b8101908080519060200190929190505050503373ffffffffffffffffffffffffffffffffffffffff166108fc3073ffffffffffffffffffffffffffffffffffffffff16319081150290604051600060405180830381858888f19350505050158015611dcf573d6000803e3d6000fd5b503373ffffffffffffffffffffffffffffffffffffffff16ff5b600a5481565b6000809054906101000a900473ffffffffffffffffffffffffffffffffffffffff1681565b6009548156fe6e65656420746f206465706f73697420657861637420616d6f756e74206f6620455448a165627a7a72305820248f29491b9741d403e49df18936dd094cd2ce1c8be127e4fee81c7e48dcf6850029",
  "source": "pragma solidity ^0.5.2;\nimport \"./SafeMath.sol\";\nimport \"./RegistryInterface.sol\";\nimport \"./ERC20.sol\";\n// import \"./BlockRegistryInterface.sol\";\n\n/*\nroles:\n   * originalOwner: someone want to buy the right of some ETH, pay DAI to ethSeller\n   * ethSeller: someone want to sell the rights of some ETH, fill in ETH to this contract\n   * buyer: someone want to buy the ownership of those ETH, pay DAI to currentOwner and become new owner\n            (originalOwner is the first buyer)\ntime:\n   * `period`: in order of months\n   * the new contract owner cannot sell the ownership right away\n*/\n\ncontract Optract {\n    using SafeMath for uint256;\n    address public originalOwner;\n    address public currentOwner;\n    address public ethSeller;\n    address public registryAddr;  // the contract registry\n    address public blkAddr;  // the side-chain address\n    address public currencyTokenAddr;\n    uint256 public ethAmount;\n    uint256 public totalPriceInDai;\n    uint256 public optionPrice;\n    uint256 public actionTime;  // right now, the actions are contract creation and newOwner()\n    uint256 public period;  // length of time\n    bool public onStock;\n    bool public expired = false;  // query \"registry\" to determine when to expire\n    bool public exercised = false;\n\n    constructor (\n        uint256 _ethAmount,\n        uint256 _totalPriceInDai,\n        address _registryAddr,\n        address _originalOwner,\n        address _blkAddr,\n        address _currencyTokenAddr\n    ) public {\n        ethAmount = _ethAmount;\n        totalPriceInDai = _totalPriceInDai;\n        registryAddr = _registryAddr;\n        originalOwner = _originalOwner;\n        blkAddr = _blkAddr;\n        currencyTokenAddr = _currencyTokenAddr;\n\n        onStock = true;  // for others to query\n        currentOwner = _originalOwner;\n        actionTime = block.timestamp;  // use this to avoid some too soon operations\n    }\n\n    modifier ownerOnly() {\n        require(msg.sender == currentOwner, \"not owner\");\n        _;\n    }\n\n    modifier ethFilled() {\n        require (ethSeller != address(0) && address(this).balance > 0);\n        _;\n    }\n\n    modifier isOnStock() {\n        require(onStock == true, \"not on stock\");\n        _;\n    }\n\n    modifier whenExpired() {\n        require(iOptractRegistry(registryAddr).isExpired(address(this)) == true, \"can no longer excercise\");\n        _;\n    }\n\n    modifier whenNotExpired() {\n        require(iOptractRegistry(registryAddr).isExpired(address(this)) == false, \"now can excercise\");\n        _;\n    }\n\n    // modifier whenLastExerciseChance() {\n    //     uint256 expireTime = iOptractRegistry(registryAddr).getExpireTime();\n    //     require(block.timestamp >= expireTime - 8 hours && block.timestamp < expireTime);\n    //     _;\n    // }\n\n    modifier whenBeforeLastExerciseChance() {\n        uint256 expireTime = iOptractRegistry(registryAddr).getExpireTime();\n        require(block.timestamp < expireTime - 8 hours);\n        _;\n    }\n\n    modifier whenCanExercise() {\n        uint256 expireTime = iOptractRegistry(registryAddr).getExpireTime();\n        require((onStock == false && block.timestamp < expireTime)\n                || (block.timestamp >= expireTime - 8 hours && block.timestamp < expireTime)\n               );\n        _;\n    }\n    // after construct, need a ethSeller to fill in ETH, and the ethSeller obtain DAI\n    function fillInEth() public payable whenNotExpired {\n        require(ethSeller == address(0), \"others fill ETH already\");  // only one can fill in ETH\n        require(msg.value == ethAmount, \"need to deposit exact amount of ETH\");\n        optionPrice = iOptractRegistry(registryAddr).queryInitPrice();\n        ethSeller = msg.sender;\n        actionTime = block.timestamp;\n        onStock = false;\n        // address(this) get 5 DAI (the fix optionPrice for 1st trade) from originalOwner in 'Registry' contract\n        ERC20(currencyTokenAddr).transfer(msg.sender, optionPrice);\n        // note: the originalOwner can hold for some time then withdraw or putOnStock() at some point\n    }\n\n    // a successful buyer can get the ownership (verified through state channel)\n    function claimOptract(\n        bytes32[] memory proof,\n        bool[] memory isLeft,\n        bytes32 targetLeaf,\n        bytes32 merkleRoot\n    ) public ethFilled isOnStock whenBeforeLastExerciseChance returns(bool) {\n        // verify:  require(calculateLeaf(msg.sender, some_more_data...) == targetLeaf))\n        // require(iBlockRegistry(blkAddr).merkleTreeValidator(proof, isLeft, targetLeaf, merkleRoot) == true, \"invalid Merkle Proof\");\n        require(block.timestamp > actionTime + 2 hours, \"cannot change ownership too soon\");\n\trequire(ERC20(currencyTokenAddr).allowance(msg.sender, address(this)) >= optionPrice + optionPrice/500);\n        address prevOwner = currentOwner;\n\n        // new owner\n        onStock = false;  // has to call putOnStock() to make it on stock\n        currentOwner = msg.sender;\n        actionTime = block.timestamp;\n\n        // the new owner transfer DAI to contract owner\n        ERC20(currencyTokenAddr).transferFrom(msg.sender, prevOwner, optionPrice);\n        // ERC20(currencyTokenAddr).transferFrom(msg.sender, iBlockRegistry(blkAddr), optionPrice/500);  // 0.2% fee to block contract\n\n        return true;\n    }\n\n    function putOnStock(uint256 _newOptionPrice) public ethFilled ownerOnly whenBeforeLastExerciseChance {\n        // call it when a buyer want to sell the option\n        require(onStock == false, \"can only put on Stock once\");\n        onStock = true;\n        optionPrice = _newOptionPrice;\n    }\n\n    // function setNewOptionPrice(uint newPrice) public ownerOnly {\n    //     // any restrictions?\n    //     optionPrice = newPrice;\n    // }\n\n    // two ways to end this contract:\n    //   (whenNotExpired) the last owner pay DAI and withdraw ETH or (whenExpired) ethSeller take ETH back\n    function currentOwnerExercise() public ownerOnly whenCanExercise {\n        require(block.timestamp > actionTime + 2 hours, \"\");  // cannot withdraw right away\n        onStock == false;\n        exercised = true;\n        ERC20(currencyTokenAddr).transferFrom(msg.sender, ethSeller, totalPriceInDai);\n        msg.sender.transfer(address(this).balance);\n        selfdestruct(msg.sender);\n    }\n\n    function ethSellerWithdraw() public whenExpired {\n        // if the contract owner don't exercise, ethSeller get the eth back\n        require(msg.sender == ethSeller, \"only ethSeller can call it\");\n        require(exercised == false, \"already exercised\");\n        onStock = false;\n        msg.sender.transfer(address(this).balance);\n        selfdestruct(msg.sender);\n    }\n\n    // query functions\n    function queryOptionPrice() public view returns (uint256) {\n        return optionPrice;\n    }\n\n    function queryOrderPrice() public view returns (uint256) {\n        return totalPriceInDai;\n    }\n\n    function queryOrderSize() public view returns (uint256) {\n        return ethAmount;\n    }\n\n    function queryOnStock() public view returns (bool) {\n        return onStock;\n    }\n\n    function isFilled() public view returns (bool) {\n        return (ethSeller != address(0) && address(this).balance > 0);\n    }\n\n}\n",
  "sourcePath": "/home/kai/Work/project/Optract/contracts/Optract.sol",
  "compiler": {
    "name": "solc",
    "version": "0.5.2+commit.1df8f40c.Linux.g++"
  },
  "schemaVersion": "3.0.1",
  "updatedAt": "2019-02-27T23:23:48.328Z",
  "devdoc": {
    "methods": {}
  },
  "userdoc": {
    "methods": {}
  }
}