{
  "contractName": "OptractRegistry",
  "abi": [
    {
      "constant": true,
      "inputs": [],
      "name": "totalOpts",
      "outputs": [
        {
          "name": "",
          "type": "uint256"
        }
      ],
      "payable": false,
      "stateMutability": "view",
      "type": "function",
      "signature": "0x14eb3037"
    },
    {
      "constant": true,
      "inputs": [],
      "name": "optionMinPrice",
      "outputs": [
        {
          "name": "",
          "type": "uint256"
        }
      ],
      "payable": false,
      "stateMutability": "view",
      "type": "function",
      "signature": "0x1e5fc06b"
    },
    {
      "constant": true,
      "inputs": [],
      "name": "blkAddr",
      "outputs": [
        {
          "name": "",
          "type": "address"
        }
      ],
      "payable": false,
      "stateMutability": "view",
      "type": "function",
      "signature": "0x28f402b1"
    },
    {
      "constant": true,
      "inputs": [],
      "name": "paused",
      "outputs": [
        {
          "name": "",
          "type": "bool"
        }
      ],
      "payable": false,
      "stateMutability": "view",
      "type": "function",
      "signature": "0x5c975abb"
    },
    {
      "constant": true,
      "inputs": [],
      "name": "currencyTokenAddr",
      "outputs": [
        {
          "name": "",
          "type": "address"
        }
      ],
      "payable": false,
      "stateMutability": "view",
      "type": "function",
      "signature": "0x91d622b9"
    },
    {
      "constant": true,
      "inputs": [],
      "name": "memberContractAddr",
      "outputs": [
        {
          "name": "",
          "type": "address"
        }
      ],
      "payable": false,
      "stateMutability": "view",
      "type": "function",
      "signature": "0xc170f356"
    },
    {
      "constant": true,
      "inputs": [
        {
          "name": "",
          "type": "uint256"
        }
      ],
      "name": "operators",
      "outputs": [
        {
          "name": "",
          "type": "address"
        }
      ],
      "payable": false,
      "stateMutability": "view",
      "type": "function",
      "signature": "0xe28d4906"
    },
    {
      "inputs": [
        {
          "name": "_currencyTokenAddr",
          "type": "address"
        },
        {
          "name": "_blkAddr",
          "type": "address"
        },
        {
          "name": "_memberContracAddr",
          "type": "address"
        }
      ],
      "payable": false,
      "stateMutability": "nonpayable",
      "type": "constructor",
      "signature": "constructor"
    },
    {
      "constant": false,
      "inputs": [
        {
          "name": "ETHAmount",
          "type": "uint256"
        },
        {
          "name": "totalPrice",
          "type": "uint256"
        },
        {
          "name": "period",
          "type": "uint256"
        },
        {
          "name": "optionPrice",
          "type": "uint256"
        }
      ],
      "name": "createOptract",
      "outputs": [],
      "payable": false,
      "stateMutability": "nonpayable",
      "type": "function",
      "signature": "0x9eee80b1"
    },
    {
      "constant": false,
      "inputs": [],
      "name": "destructRecord",
      "outputs": [],
      "payable": false,
      "stateMutability": "nonpayable",
      "type": "function",
      "signature": "0x99691650"
    },
    {
      "constant": true,
      "inputs": [],
      "name": "queryOptionMinPrice",
      "outputs": [
        {
          "name": "",
          "type": "uint256"
        }
      ],
      "payable": false,
      "stateMutability": "pure",
      "type": "function",
      "signature": "0x64da7e24"
    },
    {
      "constant": true,
      "inputs": [
        {
          "name": "optractAddress",
          "type": "address"
        }
      ],
      "name": "isExpired",
      "outputs": [
        {
          "name": "",
          "type": "bool"
        }
      ],
      "payable": false,
      "stateMutability": "view",
      "type": "function",
      "signature": "0xba2eb541"
    },
    {
      "constant": true,
      "inputs": [],
      "name": "getExpireTime",
      "outputs": [
        {
          "name": "",
          "type": "uint256"
        }
      ],
      "payable": false,
      "stateMutability": "view",
      "type": "function",
      "signature": "0x2537127f"
    },
    {
      "constant": true,
      "inputs": [
        {
          "name": "_addr",
          "type": "address"
        }
      ],
      "name": "queryOptractRecords",
      "outputs": [
        {
          "name": "",
          "type": "uint256"
        },
        {
          "name": "",
          "type": "uint256"
        },
        {
          "name": "",
          "type": "address"
        }
      ],
      "payable": false,
      "stateMutability": "view",
      "type": "function",
      "signature": "0x38440451"
    },
    {
      "constant": false,
      "inputs": [
        {
          "name": "newCurrencyTokenAddr",
          "type": "address"
        }
      ],
      "name": "setCurrencyTokenAddr",
      "outputs": [
        {
          "name": "",
          "type": "bool"
        }
      ],
      "payable": false,
      "stateMutability": "nonpayable",
      "type": "function",
      "signature": "0x005bc3f4"
    },
    {
      "constant": false,
      "inputs": [
        {
          "name": "newBlkAddr",
          "type": "address"
        }
      ],
      "name": "setBlkAddr",
      "outputs": [
        {
          "name": "",
          "type": "bool"
        }
      ],
      "payable": false,
      "stateMutability": "nonpayable",
      "type": "function",
      "signature": "0x70747092"
    },
    {
      "constant": false,
      "inputs": [
        {
          "name": "_addr",
          "type": "address"
        }
      ],
      "name": "setMemberCtrAddr",
      "outputs": [
        {
          "name": "",
          "type": "bool"
        }
      ],
      "payable": false,
      "stateMutability": "nonpayable",
      "type": "function",
      "signature": "0xb8464efb"
    },
    {
      "constant": true,
      "inputs": [
        {
          "name": "start",
          "type": "uint256"
        },
        {
          "name": "length",
          "type": "uint256"
        },
        {
          "name": "owner",
          "type": "address"
        }
      ],
      "name": "_getNumOfActiveOptracts",
      "outputs": [
        {
          "name": "",
          "type": "uint256"
        }
      ],
      "payable": false,
      "stateMutability": "view",
      "type": "function",
      "signature": "0x61605f09"
    },
    {
      "constant": true,
      "inputs": [
        {
          "name": "start",
          "type": "uint256"
        },
        {
          "name": "length",
          "type": "uint256"
        },
        {
          "name": "owner",
          "type": "address"
        },
        {
          "name": "_idx",
          "type": "uint8"
        }
      ],
      "name": "activeOptractsLoop",
      "outputs": [
        {
          "name": "",
          "type": "uint256[]"
        }
      ],
      "payable": false,
      "stateMutability": "view",
      "type": "function",
      "signature": "0x3b47ea04"
    },
    {
      "constant": true,
      "inputs": [
        {
          "name": "start",
          "type": "uint256"
        },
        {
          "name": "length",
          "type": "uint256"
        },
        {
          "name": "owner",
          "type": "address"
        }
      ],
      "name": "activeOptractsFilledStatus",
      "outputs": [
        {
          "name": "",
          "type": "address[]"
        },
        {
          "name": "",
          "type": "bool[]"
        }
      ],
      "payable": false,
      "stateMutability": "view",
      "type": "function",
      "signature": "0x4b140961"
    },
    {
      "constant": true,
      "inputs": [
        {
          "name": "start",
          "type": "uint256"
        },
        {
          "name": "length",
          "type": "uint256"
        },
        {
          "name": "owner",
          "type": "address"
        }
      ],
      "name": "activeOptracts",
      "outputs": [
        {
          "name": "",
          "type": "address[]"
        },
        {
          "name": "",
          "type": "uint256[]"
        },
        {
          "name": "",
          "type": "uint256[]"
        },
        {
          "name": "",
          "type": "uint256[]"
        },
        {
          "name": "",
          "type": "uint256[]"
        },
        {
          "name": "",
          "type": "bool[]"
        }
      ],
      "payable": false,
      "stateMutability": "view",
      "type": "function",
      "signature": "0x6769f438"
    },
    {
      "constant": true,
      "inputs": [
        {
          "name": "start",
          "type": "uint256"
        },
        {
          "name": "length",
          "type": "uint256"
        },
        {
          "name": "owner",
          "type": "address"
        }
      ],
      "name": "_getNumOfInActiveOptracts",
      "outputs": [
        {
          "name": "",
          "type": "uint256"
        }
      ],
      "payable": false,
      "stateMutability": "view",
      "type": "function",
      "signature": "0x69edcbdc"
    },
    {
      "constant": true,
      "inputs": [
        {
          "name": "start",
          "type": "uint256"
        },
        {
          "name": "length",
          "type": "uint256"
        },
        {
          "name": "owner",
          "type": "address"
        },
        {
          "name": "_idx",
          "type": "uint8"
        }
      ],
      "name": "inactiveOptractsLoop",
      "outputs": [
        {
          "name": "",
          "type": "uint256[]"
        }
      ],
      "payable": false,
      "stateMutability": "view",
      "type": "function",
      "signature": "0xdac717e2"
    },
    {
      "constant": true,
      "inputs": [
        {
          "name": "start",
          "type": "uint256"
        },
        {
          "name": "length",
          "type": "uint256"
        },
        {
          "name": "owner",
          "type": "address"
        }
      ],
      "name": "inactiveOptractsFilledStatus",
      "outputs": [
        {
          "name": "",
          "type": "address[]"
        },
        {
          "name": "",
          "type": "bool[]"
        }
      ],
      "payable": false,
      "stateMutability": "view",
      "type": "function",
      "signature": "0xb7233fa5"
    },
    {
      "constant": true,
      "inputs": [
        {
          "name": "start",
          "type": "uint256"
        },
        {
          "name": "length",
          "type": "uint256"
        },
        {
          "name": "owner",
          "type": "address"
        }
      ],
      "name": "inactiveOptracts",
      "outputs": [
        {
          "name": "",
          "type": "address[]"
        },
        {
          "name": "",
          "type": "uint256[]"
        },
        {
          "name": "",
          "type": "uint256[]"
        },
        {
          "name": "",
          "type": "uint256[]"
        },
        {
          "name": "",
          "type": "uint256[]"
        },
        {
          "name": "",
          "type": "bool[]"
        }
      ],
      "payable": false,
      "stateMutability": "view",
      "type": "function",
      "signature": "0x26b057ad"
    }
  ],
  "bytecode": "0x608060405260006006556007805460ff1916905534801561001f57600080fd5b506040516060806149d38339810180604052606081101561003f57600080fd5b50805160208201516040909201516000805433600160a060020a0319918216178255600380548216600160a060020a039586161790556004805482169585169590951790945560058054909416929091169190911790915561492c9081906100a790396000f3fe608060405234801561001057600080fd5b506004361061015b5760003560e060020a900480636769f438116100c7578063b7233fa511610080578063b7233fa514610677578063b8464efb146106a9578063ba2eb541146106cf578063c170f356146106f5578063dac717e2146106fd578063e28d4906146107385761015b565b80636769f438146105ac57806369edcbdc146105de578063707470921461061057806391d622b914610636578063996916501461063e5780639eee80b1146106485761015b565b8063384404511161011957806338440451146103c75780633b47ea04146104145780634b1409611461049f5780635c975abb1461056a57806361605f091461057257806364da7e24146105a45761015b565b80625bc3f41461016057806314eb30371461019a5780631e5fc06b146101b45780632537127f146101bc57806326b057ad146101c457806328f402b1146103a3575b600080fd5b6101866004803603602081101561017657600080fd5b5035600160a060020a0316610755565b604080519115158252519081900360200190f35b6101a26107db565b60408051918252519081900360200190f35b6101a26107e1565b6101a26107ed565b6101f6600480360360608110156101da57600080fd5b5080359060208101359060400135600160a060020a031661084a565b6040518080602001806020018060200180602001806020018060200187810387528d818151815260200191508051906020019060200280838360005b8381101561024a578181015183820152602001610232565b5050505090500187810386528c818151815260200191508051906020019060200280838360005b83811015610289578181015183820152602001610271565b5050505090500187810385528b818151815260200191508051906020019060200280838360005b838110156102c85781810151838201526020016102b0565b5050505090500187810384528a818151815260200191508051906020019060200280838360005b838110156103075781810151838201526020016102ef565b50505050905001878103835289818151815260200191508051906020019060200280838360005b8381101561034657818101518382015260200161032e565b50505050905001878103825288818151815260200191508051906020019060200280838360005b8381101561038557818101518382015260200161036d565b505050509050019c5050505050505050505050505060405180910390f35b6103ab610a63565b60408051600160a060020a039092168252519081900360200190f35b6103ed600480360360208110156103dd57600080fd5b5035600160a060020a0316610a72565b604080519384526020840192909252600160a060020a031682820152519081900360600190f35b61044f6004803603608081101561042a57600080fd5b508035906020810135906040810135600160a060020a0316906060013560ff16610aa0565b60408051602080825283518183015283519192839290830191858101910280838360005b8381101561048b578181015183820152602001610473565b505050509050019250505060405180910390f35b6104d1600480360360608110156104b557600080fd5b5080359060208101359060400135600160a060020a0316611174565b604051808060200180602001838103835285818151815260200191508051906020019060200280838360005b838110156105155781810151838201526020016104fd565b50505050905001838103825284818151815260200191508051906020019060200280838360005b8381101561055457818101518382015260200161053c565b5050505090500194505050505060405180910390f35b6101866115c3565b6101a26004803603606081101561058857600080fd5b5080359060208101359060400135600160a060020a03166115cc565b6101a2611805565b6101f6600480360360608110156105c257600080fd5b5080359060208101359060400135600160a060020a0316611811565b6101a2600480360360608110156105f457600080fd5b5080359060208101359060400135600160a060020a0316611a0b565b6101866004803603602081101561062657600080fd5b5035600160a060020a0316611c2b565b6103ab611cb1565b610646611cc0565b005b6106466004803603608081101561065e57600080fd5b5080359060208101359060408101359060600135611d91565b6104d16004803603606081101561068d57600080fd5b5080359060208101359060400135600160a060020a03166120e6565b610186600480360360208110156106bf57600080fd5b5035600160a060020a0316612525565b610186600480360360208110156106e557600080fd5b5035600160a060020a0316612596565b6103ab6125b6565b61044f6004803603608081101561071357600080fd5b508035906020810135906040810135600160a060020a0316906060013560ff166125c5565b6103ab6004803603602081101561074e57600080fd5b5035612c8a565b600080800154600160a060020a031633148061077e5750600060010154600160a060020a031633145b806107965750600060020154600160a060020a031633145b15156107a157600080fd5b600160a060020a03821615156107b657600080fd5b5060038054600160a060020a038316600160a060020a03199091161790556001919050565b60065481565b674563918244f4000081565b3360009081526009602052604081206001015442111561080c57600080fd5b33600090815260096020526040902060020154600160a060020a0316151561083357600080fd5b503360009081526009602052604090206001015490565b6060806060806060806000891180156108635750600088115b151561086e57600080fd5b600060065411801561088257508860065410155b151561088d57600080fd5b6006546001898b010311156108a757886006540360010197505b60606108b48a8a8a611a0b565b6040519080825280602002602001820160405280156108dd578160200160208202803883390190505b50905060606108ed8b8b8b611a0b565b604051908082528060200260200182016040528015610916578160200160208202803883390190505b50905060606109268c8c8c611a0b565b60405190808252806020026020018201604052801561094f578160200160208202803883390190505b509050606061095f8d8d8d611a0b565b604051908082528060200260200182016040528015610988578160200160208202803883390190505b50905060606109988e8e8e611a0b565b6040519080825280602002602001820160405280156109c1578160200160208202803883390190505b50905060606109d18f8f8f611a0b565b6040519080825280602002602001820160405280156109fa578160200160208202803883390190505b509050610a0a8f8f8f60016125c5565b9450610a198f8f8f60026125c5565b9350610a288f8f8f60036125c5565b9250610a378f8f8f60046125c5565b9150610a448f8f8f6120e6565b909c50949a509298509096509450909250505093975093979195509350565b600454600160a060020a031681565b600160a060020a03908116600090815260096020526040902080546001820154600290920154909391921690565b606060018260ff1610158015610aba575060048260ff1611155b1515610b2757604080517f08c379a000000000000000000000000000000000000000000000000000000000815260206004820152601f60248201527f756e6b6e6f776e206f7074726163742063686172616374657269737469637300604482015290519081900360640190fd5b6006546001858701031115610b4157846006540360010193505b6000610b4e8686866115cc565b9050606081604051908082528060200260200182016040528015610b7c578160200160208202803883390190505b5090506000600160a060020a0386161515610e6157875b600019898901018111610e5b5760008181526008602090815260409182902054825160e060020a63070ee0670281529251600160a060020a039091169263070ee067926004808301939192829003018186803b158015610bf257600080fd5b505afa158015610c06573d6000803e3d6000fd5b505050506040513d6020811015610c1c57600080fd5b50511580610c585750600081815260086020908152604080832054600160a060020a0316835260099091529020600101544261707f1990910111155b15610c6257610e53565b8560ff1660011415610cb357600081815260086020908152604080832054600160a060020a0316835260099091529020600101548351849084908110610ca457fe5b60209081029091010152610e4c565b8560ff1660021415610d4b5760008181526008602090815260409182902054825160e060020a63b3fb9fc70281529251600160a060020a039091169263b3fb9fc7926004808301939192829003018186803b158015610d1157600080fd5b505afa158015610d25573d6000803e3d6000fd5b505050506040513d6020811015610d3b57600080fd5b50518351849084908110610ca457fe5b8560ff1660031415610da95760008181526008602090815260409182902054825160e160020a635817852d0281529251600160a060020a039091169263b02f0a5a926004808301939192829003018186803b158015610d1157600080fd5b8560ff1660041415610e4c5760008181526008602090815260409182902054825160e160020a633b7c6e470281529251600160a060020a03909116926376f8dc8e926004808301939192829003018186803b158015610e0757600080fd5b505afa158015610e1b573d6000803e3d6000fd5b505050506040513d6020811015610e3157600080fd5b50518351849084908110610e4157fe5b602090810290910101525b6001820191505b600101610b93565b50611167565b875b60001989890101811161116557600081815260086020908152604080832054600160a060020a039081168452600990925290912060020154811690881614610eaa5761115d565b60008181526008602090815260409182902054825160e060020a63070ee0670281529251600160a060020a039091169263070ee067926004808301939192829003018186803b158015610efc57600080fd5b505afa158015610f10573d6000803e3d6000fd5b505050506040513d6020811015610f2657600080fd5b50511580610f625750600081815260086020908152604080832054600160a060020a0316835260099091529020600101544261707f1990910111155b15610f6c5761115d565b8560ff1660011415610fbd57600081815260086020908152604080832054600160a060020a0316835260099091529020600101548351849084908110610fae57fe5b60209081029091010152611156565b8560ff16600214156110555760008181526008602090815260409182902054825160e060020a63b3fb9fc70281529251600160a060020a039091169263b3fb9fc7926004808301939192829003018186803b15801561101b57600080fd5b505afa15801561102f573d6000803e3d6000fd5b505050506040513d602081101561104557600080fd5b50518351849084908110610fae57fe5b8560ff16600314156110b35760008181526008602090815260409182902054825160e160020a635817852d0281529251600160a060020a039091169263b02f0a5a926004808301939192829003018186803b15801561101b57600080fd5b8560ff16600414156111565760008181526008602090815260409182902054825160e160020a633b7c6e470281529251600160a060020a03909116926376f8dc8e926004808301939192829003018186803b15801561111157600080fd5b505afa158015611125573d6000803e3d6000fd5b505050506040513d602081101561113b57600080fd5b5051835184908490811061114b57fe5b602090810290910101525b6001820191505b600101610e63565b505b509150505b949350505050565b606080600654600185870103111561119157846006540360010193505b600061119e8686866115cc565b90506060816040519080825280602002602001820160405280156111cc578160200160208202803883390190505b5090506060826040519080825280602002602001820160405280156111fb578160200160208202803883390190505b5090506000600160a060020a03871615156113d057885b6000198a8a010181116113ca5760008181526008602090815260409182902054825160e060020a63070ee0670281529251600160a060020a0390911692839263070ee06792600480840193829003018186803b15801561127157600080fd5b505afa158015611285573d6000803e3d6000fd5b505050506040513d602081101561129b57600080fd5b505115806112cb5750600160a060020a0381166000908152600960205260409020600101544261707f1990910111155b156112d657506113c2565b80600160a060020a031663b02f0a5a6040518163ffffffff1660e060020a02815260040160206040518083038186803b15801561131257600080fd5b505afa158015611326573d6000803e3d6000fd5b505050506040513d602081101561133c57600080fd5b5051600160a060020a038216311415611373576001848481518110151561135f57fe5b911515602092830290910190910152611393565b6000848481518110151561138357fe5b9115156020928302909101909101525b8085848151811015156113a257fe5b600160a060020a0390921660209283029091019091015250600191909101905b600101611212565b506115b3565b885b6000198a8a010181116115b157600081815260086020908152604080832054600160a060020a03908116808552600990935292206002015490918a811691161461141c57506115a9565b80600160a060020a031663070ee0676040518163ffffffff1660e060020a02815260040160206040518083038186803b15801561145857600080fd5b505afa15801561146c573d6000803e3d6000fd5b505050506040513d602081101561148257600080fd5b505115806114b25750600160a060020a0381166000908152600960205260409020600101544261707f1990910111155b156114bd57506115a9565b80600160a060020a031663b02f0a5a6040518163ffffffff1660e060020a02815260040160206040518083038186803b1580156114f957600080fd5b505afa15801561150d573d6000803e3d6000fd5b505050506040513d602081101561152357600080fd5b5051600160a060020a03821631141561155a576001848481518110151561154657fe5b91151560209283029091019091015261157a565b6000848481518110151561156a57fe5b9115156020928302909101909101525b80858481518110151561158957fe5b600160a060020a0390921660209283029091019091015250600191909101905b6001016113d2565b505b509093509150505b935093915050565b60075460ff1681565b60065460009081906000198686010111156115ec57846006540360010193505b600160a060020a03831615156116e257845b6000198686010181116116dc5760008181526008602090815260409182902054825160e060020a63070ee0670281529251600160a060020a039091169263070ee067926004808301939192829003018186803b15801561165d57600080fd5b505afa158015611671573d6000803e3d6000fd5b505050506040513d602081101561168757600080fd5b505115806116c35750600081815260086020908152604080832054600160a060020a0316835260099091529020600101544261707f1990910111155b156116cd576116d4565b8160010191505b6001016115fe565b5061116c565b845b6000198686010181116117fc57600081815260086020908152604080832054600160a060020a03908116845260099092529091206002015481169085161461172b576117f4565b60008181526008602090815260409182902054825160e060020a63070ee0670281529251600160a060020a039091169263070ee067926004808301939192829003018186803b15801561177d57600080fd5b505afa158015611791573d6000803e3d6000fd5b505050506040513d60208110156117a757600080fd5b505115806117e35750600081815260086020908152604080832054600160a060020a0316835260099091529020600101544261707f1990910111155b156117ed576117f4565b8160010191505b6001016116e4565b50949350505050565b674563918244f4000090565b60608060608060608060008911801561182a5750600088115b151561183557600080fd5b600060065411801561184957508860065410155b151561185457600080fd5b6006546001898b0103111561186e57886006540360010197505b606061187b8a8a8a6115cc565b6040519080825280602002602001820160405280156118a4578160200160208202803883390190505b50905060606118b48b8b8b6115cc565b6040519080825280602002602001820160405280156118dd578160200160208202803883390190505b50905060606118ed8c8c8c6115cc565b604051908082528060200260200182016040528015611916578160200160208202803883390190505b50905060606119268d8d8d6115cc565b60405190808252806020026020018201604052801561194f578160200160208202803883390190505b509050606061195f8e8e8e6115cc565b604051908082528060200260200182016040528015611988578160200160208202803883390190505b50905060606119988f8f8f6115cc565b6040519080825280602002602001820160405280156119c1578160200160208202803883390190505b5090506119d18f8f8f6001610aa0565b94506119e08f8f8f6002610aa0565b93506119ef8f8f8f6003610aa0565b92506119fe8f8f8f6004610aa0565b9150610a448f8f8f611174565b6006546000908190600019868601011115611a2b57846006540360010193505b600160a060020a0383161515611b1657845b6000198686010181116116dc5760008181526008602090815260409182902054825160e060020a63070ee0670281529251600160a060020a039091169263070ee067926004808301939192829003018186803b158015611a9c57600080fd5b505afa158015611ab0573d6000803e3d6000fd5b505050506040513d6020811015611ac657600080fd5b50511580611b025750600081815260086020908152604080832054600160a060020a0316835260099091529020600101544261707f1990910111155b15611b0e576001820191505b600101611a3d565b845b6000198686010181116117fc57600081815260086020908152604080832054600160a060020a039081168452600990925290912060020154811690851614611b5f57611c23565b60008181526008602090815260409182902054825160e060020a63070ee0670281529251600160a060020a039091169263070ee067926004808301939192829003018186803b158015611bb157600080fd5b505afa158015611bc5573d6000803e3d6000fd5b505050506040513d6020811015611bdb57600080fd5b50511580611c175750600081815260086020908152604080832054600160a060020a0316835260099091529020600101544261707f1990910111155b15611c23576001820191505b600101611b18565b600080800154600160a060020a0316331480611c545750600060010154600160a060020a031633145b80611c6c5750600060020154600160a060020a031633145b1515611c7757600080fd5b600160a060020a0382161515611c8c57600080fd5b5060048054600160a060020a038316600160a060020a03199091161790556001919050565b600354600160a060020a031681565b3360009081526009602090815260408083205480845260089092529091208054600160a060020a03191690556006548114611d595760068054600090815260086020818152604080842054600160a060020a03908116855260098352818520879055855485529290915280832054858452818420805491909316600160a060020a03199182161790925592548252919020805490911690555b5033600090815260096020526040812081815560018101919091556002018054600160a060020a031916905560068054600019019055565b60075460ff1615611da157600080fd5b600554604080517fc41a32ec0000000000000000000000000000000000000000000000000000000081523360048201529051600160a060020a039092169163c41a32ec91602480820192602092909190829003018186803b158015611e0557600080fd5b505afa158015611e19573d6000803e3d6000fd5b505050506040513d6020811015611e2f57600080fd5b50511515611e3c57600080fd5b674563918244f40000811015611e5157600080fd5b600354604080517fdd62ed3e00000000000000000000000000000000000000000000000000000000815233600482015230602482015290518392600160a060020a03169163dd62ed3e916044808301926020929190829003018186803b158015611eba57600080fd5b505afa158015611ece573d6000803e3d6000fd5b505050506040513d6020811015611ee457600080fd5b50511015611ef157600080fd5b6201518082620151800210158015611f1257506301e1338082620151800211155b1515611f1d57600080fd5b6003841015611f2b57600080fd5b611f33612ca7565b60068054600101905560045460035460009187918791869130913391600160a060020a039182169116611f64612cd2565b9687526020870195909552604080870194909452600160a060020a0392831660608701529082166080860152811660a08501529190911660c0830152519081900360e001906000f080158015611fbe573d6000803e3d6000fd5b50600354604080517f23b872dd000000000000000000000000000000000000000000000000000000008152336004820152600160a060020a0380851660248301526044820188905291519394509116916323b872dd916064808201926020929091908290030181600087803b15801561203657600080fd5b505af115801561204a573d6000803e3d6000fd5b505050506040513d602081101561206057600080fd5b5051151561206d57600080fd5b6006548083526201518094909402420160208084019182523360408086019182526000978852600883528088208054600160a060020a0319908116600160a060020a0397881690811790925590895260099093529096209351845590516001840155935160029092018054909416911617909155505050565b606080600654600185870103111561210357846006540360010193505b6000612110868686611a0b565b905060608160405190808252806020026020018201604052801561213e578160200160208202803883390190505b50905060608260405190808252806020026020018201604052801561216d578160200160208202803883390190505b5090508215156121835790935091506115bb9050565b6000600160a060020a038716151561234957885b6000198a8a010181116113ca5760008181526008602090815260409182902054825160e060020a63070ee0670281529251600160a060020a0390911692839263070ee06792600480840193829003018186803b1580156121f657600080fd5b505afa15801561220a573d6000803e3d6000fd5b505050506040513d602081101561222057600080fd5b505115806122505750600160a060020a0381166000908152600960205260409020600101544261707f1990910111155b156123405780600160a060020a031663b02f0a5a6040518163ffffffff1660e060020a02815260040160206040518083038186803b15801561229157600080fd5b505afa1580156122a5573d6000803e3d6000fd5b505050506040513d60208110156122bb57600080fd5b5051600160a060020a0382163114156122f257600184848151811015156122de57fe5b911515602092830290910190910152612312565b6000848481518110151561230257fe5b9115156020928302909101909101525b80858481518110151561232157fe5b600160a060020a03909216602092830290910190910152600192909201915b50600101612197565b885b6000198a8a010181116115b157600081815260086020908152604080832054600160a060020a03908116808552600990935292206002015490918a8116911614612395575061251d565b80600160a060020a031663070ee0676040518163ffffffff1660e060020a02815260040160206040518083038186803b1580156123d157600080fd5b505afa1580156123e5573d6000803e3d6000fd5b505050506040513d60208110156123fb57600080fd5b5051158061242b5750600160a060020a0381166000908152600960205260409020600101544261707f1990910111155b1561251b5780600160a060020a031663b02f0a5a6040518163ffffffff1660e060020a02815260040160206040518083038186803b15801561246c57600080fd5b505afa158015612480573d6000803e3d6000fd5b505050506040513d602081101561249657600080fd5b5051600160a060020a0382163114156124cd57600184848151811015156124b957fe5b9115156020928302909101909101526124ed565b600084848151811015156124dd57fe5b9115156020928302909101909101525b8085848151811015156124fc57fe5b600160a060020a03909216602092830290910190910152600192909201915b505b60010161234b565b600080800154600160a060020a031633148061254e5750600060010154600160a060020a031633145b806125665750600060020154600160a060020a031633145b151561257157600080fd5b5060058054600160a060020a038316600160a060020a03199091161790556001919050565b600160a060020a0316600090815260096020526040902060010154421190565b600554600160a060020a031681565b606060018260ff16101580156125df575060048260ff1611155b151561264c57604080517f08c379a000000000000000000000000000000000000000000000000000000000815260206004820152601d60248201527f756e6b6e6f77206f707472616374206368726163746572697374696373000000604482015290519081900360640190fd5b600654600185870103111561266657846006540360010193505b6000612673868686611a0b565b90506060816040519080825280602002602001820160405280156126a1578160200160208202803883390190505b5090508115156126b457915061116c9050565b6000600160a060020a038616151561298b57875b600019898901018111610e5b5760008181526008602090815260409182902054825160e060020a63070ee0670281529251600160a060020a039091169263070ee067926004808301939192829003018186803b15801561272757600080fd5b505afa15801561273b573d6000803e3d6000fd5b505050506040513d602081101561275157600080fd5b5051158061278d5750600081815260086020908152604080832054600160a060020a0316835260099091529020600101544261707f1990910111155b15612983578560ff16600114156127e357600081815260086020908152604080832054600160a060020a03168352600990915290206001015483518490849081106127d457fe5b6020908102909101015261297c565b8560ff166002141561287b5760008181526008602090815260409182902054825160e060020a63b3fb9fc70281529251600160a060020a039091169263b3fb9fc7926004808301939192829003018186803b15801561284157600080fd5b505afa158015612855573d6000803e3d6000fd5b505050506040513d602081101561286b57600080fd5b505183518490849081106127d457fe5b8560ff16600314156128d95760008181526008602090815260409182902054825160e160020a635817852d0281529251600160a060020a039091169263b02f0a5a926004808301939192829003018186803b15801561284157600080fd5b8560ff166004141561297c5760008181526008602090815260409182902054825160e160020a633b7c6e470281529251600160a060020a03909116926376f8dc8e926004808301939192829003018186803b15801561293757600080fd5b505afa15801561294b573d6000803e3d6000fd5b505050506040513d602081101561296157600080fd5b5051835184908490811061297157fe5b602090810290910101525b6001820191505b6001016126c8565b875b60001989890101811161116557600081815260086020908152604080832054600160a060020a0390811684526009909252909120600201548116908816146129d457612c82565b60008181526008602090815260409182902054825160e060020a63070ee0670281529251600160a060020a039091169263070ee067926004808301939192829003018186803b158015612a2657600080fd5b505afa158015612a3a573d6000803e3d6000fd5b505050506040513d6020811015612a5057600080fd5b50511580612a8c5750600081815260086020908152604080832054600160a060020a0316835260099091529020600101544261707f1990910111155b15612c82578560ff1660011415612ae257600081815260086020908152604080832054600160a060020a0316835260099091529020600101548351849084908110612ad357fe5b60209081029091010152612c7b565b8560ff1660021415612b7a5760008181526008602090815260409182902054825160e060020a63b3fb9fc70281529251600160a060020a039091169263b3fb9fc7926004808301939192829003018186803b158015612b4057600080fd5b505afa158015612b54573d6000803e3d6000fd5b505050506040513d6020811015612b6a57600080fd5b50518351849084908110612ad357fe5b8560ff1660031415612bd85760008181526008602090815260409182902054825160e160020a635817852d0281529251600160a060020a039091169263b02f0a5a926004808301939192829003018186803b158015612b4057600080fd5b8560ff1660041415612c7b5760008181526008602090815260409182902054825160e160020a633b7c6e470281529251600160a060020a03909116926376f8dc8e926004808301939192829003018186803b158015612c3657600080fd5b505afa158015612c4a573d6000803e3d6000fd5b505050506040513d6020811015612c6057600080fd5b50518351849084908110612c7057fe5b602090810290910101525b6001820191505b60010161298d565b60008160038110612c9757fe5b0154600160a060020a0316905081565b60606040519081016040528060008152602001600081526020016000600160a060020a031681525090565b604051611c1e80612ce38339019056fe6080604052600c805462ffff00191690556000600d819055600e5534801561002657600080fd5b5060405160e080611c1e833981018060405260e081101561004657600080fd5b508051602082015160408301516060840151608085015160a086015160c09096015160069590955560079390935560089190915560038054600160a060020a03928316600160a060020a03199182161790915560008054938316938216841790556004805495831695821695909517909455600580549190931690841617909155600c805460ff191660019081179091558054909216179055426009556078600a55611b27806100f76000396000f3fe6080604052600436106101d15760003560e060020a90048063b02f0a5a116100fb578063ce2ca19e11610099578063d92fe2df11610068578063d92fe2df14610583578063ef78d4fd14610598578063f1fffdcb146105ad578063f5e3fc30146105c2576101d1565b8063ce2ca19e1461051a578063cf444d9b14610544578063d6e8c27314610559578063d80cc0091461056e576101d1565b8063b3fb9fc7116100d5578063b3fb9fc7146104bc578063b56fb337146104d1578063c80bcf2e146104fd578063c98166c014610505576101d1565b8063b02f0a5a1461047d578063b0d31bc814610492578063b387ef92146104a7576101d1565b80634c2067c7116101735780638a56ca45116101425780638a56ca45146104295780639068f84a1461043e57806391d622b914610453578063aab8859614610468576101d1565b80634c2067c7146103d557806351da2eaa146103ea57806376f8dc8e146103ff5780637c47944914610414576101d1565b806328f402b1116101af57806328f402b11461023b57806331dc3b401461026c57806335b132f9146102815780633a0d3aab14610296576101d1565b8063070ee067146101d657806314c68b1b146101ff57806317ca325614610214575b600080fd5b3480156101e257600080fd5b506101eb6105d7565b604080519115158252519081900360200190f35b34801561020b57600080fd5b506101eb6105e0565b34801561022057600080fd5b506102296105ef565b60408051918252519081900360200190f35b34801561024757600080fd5b506102506105f5565b60408051600160a060020a039092168252519081900360200190f35b34801561027857600080fd5b50610229610604565b34801561028d57600080fd5b5061025061060a565b3480156102a257600080fd5b506101eb600480360360a08110156102b957600080fd5b8101906020810181356401000000008111156102d457600080fd5b8201836020820111156102e657600080fd5b8035906020019184602083028401116401000000008311171561030857600080fd5b919080806020026020016040519081016040528093929190818152602001838360200280828437600092019190915250929594936020810193503591505064010000000081111561035857600080fd5b82018360208201111561036a57600080fd5b8035906020019184602083028401116401000000008311171561038c57600080fd5b9190808060200260200160405190810160405280939291908181526020018383602002808284376000920191909152509295505082359350505060208101359060400135610619565b3480156103e157600080fd5b506101eb610d6b565b3480156103f657600080fd5b50610250610d79565b34801561040b57600080fd5b50610229610d88565b34801561042057600080fd5b50610229610d8e565b34801561043557600080fd5b50610250610d94565b34801561044a57600080fd5b50610229610daa565b34801561045f57600080fd5b50610250610db0565b34801561047457600080fd5b50610229610dbf565b34801561048957600080fd5b50610229610dc5565b34801561049e57600080fd5b506101eb610dcb565b3480156104b357600080fd5b50610250610dd4565b3480156104c857600080fd5b50610229610de3565b3480156104dd57600080fd5b506104fb600480360360208110156104f457600080fd5b5035610de9565b005b6104fb611033565b34801561051157600080fd5b5061022961128c565b34801561052657600080fd5b506104fb6004803603602081101561053d57600080fd5b5035611292565b34801561055057600080fd5b506101eb611352565b34801561056557600080fd5b506104fb611376565b34801561057a57600080fd5b506104fb611557565b34801561058f57600080fd5b506104fb61176c565b3480156105a457600080fd5b50610229611a9d565b3480156105b957600080fd5b50610250611aa3565b3480156105ce57600080fd5b50610229611ab2565b600c5460ff1690565b600c5462010000900460ff1681565b600a5481565b600454600160a060020a031681565b600e5481565b600254600160a060020a031681565b600254600090600160a060020a031615801590610637575060003031115b151561064257600080fd5b600354604080517f2537127f0000000000000000000000000000000000000000000000000000000081529051600092600160a060020a031691632537127f916004808301926020929190829003018186803b1580156106a057600080fd5b505afa1580156106b4573d6000803e3d6000fd5b505050506040513d60208110156106ca57600080fd5b5051905061707f19810142106106df57600080fd5b600480546040517fb8f69e3700000000000000000000000000000000000000000000000000000000815260448101889052606481018790526080928101928352895160848201528951600160a060020a039092169263b8f69e37928b928b928b928b928291602482019160a401906020808a01910280838360005b8381101561077257818101518382015260200161075a565b50505050905001838103825286818151815260200191508051906020019060200280838360005b838110156107b1578181015183820152602001610799565b50505050905001965050505050505060206040518083038186803b1580156107d857600080fd5b505afa1580156107ec573d6000803e3d6000fd5b505050506040513d602081101561080257600080fd5b5051151560011461085d576040805160e560020a62461bcd02815260206004820152601460248201527f696e76616c6964204d65726b6c652050726f6f66000000000000000000000000604482015290519081900360640190fd5b600554604080517fdd62ed3e00000000000000000000000000000000000000000000000000000000815233600482015230602482015290516101f48604860192600160a060020a03169163dd62ed3e916044808301926020929190829003018186803b1580156108cc57600080fd5b505afa1580156108e0573d6000803e3d6000fd5b505050506040513d60208110156108f657600080fd5b5051101561090357600080fd5b600854831161091157600080fd5b6000600460009054906101000a9004600160a060020a0316600160a060020a031663fa7402c96040518163ffffffff1660e060020a02815260040160206040518083038186803b15801561096457600080fd5b505afa158015610978573d6000803e3d6000fd5b505050506040513d602081101561098e57600080fd5b5051600c5490915060ff16151560011480156109aa5750600d54155b80156109b65750600e54155b15610b4557600c80546001805476ffffffffffffffffffffffffffffffffffffffff0000ff19909216600160a060020a0380841663010000009081029290921794859055600d869055600e8990553373ffffffffffffffffffffffffffffffffffffffff199094168417909255426009556005546040805160e060020a6323b872dd0281526004810195909552919094048216602484015260448301889052519216916323b872dd916064808201926020929091908290030181600087803b158015610a8157600080fd5b505af1158015610a95573d6000803e3d6000fd5b505050506040513d6020811015610aab57600080fd5b5050600554600480546040805160e060020a6323b872dd0281523393810193909352600160a060020a0391821660248401526101f488046044840152519216916323b872dd916064808201926020929091908290030181600087803b158015610b1357600080fd5b505af1158015610b27573d6000803e3d6000fd5b505050506040513d6020811015610b3d57600080fd5b50610d5b9050565b600c5460ff16158015610b595750600e5484115b8015610b665750600d5481145b156101d15760018054600e8054908790553373ffffffffffffffffffffffffffffffffffffffff1983168117909355426009556005546040805160e060020a6323b872dd0281526004810195909552600160a060020a039384166024860181905260448601849052905190949293909116916323b872dd9160648083019260209291908290030181600087803b158015610bff57600080fd5b505af1158015610c13573d6000803e3d6000fd5b505050506040513d6020811015610c2957600080fd5b5050600554600c546040805160e060020a6323b872dd0281523360048201526301000000909204600160a060020a039081166024840152848a03604484015290519216916323b872dd916064808201926020929091908290030181600087803b158015610c9557600080fd5b505af1158015610ca9573d6000803e3d6000fd5b505050506040513d6020811015610cbf57600080fd5b5050600554600480546040805160e060020a6323b872dd0281523393810193909352600160a060020a0391821660248401526101f48a046044840152519216916323b872dd916064808201926020929091908290030181600087803b158015610d2757600080fd5b505af1158015610d3b573d6000803e3d6000fd5b505050506040513d6020811015610d5157600080fd5b50610d5b92505050565b5050506008555060019392505050565b600c54610100900460ff1681565b600354600160a060020a031681565b60085490565b60085481565b600c5463010000009004600160a060020a031681565b60075481565b600554600160a060020a031681565b600d5481565b60065490565b600c5460ff1681565b600154600160a060020a031681565b60075490565b600254600160a060020a031615801590610e04575060003031115b1515610e0f57600080fd5b600154600160a060020a03163314610e5f576040805160e560020a62461bcd0281526020600482015260096024820152600080516020611ab9833981519152604482015290519081900360640190fd5b600354604080517f2537127f0000000000000000000000000000000000000000000000000000000081529051600092600160a060020a031691632537127f916004808301926020929190829003018186803b158015610ebd57600080fd5b505afa158015610ed1573d6000803e3d6000fd5b505050506040513d6020811015610ee757600080fd5b5051905061707f1981014210610efc57600080fd5b600c5460ff1615610f57576040805160e560020a62461bcd02815260206004820152601a60248201527f63616e206f6e6c7920707574206f6e2053746f636b206f6e6365000000000000604482015290519081900360640190fd5b600360009054906101000a9004600160a060020a0316600160a060020a03166364da7e246040518163ffffffff1660e060020a02815260040160206040518083038186803b158015610fa857600080fd5b505afa158015610fbc573d6000803e3d6000fd5b505050506040513d6020811015610fd257600080fd5b5051821015610fe057600080fd5b50600c80546008929092556001805460ff199093161776ffffffffffffffffffffffffffffffffffffffff0000001916600160a060020a039092166301000000029190911790556000600d819055600e55565b600354604080517fba2eb5410000000000000000000000000000000000000000000000000000000081523060048201529051600160a060020a039092169163ba2eb54191602480820192602092909190829003018186803b15801561109757600080fd5b505afa1580156110ab573d6000803e3d6000fd5b505050506040513d60208110156110c157600080fd5b505115611118576040805160e560020a62461bcd02815260206004820152601160248201527f6e6f772063616e20657863657263697365000000000000000000000000000000604482015290519081900360640190fd5b600254600160a060020a031615611179576040805160e560020a62461bcd02815260206004820152601760248201527f6f74686572732066696c6c2045544820616c7265616479000000000000000000604482015290519081900360640190fd5b60065434146111bc5760405160e560020a62461bcd028152600401808060200182810382526023815260200180611ad96023913960400191505060405180910390fd5b6002805473ffffffffffffffffffffffffffffffffffffffff19163390811790915542600955600c805460ff19169055600554600854604080517fa9059cbb0000000000000000000000000000000000000000000000000000000081526004810194909452602484019190915251600160a060020a03919091169163a9059cbb9160448083019260209291908290030181600087803b15801561125e57600080fd5b505af1158015611272573d6000803e3d6000fd5b505050506040513d602081101561128857600080fd5b5050565b60065481565b600154600160a060020a031633146112e2576040805160e560020a62461bcd0281526020600482015260096024820152600080516020611ab9833981519152604482015290519081900360640190fd5b60085481106112f057600080fd5b600a5460095401421161134d576040805160e560020a62461bcd02815260206004820152601760248201527f63616e6e6f74206f70657261746520746f6f20736f6f6e000000000000000000604482015290519081900360640190fd5b600855565b600254600090600160a060020a03161580159061137157506006543031145b905090565b600154600160a060020a031633146113c6576040805160e560020a62461bcd0281526020600482015260096024820152600080516020611ab9833981519152604482015290519081900360640190fd5b600354604080517fba2eb5410000000000000000000000000000000000000000000000000000000081523060048201529051600160a060020a039092169163ba2eb54191602480820192602092909190829003018186803b15801561142a57600080fd5b505afa15801561143e573d6000803e3d6000fd5b505050506040513d602081101561145457600080fd5b505115156001146114af576040805160e560020a62461bcd02815260206004820152601760248201527f63616e206e6f206c6f6e67657220657863657263697365000000000000000000604482015290519081900360640190fd5b600254600160a060020a0316156114c557600080fd5b600054600160a060020a031633146114dc57600080fd5b600354604080517f996916500000000000000000000000000000000000000000000000000000000081529051600160a060020a039092169163996916509160048082019260009290919082900301818387803b15801561153b57600080fd5b505af115801561154f573d6000803e3d6000fd5b503392505050ff5b600354604080517fba2eb5410000000000000000000000000000000000000000000000000000000081523060048201529051600160a060020a039092169163ba2eb54191602480820192602092909190829003018186803b1580156115bb57600080fd5b505afa1580156115cf573d6000803e3d6000fd5b505050506040513d60208110156115e557600080fd5b50511515600114611640576040805160e560020a62461bcd02815260206004820152601760248201527f63616e206e6f206c6f6e67657220657863657263697365000000000000000000604482015290519081900360640190fd5b600254600160a060020a031633146116a2576040805160e560020a62461bcd02815260206004820152601a60248201527f6f6e6c792065746853656c6c65722063616e2063616c6c206974000000000000604482015290519081900360640190fd5b600c5462010000900460ff1615611703576040805160e560020a62461bcd02815260206004820152601160248201527f616c726561647920657865726369736564000000000000000000000000000000604482015290519081900360640190fd5b600c805460ff19169055600354604080517f996916500000000000000000000000000000000000000000000000000000000081529051600160a060020a039092169163996916509160048082019260009290919082900301818387803b15801561153b57600080fd5b600154600160a060020a031633146117bc576040805160e560020a62461bcd0281526020600482015260096024820152600080516020611ab9833981519152604482015290519081900360640190fd5b600354604080517f2537127f0000000000000000000000000000000000000000000000000000000081529051600092600160a060020a031691632537127f916004808301926020929190829003018186803b15801561181a57600080fd5b505afa15801561182e573d6000803e3d6000fd5b505050506040513d602081101561184457600080fd5b5051600c5490915060ff1615801561185b57508042105b8061187457506170808103421015801561187457508042105b151561187f57600080fd5b600a546009540142116118dc576040805160e560020a62461bcd02815260206004820152601760248201527f63616e6e6f74206f70657261746520746f6f20736f6f6e000000000000000000604482015290519081900360640190fd5b600754600554604080517fdd62ed3e0000000000000000000000000000000000000000000000000000000081523360048201523060248201529051600160a060020a039092169163dd62ed3e91604480820192602092909190829003018186803b15801561194957600080fd5b505afa15801561195d573d6000803e3d6000fd5b505050506040513d602081101561197357600080fd5b5051101561198057600080fd5b600c805462ff00ff191662010000179055600354604080517f996916500000000000000000000000000000000000000000000000000000000081529051600160a060020a039092169163996916509160048082019260009290919082900301818387803b1580156119f057600080fd5b505af1158015611a04573d6000803e3d6000fd5b50506005546002546007546040805160e060020a6323b872dd028152336004820152600160a060020a0393841660248201526044810192909252519190921693506323b872dd925060648083019260209291908290030181600087803b158015611a6d57600080fd5b505af1158015611a81573d6000803e3d6000fd5b505050506040513d6020811015611a9757600080fd5b50339050ff5b600b5481565b600054600160a060020a031681565b6009548156fe6e6f74206f776e657200000000000000000000000000000000000000000000006e65656420746f206465706f73697420657861637420616d6f756e74206f6620455448a165627a7a7230582013415878c71fc3e7d5759e0177865c4fd9ebec222d81a6892173d998ea98068d0029a165627a7a7230582063af306d6849c64b3573f86c1a04a0e73bc30b9430510161e5d1f03ce1ae60930029",
  "source": "pragma solidity ^0.5.2;\n\nimport \"./ERC20.sol\";\nimport \"./Optract.sol\";\nimport \"./MemberShip.sol\";\n//import \"./SafeMath.sol\";\n\n// todo: memberOnly\n// todo: merge all pause/unpause function in other contracts to here (or in membership)\n\ncontract OptractRegistry { // PoC ETH-DAI Optract\n\taddress[3] public operators;\n\taddress public currencyTokenAddr; // presumably 'DAI'\n\taddress public blkAddr; // side-chain merkle records\n\taddress public memberContractAddr;\n\tuint public constant optionMinPrice = 5000000000000000000; // 5 DAIs\n\tuint public totalOpts = 0;\n\tbool public paused = false;\n\n\tstruct optractRecord {\n\t        uint id;\n\t\tuint expiredTime; // timestamp\n\t\taddress initialOwner; \n\t}\n\n\tmapping (uint => address) optractRecordsByIndex;\n\tmapping (address => optractRecord) optractRecordsByAddress;\n\n\t// Modifiers\n\tmodifier operatorOnly() {\n\t\trequire(msg.sender == operators[0] || msg.sender == operators[1] || msg.sender == operators[2]);\n\t\t_;\n\t}\n\n\tmodifier notPaused() {\n\t\trequire(paused == false);\n\t\t_;\n\t}\n\n\tmodifier activeMemberOnly(){\n                require(MemberShip(memberContractAddr).addrIsActiveMember(msg.sender));\n                _;\n        }\n\n\t// Constructor\n\tconstructor(address _currencyTokenAddr, address _blkAddr, address _memberContracAddr) public {\n\t\toperators[0] = msg.sender;\n\t\tcurrencyTokenAddr = _currencyTokenAddr;\n\t\tblkAddr = _blkAddr;\n                memberContractAddr = _memberContracAddr;\n\t}\n\n\tfunction createOptract(uint256 ETHAmount, uint256 totalPrice, uint period, uint optionPrice) external notPaused activeMemberOnly {\n\t        require(optionPrice >= optionMinPrice);\n                require(ERC20(currencyTokenAddr).allowance(msg.sender, address(this)) >= optionPrice);\n                // require(period * 1 days >= 30 days && period * 1 days <= 365 days);\n                // require(ETHAmount >= 3 ether);\n                // for debug purpose, use ridiculously small values:\n                require(period * 1 days >= 1 days && period * 1 days <= 365 days);\n                require(ETHAmount >= 3 wei);\n\n\t\toptractRecord memory optRcd;\n                totalOpts = totalOpts + 1;\n                Optract opt = new Optract(ETHAmount, totalPrice, optionPrice, address(this), msg.sender, blkAddr, currencyTokenAddr);\n\n                require(ERC20(currencyTokenAddr).transferFrom(msg.sender, address(opt), optionPrice));\n\n                optRcd.id = totalOpts;\n                optRcd.expiredTime = block.timestamp + period * 1 days;\n                optRcd.initialOwner = msg.sender;\n\n                optractRecordsByIndex[totalOpts] = address(opt); // mapping start from uint key = 1\n                optractRecordsByAddress[address(opt)] = optRcd;\n\t}\n\n\tfunction destructRecord() external {\n                uint i = optractRecordsByAddress[msg.sender].id;\n                delete optractRecordsByIndex[i];\n                if (i != totalOpts){\n                        optractRecordsByAddress[optractRecordsByIndex[totalOpts]].id = i;\n                        optractRecordsByIndex[i] = optractRecordsByIndex[totalOpts];\n                        delete optractRecordsByIndex[totalOpts];\n                }\n                delete optractRecordsByAddress[msg.sender];\n                totalOpts -= 1;\n        }\n\n\t// Constant functions\n\tfunction queryOptionMinPrice() public pure returns (uint) {\n\t        return optionMinPrice;\n        }\n\n\tfunction isExpired(address optractAddress) public view returns (bool) {\n\t\treturn block.timestamp > optractRecordsByAddress[optractAddress].expiredTime;\n\t}\n\n\tfunction getExpireTime() public view returns (uint) {\n\t\trequire(optractRecordsByAddress[msg.sender].expiredTime >= block.timestamp);\n\t\trequire(optractRecordsByAddress[msg.sender].initialOwner != address(0));\n\n\t\treturn optractRecordsByAddress[msg.sender].expiredTime;\n\t}\n\n        function queryOptractRecords(address _addr) external view returns (uint, uint, address) {\n                return (optractRecordsByAddress[_addr].id,\n                        optractRecordsByAddress[_addr].expiredTime,\n                        optractRecordsByAddress[_addr].initialOwner);\n        }\n\n        // upgradable\n        function setCurrencyTokenAddr(address newCurrencyTokenAddr) public operatorOnly returns (bool) {\n                require(newCurrencyTokenAddr != address(0));\n                currencyTokenAddr = newCurrencyTokenAddr;\n                return true;\n        }\n\n        function setBlkAddr(address newBlkAddr) public operatorOnly returns (bool) {\n                require(newBlkAddr != address(0));\n                blkAddr = newBlkAddr;\n                return true;\n        }\n\n        function setMemberCtrAddr(address _addr) public operatorOnly returns (bool){\n                memberContractAddr = _addr;\n                return true;\n        }\n\n        // Constant functions: list active and inactive optracts\n        function _getNumOfActiveOptracts(uint start, uint length, address owner) public view returns (uint) {\n\t        // will be internal function so don't check requirements\n\t        uint activeLength = 0;\n\t\tif (start + length - 1 > totalOpts) {\n\t\t\tlength = totalOpts - start + 1;\n\t\t}\n\n\t\tif (owner == address(0)) { // list all orders\n\t\t\tfor (uint i = start; i <= start + length - 1; i++) {\n\t\t\t\tif (Optract(optractRecordsByIndex[i]).queryOnStock() == false\n\t\t\t\t    || optractRecordsByAddress[optractRecordsByIndex[i]].expiredTime - 8 hours <= block.timestamp) continue;\n\t\t\t\tactiveLength = activeLength + 1;\n\t\n\t\t\t}\n\t\t} else { // list only those initialized by owner\n\t\t\tfor (uint i = start; i <= start + length - 1; i++) {\n\t\t\t\tif (optractRecordsByAddress[optractRecordsByIndex[i]].initialOwner != owner) continue;\n\t\t\t\tif (Optract(optractRecordsByIndex[i]).queryOnStock() == false\n\t\t\t\t    || optractRecordsByAddress[optractRecordsByIndex[i]].expiredTime - 8 hours <= block.timestamp) continue;\n\t\t\t\tactiveLength = activeLength + 1;\n\t\t\t}\n\t\t}\n\t\treturn activeLength;\n        }\n\n        function activeOptractsLoop(uint start, uint length, address owner, uint8 _idx) public view returns (uint[] memory) {\n                require(_idx >= 1 && _idx <= 4, \"unknown optract characteristics\");\n                // _idx: {1: expTimeList, 2: priceList, 3:ETHList, 4: opriceList}\n\t\tif (start + length - 1 > totalOpts) {\n\t\t\tlength = totalOpts - start + 1;\n\t\t}\n                uint activeLength = _getNumOfActiveOptracts(start, length, owner);\n\t\tuint[] memory returnList = new uint[](activeLength);\n\t\tuint count = 0;\n\n\t\tif (owner == address(0)) { // list all orders\n\t\t\tfor (uint i = start; i <= start + length - 1; i++) {\n\t\t\t\tif (Optract(optractRecordsByIndex[i]).queryOnStock() == false || optractRecordsByAddress[optractRecordsByIndex[i]].expiredTime - 8 hours <= block.timestamp) continue;\n\t\n\t                        if (_idx == 1) {\n                                        returnList[count] = optractRecordsByAddress[optractRecordsByIndex[i]].expiredTime;\n                                } else if (_idx == 2) {\n                                        returnList[count] = Optract(optractRecordsByIndex[i]).queryOrderPrice();\n                                } else if (_idx == 3) {\n\t\t\t\t        returnList[count] = Optract(optractRecordsByIndex[i]).queryOrderSize();\n                                } else if (_idx == 4) {\n                                        returnList[count] = Optract(optractRecordsByIndex[i]).queryOptionPrice();\n                                }\n\t\t\t\tcount += 1;\n\t\t\t}\n\t\t} else { // list only those initialized by owner\n\t\t\tfor (uint i = start; i <= start + length - 1; i++) {\n\t\t\t\tif (optractRecordsByAddress[optractRecordsByIndex[i]].initialOwner != owner) continue;\n\t\t\t\tif (Optract(optractRecordsByIndex[i]).queryOnStock() == false || optractRecordsByAddress[optractRecordsByIndex[i]].expiredTime - 8 hours <= block.timestamp) continue;\n\t                        if (_idx == 1) {\n                                        returnList[count] = optractRecordsByAddress[optractRecordsByIndex[i]].expiredTime;\n                                } else if (_idx == 2) {\n                                        returnList[count] = Optract(optractRecordsByIndex[i]).queryOrderPrice();\n                                } else if (_idx == 3) {\n\t\t\t\t        returnList[count] = Optract(optractRecordsByIndex[i]).queryOrderSize();\n                                } else if (_idx == 4) {\n                                        returnList[count] = Optract(optractRecordsByIndex[i]).queryOptionPrice();\n                                }\n\t\t\t\tcount += 1;\n\t\t\t}\n\t\t}\n\t\treturn returnList;\n        }\n\n\tfunction activeOptractsFilledStatus(uint start, uint length, address owner) public view returns (address[] memory, bool[] memory) {\n\t        // will be internal function so don't check requirements\n\t\tif (start + length - 1 > totalOpts) {\n\t\t\tlength = totalOpts - start + 1;\n\t\t}\n\n                uint activeLength = _getNumOfActiveOptracts(start, length, owner);\n\t\taddress[] memory addrlist = new address[](activeLength);\n\t\tbool[] memory filled = new bool[](activeLength);\n\t\tuint count = 0;\n\n\t\tif (owner == address(0)) { // list all orders\n\t\t\tfor (uint i = start; i <= start + length - 1; i++) {\n\t\t\t\taddress optAddr = optractRecordsByIndex[i];\n\t\t\t\tif (Optract(optAddr).queryOnStock() == false || optractRecordsByAddress[optAddr].expiredTime - 8 hours <= block.timestamp) continue;\n\t\n\t\t\t\tif (optAddr.balance == Optract(optAddr).queryOrderSize()) {  // or \">=\"?\n\t\t\t\t\tfilled[count] = true;\n\t\t\t\t} else {\n\t\t\t\t\tfilled[count] = false;\n\t\t\t\t}\n\t\t\t\taddrlist[count] = optAddr;\n\t\t\t\tcount += 1;\n\t\t\t}\n\t\t} else { // list only those initialized by owner\n\t\t\tfor (uint i = start; i <= start + length - 1; i++) {\n\t\t\t\taddress optAddr = optractRecordsByIndex[i];\n\t\t\t\tif (optractRecordsByAddress[optAddr].initialOwner != owner) continue;\n\t\t\t\tif (Optract(optAddr).queryOnStock() == false || optractRecordsByAddress[optAddr].expiredTime - 8 hours <= block.timestamp) continue;\n\t\n\t\t\t\tif (optAddr.balance == Optract(optAddr).queryOrderSize()) {\n\t\t\t\t\tfilled[count] = true;\n\t\t\t\t} else {\n\t\t\t\t\tfilled[count] = false;\n\t\t\t\t}\n\t\t\t\taddrlist[count] = optAddr;\n\t\t\t\tcount += 1;\n\t\t\t}\n\t\t}\n\t\treturn (addrlist, filled);\n\t}\n\n\tfunction activeOptracts(uint start, uint length, address owner) public view returns (\n\t\taddress[] memory,\n\t\t   uint[] memory,\n\t\t   uint[] memory,\n\t\t   uint[] memory,\n\t\t   uint[] memory,\n\t           bool[] memory)\n\t{\n\t\trequire(start > 0 && length > 0);\n\t\trequire(totalOpts > 0 && totalOpts >= start);\n\t\tif (start + length - 1 > totalOpts) {\n\t\t\tlength = totalOpts - start + 1;\n\t\t}\n\n\t\taddress[] memory addrlist = new address[](_getNumOfActiveOptracts(start, length, owner));\n\t\tuint[] memory expTimeList= new uint[](_getNumOfActiveOptracts(start, length, owner));\n\t\tuint[] memory priceList = new uint[](_getNumOfActiveOptracts(start, length, owner));\n\t\tuint[] memory ETHList = new uint[](_getNumOfActiveOptracts(start, length, owner));\n\t\tuint[] memory opriceList = new uint[](_getNumOfActiveOptracts(start, length, owner));\n\t\tbool[] memory filled = new bool[](_getNumOfActiveOptracts(start, length, owner));  // stack too deep if include this one\n\n                // assume all the following function calls return same order\n\t\texpTimeList = activeOptractsLoop(start, length, owner, 1);\n\t\tpriceList = activeOptractsLoop(start, length, owner, 2);\n\t\tETHList = activeOptractsLoop(start, length, owner, 3);\n\t\topriceList = activeOptractsLoop(start, length, owner, 4);\n\t\t(addrlist, filled) = activeOptractsFilledStatus(start, length, owner);\n\t\treturn (addrlist, expTimeList, priceList, ETHList, opriceList, filled);\n        }\n\n\n        function _getNumOfInActiveOptracts(uint start, uint length, address owner) public view returns (uint) {\n\t        // will be internal function so don't check requirements\n\t        uint inactiveLength = 0;\n\t\tif (start + length - 1 > totalOpts) {\n\t\t\tlength = totalOpts - start + 1;\n\t\t}\n\n\t\tif (owner == address(0)) { // list all orders\n\t\t\tfor (uint i = start; i <= start + length - 1; i++) {\n\t\t\t\tif (Optract(optractRecordsByIndex[i]).queryOnStock() == false\n\t\t\t\t    || optractRecordsByAddress[optractRecordsByIndex[i]].expiredTime - 8 hours <= block.timestamp)\n\t\t\t\t{\n\t\t\t\t        inactiveLength +=1;\n                                }\n\t\n\t\t\t}\n\t\t} else { // list only those initialized by owner\n\t\t\tfor (uint i = start; i <= start + length - 1; i++) {\n\t\t\t\tif (optractRecordsByAddress[optractRecordsByIndex[i]].initialOwner != owner) continue;\n\t\t\t\tif (Optract(optractRecordsByIndex[i]).queryOnStock() == false\n\t\t\t\t    || optractRecordsByAddress[optractRecordsByIndex[i]].expiredTime - 8 hours <= block.timestamp)\n                                {\n\t\t\t\t        inactiveLength += 1;\n                                }\n\t\t\t}\n\t\t}\n\t\treturn inactiveLength;\n        }\n\n        function inactiveOptractsLoop(uint start, uint length, address owner, uint8 _idx) public view returns (uint[] memory) {\n                require(_idx >= 1 && _idx <= 4, \"unknow optract chracteristics\");\n                // _idx: {1: expTimeList, 2: priceList, 3:ETHList, 4: opriceList}\n\t\tif (start + length - 1 > totalOpts) {\n\t\t\tlength = totalOpts - start + 1;\n\t\t}\n                uint inactiveLength = _getNumOfInActiveOptracts(start, length, owner);\n\t\tuint[] memory returnList = new uint[](inactiveLength);\n\t\tif (inactiveLength == 0) return (returnList);\n\t\tuint count = 0;\n\n\t\tif (owner == address(0)) { // list all orders\n\t\t\tfor (uint i = start; i <= start + length - 1; i++) {\n\t\t\t\tif (Optract(optractRecordsByIndex[i]).queryOnStock() == false\n\t\t\t\t    || optractRecordsByAddress[optractRecordsByIndex[i]].expiredTime - 8 hours <= block.timestamp)\n\n\t\t\t\t{\n                                        if (_idx == 1) {\n                                                returnList[count] = optractRecordsByAddress[optractRecordsByIndex[i]].expiredTime;\n                                        } else if (_idx == 2) {\n                                                returnList[count] = Optract(optractRecordsByIndex[i]).queryOrderPrice();\n                                        } else if (_idx == 3) {\n                                                returnList[count] = Optract(optractRecordsByIndex[i]).queryOrderSize();\n                                        } else if (_idx == 4) {\n                                                returnList[count] = Optract(optractRecordsByIndex[i]).queryOptionPrice();\n                                        }\n                                        count += 1;\n                                }\n\t\t\t}\n\t\t} else { // list only those initialized by owner\n\t\t\tfor (uint i = start; i <= start + length - 1; i++) {\n\t\t\t\tif (optractRecordsByAddress[optractRecordsByIndex[i]].initialOwner != owner) continue;\n\t\t\t\tif (Optract(optractRecordsByIndex[i]).queryOnStock() == false\n\t\t\t\t    || optractRecordsByAddress[optractRecordsByIndex[i]].expiredTime - 8 hours <= block.timestamp)\n                                {\n                                        if (_idx == 1) {\n                                                returnList[count] = optractRecordsByAddress[optractRecordsByIndex[i]].expiredTime;\n                                        } else if (_idx == 2) {\n                                                returnList[count] = Optract(optractRecordsByIndex[i]).queryOrderPrice();\n                                        } else if (_idx == 3) {\n                                                returnList[count] = Optract(optractRecordsByIndex[i]).queryOrderSize();\n                                        } else if (_idx == 4) {\n                                                returnList[count] = Optract(optractRecordsByIndex[i]).queryOptionPrice();\n                                        }\n                                        count += 1;\n                                }\n\t\t\t}\n\t\t}\n\t\treturn returnList;\n        }\n\n\tfunction inactiveOptractsFilledStatus(uint start, uint length, address owner) public view returns (address[] memory, bool[] memory) {\n\t        // will be internal function so don't check requirements\n\t\tif (start + length - 1 > totalOpts) {\n\t\t\tlength = totalOpts - start + 1;\n\t\t}\n\n                uint inactiveLength = _getNumOfInActiveOptracts(start, length, owner);\n\t\taddress[] memory addrlist = new address[](inactiveLength);\n\t\tbool[] memory filled = new bool[](inactiveLength);\n\t\tif (inactiveLength == 0) return (addrlist, filled);\n\t\tuint count = 0;\n\n\t\tif (owner == address(0)) { // list all orders\n\t\t\tfor (uint i = start; i <= start + length - 1; i++) {\n\t\t\t\taddress optAddr = optractRecordsByIndex[i];\n\t\t\t\tif (Optract(optAddr).queryOnStock() == false\n\t\t\t\t    || optractRecordsByAddress[optAddr].expiredTime - 8 hours <= block.timestamp)\n                                {\n                                        if (optAddr.balance == Optract(optAddr).queryOrderSize()) {\n                                                filled[count] = true;\n                                        } else {\n                                                filled[count] = false;\n                                        }\n                                        addrlist[count] = optAddr;\n                                        count += 1;\n                                }\n\t\t\t}\n\t\t} else { // list only those initialized by owner\n\t\t\tfor (uint i = start; i <= start + length - 1; i++) {\n\t\t\t\taddress optAddr = optractRecordsByIndex[i];\n\t\t\t\tif (optractRecordsByAddress[optAddr].initialOwner != owner) continue;\n\t\t\t\tif (Optract(optAddr).queryOnStock() == false\n\t\t\t\t    || optractRecordsByAddress[optAddr].expiredTime - 8 hours <= block.timestamp)\n                                {\n                                        if (optAddr.balance == Optract(optAddr).queryOrderSize()) {\n                                                filled[count] = true;\n                                        } else {\n                                                filled[count] = false;\n                                        }\n                                        addrlist[count] = optAddr;\n                                        count += 1;\n                                }\n\t\n\t\t\t}\n\t\t}\n\t\treturn (addrlist, filled);\n\t}\n\n\tfunction inactiveOptracts(uint start, uint length, address owner) public view returns (\n\t\taddress[] memory,\n\t\t   uint[] memory,\n\t\t   uint[] memory,\n\t\t   uint[] memory,\n\t\t   uint[] memory,\n\t           bool[] memory)\n\t{\n\t\trequire(start > 0 && length > 0);\n\t\trequire(totalOpts > 0 && totalOpts >= start);\n\n\t\tif (start + length - 1 > totalOpts) {\n\t\t\tlength = totalOpts - start + 1;\n\t\t}\n\n\t\taddress[] memory addrlist = new address[](_getNumOfInActiveOptracts(start, length, owner));\n\t\tuint[] memory expTimeList= new uint[](_getNumOfInActiveOptracts(start, length, owner));\n\t\tuint[] memory priceList = new uint[](_getNumOfInActiveOptracts(start, length, owner));\n\t\tuint[] memory ETHList = new uint[](_getNumOfInActiveOptracts(start, length, owner));\n\t\tuint[] memory opriceList = new uint[](_getNumOfInActiveOptracts(start, length, owner));\n\t\tbool[] memory filled = new bool[](_getNumOfInActiveOptracts(start, length, owner));\n\n                // assume all the following function calls return same order\n\t\texpTimeList = inactiveOptractsLoop(start, length, owner, 1);\n\t\tpriceList = inactiveOptractsLoop(start, length, owner, 2);\n\t\tETHList = inactiveOptractsLoop(start, length, owner, 3);\n\t\topriceList = inactiveOptractsLoop(start, length, owner, 4);\n\t\t(addrlist, filled) = inactiveOptractsFilledStatus(start, length, owner);\n\t\treturn (addrlist, expTimeList, priceList, ETHList, opriceList, filled);\n        }\n\n}\n",
  "sourcePath": "/home/kai/Work/project/Optract/contracts/OptractRegistry.sol",
  "compiler": {
    "name": "solc",
    "version": "0.5.2+commit.1df8f40c.Linux.g++"
  },
  "schemaVersion": "3.0.1",
  "updatedAt": "2019-03-18T04:27:33.039Z",
  "devdoc": {
    "methods": {}
  },
  "userdoc": {
    "methods": {}
  }
}