{
  "contractName": "OptractRegistry",
  "abi": [
    {
      "constant": true,
      "inputs": [],
      "name": "totalOpts",
      "outputs": [
        {
          "name": "",
          "type": "uint256"
        }
      ],
      "payable": false,
      "stateMutability": "view",
      "type": "function",
      "signature": "0x14eb3037"
    },
    {
      "constant": true,
      "inputs": [],
      "name": "initialPayment",
      "outputs": [
        {
          "name": "",
          "type": "uint256"
        }
      ],
      "payable": false,
      "stateMutability": "view",
      "type": "function",
      "signature": "0x2199a57d"
    },
    {
      "constant": true,
      "inputs": [],
      "name": "blkAddr",
      "outputs": [
        {
          "name": "",
          "type": "address"
        }
      ],
      "payable": false,
      "stateMutability": "view",
      "type": "function",
      "signature": "0x28f402b1"
    },
    {
      "constant": true,
      "inputs": [],
      "name": "paused",
      "outputs": [
        {
          "name": "",
          "type": "bool"
        }
      ],
      "payable": false,
      "stateMutability": "view",
      "type": "function",
      "signature": "0x5c975abb"
    },
    {
      "constant": true,
      "inputs": [],
      "name": "currencyTokenAddr",
      "outputs": [
        {
          "name": "",
          "type": "address"
        }
      ],
      "payable": false,
      "stateMutability": "view",
      "type": "function",
      "signature": "0x91d622b9"
    },
    {
      "constant": true,
      "inputs": [
        {
          "name": "",
          "type": "uint256"
        }
      ],
      "name": "operators",
      "outputs": [
        {
          "name": "",
          "type": "address"
        }
      ],
      "payable": false,
      "stateMutability": "view",
      "type": "function",
      "signature": "0xe28d4906"
    },
    {
      "inputs": [
        {
          "name": "_currencyTokenAddr",
          "type": "address"
        }
      ],
      "payable": false,
      "stateMutability": "nonpayable",
      "type": "constructor",
      "signature": "constructor"
    },
    {
      "constant": false,
      "inputs": [
        {
          "name": "ETHAmount",
          "type": "uint256"
        },
        {
          "name": "totalPrice",
          "type": "uint256"
        },
        {
          "name": "period",
          "type": "uint256"
        }
      ],
      "name": "createOptract",
      "outputs": [],
      "payable": false,
      "stateMutability": "nonpayable",
      "type": "function",
      "signature": "0x6e9a01a2"
    },
    {
      "constant": true,
      "inputs": [],
      "name": "queryInitPrice",
      "outputs": [
        {
          "name": "",
          "type": "uint256"
        }
      ],
      "payable": false,
      "stateMutability": "view",
      "type": "function",
      "signature": "0x10bbc68a"
    },
    {
      "constant": true,
      "inputs": [
        {
          "name": "optractAddress",
          "type": "address"
        }
      ],
      "name": "isExpired",
      "outputs": [
        {
          "name": "",
          "type": "bool"
        }
      ],
      "payable": false,
      "stateMutability": "view",
      "type": "function",
      "signature": "0xba2eb541"
    },
    {
      "constant": true,
      "inputs": [],
      "name": "getExpireTime",
      "outputs": [
        {
          "name": "",
          "type": "uint256"
        }
      ],
      "payable": false,
      "stateMutability": "view",
      "type": "function",
      "signature": "0x2537127f"
    },
    {
      "constant": true,
      "inputs": [
        {
          "name": "start",
          "type": "uint256"
        },
        {
          "name": "length",
          "type": "uint256"
        },
        {
          "name": "owner",
          "type": "address"
        }
      ],
      "name": "_getNumOfActiveOptracts",
      "outputs": [
        {
          "name": "",
          "type": "uint256"
        }
      ],
      "payable": false,
      "stateMutability": "view",
      "type": "function",
      "signature": "0x61605f09"
    },
    {
      "constant": true,
      "inputs": [
        {
          "name": "start",
          "type": "uint256"
        },
        {
          "name": "length",
          "type": "uint256"
        },
        {
          "name": "owner",
          "type": "address"
        },
        {
          "name": "_idx",
          "type": "uint8"
        }
      ],
      "name": "activeOptractsLoop",
      "outputs": [
        {
          "name": "",
          "type": "uint256[]"
        }
      ],
      "payable": false,
      "stateMutability": "view",
      "type": "function",
      "signature": "0x3b47ea04"
    },
    {
      "constant": true,
      "inputs": [
        {
          "name": "start",
          "type": "uint256"
        },
        {
          "name": "length",
          "type": "uint256"
        },
        {
          "name": "owner",
          "type": "address"
        }
      ],
      "name": "activeOptractsFilledStatus",
      "outputs": [
        {
          "name": "",
          "type": "address[]"
        },
        {
          "name": "",
          "type": "bool[]"
        }
      ],
      "payable": false,
      "stateMutability": "view",
      "type": "function",
      "signature": "0x4b140961"
    },
    {
      "constant": true,
      "inputs": [
        {
          "name": "start",
          "type": "uint256"
        },
        {
          "name": "length",
          "type": "uint256"
        },
        {
          "name": "owner",
          "type": "address"
        }
      ],
      "name": "activeOptracts",
      "outputs": [
        {
          "name": "",
          "type": "address[]"
        },
        {
          "name": "",
          "type": "uint256[]"
        },
        {
          "name": "",
          "type": "uint256[]"
        },
        {
          "name": "",
          "type": "uint256[]"
        },
        {
          "name": "",
          "type": "uint256[]"
        },
        {
          "name": "",
          "type": "bool[]"
        }
      ],
      "payable": false,
      "stateMutability": "view",
      "type": "function",
      "signature": "0x6769f438"
    },
    {
      "constant": true,
      "inputs": [
        {
          "name": "start",
          "type": "uint256"
        },
        {
          "name": "length",
          "type": "uint256"
        },
        {
          "name": "owner",
          "type": "address"
        }
      ],
      "name": "_getNumOfInActiveOptracts",
      "outputs": [
        {
          "name": "",
          "type": "uint256"
        }
      ],
      "payable": false,
      "stateMutability": "view",
      "type": "function",
      "signature": "0x69edcbdc"
    },
    {
      "constant": true,
      "inputs": [
        {
          "name": "start",
          "type": "uint256"
        },
        {
          "name": "length",
          "type": "uint256"
        },
        {
          "name": "owner",
          "type": "address"
        },
        {
          "name": "_idx",
          "type": "uint8"
        }
      ],
      "name": "inactiveOptractsLoop",
      "outputs": [
        {
          "name": "",
          "type": "uint256[]"
        }
      ],
      "payable": false,
      "stateMutability": "view",
      "type": "function",
      "signature": "0xdac717e2"
    },
    {
      "constant": true,
      "inputs": [
        {
          "name": "start",
          "type": "uint256"
        },
        {
          "name": "length",
          "type": "uint256"
        },
        {
          "name": "owner",
          "type": "address"
        }
      ],
      "name": "inactiveOptractsFilledStatus",
      "outputs": [
        {
          "name": "",
          "type": "address[]"
        },
        {
          "name": "",
          "type": "bool[]"
        }
      ],
      "payable": false,
      "stateMutability": "view",
      "type": "function",
      "signature": "0xb7233fa5"
    },
    {
      "constant": true,
      "inputs": [
        {
          "name": "start",
          "type": "uint256"
        },
        {
          "name": "length",
          "type": "uint256"
        },
        {
          "name": "owner",
          "type": "address"
        }
      ],
      "name": "inactiveOptracts",
      "outputs": [
        {
          "name": "",
          "type": "address[]"
        },
        {
          "name": "",
          "type": "uint256[]"
        },
        {
          "name": "",
          "type": "uint256[]"
        },
        {
          "name": "",
          "type": "uint256[]"
        },
        {
          "name": "",
          "type": "uint256[]"
        },
        {
          "name": "",
          "type": "bool[]"
        }
      ],
      "payable": false,
      "stateMutability": "view",
      "type": "function",
      "signature": "0x26b057ad"
    }
  ],
  "bytecode": "0x6080604052674563918244f4000060055560006006556007805460ff1916905534801561002b57600080fd5b50604051602080613c008339810180604052602081101561004b57600080fd5b505160008054600160a060020a03199081163317825560038054909116600160a060020a0390931692909217909155613b7690819061008a90396000f3fe608060405234801561001057600080fd5b506004361061011a5760003560e060020a9004806361605f09116100a657806391d622b91161007557806391d622b914610587578063b7233fa51461058f578063ba2eb541146105c1578063dac717e2146105e7578063e28d4906146106225761011a565b806361605f09146104c65780636769f438146104f857806369edcbdc1461052a5780636e9a01a21461055c5761011a565b806326b057ad116100ed57806326b057ad1461015157806328f402b1146103305780633b47ea04146103545780634b140961146103df5780635c975abb146104aa5761011a565b806310bbc68a1461011f57806314eb3037146101395780632199a57d146101415780632537127f14610149575b600080fd5b61012761063f565b60408051918252519081900360200190f35b610127610645565b61012761064b565b610127610651565b6101836004803603606081101561016757600080fd5b5080359060208101359060400135600160a060020a03166106a8565b6040518080602001806020018060200180602001806020018060200187810387528d818151815260200191508051906020019060200280838360005b838110156101d75781810151838201526020016101bf565b5050505090500187810386528c818151815260200191508051906020019060200280838360005b838110156102165781810151838201526020016101fe565b5050505090500187810385528b818151815260200191508051906020019060200280838360005b8381101561025557818101518382015260200161023d565b5050505090500187810384528a818151815260200191508051906020019060200280838360005b8381101561029457818101518382015260200161027c565b50505050905001878103835289818151815260200191508051906020019060200280838360005b838110156102d35781810151838201526020016102bb565b50505050905001878103825288818151815260200191508051906020019060200280838360005b838110156103125781810151838201526020016102fa565b505050509050019c5050505050505050505050505060405180910390f35b6103386108c1565b60408051600160a060020a039092168252519081900360200190f35b61038f6004803603608081101561036a57600080fd5b508035906020810135906040810135600160a060020a0316906060013560ff166108d0565b60408051602080825283518183015283519192839290830191858101910280838360005b838110156103cb5781810151838201526020016103b3565b505050509050019250505060405180910390f35b610411600480360360608110156103f557600080fd5b5080359060208101359060400135600160a060020a0316610f98565b604051808060200180602001838103835285818151815260200191508051906020019060200280838360005b8381101561045557818101518382015260200161043d565b50505050905001838103825284818151815260200191508051906020019060200280838360005b8381101561049457818101518382015260200161047c565b5050505090500194505050505060405180910390f35b6104b26113e1565b604080519115158252519081900360200190f35b610127600480360360608110156104dc57600080fd5b5080359060208101359060400135600160a060020a03166113ea565b6101836004803603606081101561050e57600080fd5b5080359060208101359060400135600160a060020a031661161d565b6101276004803603606081101561054057600080fd5b5080359060208101359060400135600160a060020a0316611817565b6105856004803603606081101561057257600080fd5b5080359060208101359060400135611a31565b005b610338611cd4565b610411600480360360608110156105a557600080fd5b5080359060208101359060400135600160a060020a0316611ce3565b6104b2600480360360208110156105d757600080fd5b5035600160a060020a031661211c565b61038f600480360360808110156105fd57600080fd5b508035906020810135906040810135600160a060020a0316906060013560ff16612139565b6103386004803603602081101561063857600080fd5b50356127f2565b60055490565b60065481565b60055481565b3360009081526009602052604081205442111561066d57600080fd5b33600090815260096020526040902060010154600160a060020a0316151561069457600080fd5b503360009081526009602052604090205490565b6060806060806060806000891180156106c15750600088115b15156106cc57600080fd5b60006006541180156106e057508860065410155b15156106eb57600080fd5b6006546001898b0103111561070557886006540360010197505b60606107128a8a8a611817565b60405190808252806020026020018201604052801561073b578160200160208202803883390190505b509050606061074b8b8b8b611817565b604051908082528060200260200182016040528015610774578160200160208202803883390190505b50905060606107848c8c8c611817565b6040519080825280602002602001820160405280156107ad578160200160208202803883390190505b50905060606107bd8d8d8d611817565b6040519080825280602002602001820160405280156107e6578160200160208202803883390190505b50905060606107f68e8e8e611817565b60405190808252806020026020018201604052801561081f578160200160208202803883390190505b509050606061082f8f8f8f611817565b604051908082528060200260200182016040528015610858578160200160208202803883390190505b5090506108688f8f8f6001612139565b94506108778f8f8f6002612139565b93506108868f8f8f6003612139565b92506108958f8f8f6004612139565b91506108a28f8f8f611ce3565b909c50949a509298509096509450909250505093975093979195509350565b600454600160a060020a031681565b606060018260ff16101580156108ea575060048260ff1611155b151561095757604080517f08c379a000000000000000000000000000000000000000000000000000000000815260206004820152601f60248201527f756e6b6e6f776e206f7074726163742063686172616374657269737469637300604482015290519081900360640190fd5b600654600185870103111561097157846006540360010193505b600061097e8686866113ea565b90506060816040519080825280602002602001820160405280156109ac578160200160208202803883390190505b5090506000600160a060020a0386161515610c8b57875b600019898901018111610c855760008181526008602090815260409182902054825160e060020a63070ee0670281529251600160a060020a039091169263070ee067926004808301939192829003018186803b158015610a2257600080fd5b505afa158015610a36573d6000803e3d6000fd5b505050506040513d6020811015610a4c57600080fd5b50511580610a855750600081815260086020908152604080832054600160a060020a0316835260099091529020544261707f1990910111155b15610a8f57610c7d565b8560ff1660011415610add57600081815260086020908152604080832054600160a060020a0316835260099091529020548351849084908110610ace57fe5b60209081029091010152610c76565b8560ff1660021415610b755760008181526008602090815260409182902054825160e060020a63b3fb9fc70281529251600160a060020a039091169263b3fb9fc7926004808301939192829003018186803b158015610b3b57600080fd5b505afa158015610b4f573d6000803e3d6000fd5b505050506040513d6020811015610b6557600080fd5b50518351849084908110610ace57fe5b8560ff1660031415610bd35760008181526008602090815260409182902054825160e160020a635817852d0281529251600160a060020a039091169263b02f0a5a926004808301939192829003018186803b158015610b3b57600080fd5b8560ff1660041415610c765760008181526008602090815260409182902054825160e160020a633b7c6e470281529251600160a060020a03909116926376f8dc8e926004808301939192829003018186803b158015610c3157600080fd5b505afa158015610c45573d6000803e3d6000fd5b505050506040513d6020811015610c5b57600080fd5b50518351849084908110610c6b57fe5b602090810290910101525b6001820191505b6001016109c3565b50610f8b565b875b600019898901018111610f8957600081815260086020908152604080832054600160a060020a039081168452600990925290912060010154811690881614610cd457610f81565b60008181526008602090815260409182902054825160e060020a63070ee0670281529251600160a060020a039091169263070ee067926004808301939192829003018186803b158015610d2657600080fd5b505afa158015610d3a573d6000803e3d6000fd5b505050506040513d6020811015610d5057600080fd5b50511580610d895750600081815260086020908152604080832054600160a060020a0316835260099091529020544261707f1990910111155b15610d9357610f81565b8560ff1660011415610de157600081815260086020908152604080832054600160a060020a0316835260099091529020548351849084908110610dd257fe5b60209081029091010152610f7a565b8560ff1660021415610e795760008181526008602090815260409182902054825160e060020a63b3fb9fc70281529251600160a060020a039091169263b3fb9fc7926004808301939192829003018186803b158015610e3f57600080fd5b505afa158015610e53573d6000803e3d6000fd5b505050506040513d6020811015610e6957600080fd5b50518351849084908110610dd257fe5b8560ff1660031415610ed75760008181526008602090815260409182902054825160e160020a635817852d0281529251600160a060020a039091169263b02f0a5a926004808301939192829003018186803b158015610e3f57600080fd5b8560ff1660041415610f7a5760008181526008602090815260409182902054825160e160020a633b7c6e470281529251600160a060020a03909116926376f8dc8e926004808301939192829003018186803b158015610f3557600080fd5b505afa158015610f49573d6000803e3d6000fd5b505050506040513d6020811015610f5f57600080fd5b50518351849084908110610f6f57fe5b602090810290910101525b6001820191505b600101610c8d565b505b509150505b949350505050565b6060806006546001858701031115610fb557846006540360010193505b6000610fc28686866113ea565b9050606081604051908082528060200260200182016040528015610ff0578160200160208202803883390190505b50905060608260405190808252806020026020018201604052801561101f578160200160208202803883390190505b5090506000600160a060020a03871615156111f157885b6000198a8a010181116111eb5760008181526008602090815260409182902054825160e060020a63070ee0670281529251600160a060020a0390911692839263070ee06792600480840193829003018186803b15801561109557600080fd5b505afa1580156110a9573d6000803e3d6000fd5b505050506040513d60208110156110bf57600080fd5b505115806110ec5750600160a060020a0381166000908152600960205260409020544261707f1990910111155b156110f757506111e3565b80600160a060020a031663b02f0a5a6040518163ffffffff1660e060020a02815260040160206040518083038186803b15801561113357600080fd5b505afa158015611147573d6000803e3d6000fd5b505050506040513d602081101561115d57600080fd5b5051600160a060020a038216311415611194576001848481518110151561118057fe5b9115156020928302909101909101526111b4565b600084848151811015156111a457fe5b9115156020928302909101909101525b8085848151811015156111c357fe5b600160a060020a0390921660209283029091019091015250600191909101905b600101611036565b506113d1565b885b6000198a8a010181116113cf57600081815260086020908152604080832054600160a060020a03908116808552600990935292206001015490918a811691161461123d57506113c7565b80600160a060020a031663070ee0676040518163ffffffff1660e060020a02815260040160206040518083038186803b15801561127957600080fd5b505afa15801561128d573d6000803e3d6000fd5b505050506040513d60208110156112a357600080fd5b505115806112d05750600160a060020a0381166000908152600960205260409020544261707f1990910111155b156112db57506113c7565b80600160a060020a031663b02f0a5a6040518163ffffffff1660e060020a02815260040160206040518083038186803b15801561131757600080fd5b505afa15801561132b573d6000803e3d6000fd5b505050506040513d602081101561134157600080fd5b5051600160a060020a038216311415611378576001848481518110151561136457fe5b911515602092830290910190910152611398565b6000848481518110151561138857fe5b9115156020928302909101909101525b8085848151811015156113a757fe5b600160a060020a0390921660209283029091019091015250600191909101905b6001016111f3565b505b509093509150505b935093915050565b60075460ff1681565b600654600090819060001986860101111561140a57846006540360010193505b600160a060020a03831615156114fd57845b6000198686010181116114f75760008181526008602090815260409182902054825160e060020a63070ee0670281529251600160a060020a039091169263070ee067926004808301939192829003018186803b15801561147b57600080fd5b505afa15801561148f573d6000803e3d6000fd5b505050506040513d60208110156114a557600080fd5b505115806114de5750600081815260086020908152604080832054600160a060020a0316835260099091529020544261707f1990910111155b156114e8576114ef565b8160010191505b60010161141c565b50610f90565b845b60001986860101811161161457600081815260086020908152604080832054600160a060020a0390811684526009909252909120600101548116908516146115465761160c565b60008181526008602090815260409182902054825160e060020a63070ee0670281529251600160a060020a039091169263070ee067926004808301939192829003018186803b15801561159857600080fd5b505afa1580156115ac573d6000803e3d6000fd5b505050506040513d60208110156115c257600080fd5b505115806115fb5750600081815260086020908152604080832054600160a060020a0316835260099091529020544261707f1990910111155b156116055761160c565b8160010191505b6001016114ff565b50949350505050565b6060806060806060806000891180156116365750600088115b151561164157600080fd5b600060065411801561165557508860065410155b151561166057600080fd5b6006546001898b0103111561167a57886006540360010197505b60606116878a8a8a6113ea565b6040519080825280602002602001820160405280156116b0578160200160208202803883390190505b50905060606116c08b8b8b6113ea565b6040519080825280602002602001820160405280156116e9578160200160208202803883390190505b50905060606116f98c8c8c6113ea565b604051908082528060200260200182016040528015611722578160200160208202803883390190505b50905060606117328d8d8d6113ea565b60405190808252806020026020018201604052801561175b578160200160208202803883390190505b509050606061176b8e8e8e6113ea565b604051908082528060200260200182016040528015611794578160200160208202803883390190505b50905060606117a48f8f8f6113ea565b6040519080825280602002602001820160405280156117cd578160200160208202803883390190505b5090506117dd8f8f8f60016108d0565b94506117ec8f8f8f60026108d0565b93506117fb8f8f8f60036108d0565b925061180a8f8f8f60046108d0565b91506108a28f8f8f610f98565b600654600090819060001986860101111561183757846006540360010193505b600160a060020a038316151561191f57845b6000198686010181116114f75760008181526008602090815260409182902054825160e060020a63070ee0670281529251600160a060020a039091169263070ee067926004808301939192829003018186803b1580156118a857600080fd5b505afa1580156118bc573d6000803e3d6000fd5b505050506040513d60208110156118d257600080fd5b5051158061190b5750600081815260086020908152604080832054600160a060020a0316835260099091529020544261707f1990910111155b15611917576001820191505b600101611849565b845b60001986860101811161161457600081815260086020908152604080832054600160a060020a03908116845260099092529091206001015481169085161461196857611a29565b60008181526008602090815260409182902054825160e060020a63070ee0670281529251600160a060020a039091169263070ee067926004808301939192829003018186803b1580156119ba57600080fd5b505afa1580156119ce573d6000803e3d6000fd5b505050506040513d60208110156119e457600080fd5b50511580611a1d5750600081815260086020908152604080832054600160a060020a0316835260099091529020544261707f1990910111155b15611a29576001820191505b600101611921565b60075460ff1615611a4157600080fd5b600554600354604080517fdd62ed3e0000000000000000000000000000000000000000000000000000000081523360048201523060248201529051600160a060020a039092169163dd62ed3e91604480820192602092909190829003018186803b158015611aae57600080fd5b505afa158015611ac2573d6000803e3d6000fd5b505050506040513d6020811015611ad857600080fd5b50511015611ae557600080fd5b6201518081620151800210158015611b0657506301e1338081620151800211155b1515611b1157600080fd5b6003831015611b1f57600080fd5b611b2761280f565b6004546003546000918691869130913391600160a060020a039081169116611b4d612826565b9586526020860194909452600160a060020a03928316604080870191909152918316606086015282166080850152911660a0830152519081900360c001906000f080158015611ba0573d6000803e3d6000fd5b50600354600554604080517f23b872dd000000000000000000000000000000000000000000000000000000008152336004820152600160a060020a038086166024830152604482019390935290519394509116916323b872dd916064808201926020929091908290030181600087803b158015611c1c57600080fd5b505af1158015611c30573d6000803e3d6000fd5b505050506040513d6020811015611c4657600080fd5b50511515611c5357600080fd5b42620151809093029290920181523360208083019182526006805460019081019182905560009182526008835260408083208054600160a060020a0398891673ffffffffffffffffffffffffffffffffffffffff19918216811790925590845260099094529091209351845591519290910180549290931691161790555050565b600354600160a060020a031681565b6060806006546001858701031115611d0057846006540360010193505b6000611d0d868686611817565b9050606081604051908082528060200260200182016040528015611d3b578160200160208202803883390190505b509050606082604051908082528060200260200182016040528015611d6a578160200160208202803883390190505b509050821515611d805790935091506113d99050565b6000600160a060020a0387161515611f4357885b6000198a8a010181116111eb5760008181526008602090815260409182902054825160e060020a63070ee0670281529251600160a060020a0390911692839263070ee06792600480840193829003018186803b158015611df357600080fd5b505afa158015611e07573d6000803e3d6000fd5b505050506040513d6020811015611e1d57600080fd5b50511580611e4a5750600160a060020a0381166000908152600960205260409020544261707f1990910111155b15611f3a5780600160a060020a031663b02f0a5a6040518163ffffffff1660e060020a02815260040160206040518083038186803b158015611e8b57600080fd5b505afa158015611e9f573d6000803e3d6000fd5b505050506040513d6020811015611eb557600080fd5b5051600160a060020a038216311415611eec5760018484815181101515611ed857fe5b911515602092830290910190910152611f0c565b60008484815181101515611efc57fe5b9115156020928302909101909101525b808584815181101515611f1b57fe5b600160a060020a03909216602092830290910190910152600192909201915b50600101611d94565b885b6000198a8a010181116113cf57600081815260086020908152604080832054600160a060020a03908116808552600990935292206001015490918a8116911614611f8f5750612114565b80600160a060020a031663070ee0676040518163ffffffff1660e060020a02815260040160206040518083038186803b158015611fcb57600080fd5b505afa158015611fdf573d6000803e3d6000fd5b505050506040513d6020811015611ff557600080fd5b505115806120225750600160a060020a0381166000908152600960205260409020544261707f1990910111155b156121125780600160a060020a031663b02f0a5a6040518163ffffffff1660e060020a02815260040160206040518083038186803b15801561206357600080fd5b505afa158015612077573d6000803e3d6000fd5b505050506040513d602081101561208d57600080fd5b5051600160a060020a0382163114156120c457600184848151811015156120b057fe5b9115156020928302909101909101526120e4565b600084848151811015156120d457fe5b9115156020928302909101909101525b8085848151811015156120f357fe5b600160a060020a03909216602092830290910190910152600192909201915b505b600101611f45565b600160a060020a0316600090815260096020526040902054421190565b606060018260ff1610158015612153575060048260ff1611155b15156121c057604080517f08c379a000000000000000000000000000000000000000000000000000000000815260206004820152601d60248201527f756e6b6e6f77206f707472616374206368726163746572697374696373000000604482015290519081900360640190fd5b60065460018587010311156121da57846006540360010193505b60006121e7868686611817565b9050606081604051908082528060200260200182016040528015612215578160200160208202803883390190505b509050811515612228579150610f909050565b6000600160a060020a03861615156124f957875b600019898901018111610c855760008181526008602090815260409182902054825160e060020a63070ee0670281529251600160a060020a039091169263070ee067926004808301939192829003018186803b15801561229b57600080fd5b505afa1580156122af573d6000803e3d6000fd5b505050506040513d60208110156122c557600080fd5b505115806122fe5750600081815260086020908152604080832054600160a060020a0316835260099091529020544261707f1990910111155b156124f1578560ff166001141561235157600081815260086020908152604080832054600160a060020a031683526009909152902054835184908490811061234257fe5b602090810290910101526124ea565b8560ff16600214156123e95760008181526008602090815260409182902054825160e060020a63b3fb9fc70281529251600160a060020a039091169263b3fb9fc7926004808301939192829003018186803b1580156123af57600080fd5b505afa1580156123c3573d6000803e3d6000fd5b505050506040513d60208110156123d957600080fd5b5051835184908490811061234257fe5b8560ff16600314156124475760008181526008602090815260409182902054825160e160020a635817852d0281529251600160a060020a039091169263b02f0a5a926004808301939192829003018186803b1580156123af57600080fd5b8560ff16600414156124ea5760008181526008602090815260409182902054825160e160020a633b7c6e470281529251600160a060020a03909116926376f8dc8e926004808301939192829003018186803b1580156124a557600080fd5b505afa1580156124b9573d6000803e3d6000fd5b505050506040513d60208110156124cf57600080fd5b505183518490849081106124df57fe5b602090810290910101525b6001820191505b60010161223c565b875b600019898901018111610f8957600081815260086020908152604080832054600160a060020a039081168452600990925290912060010154811690881614612542576127ea565b60008181526008602090815260409182902054825160e060020a63070ee0670281529251600160a060020a039091169263070ee067926004808301939192829003018186803b15801561259457600080fd5b505afa1580156125a8573d6000803e3d6000fd5b505050506040513d60208110156125be57600080fd5b505115806125f75750600081815260086020908152604080832054600160a060020a0316835260099091529020544261707f1990910111155b156127ea578560ff166001141561264a57600081815260086020908152604080832054600160a060020a031683526009909152902054835184908490811061263b57fe5b602090810290910101526127e3565b8560ff16600214156126e25760008181526008602090815260409182902054825160e060020a63b3fb9fc70281529251600160a060020a039091169263b3fb9fc7926004808301939192829003018186803b1580156126a857600080fd5b505afa1580156126bc573d6000803e3d6000fd5b505050506040513d60208110156126d257600080fd5b5051835184908490811061263b57fe5b8560ff16600314156127405760008181526008602090815260409182902054825160e160020a635817852d0281529251600160a060020a039091169263b02f0a5a926004808301939192829003018186803b1580156126a857600080fd5b8560ff16600414156127e35760008181526008602090815260409182902054825160e160020a633b7c6e470281529251600160a060020a03909116926376f8dc8e926004808301939192829003018186803b15801561279e57600080fd5b505afa1580156127b2573d6000803e3d6000fd5b505050506040513d60208110156127c857600080fd5b505183518490849081106127d857fe5b602090810290910101525b6001820191505b6001016124fb565b600081600381106127ff57fe5b0154600160a060020a0316905081565b604080518082019091526000808252602082015290565b604051611314806128378339019056fe6080604052600b805462ffff001916905534801561001c57600080fd5b5060405160c080611314833981018060405260c081101561003c57600080fd5b508051602082015160408301516060840151608085015160a09095015160069490945560079290925560038054600160a060020a03928316600160a060020a03199182161790915560008054938316938216841790556004805495831695821695909517909455600580549190931690841617909155600b805460ff19166001908117909155805490921617905542600955611237806100dd6000396000f3fe608060405260043610610168576000357c010000000000000000000000000000000000000000000000000000000090048063b0d31bc8116100d3578063cf444d9b1161008c578063cf444d9b14610457578063d80cc0091461046c578063d92fe2df14610481578063ef78d4fd14610496578063f1fffdcb146104ab578063f5e3fc30146104c057610168565b8063b0d31bc8146103cf578063b387ef92146103e4578063b3fb9fc7146103f9578063b56fb3371461040e578063c80bcf2e1461043a578063c98166c01461044257610168565b80635d0a4cde116101255780635d0a4cde1461021b57806376f8dc8e146103545780637c4794491461037b5780639068f84a1461039057806391d622b9146103a5578063b02f0a5a146103ba57610168565b8063070ee0671461016d57806314c68b1b1461019657806328f402b1146101ab57806335b132f9146101dc5780634c2067c7146101f157806351da2eaa14610206575b600080fd5b34801561017957600080fd5b506101826104d5565b604080519115158252519081900360200190f35b3480156101a257600080fd5b506101826104de565b3480156101b757600080fd5b506101c06104ed565b60408051600160a060020a039092168252519081900360200190f35b3480156101e857600080fd5b506101c06104fc565b3480156101fd57600080fd5b5061018261050b565b34801561021257600080fd5b506101c0610519565b34801561022757600080fd5b506101826004803603608081101561023e57600080fd5b81019060208101813564010000000081111561025957600080fd5b82018360208201111561026b57600080fd5b8035906020019184602083028401116401000000008311171561028d57600080fd5b91908080602002602001604051908101604052809392919081815260200183836020028082843760009201919091525092959493602081019350359150506401000000008111156102dd57600080fd5b8201836020820111156102ef57600080fd5b8035906020019184602083028401116401000000008311171561031157600080fd5b9190808060200260200160405190810160405280939291908181526020018383602002808284376000920191909152509295505082359350505060200135610528565b34801561036057600080fd5b5061036961083e565b60408051918252519081900360200190f35b34801561038757600080fd5b50610369610844565b34801561039c57600080fd5b5061036961084a565b3480156103b157600080fd5b506101c0610850565b3480156103c657600080fd5b5061036961085f565b3480156103db57600080fd5b50610182610865565b3480156103f057600080fd5b506101c061086e565b34801561040557600080fd5b5061036961087d565b34801561041a57600080fd5b506104386004803603602081101561043157600080fd5b5035610883565b005b610438610a16565b34801561044e57600080fd5b50610369610d09565b34801561046357600080fd5b50610182610d0f565b34801561047857600080fd5b50610438610d32565b34801561048d57600080fd5b50610438610eeb565b3480156104a257600080fd5b506103696111cd565b3480156104b757600080fd5b506101c06111d3565b3480156104cc57600080fd5b506103696111e2565b600b5460ff1690565b600b5462010000900460ff1681565b600454600160a060020a031681565b600254600160a060020a031681565b600b54610100900460ff1681565b600354600160a060020a031681565b600254600090600160a060020a031615801590610546575060003031115b151561055157600080fd5b600b5460ff1615156001146105b0576040805160e560020a62461bcd02815260206004820152600c60248201527f6e6f74206f6e2073746f636b0000000000000000000000000000000000000000604482015290519081900360640190fd5b600354604080517f2537127f0000000000000000000000000000000000000000000000000000000081529051600092600160a060020a031691632537127f916004808301926020929190829003018186803b15801561060e57600080fd5b505afa158015610622573d6000803e3d6000fd5b505050506040513d602081101561063857600080fd5b5051905061707f198101421061064d57600080fd5b6009546102580142116106aa576040805160e560020a62461bcd02815260206004820152601760248201527f63616e6e6f74206f70657261746520746f6f20736f6f6e000000000000000000604482015290519081900360640190fd5b600854600554604080517fdd62ed3e00000000000000000000000000000000000000000000000000000000815233600482015230602482015290516101f4840490930192600160a060020a039092169163dd62ed3e91604480820192602092909190829003018186803b15801561072057600080fd5b505afa158015610734573d6000803e3d6000fd5b505050506040513d602081101561074a57600080fd5b5051101561075757600080fd5b60018054600b805460ff191690553373ffffffffffffffffffffffffffffffffffffffff198216811790925542600955600554600854604080517f23b872dd0000000000000000000000000000000000000000000000000000000081526004810195909552600160a060020a0393841660248601819052604486019290925251909392909116916323b872dd9160648083019260209291908290030181600087803b15801561080557600080fd5b505af1158015610819573d6000803e3d6000fd5b505050506040513d602081101561082f57600080fd5b50600198975050505050505050565b60085490565b60085481565b60075481565b600554600160a060020a031681565b60065490565b600b5460ff1681565b600154600160a060020a031681565b60075490565b600254600160a060020a03161580159061089e575060003031115b15156108a957600080fd5b600154600160a060020a0316331461090b576040805160e560020a62461bcd02815260206004820152600960248201527f6e6f74206f776e65720000000000000000000000000000000000000000000000604482015290519081900360640190fd5b600354604080517f2537127f0000000000000000000000000000000000000000000000000000000081529051600092600160a060020a031691632537127f916004808301926020929190829003018186803b15801561096957600080fd5b505afa15801561097d573d6000803e3d6000fd5b505050506040513d602081101561099357600080fd5b5051905061707f19810142106109a857600080fd5b600b5460ff1615610a03576040805160e560020a62461bcd02815260206004820152601a60248201527f63616e206f6e6c7920707574206f6e2053746f636b206f6e6365000000000000604482015290519081900360640190fd5b50600b805460ff19166001179055600855565b600354604080517fba2eb5410000000000000000000000000000000000000000000000000000000081523060048201529051600160a060020a039092169163ba2eb54191602480820192602092909190829003018186803b158015610a7a57600080fd5b505afa158015610a8e573d6000803e3d6000fd5b505050506040513d6020811015610aa457600080fd5b505115610afb576040805160e560020a62461bcd02815260206004820152601160248201527f6e6f772063616e20657863657263697365000000000000000000000000000000604482015290519081900360640190fd5b600254600160a060020a031615610b5c576040805160e560020a62461bcd02815260206004820152601760248201527f6f74686572732066696c6c2045544820616c7265616479000000000000000000604482015290519081900360640190fd5b6006543414610b9f5760405160e560020a62461bcd0281526004018080602001828103825260238152602001806111e96023913960400191505060405180910390fd5b600360009054906101000a9004600160a060020a0316600160a060020a03166310bbc68a6040518163ffffffff167c010000000000000000000000000000000000000000000000000000000002815260040160206040518083038186803b158015610c0957600080fd5b505afa158015610c1d573d6000803e3d6000fd5b505050506040513d6020811015610c3357600080fd5b505160088190556002805473ffffffffffffffffffffffffffffffffffffffff19163390811790915542600955600b805460ff19169055600554604080517fa9059cbb000000000000000000000000000000000000000000000000000000008152600481019390935260248301939093529151600160a060020a03929092169163a9059cbb916044808201926020929091908290030181600087803b158015610cdb57600080fd5b505af1158015610cef573d6000803e3d6000fd5b505050506040513d6020811015610d0557600080fd5b5050565b60065481565b600254600090600160a060020a031615801590610d2d575060003031115b905090565b600354604080517fba2eb5410000000000000000000000000000000000000000000000000000000081523060048201529051600160a060020a039092169163ba2eb54191602480820192602092909190829003018186803b158015610d9657600080fd5b505afa158015610daa573d6000803e3d6000fd5b505050506040513d6020811015610dc057600080fd5b50511515600114610e1b576040805160e560020a62461bcd02815260206004820152601760248201527f63616e206e6f206c6f6e67657220657863657263697365000000000000000000604482015290519081900360640190fd5b600254600160a060020a03163314610e7d576040805160e560020a62461bcd02815260206004820152601a60248201527f6f6e6c792065746853656c6c65722063616e2063616c6c206974000000000000604482015290519081900360640190fd5b600b5462010000900460ff1615610ede576040805160e560020a62461bcd02815260206004820152601160248201527f616c726561647920657865726369736564000000000000000000000000000000604482015290519081900360640190fd5b600b805460ff1916905533ff5b600154600160a060020a03163314610f4d576040805160e560020a62461bcd02815260206004820152600960248201527f6e6f74206f776e65720000000000000000000000000000000000000000000000604482015290519081900360640190fd5b600354604080517f2537127f0000000000000000000000000000000000000000000000000000000081529051600092600160a060020a031691632537127f916004808301926020929190829003018186803b158015610fab57600080fd5b505afa158015610fbf573d6000803e3d6000fd5b505050506040513d6020811015610fd557600080fd5b5051600b5490915060ff16158015610fec57508042105b8061100557506170808103421015801561100557508042105b151561101057600080fd5b60095461025801421161106d576040805160e560020a62461bcd02815260206004820152601760248201527f63616e6e6f74206f70657261746520746f6f20736f6f6e000000000000000000604482015290519081900360640190fd5b600754600554604080517fdd62ed3e0000000000000000000000000000000000000000000000000000000081523360048201523060248201529051600160a060020a039092169163dd62ed3e91604480820192602092909190829003018186803b1580156110da57600080fd5b505afa1580156110ee573d6000803e3d6000fd5b505050506040513d602081101561110457600080fd5b5051101561111157600080fd5b600b805462ff0000191662010000179055600554600254600754604080517f23b872dd000000000000000000000000000000000000000000000000000000008152336004820152600160a060020a03938416602482015260448101929092525191909216916323b872dd9160648083019260209291908290030181600087803b15801561119d57600080fd5b505af11580156111b1573d6000803e3d6000fd5b505050506040513d60208110156111c757600080fd5b50339050ff5b600a5481565b600054600160a060020a031681565b6009548156fe6e65656420746f206465706f73697420657861637420616d6f756e74206f6620455448a165627a7a723058208e13c7e6d380fb412d3f4ae3e01fdc4dc2eb0973a15673f562fb2d68684d8c340029a165627a7a72305820d711c379774c3ca2a9e1ec24a038caf2b14d3d9d8085a74ff9f3c632f867046f0029",
  "source": "pragma solidity ^0.5.2;\n\nimport \"./ERC20.sol\";\nimport \"./Optract.sol\";\n//import \"./SafeMath.sol\";\n\ncontract OptractRegistry { // PoC ETH-DAI Optract\n\taddress[3] public operators;\n\taddress public currencyTokenAddr; // presumably 'DAI'\n\taddress public blkAddr; // side-chain merkle records\n\tuint public initialPayment = 5000000000000000000; // 5 DAIs\n\tuint public totalOpts = 0;\n\tbool public paused = false;\n\n\tstruct optractRecord {\n\t\tuint expiredTime; // timestamp\n\t\taddress initialOwner; \n\t}\n\n\tmapping (uint => address) optractRecordsByIndex;\n\tmapping (address => optractRecord) optractRecordsByAddress;\n\n\t// Modifiers\n\tmodifier operatorOnly() {\n\t\trequire(msg.sender == operators[0] || msg.sender == operators[1] || msg.sender == operators[2]);\n\t\t_;\n\t}\n\n\tmodifier notPaused() {\n\t\trequire(paused == false);\n\t\t_;\n\t}\n\n\t// Constructor\n\tconstructor(address _currencyTokenAddr) public {\n\t\toperators[0] = msg.sender;\n\t\tcurrencyTokenAddr = _currencyTokenAddr;\n\t}\n\n\tfunction createOptract(uint256 ETHAmount, uint256 totalPrice, uint period) external notPaused {\n                require(ERC20(currencyTokenAddr).allowance(msg.sender, address(this)) >= initialPayment);\n                // require(period * 1 days >= 30 days && period * 1 days <= 365 days);\n                // require(ETHAmount >= 3 ether);\n                // for debug purpose, use ridiculously small values:\n                require(period * 1 days >= 1 days && period * 1 days <= 365 days);\n                require(ETHAmount >= 3 wei);\n\n\t\toptractRecord memory optRcd;\n                Optract opt = new Optract(ETHAmount, totalPrice, address(this), msg.sender, blkAddr, currencyTokenAddr);\n\n                require(ERC20(currencyTokenAddr).transferFrom(msg.sender, address(opt), initialPayment));\n\n                optRcd.expiredTime = block.timestamp + period * 1 days;\n                optRcd.initialOwner = msg.sender;\n\n                totalOpts = totalOpts + 1;\n                optractRecordsByIndex[totalOpts] = address(opt); // mapping start from uint key = 1\n                optractRecordsByAddress[address(opt)] = optRcd;\n\t}\n\n\t// Constant functions\n\tfunction queryInitPrice() public view returns (uint) { \n\t\treturn initialPayment; \n\t}\n\n\tfunction isExpired(address optractAddress) public view returns (bool) {\n\t\treturn block.timestamp > optractRecordsByAddress[optractAddress].expiredTime;\n\t}\n\n\tfunction getExpireTime() public view returns (uint) {\n\t\trequire(optractRecordsByAddress[msg.sender].expiredTime >= block.timestamp);\n\t\trequire(optractRecordsByAddress[msg.sender].initialOwner != address(0));\n\n\t\treturn optractRecordsByAddress[msg.sender].expiredTime;\n\t}\n\n        function _getNumOfActiveOptracts(uint start, uint length, address owner) public view returns (uint) {\n\t        // will be internal function so don't check requirements\n\t        uint activeLength = 0;\n\t\tif (start + length - 1 > totalOpts) {\n\t\t\tlength = totalOpts - start + 1;\n\t\t}\n\n\t\tif (owner == address(0)) { // list all orders\n\t\t\tfor (uint i = start; i <= start + length - 1; i++) {\n\t\t\t\tif (Optract(optractRecordsByIndex[i]).queryOnStock() == false\n\t\t\t\t    || optractRecordsByAddress[optractRecordsByIndex[i]].expiredTime - 8 hours <= block.timestamp) continue;\n\t\t\t\tactiveLength = activeLength + 1;\n\t\n\t\t\t}\n\t\t} else { // list only those initialized by owner\n\t\t\tfor (uint i = start; i <= start + length - 1; i++) {\n\t\t\t\tif (optractRecordsByAddress[optractRecordsByIndex[i]].initialOwner != owner) continue;\n\t\t\t\tif (Optract(optractRecordsByIndex[i]).queryOnStock() == false\n\t\t\t\t    || optractRecordsByAddress[optractRecordsByIndex[i]].expiredTime - 8 hours <= block.timestamp) continue;\n\t\t\t\tactiveLength = activeLength + 1;\n\t\t\t}\n\t\t}\n\t\treturn activeLength;\n        }\n\n        function activeOptractsLoop(uint start, uint length, address owner, uint8 _idx) public view returns (uint[] memory) {\n                require(_idx >= 1 && _idx <= 4, \"unknown optract characteristics\");\n                // _idx: {1: expTimeList, 2: priceList, 3:ETHList, 4: opriceList}\n\t\tif (start + length - 1 > totalOpts) {\n\t\t\tlength = totalOpts - start + 1;\n\t\t}\n                uint activeLength = _getNumOfActiveOptracts(start, length, owner);\n\t\tuint[] memory returnList = new uint[](activeLength);\n\t\tuint count = 0;\n\n\t\tif (owner == address(0)) { // list all orders\n\t\t\tfor (uint i = start; i <= start + length - 1; i++) {\n\t\t\t\tif (Optract(optractRecordsByIndex[i]).queryOnStock() == false || optractRecordsByAddress[optractRecordsByIndex[i]].expiredTime - 8 hours <= block.timestamp) continue;\n\t\n\t                        if (_idx == 1) {\n                                        returnList[count] = optractRecordsByAddress[optractRecordsByIndex[i]].expiredTime;\n                                } else if (_idx == 2) {\n                                        returnList[count] = Optract(optractRecordsByIndex[i]).queryOrderPrice();\n                                } else if (_idx == 3) {\n\t\t\t\t        returnList[count] = Optract(optractRecordsByIndex[i]).queryOrderSize();\n                                } else if (_idx == 4) {\n                                        returnList[count] = Optract(optractRecordsByIndex[i]).queryOptionPrice();\n                                }\n\t\t\t\tcount += 1;\n\t\t\t}\n\t\t} else { // list only those initialized by owner\n\t\t\tfor (uint i = start; i <= start + length - 1; i++) {\n\t\t\t\tif (optractRecordsByAddress[optractRecordsByIndex[i]].initialOwner != owner) continue;\n\t\t\t\tif (Optract(optractRecordsByIndex[i]).queryOnStock() == false || optractRecordsByAddress[optractRecordsByIndex[i]].expiredTime - 8 hours <= block.timestamp) continue;\n\t                        if (_idx == 1) {\n                                        returnList[count] = optractRecordsByAddress[optractRecordsByIndex[i]].expiredTime;\n                                } else if (_idx == 2) {\n                                        returnList[count] = Optract(optractRecordsByIndex[i]).queryOrderPrice();\n                                } else if (_idx == 3) {\n\t\t\t\t        returnList[count] = Optract(optractRecordsByIndex[i]).queryOrderSize();\n                                } else if (_idx == 4) {\n                                        returnList[count] = Optract(optractRecordsByIndex[i]).queryOptionPrice();\n                                }\n\t\t\t\tcount += 1;\n\t\t\t}\n\t\t}\n\t\treturn returnList;\n        }\n\n\tfunction activeOptractsFilledStatus(uint start, uint length, address owner) public view returns (address[] memory, bool[] memory) {\n\t        // will be internal function so don't check requirements\n\t\tif (start + length - 1 > totalOpts) {\n\t\t\tlength = totalOpts - start + 1;\n\t\t}\n\n                uint activeLength = _getNumOfActiveOptracts(start, length, owner);\n\t\taddress[] memory addrlist = new address[](activeLength);\n\t\tbool[] memory filled = new bool[](activeLength);\n\t\tuint count = 0;\n\n\t\tif (owner == address(0)) { // list all orders\n\t\t\tfor (uint i = start; i <= start + length - 1; i++) {\n\t\t\t\taddress optAddr = optractRecordsByIndex[i];\n\t\t\t\tif (Optract(optAddr).queryOnStock() == false || optractRecordsByAddress[optAddr].expiredTime - 8 hours <= block.timestamp) continue;\n\t\n\t\t\t\tif (optAddr.balance == Optract(optAddr).queryOrderSize()) {  // or \">=\"?\n\t\t\t\t\tfilled[count] = true;\n\t\t\t\t} else {\n\t\t\t\t\tfilled[count] = false;\n\t\t\t\t}\n\t\t\t\taddrlist[count] = optAddr;\n\t\t\t\tcount += 1;\n\t\t\t}\n\t\t} else { // list only those initialized by owner\n\t\t\tfor (uint i = start; i <= start + length - 1; i++) {\n\t\t\t\taddress optAddr = optractRecordsByIndex[i];\n\t\t\t\tif (optractRecordsByAddress[optAddr].initialOwner != owner) continue;\n\t\t\t\tif (Optract(optAddr).queryOnStock() == false || optractRecordsByAddress[optAddr].expiredTime - 8 hours <= block.timestamp) continue;\n\t\n\t\t\t\tif (optAddr.balance == Optract(optAddr).queryOrderSize()) {\n\t\t\t\t\tfilled[count] = true;\n\t\t\t\t} else {\n\t\t\t\t\tfilled[count] = false;\n\t\t\t\t}\n\t\t\t\taddrlist[count] = optAddr;\n\t\t\t\tcount += 1;\n\t\t\t}\n\t\t}\n\t\treturn (addrlist, filled);\n\t}\n\n\tfunction activeOptracts(uint start, uint length, address owner) public view returns (\n\t\taddress[] memory,\n\t\t   uint[] memory,\n\t\t   uint[] memory,\n\t\t   uint[] memory,\n\t\t   uint[] memory,\n\t           bool[] memory)\n\t{\n\t\trequire(start > 0 && length > 0);\n\t\trequire(totalOpts > 0 && totalOpts >= start);\n\t\tif (start + length - 1 > totalOpts) {\n\t\t\tlength = totalOpts - start + 1;\n\t\t}\n\n\t\taddress[] memory addrlist = new address[](_getNumOfActiveOptracts(start, length, owner));\n\t\tuint[] memory expTimeList= new uint[](_getNumOfActiveOptracts(start, length, owner));\n\t\tuint[] memory priceList = new uint[](_getNumOfActiveOptracts(start, length, owner));\n\t\tuint[] memory ETHList = new uint[](_getNumOfActiveOptracts(start, length, owner));\n\t\tuint[] memory opriceList = new uint[](_getNumOfActiveOptracts(start, length, owner));\n\t\tbool[] memory filled = new bool[](_getNumOfActiveOptracts(start, length, owner));  // stack too deep if include this one\n\n                // assume all the following function calls return same order\n\t\texpTimeList = activeOptractsLoop(start, length, owner, 1);\n\t\tpriceList = activeOptractsLoop(start, length, owner, 2);\n\t\tETHList = activeOptractsLoop(start, length, owner, 3);\n\t\topriceList = activeOptractsLoop(start, length, owner, 4);\n\t\t(addrlist, filled) = activeOptractsFilledStatus(start, length, owner);\n\t\treturn (addrlist, expTimeList, priceList, ETHList, opriceList, filled);\n        }\n\n\n        function _getNumOfInActiveOptracts(uint start, uint length, address owner) public view returns (uint) {\n\t        // will be internal function so don't check requirements\n\t        uint inactiveLength = 0;\n\t\tif (start + length - 1 > totalOpts) {\n\t\t\tlength = totalOpts - start + 1;\n\t\t}\n\n\t\tif (owner == address(0)) { // list all orders\n\t\t\tfor (uint i = start; i <= start + length - 1; i++) {\n\t\t\t\tif (Optract(optractRecordsByIndex[i]).queryOnStock() == false\n\t\t\t\t    || optractRecordsByAddress[optractRecordsByIndex[i]].expiredTime - 8 hours <= block.timestamp)\n\t\t\t\t{\n\t\t\t\t        inactiveLength +=1;\n                                }\n\t\n\t\t\t}\n\t\t} else { // list only those initialized by owner\n\t\t\tfor (uint i = start; i <= start + length - 1; i++) {\n\t\t\t\tif (optractRecordsByAddress[optractRecordsByIndex[i]].initialOwner != owner) continue;\n\t\t\t\tif (Optract(optractRecordsByIndex[i]).queryOnStock() == false\n\t\t\t\t    || optractRecordsByAddress[optractRecordsByIndex[i]].expiredTime - 8 hours <= block.timestamp)\n                                {\n\t\t\t\t        inactiveLength += 1;\n                                }\n\t\t\t}\n\t\t}\n\t\treturn inactiveLength;\n        }\n\n        function inactiveOptractsLoop(uint start, uint length, address owner, uint8 _idx) public view returns (uint[] memory) {\n                require(_idx >= 1 && _idx <= 4, \"unknow optract chracteristics\");\n                // _idx: {1: expTimeList, 2: priceList, 3:ETHList, 4: opriceList}\n\t\tif (start + length - 1 > totalOpts) {\n\t\t\tlength = totalOpts - start + 1;\n\t\t}\n                uint inactiveLength = _getNumOfInActiveOptracts(start, length, owner);\n\t\tuint[] memory returnList = new uint[](inactiveLength);\n\t\tif (inactiveLength == 0) return (returnList);\n\t\tuint count = 0;\n\n\t\tif (owner == address(0)) { // list all orders\n\t\t\tfor (uint i = start; i <= start + length - 1; i++) {\n\t\t\t\tif (Optract(optractRecordsByIndex[i]).queryOnStock() == false\n\t\t\t\t    || optractRecordsByAddress[optractRecordsByIndex[i]].expiredTime - 8 hours <= block.timestamp)\n\n\t\t\t\t{\n                                        if (_idx == 1) {\n                                                returnList[count] = optractRecordsByAddress[optractRecordsByIndex[i]].expiredTime;\n                                        } else if (_idx == 2) {\n                                                returnList[count] = Optract(optractRecordsByIndex[i]).queryOrderPrice();\n                                        } else if (_idx == 3) {\n                                                returnList[count] = Optract(optractRecordsByIndex[i]).queryOrderSize();\n                                        } else if (_idx == 4) {\n                                                returnList[count] = Optract(optractRecordsByIndex[i]).queryOptionPrice();\n                                        }\n                                        count += 1;\n                                }\n\t\t\t}\n\t\t} else { // list only those initialized by owner\n\t\t\tfor (uint i = start; i <= start + length - 1; i++) {\n\t\t\t\tif (optractRecordsByAddress[optractRecordsByIndex[i]].initialOwner != owner) continue;\n\t\t\t\tif (Optract(optractRecordsByIndex[i]).queryOnStock() == false\n\t\t\t\t    || optractRecordsByAddress[optractRecordsByIndex[i]].expiredTime - 8 hours <= block.timestamp)\n                                {\n                                        if (_idx == 1) {\n                                                returnList[count] = optractRecordsByAddress[optractRecordsByIndex[i]].expiredTime;\n                                        } else if (_idx == 2) {\n                                                returnList[count] = Optract(optractRecordsByIndex[i]).queryOrderPrice();\n                                        } else if (_idx == 3) {\n                                                returnList[count] = Optract(optractRecordsByIndex[i]).queryOrderSize();\n                                        } else if (_idx == 4) {\n                                                returnList[count] = Optract(optractRecordsByIndex[i]).queryOptionPrice();\n                                        }\n                                        count += 1;\n                                }\n\t\t\t}\n\t\t}\n\t\treturn returnList;\n        }\n\n\tfunction inactiveOptractsFilledStatus(uint start, uint length, address owner) public view returns (address[] memory, bool[] memory) {\n\t        // will be internal function so don't check requirements\n\t\tif (start + length - 1 > totalOpts) {\n\t\t\tlength = totalOpts - start + 1;\n\t\t}\n\n                uint inactiveLength = _getNumOfInActiveOptracts(start, length, owner);\n\t\taddress[] memory addrlist = new address[](inactiveLength);\n\t\tbool[] memory filled = new bool[](inactiveLength);\n\t\tif (inactiveLength == 0) return (addrlist, filled);\n\t\tuint count = 0;\n\n\t\tif (owner == address(0)) { // list all orders\n\t\t\tfor (uint i = start; i <= start + length - 1; i++) {\n\t\t\t\taddress optAddr = optractRecordsByIndex[i];\n\t\t\t\tif (Optract(optAddr).queryOnStock() == false\n\t\t\t\t    || optractRecordsByAddress[optAddr].expiredTime - 8 hours <= block.timestamp)\n                                {\n                                        if (optAddr.balance == Optract(optAddr).queryOrderSize()) {\n                                                filled[count] = true;\n                                        } else {\n                                                filled[count] = false;\n                                        }\n                                        addrlist[count] = optAddr;\n                                        count += 1;\n                                }\n\t\t\t}\n\t\t} else { // list only those initialized by owner\n\t\t\tfor (uint i = start; i <= start + length - 1; i++) {\n\t\t\t\taddress optAddr = optractRecordsByIndex[i];\n\t\t\t\tif (optractRecordsByAddress[optAddr].initialOwner != owner) continue;\n\t\t\t\tif (Optract(optAddr).queryOnStock() == false\n\t\t\t\t    || optractRecordsByAddress[optAddr].expiredTime - 8 hours <= block.timestamp)\n                                {\n                                        if (optAddr.balance == Optract(optAddr).queryOrderSize()) {\n                                                filled[count] = true;\n                                        } else {\n                                                filled[count] = false;\n                                        }\n                                        addrlist[count] = optAddr;\n                                        count += 1;\n                                }\n\t\n\t\t\t}\n\t\t}\n\t\treturn (addrlist, filled);\n\t}\n\n\tfunction inactiveOptracts(uint start, uint length, address owner) public view returns (\n\t\taddress[] memory,\n\t\t   uint[] memory,\n\t\t   uint[] memory,\n\t\t   uint[] memory,\n\t\t   uint[] memory,\n\t           bool[] memory)\n\t{\n\t\trequire(start > 0 && length > 0);\n\t\trequire(totalOpts > 0 && totalOpts >= start);\n\n\t\tif (start + length - 1 > totalOpts) {\n\t\t\tlength = totalOpts - start + 1;\n\t\t}\n\n\t\taddress[] memory addrlist = new address[](_getNumOfInActiveOptracts(start, length, owner));\n\t\tuint[] memory expTimeList= new uint[](_getNumOfInActiveOptracts(start, length, owner));\n\t\tuint[] memory priceList = new uint[](_getNumOfInActiveOptracts(start, length, owner));\n\t\tuint[] memory ETHList = new uint[](_getNumOfInActiveOptracts(start, length, owner));\n\t\tuint[] memory opriceList = new uint[](_getNumOfInActiveOptracts(start, length, owner));\n\t\tbool[] memory filled = new bool[](_getNumOfInActiveOptracts(start, length, owner));\n\n                // assume all the following function calls return same order\n\t\texpTimeList = inactiveOptractsLoop(start, length, owner, 1);\n\t\tpriceList = inactiveOptractsLoop(start, length, owner, 2);\n\t\tETHList = inactiveOptractsLoop(start, length, owner, 3);\n\t\topriceList = inactiveOptractsLoop(start, length, owner, 4);\n\t\t(addrlist, filled) = inactiveOptractsFilledStatus(start, length, owner);\n\t\treturn (addrlist, expTimeList, priceList, ETHList, opriceList, filled);\n        }\n\n}\n",
  "sourcePath": "/home/kai/Work/project/Optract/contracts/OptractRegistry.sol",
  "compiler": {
    "name": "solc",
    "version": "0.5.2+commit.1df8f40c.Linux.g++"
  },
  "schemaVersion": "3.0.1",
  "updatedAt": "2019-02-28T21:51:38.188Z",
  "devdoc": {
    "methods": {}
  },
  "userdoc": {
    "methods": {}
  }
}