{
  "contractName": "OptractRegistry",
  "abi": [
    {
      "constant": true,
      "inputs": [],
      "name": "totalOpts",
      "outputs": [
        {
          "name": "",
          "type": "uint256"
        }
      ],
      "payable": false,
      "stateMutability": "view",
      "type": "function",
      "signature": "0x14eb3037"
    },
    {
      "constant": true,
      "inputs": [],
      "name": "optionMinPrice",
      "outputs": [
        {
          "name": "",
          "type": "uint256"
        }
      ],
      "payable": false,
      "stateMutability": "view",
      "type": "function",
      "signature": "0x1e5fc06b"
    },
    {
      "constant": true,
      "inputs": [],
      "name": "blkAddr",
      "outputs": [
        {
          "name": "",
          "type": "address"
        }
      ],
      "payable": false,
      "stateMutability": "view",
      "type": "function",
      "signature": "0x28f402b1"
    },
    {
      "constant": true,
      "inputs": [],
      "name": "paused",
      "outputs": [
        {
          "name": "",
          "type": "bool"
        }
      ],
      "payable": false,
      "stateMutability": "view",
      "type": "function",
      "signature": "0x5c975abb"
    },
    {
      "constant": true,
      "inputs": [],
      "name": "currencyTokenAddr",
      "outputs": [
        {
          "name": "",
          "type": "address"
        }
      ],
      "payable": false,
      "stateMutability": "view",
      "type": "function",
      "signature": "0x91d622b9"
    },
    {
      "constant": true,
      "inputs": [
        {
          "name": "",
          "type": "uint256"
        }
      ],
      "name": "operators",
      "outputs": [
        {
          "name": "",
          "type": "address"
        }
      ],
      "payable": false,
      "stateMutability": "view",
      "type": "function",
      "signature": "0xe28d4906"
    },
    {
      "inputs": [
        {
          "name": "_currencyTokenAddr",
          "type": "address"
        },
        {
          "name": "_blkAddr",
          "type": "address"
        }
      ],
      "payable": false,
      "stateMutability": "nonpayable",
      "type": "constructor",
      "signature": "constructor"
    },
    {
      "constant": false,
      "inputs": [
        {
          "name": "ETHAmount",
          "type": "uint256"
        },
        {
          "name": "totalPrice",
          "type": "uint256"
        },
        {
          "name": "period",
          "type": "uint256"
        },
        {
          "name": "optionPrice",
          "type": "uint256"
        }
      ],
      "name": "createOptract",
      "outputs": [],
      "payable": false,
      "stateMutability": "nonpayable",
      "type": "function",
      "signature": "0x9eee80b1"
    },
    {
      "constant": false,
      "inputs": [],
      "name": "destructRecord",
      "outputs": [],
      "payable": false,
      "stateMutability": "nonpayable",
      "type": "function",
      "signature": "0x99691650"
    },
    {
      "constant": true,
      "inputs": [],
      "name": "queryOptionMinPrice",
      "outputs": [
        {
          "name": "",
          "type": "uint256"
        }
      ],
      "payable": false,
      "stateMutability": "view",
      "type": "function",
      "signature": "0x64da7e24"
    },
    {
      "constant": true,
      "inputs": [
        {
          "name": "optractAddress",
          "type": "address"
        }
      ],
      "name": "isExpired",
      "outputs": [
        {
          "name": "",
          "type": "bool"
        }
      ],
      "payable": false,
      "stateMutability": "view",
      "type": "function",
      "signature": "0xba2eb541"
    },
    {
      "constant": true,
      "inputs": [],
      "name": "getExpireTime",
      "outputs": [
        {
          "name": "",
          "type": "uint256"
        }
      ],
      "payable": false,
      "stateMutability": "view",
      "type": "function",
      "signature": "0x2537127f"
    },
    {
      "constant": true,
      "inputs": [
        {
          "name": "_addr",
          "type": "address"
        }
      ],
      "name": "queryOptractRecords",
      "outputs": [
        {
          "name": "",
          "type": "uint256"
        },
        {
          "name": "",
          "type": "uint256"
        },
        {
          "name": "",
          "type": "address"
        }
      ],
      "payable": false,
      "stateMutability": "view",
      "type": "function",
      "signature": "0x38440451"
    },
    {
      "constant": true,
      "inputs": [
        {
          "name": "start",
          "type": "uint256"
        },
        {
          "name": "length",
          "type": "uint256"
        },
        {
          "name": "owner",
          "type": "address"
        }
      ],
      "name": "_getNumOfActiveOptracts",
      "outputs": [
        {
          "name": "",
          "type": "uint256"
        }
      ],
      "payable": false,
      "stateMutability": "view",
      "type": "function",
      "signature": "0x61605f09"
    },
    {
      "constant": true,
      "inputs": [
        {
          "name": "start",
          "type": "uint256"
        },
        {
          "name": "length",
          "type": "uint256"
        },
        {
          "name": "owner",
          "type": "address"
        },
        {
          "name": "_idx",
          "type": "uint8"
        }
      ],
      "name": "activeOptractsLoop",
      "outputs": [
        {
          "name": "",
          "type": "uint256[]"
        }
      ],
      "payable": false,
      "stateMutability": "view",
      "type": "function",
      "signature": "0x3b47ea04"
    },
    {
      "constant": true,
      "inputs": [
        {
          "name": "start",
          "type": "uint256"
        },
        {
          "name": "length",
          "type": "uint256"
        },
        {
          "name": "owner",
          "type": "address"
        }
      ],
      "name": "activeOptractsFilledStatus",
      "outputs": [
        {
          "name": "",
          "type": "address[]"
        },
        {
          "name": "",
          "type": "bool[]"
        }
      ],
      "payable": false,
      "stateMutability": "view",
      "type": "function",
      "signature": "0x4b140961"
    },
    {
      "constant": true,
      "inputs": [
        {
          "name": "start",
          "type": "uint256"
        },
        {
          "name": "length",
          "type": "uint256"
        },
        {
          "name": "owner",
          "type": "address"
        }
      ],
      "name": "activeOptracts",
      "outputs": [
        {
          "name": "",
          "type": "address[]"
        },
        {
          "name": "",
          "type": "uint256[]"
        },
        {
          "name": "",
          "type": "uint256[]"
        },
        {
          "name": "",
          "type": "uint256[]"
        },
        {
          "name": "",
          "type": "uint256[]"
        },
        {
          "name": "",
          "type": "bool[]"
        }
      ],
      "payable": false,
      "stateMutability": "view",
      "type": "function",
      "signature": "0x6769f438"
    },
    {
      "constant": true,
      "inputs": [
        {
          "name": "start",
          "type": "uint256"
        },
        {
          "name": "length",
          "type": "uint256"
        },
        {
          "name": "owner",
          "type": "address"
        }
      ],
      "name": "_getNumOfInActiveOptracts",
      "outputs": [
        {
          "name": "",
          "type": "uint256"
        }
      ],
      "payable": false,
      "stateMutability": "view",
      "type": "function",
      "signature": "0x69edcbdc"
    },
    {
      "constant": true,
      "inputs": [
        {
          "name": "start",
          "type": "uint256"
        },
        {
          "name": "length",
          "type": "uint256"
        },
        {
          "name": "owner",
          "type": "address"
        },
        {
          "name": "_idx",
          "type": "uint8"
        }
      ],
      "name": "inactiveOptractsLoop",
      "outputs": [
        {
          "name": "",
          "type": "uint256[]"
        }
      ],
      "payable": false,
      "stateMutability": "view",
      "type": "function",
      "signature": "0xdac717e2"
    },
    {
      "constant": true,
      "inputs": [
        {
          "name": "start",
          "type": "uint256"
        },
        {
          "name": "length",
          "type": "uint256"
        },
        {
          "name": "owner",
          "type": "address"
        }
      ],
      "name": "inactiveOptractsFilledStatus",
      "outputs": [
        {
          "name": "",
          "type": "address[]"
        },
        {
          "name": "",
          "type": "bool[]"
        }
      ],
      "payable": false,
      "stateMutability": "view",
      "type": "function",
      "signature": "0xb7233fa5"
    },
    {
      "constant": true,
      "inputs": [
        {
          "name": "start",
          "type": "uint256"
        },
        {
          "name": "length",
          "type": "uint256"
        },
        {
          "name": "owner",
          "type": "address"
        }
      ],
      "name": "inactiveOptracts",
      "outputs": [
        {
          "name": "",
          "type": "address[]"
        },
        {
          "name": "",
          "type": "uint256[]"
        },
        {
          "name": "",
          "type": "uint256[]"
        },
        {
          "name": "",
          "type": "uint256[]"
        },
        {
          "name": "",
          "type": "uint256[]"
        },
        {
          "name": "",
          "type": "bool[]"
        }
      ],
      "payable": false,
      "stateMutability": "view",
      "type": "function",
      "signature": "0x26b057ad"
    }
  ],
  "bytecode": "0x608060405260006005556006805460ff1916905534801561001f57600080fd5b506040516040806144818339810180604052604081101561003f57600080fd5b50805160209091015160008054600160a060020a03199081163317825560038054600160a060020a03958616908316179055600480549490931693169290921790556143f090819061009190396000f3fe608060405234801561001057600080fd5b50600436106101305760003560e060020a9004806364da7e24116100b15780639eee80b1116100755780639eee80b1146105d1578063b7233fa514610600578063ba2eb54114610632578063dac717e214610658578063e28d49061461069357610130565b806364da7e24146105535780636769f4381461055b57806369edcbdc1461058d57806391d622b9146105bf57806399691650146105c757610130565b806338440451116100f857806338440451146103625780633b47ea04146103af5780634b1409611461043a5780635c975abb1461050557806361605f091461052157610130565b806314eb3037146101355780631e5fc06b1461014f5780632537127f1461015757806326b057ad1461015f57806328f402b11461033e575b600080fd5b61013d6106b0565b60408051918252519081900360200190f35b61013d6106b6565b61013d6106c2565b6101916004803603606081101561017557600080fd5b5080359060208101359060400135600160a060020a031661071f565b6040518080602001806020018060200180602001806020018060200187810387528d818151815260200191508051906020019060200280838360005b838110156101e55781810151838201526020016101cd565b5050505090500187810386528c818151815260200191508051906020019060200280838360005b8381101561022457818101518382015260200161020c565b5050505090500187810385528b818151815260200191508051906020019060200280838360005b8381101561026357818101518382015260200161024b565b5050505090500187810384528a818151815260200191508051906020019060200280838360005b838110156102a257818101518382015260200161028a565b50505050905001878103835289818151815260200191508051906020019060200280838360005b838110156102e15781810151838201526020016102c9565b50505050905001878103825288818151815260200191508051906020019060200280838360005b83811015610320578181015183820152602001610308565b505050509050019c5050505050505050505050505060405180910390f35b610346610938565b60408051600160a060020a039092168252519081900360200190f35b6103886004803603602081101561037857600080fd5b5035600160a060020a0316610947565b604080519384526020840192909252600160a060020a031682820152519081900360600190f35b6103ea600480360360808110156103c557600080fd5b508035906020810135906040810135600160a060020a0316906060013560ff16610975565b60408051602080825283518183015283519192839290830191858101910280838360005b8381101561042657818101518382015260200161040e565b505050509050019250505060405180910390f35b61046c6004803603606081101561045057600080fd5b5080359060208101359060400135600160a060020a0316611049565b604051808060200180602001838103835285818151815260200191508051906020019060200280838360005b838110156104b0578181015183820152602001610498565b50505050905001838103825284818151815260200191508051906020019060200280838360005b838110156104ef5781810151838201526020016104d7565b5050505090500194505050505060405180910390f35b61050d611498565b604080519115158252519081900360200190f35b61013d6004803603606081101561053757600080fd5b5080359060208101359060400135600160a060020a03166114a1565b61013d6116da565b6101916004803603606081101561057157600080fd5b5080359060208101359060400135600160a060020a03166116e6565b61013d600480360360608110156105a357600080fd5b5080359060208101359060400135600160a060020a03166118e0565b610346611b00565b6105cf611b0f565b005b6105cf600480360360808110156105e757600080fd5b5080359060208101359060408101359060600135611c07565b61046c6004803603606081101561061657600080fd5b5080359060208101359060400135600160a060020a0316611ece565b61050d6004803603602081101561064857600080fd5b5035600160a060020a031661230d565b6103ea6004803603608081101561066e57600080fd5b508035906020810135906040810135600160a060020a0316906060013560ff1661232d565b610346600480360360208110156106a957600080fd5b50356129f2565b60055481565b674563918244f4000081565b336000908152600860205260408120600101544211156106e157600080fd5b33600090815260086020526040902060020154600160a060020a0316151561070857600080fd5b503360009081526008602052604090206001015490565b6060806060806060806000891180156107385750600088115b151561074357600080fd5b600060055411801561075757508860055410155b151561076257600080fd5b6005546001898b0103111561077c57886005540360010197505b60606107898a8a8a6118e0565b6040519080825280602002602001820160405280156107b2578160200160208202803883390190505b50905060606107c28b8b8b6118e0565b6040519080825280602002602001820160405280156107eb578160200160208202803883390190505b50905060606107fb8c8c8c6118e0565b604051908082528060200260200182016040528015610824578160200160208202803883390190505b50905060606108348d8d8d6118e0565b60405190808252806020026020018201604052801561085d578160200160208202803883390190505b509050606061086d8e8e8e6118e0565b604051908082528060200260200182016040528015610896578160200160208202803883390190505b50905060606108a68f8f8f6118e0565b6040519080825280602002602001820160405280156108cf578160200160208202803883390190505b5090506108df8f8f8f600161232d565b94506108ee8f8f8f600261232d565b93506108fd8f8f8f600361232d565b925061090c8f8f8f600461232d565b91506109198f8f8f611ece565b909c50949a509298509096509450909250505093975093979195509350565b600454600160a060020a031681565b600160a060020a03908116600090815260086020526040902080546001820154600290920154909391921690565b606060018260ff161015801561098f575060048260ff1611155b15156109fc57604080517f08c379a000000000000000000000000000000000000000000000000000000000815260206004820152601f60248201527f756e6b6e6f776e206f7074726163742063686172616374657269737469637300604482015290519081900360640190fd5b6005546001858701031115610a1657846005540360010193505b6000610a238686866114a1565b9050606081604051908082528060200260200182016040528015610a51578160200160208202803883390190505b5090506000600160a060020a0386161515610d3657875b600019898901018111610d305760008181526007602090815260409182902054825160e060020a63070ee0670281529251600160a060020a039091169263070ee067926004808301939192829003018186803b158015610ac757600080fd5b505afa158015610adb573d6000803e3d6000fd5b505050506040513d6020811015610af157600080fd5b50511580610b2d5750600081815260076020908152604080832054600160a060020a0316835260089091529020600101544261707f1990910111155b15610b3757610d28565b8560ff1660011415610b8857600081815260076020908152604080832054600160a060020a0316835260089091529020600101548351849084908110610b7957fe5b60209081029091010152610d21565b8560ff1660021415610c205760008181526007602090815260409182902054825160e060020a63b3fb9fc70281529251600160a060020a039091169263b3fb9fc7926004808301939192829003018186803b158015610be657600080fd5b505afa158015610bfa573d6000803e3d6000fd5b505050506040513d6020811015610c1057600080fd5b50518351849084908110610b7957fe5b8560ff1660031415610c7e5760008181526007602090815260409182902054825160e160020a635817852d0281529251600160a060020a039091169263b02f0a5a926004808301939192829003018186803b158015610be657600080fd5b8560ff1660041415610d215760008181526007602090815260409182902054825160e160020a633b7c6e470281529251600160a060020a03909116926376f8dc8e926004808301939192829003018186803b158015610cdc57600080fd5b505afa158015610cf0573d6000803e3d6000fd5b505050506040513d6020811015610d0657600080fd5b50518351849084908110610d1657fe5b602090810290910101525b6001820191505b600101610a68565b5061103c565b875b60001989890101811161103a57600081815260076020908152604080832054600160a060020a039081168452600890925290912060020154811690881614610d7f57611032565b60008181526007602090815260409182902054825160e060020a63070ee0670281529251600160a060020a039091169263070ee067926004808301939192829003018186803b158015610dd157600080fd5b505afa158015610de5573d6000803e3d6000fd5b505050506040513d6020811015610dfb57600080fd5b50511580610e375750600081815260076020908152604080832054600160a060020a0316835260089091529020600101544261707f1990910111155b15610e4157611032565b8560ff1660011415610e9257600081815260076020908152604080832054600160a060020a0316835260089091529020600101548351849084908110610e8357fe5b6020908102909101015261102b565b8560ff1660021415610f2a5760008181526007602090815260409182902054825160e060020a63b3fb9fc70281529251600160a060020a039091169263b3fb9fc7926004808301939192829003018186803b158015610ef057600080fd5b505afa158015610f04573d6000803e3d6000fd5b505050506040513d6020811015610f1a57600080fd5b50518351849084908110610e8357fe5b8560ff1660031415610f885760008181526007602090815260409182902054825160e160020a635817852d0281529251600160a060020a039091169263b02f0a5a926004808301939192829003018186803b158015610ef057600080fd5b8560ff166004141561102b5760008181526007602090815260409182902054825160e160020a633b7c6e470281529251600160a060020a03909116926376f8dc8e926004808301939192829003018186803b158015610fe657600080fd5b505afa158015610ffa573d6000803e3d6000fd5b505050506040513d602081101561101057600080fd5b5051835184908490811061102057fe5b602090810290910101525b6001820191505b600101610d38565b505b509150505b949350505050565b606080600554600185870103111561106657846005540360010193505b60006110738686866114a1565b90506060816040519080825280602002602001820160405280156110a1578160200160208202803883390190505b5090506060826040519080825280602002602001820160405280156110d0578160200160208202803883390190505b5090506000600160a060020a03871615156112a557885b6000198a8a0101811161129f5760008181526007602090815260409182902054825160e060020a63070ee0670281529251600160a060020a0390911692839263070ee06792600480840193829003018186803b15801561114657600080fd5b505afa15801561115a573d6000803e3d6000fd5b505050506040513d602081101561117057600080fd5b505115806111a05750600160a060020a0381166000908152600860205260409020600101544261707f1990910111155b156111ab5750611297565b80600160a060020a031663b02f0a5a6040518163ffffffff1660e060020a02815260040160206040518083038186803b1580156111e757600080fd5b505afa1580156111fb573d6000803e3d6000fd5b505050506040513d602081101561121157600080fd5b5051600160a060020a038216311415611248576001848481518110151561123457fe5b911515602092830290910190910152611268565b6000848481518110151561125857fe5b9115156020928302909101909101525b80858481518110151561127757fe5b600160a060020a0390921660209283029091019091015250600191909101905b6001016110e7565b50611488565b885b6000198a8a0101811161148657600081815260076020908152604080832054600160a060020a03908116808552600890935292206002015490918a81169116146112f1575061147e565b80600160a060020a031663070ee0676040518163ffffffff1660e060020a02815260040160206040518083038186803b15801561132d57600080fd5b505afa158015611341573d6000803e3d6000fd5b505050506040513d602081101561135757600080fd5b505115806113875750600160a060020a0381166000908152600860205260409020600101544261707f1990910111155b15611392575061147e565b80600160a060020a031663b02f0a5a6040518163ffffffff1660e060020a02815260040160206040518083038186803b1580156113ce57600080fd5b505afa1580156113e2573d6000803e3d6000fd5b505050506040513d60208110156113f857600080fd5b5051600160a060020a03821631141561142f576001848481518110151561141b57fe5b91151560209283029091019091015261144f565b6000848481518110151561143f57fe5b9115156020928302909101909101525b80858481518110151561145e57fe5b600160a060020a0390921660209283029091019091015250600191909101905b6001016112a7565b505b509093509150505b935093915050565b60065460ff1681565b60055460009081906000198686010111156114c157846005540360010193505b600160a060020a03831615156115b757845b6000198686010181116115b15760008181526007602090815260409182902054825160e060020a63070ee0670281529251600160a060020a039091169263070ee067926004808301939192829003018186803b15801561153257600080fd5b505afa158015611546573d6000803e3d6000fd5b505050506040513d602081101561155c57600080fd5b505115806115985750600081815260076020908152604080832054600160a060020a0316835260089091529020600101544261707f1990910111155b156115a2576115a9565b8160010191505b6001016114d3565b50611041565b845b6000198686010181116116d157600081815260076020908152604080832054600160a060020a039081168452600890925290912060020154811690851614611600576116c9565b60008181526007602090815260409182902054825160e060020a63070ee0670281529251600160a060020a039091169263070ee067926004808301939192829003018186803b15801561165257600080fd5b505afa158015611666573d6000803e3d6000fd5b505050506040513d602081101561167c57600080fd5b505115806116b85750600081815260076020908152604080832054600160a060020a0316835260089091529020600101544261707f1990910111155b156116c2576116c9565b8160010191505b6001016115b9565b50949350505050565b674563918244f4000090565b6060806060806060806000891180156116ff5750600088115b151561170a57600080fd5b600060055411801561171e57508860055410155b151561172957600080fd5b6005546001898b0103111561174357886005540360010197505b60606117508a8a8a6114a1565b604051908082528060200260200182016040528015611779578160200160208202803883390190505b50905060606117898b8b8b6114a1565b6040519080825280602002602001820160405280156117b2578160200160208202803883390190505b50905060606117c28c8c8c6114a1565b6040519080825280602002602001820160405280156117eb578160200160208202803883390190505b50905060606117fb8d8d8d6114a1565b604051908082528060200260200182016040528015611824578160200160208202803883390190505b50905060606118348e8e8e6114a1565b60405190808252806020026020018201604052801561185d578160200160208202803883390190505b509050606061186d8f8f8f6114a1565b604051908082528060200260200182016040528015611896578160200160208202803883390190505b5090506118a68f8f8f6001610975565b94506118b58f8f8f6002610975565b93506118c48f8f8f6003610975565b92506118d38f8f8f6004610975565b91506109198f8f8f611049565b600554600090819060001986860101111561190057846005540360010193505b600160a060020a03831615156119eb57845b6000198686010181116115b15760008181526007602090815260409182902054825160e060020a63070ee0670281529251600160a060020a039091169263070ee067926004808301939192829003018186803b15801561197157600080fd5b505afa158015611985573d6000803e3d6000fd5b505050506040513d602081101561199b57600080fd5b505115806119d75750600081815260076020908152604080832054600160a060020a0316835260089091529020600101544261707f1990910111155b156119e3576001820191505b600101611912565b845b6000198686010181116116d157600081815260076020908152604080832054600160a060020a039081168452600890925290912060020154811690851614611a3457611af8565b60008181526007602090815260409182902054825160e060020a63070ee0670281529251600160a060020a039091169263070ee067926004808301939192829003018186803b158015611a8657600080fd5b505afa158015611a9a573d6000803e3d6000fd5b505050506040513d6020811015611ab057600080fd5b50511580611aec5750600081815260076020908152604080832054600160a060020a0316835260089091529020600101544261707f1990910111155b15611af8576001820191505b6001016119ed565b600354600160a060020a031681565b336000908152600860209081526040808320548084526007909252909120805473ffffffffffffffffffffffffffffffffffffffff191690556005548114611bc25760058054600090815260076020818152604080842054600160a060020a0390811685526008835281852087905585548552929091528083205485845281842080549190931673ffffffffffffffffffffffffffffffffffffffff199182161790925592548252919020805490911690555b503360009081526008602052604081208181556001810191909155600201805473ffffffffffffffffffffffffffffffffffffffff1916905560058054600019019055565b60065460ff1615611c1757600080fd5b674563918244f40000811015611c2c57600080fd5b600354604080517fdd62ed3e00000000000000000000000000000000000000000000000000000000815233600482015230602482015290518392600160a060020a03169163dd62ed3e916044808301926020929190829003018186803b158015611c9557600080fd5b505afa158015611ca9573d6000803e3d6000fd5b505050506040513d6020811015611cbf57600080fd5b50511015611ccc57600080fd5b6201518082620151800210158015611ced57506301e1338082620151800211155b1515611cf857600080fd5b6003841015611d0657600080fd5b611d0e612a0f565b60058054600101905560045460035460009187918791869130913391600160a060020a039182169116611d3f612a3a565b9687526020870195909552604080870194909452600160a060020a0392831660608701529082166080860152811660a08501529190911660c0830152519081900360e001906000f080158015611d99573d6000803e3d6000fd5b50600354604080517f23b872dd000000000000000000000000000000000000000000000000000000008152336004820152600160a060020a0380851660248301526044820188905291519394509116916323b872dd916064808201926020929091908290030181600087803b158015611e1157600080fd5b505af1158015611e25573d6000803e3d6000fd5b505050506040513d6020811015611e3b57600080fd5b50511515611e4857600080fd5b600554808352620151809490940242016020808401918252336040808601918252600097885260078352808820805473ffffffffffffffffffffffffffffffffffffffff19908116600160a060020a0397881690811790925590895260089093529096209351845590516001840155935160029092018054909416911617909155505050565b6060806005546001858701031115611eeb57846005540360010193505b6000611ef88686866118e0565b9050606081604051908082528060200260200182016040528015611f26578160200160208202803883390190505b509050606082604051908082528060200260200182016040528015611f55578160200160208202803883390190505b509050821515611f6b5790935091506114909050565b6000600160a060020a038716151561213157885b6000198a8a0101811161129f5760008181526007602090815260409182902054825160e060020a63070ee0670281529251600160a060020a0390911692839263070ee06792600480840193829003018186803b158015611fde57600080fd5b505afa158015611ff2573d6000803e3d6000fd5b505050506040513d602081101561200857600080fd5b505115806120385750600160a060020a0381166000908152600860205260409020600101544261707f1990910111155b156121285780600160a060020a031663b02f0a5a6040518163ffffffff1660e060020a02815260040160206040518083038186803b15801561207957600080fd5b505afa15801561208d573d6000803e3d6000fd5b505050506040513d60208110156120a357600080fd5b5051600160a060020a0382163114156120da57600184848151811015156120c657fe5b9115156020928302909101909101526120fa565b600084848151811015156120ea57fe5b9115156020928302909101909101525b80858481518110151561210957fe5b600160a060020a03909216602092830290910190910152600192909201915b50600101611f7f565b885b6000198a8a0101811161148657600081815260076020908152604080832054600160a060020a03908116808552600890935292206002015490918a811691161461217d5750612305565b80600160a060020a031663070ee0676040518163ffffffff1660e060020a02815260040160206040518083038186803b1580156121b957600080fd5b505afa1580156121cd573d6000803e3d6000fd5b505050506040513d60208110156121e357600080fd5b505115806122135750600160a060020a0381166000908152600860205260409020600101544261707f1990910111155b156123035780600160a060020a031663b02f0a5a6040518163ffffffff1660e060020a02815260040160206040518083038186803b15801561225457600080fd5b505afa158015612268573d6000803e3d6000fd5b505050506040513d602081101561227e57600080fd5b5051600160a060020a0382163114156122b557600184848151811015156122a157fe5b9115156020928302909101909101526122d5565b600084848151811015156122c557fe5b9115156020928302909101909101525b8085848151811015156122e457fe5b600160a060020a03909216602092830290910190910152600192909201915b505b600101612133565b600160a060020a0316600090815260086020526040902060010154421190565b606060018260ff1610158015612347575060048260ff1611155b15156123b457604080517f08c379a000000000000000000000000000000000000000000000000000000000815260206004820152601d60248201527f756e6b6e6f77206f707472616374206368726163746572697374696373000000604482015290519081900360640190fd5b60055460018587010311156123ce57846005540360010193505b60006123db8686866118e0565b9050606081604051908082528060200260200182016040528015612409578160200160208202803883390190505b50905081151561241c5791506110419050565b6000600160a060020a03861615156126f357875b600019898901018111610d305760008181526007602090815260409182902054825160e060020a63070ee0670281529251600160a060020a039091169263070ee067926004808301939192829003018186803b15801561248f57600080fd5b505afa1580156124a3573d6000803e3d6000fd5b505050506040513d60208110156124b957600080fd5b505115806124f55750600081815260076020908152604080832054600160a060020a0316835260089091529020600101544261707f1990910111155b156126eb578560ff166001141561254b57600081815260076020908152604080832054600160a060020a031683526008909152902060010154835184908490811061253c57fe5b602090810290910101526126e4565b8560ff16600214156125e35760008181526007602090815260409182902054825160e060020a63b3fb9fc70281529251600160a060020a039091169263b3fb9fc7926004808301939192829003018186803b1580156125a957600080fd5b505afa1580156125bd573d6000803e3d6000fd5b505050506040513d60208110156125d357600080fd5b5051835184908490811061253c57fe5b8560ff16600314156126415760008181526007602090815260409182902054825160e160020a635817852d0281529251600160a060020a039091169263b02f0a5a926004808301939192829003018186803b1580156125a957600080fd5b8560ff16600414156126e45760008181526007602090815260409182902054825160e160020a633b7c6e470281529251600160a060020a03909116926376f8dc8e926004808301939192829003018186803b15801561269f57600080fd5b505afa1580156126b3573d6000803e3d6000fd5b505050506040513d60208110156126c957600080fd5b505183518490849081106126d957fe5b602090810290910101525b6001820191505b600101612430565b875b60001989890101811161103a57600081815260076020908152604080832054600160a060020a03908116845260089092529091206002015481169088161461273c576129ea565b60008181526007602090815260409182902054825160e060020a63070ee0670281529251600160a060020a039091169263070ee067926004808301939192829003018186803b15801561278e57600080fd5b505afa1580156127a2573d6000803e3d6000fd5b505050506040513d60208110156127b857600080fd5b505115806127f45750600081815260076020908152604080832054600160a060020a0316835260089091529020600101544261707f1990910111155b156129ea578560ff166001141561284a57600081815260076020908152604080832054600160a060020a031683526008909152902060010154835184908490811061283b57fe5b602090810290910101526129e3565b8560ff16600214156128e25760008181526007602090815260409182902054825160e060020a63b3fb9fc70281529251600160a060020a039091169263b3fb9fc7926004808301939192829003018186803b1580156128a857600080fd5b505afa1580156128bc573d6000803e3d6000fd5b505050506040513d60208110156128d257600080fd5b5051835184908490811061283b57fe5b8560ff16600314156129405760008181526007602090815260409182902054825160e160020a635817852d0281529251600160a060020a039091169263b02f0a5a926004808301939192829003018186803b1580156128a857600080fd5b8560ff16600414156129e35760008181526007602090815260409182902054825160e160020a633b7c6e470281529251600160a060020a03909116926376f8dc8e926004808301939192829003018186803b15801561299e57600080fd5b505afa1580156129b2573d6000803e3d6000fd5b505050506040513d60208110156129c857600080fd5b505183518490849081106129d857fe5b602090810290910101525b6001820191505b6001016126f5565b600081600381106129ff57fe5b0154600160a060020a0316905081565b60606040519081016040528060008152602001600081526020016000600160a060020a031681525090565b60405161197a80612a4b8339019056fe6080604052600c805462ffff00191690556000600d819055600e5534801561002657600080fd5b5060405160e08061197a833981018060405260e081101561004657600080fd5b508051602082015160408301516060840151608085015160a086015160c09096015160069590955560079390935560089190915560038054600160a060020a03928316600160a060020a03199182161790915560008054938316938216841790556004805495831695821695909517909455600580549190931690841617909155600c805460ff191660019081179091558054909216179055426009556078600a55611883806100f76000396000f3fe6080604052600436106101d15760003560e060020a90048063b02f0a5a116100fb578063ce2ca19e11610099578063d92fe2df11610068578063d92fe2df14610583578063ef78d4fd14610598578063f1fffdcb146105ad578063f5e3fc30146105c2576101d1565b8063ce2ca19e1461051a578063cf444d9b14610544578063d6e8c27314610559578063d80cc0091461056e576101d1565b8063b3fb9fc7116100d5578063b3fb9fc7146104bc578063b56fb337146104d1578063c80bcf2e146104fd578063c98166c014610505576101d1565b8063b02f0a5a1461047d578063b0d31bc814610492578063b387ef92146104a7576101d1565b80634c2067c7116101735780638a56ca45116101425780638a56ca45146104295780639068f84a1461043e57806391d622b914610453578063aab8859614610468576101d1565b80634c2067c7146103d557806351da2eaa146103ea57806376f8dc8e146103ff5780637c47944914610414576101d1565b806328f402b1116101af57806328f402b11461023b57806331dc3b401461026c57806335b132f9146102815780633a0d3aab14610296576101d1565b8063070ee067146101d657806314c68b1b146101ff57806317ca325614610214575b600080fd5b3480156101e257600080fd5b506101eb6105d7565b604080519115158252519081900360200190f35b34801561020b57600080fd5b506101eb6105e0565b34801561022057600080fd5b506102296105ef565b60408051918252519081900360200190f35b34801561024757600080fd5b506102506105f5565b60408051600160a060020a039092168252519081900360200190f35b34801561027857600080fd5b50610229610604565b34801561028d57600080fd5b5061025061060a565b3480156102a257600080fd5b506101eb600480360360a08110156102b957600080fd5b8101906020810181356401000000008111156102d457600080fd5b8201836020820111156102e657600080fd5b8035906020019184602083028401116401000000008311171561030857600080fd5b919080806020026020016040519081016040528093929190818152602001838360200280828437600092019190915250929594936020810193503591505064010000000081111561035857600080fd5b82018360208201111561036a57600080fd5b8035906020019184602083028401116401000000008311171561038c57600080fd5b9190808060200260200160405190810160405280939291908181526020018383602002808284376000920191909152509295505082359350505060208101359060400135610619565b3480156103e157600080fd5b506101eb610ac7565b3480156103f657600080fd5b50610250610ad5565b34801561040b57600080fd5b50610229610ae4565b34801561042057600080fd5b50610229610aea565b34801561043557600080fd5b50610250610af0565b34801561044a57600080fd5b50610229610b06565b34801561045f57600080fd5b50610250610b0c565b34801561047457600080fd5b50610229610b1b565b34801561048957600080fd5b50610229610b21565b34801561049e57600080fd5b506101eb610b27565b3480156104b357600080fd5b50610250610b30565b3480156104c857600080fd5b50610229610b3f565b3480156104dd57600080fd5b506104fb600480360360208110156104f457600080fd5b5035610b45565b005b6104fb610d8f565b34801561051157600080fd5b50610229610fe8565b34801561052657600080fd5b506104fb6004803603602081101561053d57600080fd5b5035610fee565b34801561055057600080fd5b506101eb6110ae565b34801561056557600080fd5b506104fb6110d2565b34801561057a57600080fd5b506104fb6112b3565b34801561058f57600080fd5b506104fb6114c8565b3480156105a457600080fd5b506102296117f9565b3480156105b957600080fd5b506102506117ff565b3480156105ce57600080fd5b5061022961180e565b600c5460ff1690565b600c5462010000900460ff1681565b600a5481565b600454600160a060020a031681565b600e5481565b600254600160a060020a031681565b600254600090600160a060020a031615801590610637575060003031115b151561064257600080fd5b600354604080517f2537127f0000000000000000000000000000000000000000000000000000000081529051600092600160a060020a031691632537127f916004808301926020929190829003018186803b1580156106a057600080fd5b505afa1580156106b4573d6000803e3d6000fd5b505050506040513d60208110156106ca57600080fd5b5051905061707f19810142106106df57600080fd5b600554604080517fdd62ed3e00000000000000000000000000000000000000000000000000000000815233600482015230602482015290516101f48604860192600160a060020a03169163dd62ed3e916044808301926020929190829003018186803b15801561074e57600080fd5b505afa158015610762573d6000803e3d6000fd5b505050506040513d602081101561077857600080fd5b5051101561078557600080fd5b600854831161079357600080fd5b6000600460009054906101000a9004600160a060020a0316600160a060020a031663fa7402c96040518163ffffffff1660e060020a02815260040160206040518083038186803b1580156107e657600080fd5b505afa1580156107fa573d6000803e3d6000fd5b505050506040513d602081101561081057600080fd5b5051600c5490915060ff161515600114801561082c5750600d54155b80156108385750600e54155b1561093557600c80546001805476ffffffffffffffffffffffffffffffffffffffff0000ff19909216600160a060020a0380841663010000009081029290921794859055600d869055600e8990553373ffffffffffffffffffffffffffffffffffffffff199094168417909255426009556005546040805160e060020a6323b872dd0281526004810195909552919094048216602484015260448301889052519216916323b872dd916064808201926020929091908290030181600087803b15801561090357600080fd5b505af1158015610917573d6000803e3d6000fd5b505050506040513d602081101561092d57600080fd5b50610ab99050565b600c5460ff161580156109495750600e5484115b80156109565750600d5481145b156101d15760018054600e8054908790553373ffffffffffffffffffffffffffffffffffffffff1983168117909355426009556005546040805160e060020a6323b872dd0281526004810195909552600160a060020a039384166024860181905260448601849052905190949293909116916323b872dd9160648083019260209291908290030181600087803b1580156109ef57600080fd5b505af1158015610a03573d6000803e3d6000fd5b505050506040513d6020811015610a1957600080fd5b5050600554600c546040805160e060020a6323b872dd0281523360048201526301000000909204600160a060020a039081166024840152848a03604484015290519216916323b872dd916064808201926020929091908290030181600087803b158015610a8557600080fd5b505af1158015610a99573d6000803e3d6000fd5b505050506040513d6020811015610aaf57600080fd5b50610ab992505050565b506001979650505050505050565b600c54610100900460ff1681565b600354600160a060020a031681565b60085490565b60085481565b600c5463010000009004600160a060020a031681565b60075481565b600554600160a060020a031681565b600d5481565b60065490565b600c5460ff1681565b600154600160a060020a031681565b60075490565b600254600160a060020a031615801590610b60575060003031115b1515610b6b57600080fd5b600154600160a060020a03163314610bbb576040805160e560020a62461bcd0281526020600482015260096024820152600080516020611815833981519152604482015290519081900360640190fd5b600354604080517f2537127f0000000000000000000000000000000000000000000000000000000081529051600092600160a060020a031691632537127f916004808301926020929190829003018186803b158015610c1957600080fd5b505afa158015610c2d573d6000803e3d6000fd5b505050506040513d6020811015610c4357600080fd5b5051905061707f1981014210610c5857600080fd5b600c5460ff1615610cb3576040805160e560020a62461bcd02815260206004820152601a60248201527f63616e206f6e6c7920707574206f6e2053746f636b206f6e6365000000000000604482015290519081900360640190fd5b600360009054906101000a9004600160a060020a0316600160a060020a03166364da7e246040518163ffffffff1660e060020a02815260040160206040518083038186803b158015610d0457600080fd5b505afa158015610d18573d6000803e3d6000fd5b505050506040513d6020811015610d2e57600080fd5b5051821015610d3c57600080fd5b50600c80546008929092556001805460ff199093161776ffffffffffffffffffffffffffffffffffffffff0000001916600160a060020a039092166301000000029190911790556000600d819055600e55565b600354604080517fba2eb5410000000000000000000000000000000000000000000000000000000081523060048201529051600160a060020a039092169163ba2eb54191602480820192602092909190829003018186803b158015610df357600080fd5b505afa158015610e07573d6000803e3d6000fd5b505050506040513d6020811015610e1d57600080fd5b505115610e74576040805160e560020a62461bcd02815260206004820152601160248201527f6e6f772063616e20657863657263697365000000000000000000000000000000604482015290519081900360640190fd5b600254600160a060020a031615610ed5576040805160e560020a62461bcd02815260206004820152601760248201527f6f74686572732066696c6c2045544820616c7265616479000000000000000000604482015290519081900360640190fd5b6006543414610f185760405160e560020a62461bcd0281526004018080602001828103825260238152602001806118356023913960400191505060405180910390fd5b6002805473ffffffffffffffffffffffffffffffffffffffff19163390811790915542600955600c805460ff19169055600554600854604080517fa9059cbb0000000000000000000000000000000000000000000000000000000081526004810194909452602484019190915251600160a060020a03919091169163a9059cbb9160448083019260209291908290030181600087803b158015610fba57600080fd5b505af1158015610fce573d6000803e3d6000fd5b505050506040513d6020811015610fe457600080fd5b5050565b60065481565b600154600160a060020a0316331461103e576040805160e560020a62461bcd0281526020600482015260096024820152600080516020611815833981519152604482015290519081900360640190fd5b600854811061104c57600080fd5b600a546009540142116110a9576040805160e560020a62461bcd02815260206004820152601760248201527f63616e6e6f74206f70657261746520746f6f20736f6f6e000000000000000000604482015290519081900360640190fd5b600855565b600254600090600160a060020a0316158015906110cd57506006543031145b905090565b600154600160a060020a03163314611122576040805160e560020a62461bcd0281526020600482015260096024820152600080516020611815833981519152604482015290519081900360640190fd5b600354604080517fba2eb5410000000000000000000000000000000000000000000000000000000081523060048201529051600160a060020a039092169163ba2eb54191602480820192602092909190829003018186803b15801561118657600080fd5b505afa15801561119a573d6000803e3d6000fd5b505050506040513d60208110156111b057600080fd5b5051151560011461120b576040805160e560020a62461bcd02815260206004820152601760248201527f63616e206e6f206c6f6e67657220657863657263697365000000000000000000604482015290519081900360640190fd5b600254600160a060020a03161561122157600080fd5b600054600160a060020a0316331461123857600080fd5b600354604080517f996916500000000000000000000000000000000000000000000000000000000081529051600160a060020a039092169163996916509160048082019260009290919082900301818387803b15801561129757600080fd5b505af11580156112ab573d6000803e3d6000fd5b503392505050ff5b600354604080517fba2eb5410000000000000000000000000000000000000000000000000000000081523060048201529051600160a060020a039092169163ba2eb54191602480820192602092909190829003018186803b15801561131757600080fd5b505afa15801561132b573d6000803e3d6000fd5b505050506040513d602081101561134157600080fd5b5051151560011461139c576040805160e560020a62461bcd02815260206004820152601760248201527f63616e206e6f206c6f6e67657220657863657263697365000000000000000000604482015290519081900360640190fd5b600254600160a060020a031633146113fe576040805160e560020a62461bcd02815260206004820152601a60248201527f6f6e6c792065746853656c6c65722063616e2063616c6c206974000000000000604482015290519081900360640190fd5b600c5462010000900460ff161561145f576040805160e560020a62461bcd02815260206004820152601160248201527f616c726561647920657865726369736564000000000000000000000000000000604482015290519081900360640190fd5b600c805460ff19169055600354604080517f996916500000000000000000000000000000000000000000000000000000000081529051600160a060020a039092169163996916509160048082019260009290919082900301818387803b15801561129757600080fd5b600154600160a060020a03163314611518576040805160e560020a62461bcd0281526020600482015260096024820152600080516020611815833981519152604482015290519081900360640190fd5b600354604080517f2537127f0000000000000000000000000000000000000000000000000000000081529051600092600160a060020a031691632537127f916004808301926020929190829003018186803b15801561157657600080fd5b505afa15801561158a573d6000803e3d6000fd5b505050506040513d60208110156115a057600080fd5b5051600c5490915060ff161580156115b757508042105b806115d05750617080810342101580156115d057508042105b15156115db57600080fd5b600a54600954014211611638576040805160e560020a62461bcd02815260206004820152601760248201527f63616e6e6f74206f70657261746520746f6f20736f6f6e000000000000000000604482015290519081900360640190fd5b600754600554604080517fdd62ed3e0000000000000000000000000000000000000000000000000000000081523360048201523060248201529051600160a060020a039092169163dd62ed3e91604480820192602092909190829003018186803b1580156116a557600080fd5b505afa1580156116b9573d6000803e3d6000fd5b505050506040513d60208110156116cf57600080fd5b505110156116dc57600080fd5b600c805462ff00ff191662010000179055600354604080517f996916500000000000000000000000000000000000000000000000000000000081529051600160a060020a039092169163996916509160048082019260009290919082900301818387803b15801561174c57600080fd5b505af1158015611760573d6000803e3d6000fd5b50506005546002546007546040805160e060020a6323b872dd028152336004820152600160a060020a0393841660248201526044810192909252519190921693506323b872dd925060648083019260209291908290030181600087803b1580156117c957600080fd5b505af11580156117dd573d6000803e3d6000fd5b505050506040513d60208110156117f357600080fd5b50339050ff5b600b5481565b600054600160a060020a031681565b6009548156fe6e6f74206f776e657200000000000000000000000000000000000000000000006e65656420746f206465706f73697420657861637420616d6f756e74206f6620455448a165627a7a72305820a72e20e640358a420fc356f2bc30d7d34d4ff54a0943930c3a5f9dafd9d969ca0029a165627a7a72305820c4d2344f083751afbaeaf0b0d7c7fbd243b33c678df84c2a8d3e7bf644d9c6620029",
  "source": "pragma solidity ^0.5.2;\n\nimport \"./ERC20.sol\";\nimport \"./Optract.sol\";\n//import \"./SafeMath.sol\";\n\n// todo: memberOnly\n\ncontract OptractRegistry { // PoC ETH-DAI Optract\n\taddress[3] public operators;\n\taddress public currencyTokenAddr; // presumably 'DAI'\n\taddress public blkAddr; // side-chain merkle records\n\tuint public constant optionMinPrice = 5000000000000000000; // 5 DAIs\n\tuint public totalOpts = 0;\n\tbool public paused = false;\n\n\tstruct optractRecord {\n\t        uint id;\n\t\tuint expiredTime; // timestamp\n\t\taddress initialOwner; \n\t}\n\n\tmapping (uint => address) optractRecordsByIndex;\n\tmapping (address => optractRecord) optractRecordsByAddress;\n\n\t// Modifiers\n\tmodifier operatorOnly() {\n\t\trequire(msg.sender == operators[0] || msg.sender == operators[1] || msg.sender == operators[2]);\n\t\t_;\n\t}\n\n\tmodifier notPaused() {\n\t\trequire(paused == false);\n\t\t_;\n\t}\n\n\t// Constructor\n\tconstructor(address _currencyTokenAddr, address _blkAddr) public {\n\t\toperators[0] = msg.sender;\n\t\tcurrencyTokenAddr = _currencyTokenAddr;\n\t\tblkAddr = _blkAddr;\n\t}\n\n\tfunction createOptract(uint256 ETHAmount, uint256 totalPrice, uint period, uint optionPrice) external notPaused {\n\t        require(optionPrice >= optionMinPrice);\n                require(ERC20(currencyTokenAddr).allowance(msg.sender, address(this)) >= optionPrice);\n                // require(period * 1 days >= 30 days && period * 1 days <= 365 days);\n                // require(ETHAmount >= 3 ether);\n                // for debug purpose, use ridiculously small values:\n                require(period * 1 days >= 1 days && period * 1 days <= 365 days);\n                require(ETHAmount >= 3 wei);\n\n\t\toptractRecord memory optRcd;\n                totalOpts = totalOpts + 1;\n                Optract opt = new Optract(ETHAmount, totalPrice, optionPrice, address(this), msg.sender, blkAddr, currencyTokenAddr);\n\n                require(ERC20(currencyTokenAddr).transferFrom(msg.sender, address(opt), optionPrice));\n\n                optRcd.id = totalOpts;\n                optRcd.expiredTime = block.timestamp + period * 1 days;\n                optRcd.initialOwner = msg.sender;\n\n                optractRecordsByIndex[totalOpts] = address(opt); // mapping start from uint key = 1\n                optractRecordsByAddress[address(opt)] = optRcd;\n\t}\n\n\tfunction destructRecord() external {\n                uint i = optractRecordsByAddress[msg.sender].id;\n                delete optractRecordsByIndex[i];\n                if (i != totalOpts){\n                        optractRecordsByAddress[optractRecordsByIndex[totalOpts]].id = i;\n                        optractRecordsByIndex[i] = optractRecordsByIndex[totalOpts];\n                        delete optractRecordsByIndex[totalOpts];\n                }\n                delete optractRecordsByAddress[msg.sender];\n                totalOpts -= 1;\n        }\n\n\t// Constant functions\n\tfunction queryOptionMinPrice() public view returns (uint) {\n\t        return optionMinPrice;\n        }\n\n\tfunction isExpired(address optractAddress) public view returns (bool) {\n\t\treturn block.timestamp > optractRecordsByAddress[optractAddress].expiredTime;\n\t}\n\n\tfunction getExpireTime() public view returns (uint) {\n\t\trequire(optractRecordsByAddress[msg.sender].expiredTime >= block.timestamp);\n\t\trequire(optractRecordsByAddress[msg.sender].initialOwner != address(0));\n\n\t\treturn optractRecordsByAddress[msg.sender].expiredTime;\n\t}\n\n        function queryOptractRecords(address _addr) external view returns (uint, uint, address) {\n                return (optractRecordsByAddress[_addr].id,\n                        optractRecordsByAddress[_addr].expiredTime,\n                        optractRecordsByAddress[_addr].initialOwner);\n        }\n\n        // Constant functions: list active and inactive optracts\n        function _getNumOfActiveOptracts(uint start, uint length, address owner) public view returns (uint) {\n\t        // will be internal function so don't check requirements\n\t        uint activeLength = 0;\n\t\tif (start + length - 1 > totalOpts) {\n\t\t\tlength = totalOpts - start + 1;\n\t\t}\n\n\t\tif (owner == address(0)) { // list all orders\n\t\t\tfor (uint i = start; i <= start + length - 1; i++) {\n\t\t\t\tif (Optract(optractRecordsByIndex[i]).queryOnStock() == false\n\t\t\t\t    || optractRecordsByAddress[optractRecordsByIndex[i]].expiredTime - 8 hours <= block.timestamp) continue;\n\t\t\t\tactiveLength = activeLength + 1;\n\t\n\t\t\t}\n\t\t} else { // list only those initialized by owner\n\t\t\tfor (uint i = start; i <= start + length - 1; i++) {\n\t\t\t\tif (optractRecordsByAddress[optractRecordsByIndex[i]].initialOwner != owner) continue;\n\t\t\t\tif (Optract(optractRecordsByIndex[i]).queryOnStock() == false\n\t\t\t\t    || optractRecordsByAddress[optractRecordsByIndex[i]].expiredTime - 8 hours <= block.timestamp) continue;\n\t\t\t\tactiveLength = activeLength + 1;\n\t\t\t}\n\t\t}\n\t\treturn activeLength;\n        }\n\n        function activeOptractsLoop(uint start, uint length, address owner, uint8 _idx) public view returns (uint[] memory) {\n                require(_idx >= 1 && _idx <= 4, \"unknown optract characteristics\");\n                // _idx: {1: expTimeList, 2: priceList, 3:ETHList, 4: opriceList}\n\t\tif (start + length - 1 > totalOpts) {\n\t\t\tlength = totalOpts - start + 1;\n\t\t}\n                uint activeLength = _getNumOfActiveOptracts(start, length, owner);\n\t\tuint[] memory returnList = new uint[](activeLength);\n\t\tuint count = 0;\n\n\t\tif (owner == address(0)) { // list all orders\n\t\t\tfor (uint i = start; i <= start + length - 1; i++) {\n\t\t\t\tif (Optract(optractRecordsByIndex[i]).queryOnStock() == false || optractRecordsByAddress[optractRecordsByIndex[i]].expiredTime - 8 hours <= block.timestamp) continue;\n\t\n\t                        if (_idx == 1) {\n                                        returnList[count] = optractRecordsByAddress[optractRecordsByIndex[i]].expiredTime;\n                                } else if (_idx == 2) {\n                                        returnList[count] = Optract(optractRecordsByIndex[i]).queryOrderPrice();\n                                } else if (_idx == 3) {\n\t\t\t\t        returnList[count] = Optract(optractRecordsByIndex[i]).queryOrderSize();\n                                } else if (_idx == 4) {\n                                        returnList[count] = Optract(optractRecordsByIndex[i]).queryOptionPrice();\n                                }\n\t\t\t\tcount += 1;\n\t\t\t}\n\t\t} else { // list only those initialized by owner\n\t\t\tfor (uint i = start; i <= start + length - 1; i++) {\n\t\t\t\tif (optractRecordsByAddress[optractRecordsByIndex[i]].initialOwner != owner) continue;\n\t\t\t\tif (Optract(optractRecordsByIndex[i]).queryOnStock() == false || optractRecordsByAddress[optractRecordsByIndex[i]].expiredTime - 8 hours <= block.timestamp) continue;\n\t                        if (_idx == 1) {\n                                        returnList[count] = optractRecordsByAddress[optractRecordsByIndex[i]].expiredTime;\n                                } else if (_idx == 2) {\n                                        returnList[count] = Optract(optractRecordsByIndex[i]).queryOrderPrice();\n                                } else if (_idx == 3) {\n\t\t\t\t        returnList[count] = Optract(optractRecordsByIndex[i]).queryOrderSize();\n                                } else if (_idx == 4) {\n                                        returnList[count] = Optract(optractRecordsByIndex[i]).queryOptionPrice();\n                                }\n\t\t\t\tcount += 1;\n\t\t\t}\n\t\t}\n\t\treturn returnList;\n        }\n\n\tfunction activeOptractsFilledStatus(uint start, uint length, address owner) public view returns (address[] memory, bool[] memory) {\n\t        // will be internal function so don't check requirements\n\t\tif (start + length - 1 > totalOpts) {\n\t\t\tlength = totalOpts - start + 1;\n\t\t}\n\n                uint activeLength = _getNumOfActiveOptracts(start, length, owner);\n\t\taddress[] memory addrlist = new address[](activeLength);\n\t\tbool[] memory filled = new bool[](activeLength);\n\t\tuint count = 0;\n\n\t\tif (owner == address(0)) { // list all orders\n\t\t\tfor (uint i = start; i <= start + length - 1; i++) {\n\t\t\t\taddress optAddr = optractRecordsByIndex[i];\n\t\t\t\tif (Optract(optAddr).queryOnStock() == false || optractRecordsByAddress[optAddr].expiredTime - 8 hours <= block.timestamp) continue;\n\t\n\t\t\t\tif (optAddr.balance == Optract(optAddr).queryOrderSize()) {  // or \">=\"?\n\t\t\t\t\tfilled[count] = true;\n\t\t\t\t} else {\n\t\t\t\t\tfilled[count] = false;\n\t\t\t\t}\n\t\t\t\taddrlist[count] = optAddr;\n\t\t\t\tcount += 1;\n\t\t\t}\n\t\t} else { // list only those initialized by owner\n\t\t\tfor (uint i = start; i <= start + length - 1; i++) {\n\t\t\t\taddress optAddr = optractRecordsByIndex[i];\n\t\t\t\tif (optractRecordsByAddress[optAddr].initialOwner != owner) continue;\n\t\t\t\tif (Optract(optAddr).queryOnStock() == false || optractRecordsByAddress[optAddr].expiredTime - 8 hours <= block.timestamp) continue;\n\t\n\t\t\t\tif (optAddr.balance == Optract(optAddr).queryOrderSize()) {\n\t\t\t\t\tfilled[count] = true;\n\t\t\t\t} else {\n\t\t\t\t\tfilled[count] = false;\n\t\t\t\t}\n\t\t\t\taddrlist[count] = optAddr;\n\t\t\t\tcount += 1;\n\t\t\t}\n\t\t}\n\t\treturn (addrlist, filled);\n\t}\n\n\tfunction activeOptracts(uint start, uint length, address owner) public view returns (\n\t\taddress[] memory,\n\t\t   uint[] memory,\n\t\t   uint[] memory,\n\t\t   uint[] memory,\n\t\t   uint[] memory,\n\t           bool[] memory)\n\t{\n\t\trequire(start > 0 && length > 0);\n\t\trequire(totalOpts > 0 && totalOpts >= start);\n\t\tif (start + length - 1 > totalOpts) {\n\t\t\tlength = totalOpts - start + 1;\n\t\t}\n\n\t\taddress[] memory addrlist = new address[](_getNumOfActiveOptracts(start, length, owner));\n\t\tuint[] memory expTimeList= new uint[](_getNumOfActiveOptracts(start, length, owner));\n\t\tuint[] memory priceList = new uint[](_getNumOfActiveOptracts(start, length, owner));\n\t\tuint[] memory ETHList = new uint[](_getNumOfActiveOptracts(start, length, owner));\n\t\tuint[] memory opriceList = new uint[](_getNumOfActiveOptracts(start, length, owner));\n\t\tbool[] memory filled = new bool[](_getNumOfActiveOptracts(start, length, owner));  // stack too deep if include this one\n\n                // assume all the following function calls return same order\n\t\texpTimeList = activeOptractsLoop(start, length, owner, 1);\n\t\tpriceList = activeOptractsLoop(start, length, owner, 2);\n\t\tETHList = activeOptractsLoop(start, length, owner, 3);\n\t\topriceList = activeOptractsLoop(start, length, owner, 4);\n\t\t(addrlist, filled) = activeOptractsFilledStatus(start, length, owner);\n\t\treturn (addrlist, expTimeList, priceList, ETHList, opriceList, filled);\n        }\n\n\n        function _getNumOfInActiveOptracts(uint start, uint length, address owner) public view returns (uint) {\n\t        // will be internal function so don't check requirements\n\t        uint inactiveLength = 0;\n\t\tif (start + length - 1 > totalOpts) {\n\t\t\tlength = totalOpts - start + 1;\n\t\t}\n\n\t\tif (owner == address(0)) { // list all orders\n\t\t\tfor (uint i = start; i <= start + length - 1; i++) {\n\t\t\t\tif (Optract(optractRecordsByIndex[i]).queryOnStock() == false\n\t\t\t\t    || optractRecordsByAddress[optractRecordsByIndex[i]].expiredTime - 8 hours <= block.timestamp)\n\t\t\t\t{\n\t\t\t\t        inactiveLength +=1;\n                                }\n\t\n\t\t\t}\n\t\t} else { // list only those initialized by owner\n\t\t\tfor (uint i = start; i <= start + length - 1; i++) {\n\t\t\t\tif (optractRecordsByAddress[optractRecordsByIndex[i]].initialOwner != owner) continue;\n\t\t\t\tif (Optract(optractRecordsByIndex[i]).queryOnStock() == false\n\t\t\t\t    || optractRecordsByAddress[optractRecordsByIndex[i]].expiredTime - 8 hours <= block.timestamp)\n                                {\n\t\t\t\t        inactiveLength += 1;\n                                }\n\t\t\t}\n\t\t}\n\t\treturn inactiveLength;\n        }\n\n        function inactiveOptractsLoop(uint start, uint length, address owner, uint8 _idx) public view returns (uint[] memory) {\n                require(_idx >= 1 && _idx <= 4, \"unknow optract chracteristics\");\n                // _idx: {1: expTimeList, 2: priceList, 3:ETHList, 4: opriceList}\n\t\tif (start + length - 1 > totalOpts) {\n\t\t\tlength = totalOpts - start + 1;\n\t\t}\n                uint inactiveLength = _getNumOfInActiveOptracts(start, length, owner);\n\t\tuint[] memory returnList = new uint[](inactiveLength);\n\t\tif (inactiveLength == 0) return (returnList);\n\t\tuint count = 0;\n\n\t\tif (owner == address(0)) { // list all orders\n\t\t\tfor (uint i = start; i <= start + length - 1; i++) {\n\t\t\t\tif (Optract(optractRecordsByIndex[i]).queryOnStock() == false\n\t\t\t\t    || optractRecordsByAddress[optractRecordsByIndex[i]].expiredTime - 8 hours <= block.timestamp)\n\n\t\t\t\t{\n                                        if (_idx == 1) {\n                                                returnList[count] = optractRecordsByAddress[optractRecordsByIndex[i]].expiredTime;\n                                        } else if (_idx == 2) {\n                                                returnList[count] = Optract(optractRecordsByIndex[i]).queryOrderPrice();\n                                        } else if (_idx == 3) {\n                                                returnList[count] = Optract(optractRecordsByIndex[i]).queryOrderSize();\n                                        } else if (_idx == 4) {\n                                                returnList[count] = Optract(optractRecordsByIndex[i]).queryOptionPrice();\n                                        }\n                                        count += 1;\n                                }\n\t\t\t}\n\t\t} else { // list only those initialized by owner\n\t\t\tfor (uint i = start; i <= start + length - 1; i++) {\n\t\t\t\tif (optractRecordsByAddress[optractRecordsByIndex[i]].initialOwner != owner) continue;\n\t\t\t\tif (Optract(optractRecordsByIndex[i]).queryOnStock() == false\n\t\t\t\t    || optractRecordsByAddress[optractRecordsByIndex[i]].expiredTime - 8 hours <= block.timestamp)\n                                {\n                                        if (_idx == 1) {\n                                                returnList[count] = optractRecordsByAddress[optractRecordsByIndex[i]].expiredTime;\n                                        } else if (_idx == 2) {\n                                                returnList[count] = Optract(optractRecordsByIndex[i]).queryOrderPrice();\n                                        } else if (_idx == 3) {\n                                                returnList[count] = Optract(optractRecordsByIndex[i]).queryOrderSize();\n                                        } else if (_idx == 4) {\n                                                returnList[count] = Optract(optractRecordsByIndex[i]).queryOptionPrice();\n                                        }\n                                        count += 1;\n                                }\n\t\t\t}\n\t\t}\n\t\treturn returnList;\n        }\n\n\tfunction inactiveOptractsFilledStatus(uint start, uint length, address owner) public view returns (address[] memory, bool[] memory) {\n\t        // will be internal function so don't check requirements\n\t\tif (start + length - 1 > totalOpts) {\n\t\t\tlength = totalOpts - start + 1;\n\t\t}\n\n                uint inactiveLength = _getNumOfInActiveOptracts(start, length, owner);\n\t\taddress[] memory addrlist = new address[](inactiveLength);\n\t\tbool[] memory filled = new bool[](inactiveLength);\n\t\tif (inactiveLength == 0) return (addrlist, filled);\n\t\tuint count = 0;\n\n\t\tif (owner == address(0)) { // list all orders\n\t\t\tfor (uint i = start; i <= start + length - 1; i++) {\n\t\t\t\taddress optAddr = optractRecordsByIndex[i];\n\t\t\t\tif (Optract(optAddr).queryOnStock() == false\n\t\t\t\t    || optractRecordsByAddress[optAddr].expiredTime - 8 hours <= block.timestamp)\n                                {\n                                        if (optAddr.balance == Optract(optAddr).queryOrderSize()) {\n                                                filled[count] = true;\n                                        } else {\n                                                filled[count] = false;\n                                        }\n                                        addrlist[count] = optAddr;\n                                        count += 1;\n                                }\n\t\t\t}\n\t\t} else { // list only those initialized by owner\n\t\t\tfor (uint i = start; i <= start + length - 1; i++) {\n\t\t\t\taddress optAddr = optractRecordsByIndex[i];\n\t\t\t\tif (optractRecordsByAddress[optAddr].initialOwner != owner) continue;\n\t\t\t\tif (Optract(optAddr).queryOnStock() == false\n\t\t\t\t    || optractRecordsByAddress[optAddr].expiredTime - 8 hours <= block.timestamp)\n                                {\n                                        if (optAddr.balance == Optract(optAddr).queryOrderSize()) {\n                                                filled[count] = true;\n                                        } else {\n                                                filled[count] = false;\n                                        }\n                                        addrlist[count] = optAddr;\n                                        count += 1;\n                                }\n\t\n\t\t\t}\n\t\t}\n\t\treturn (addrlist, filled);\n\t}\n\n\tfunction inactiveOptracts(uint start, uint length, address owner) public view returns (\n\t\taddress[] memory,\n\t\t   uint[] memory,\n\t\t   uint[] memory,\n\t\t   uint[] memory,\n\t\t   uint[] memory,\n\t           bool[] memory)\n\t{\n\t\trequire(start > 0 && length > 0);\n\t\trequire(totalOpts > 0 && totalOpts >= start);\n\n\t\tif (start + length - 1 > totalOpts) {\n\t\t\tlength = totalOpts - start + 1;\n\t\t}\n\n\t\taddress[] memory addrlist = new address[](_getNumOfInActiveOptracts(start, length, owner));\n\t\tuint[] memory expTimeList= new uint[](_getNumOfInActiveOptracts(start, length, owner));\n\t\tuint[] memory priceList = new uint[](_getNumOfInActiveOptracts(start, length, owner));\n\t\tuint[] memory ETHList = new uint[](_getNumOfInActiveOptracts(start, length, owner));\n\t\tuint[] memory opriceList = new uint[](_getNumOfInActiveOptracts(start, length, owner));\n\t\tbool[] memory filled = new bool[](_getNumOfInActiveOptracts(start, length, owner));\n\n                // assume all the following function calls return same order\n\t\texpTimeList = inactiveOptractsLoop(start, length, owner, 1);\n\t\tpriceList = inactiveOptractsLoop(start, length, owner, 2);\n\t\tETHList = inactiveOptractsLoop(start, length, owner, 3);\n\t\topriceList = inactiveOptractsLoop(start, length, owner, 4);\n\t\t(addrlist, filled) = inactiveOptractsFilledStatus(start, length, owner);\n\t\treturn (addrlist, expTimeList, priceList, ETHList, opriceList, filled);\n        }\n\n}\n",
  "sourcePath": "/home/kai/Work/project/Optract/contracts/OptractRegistry.sol",
  "compiler": {
    "name": "solc",
    "version": "0.5.2+commit.1df8f40c.Linux.g++"
  },
  "schemaVersion": "3.0.1",
  "updatedAt": "2019-03-13T13:55:18.861Z",
  "devdoc": {
    "methods": {}
  },
  "userdoc": {
    "methods": {}
  }
}